:100000000000012089030000710300007303000059
:100010007503000077030000790300000000000072
:100020000000000000000000000000007B03000052
:100030007D030000000000007F030000810300003A
:10004000552C000083030000ED3100008303000005
:100050008303000083030000E930000083030000F5
:100060008303000083030000830300008303000078
:100070008303000083030000830300008303000068
:1000800083030000991B000083030000830300002A
:100090008303000083030000830300008303000048
:1000A0008303000083030000830300008303000038
:1000B000513D00008303000000000000000000002C
:1000C00083030000693D0000813D000083030000C0
:1000D000830300008303000083030000000000008E
:1000E0000000000000000000000000000000000010
:1000F0000000000000000000000000000000000000
:1001000000000000000000000000000000000000EF
:1001100000000000000000000000000000000000DF
:1001200000000000000000000000000000000000CF
:1001300000000000000000000000000000000000BF
:1001400000000000000000000000000000000000AF
:10015000000000000000000000000000000000009F
:10016000000000000000000000000000000000008F
:10017000000000000000000000000000000000007F
:10018000000000000000000000000000000000006F
:10019000000000000000000000000000000000005F
:1001A000000000000000000000000000000000004F
:1001B000000000000000000000000000000000003F
:1001C000000000000000000000000000000000002F
:1001D000000000000000000000000000000000001F
:1001E000000000000000000000000000000000000F
:1001F00000000000000000000000000000000000FF
:100200003A493B480A1A02D0072291438D463949A0
:1002100039480A1A06D00722914381F3098802223D
:1002200082F3148835483649364A00F041F836489A
:100230003649374A00F03CF836483749374A00F02B
:1002400037F837483749384A00F032F837483849E4
:10025000384A00F02DF838483849394A00F028F873
:1002600038483949394A00F023F8394839490022D9
:1002700000F036F838483949002200F031F83848A3
:100280003849091A05F0F2FE374A904725482649B1
:10029000884205D00268043003B4904703BCF7E7F6
:1002A00000208646EC4600200021304A9047FEE7B9
:1002B000884214D0521A12D003460B43134303242E
:1002C000234206D1036804300B600431043AF9D1AB
:1002D0007047037801300B700131013AF9D1704752
:1002E000884202D002700130FAE770470000012016
:1002F00000E0002000000120000001205C720000EE
:10030000000000207C000020E4030000E403000063
:10031000E26100005C72000000000020000000208C
:1003200060620000606200006062000060620000C5
:1003300060620000606200006062000060620000B5
:1003400059720000D87200007C0000207C00002060
:100350007C000020F4080020F4080020F4080020AD
:10036000F4080020F4280020B103000061570000C9
:10037000FEE7FEE7FEE7FEE7FEE7FEE7FEE7FEE755
:10038000FEE7FEE700F002B8FFF7FCBF0F484FF0B2
:100390000701884385460E4880470E48016841F4AE
:1003A00070010160BFF34F8FBFF36F8FFFF728BF5E
:1003B00009480A490A4A884207D0521A05D00378E8
:1003C00001300B700131013AF9D170470000012072
:1003D000C15D000088ED00E06062000000000020C8
:0403E00000000020F9
:1003E40000B5A1B00590049103920293049802F021
:1003F400EFF9039B1593029B169300231793002395
:100404008DF8603000231993229B1A9300231F93C5
:100414000FA91F9B0822049802F0B4FA08231F9323
:10042400119B1293BDF84030ADF84C30BDF842300A
:10043400ADF84E3000238DF851309DF83C3003F078
:100444000303DBB2012B26D10F9BC3F395231C932B
:100454009DF83C30C3F3C203DBB28DF85030BDF8D5
:100464003C30C3F38313DBB21B931B9B9A0009A993
:100474001F9B049802F086FA1B9B9B001F9A13444F
:100484001F9312AA09A915AB009313461B9A1C9833
:1004940000F0D0FF2FE09DF83C3003F00303DBB203
:1004A400022B28D1BDF83E30C3F389139BB21E93AF
:1004B4009DF83C30C3F3C203DBB28DF850301E9B71
:1004C400082B28BF08231D9307A91F9B1D9A049876
:1004D40002F058FA1F9A1D9B13441F931E9A1D9BEA
:1004E400D31A1E9315AB12AA07A81D9901F044F85C
:1004F4001E9B002BE3D1049802F079F900BF21B0D0
:100504005DF804FB00B583B00190019B1B781A468B
:100514000C4B9B5C002B05D0019B0433184604F064
:100524006BFE0BE0019B1B781A46064B9B5C002B71
:1005340004D1019B0C33184603F0FCFF00BF03B049
:100544005DF804FB8006002000B587B0039002919B
:1005540013468DF8073000230593039B1B781A4636
:10056400114B9B5C002B09D0039B04339DF807209F
:100574000299184604F0A2FE05900FE0039B1B7835
:100584001A46094B9B5C002B08D1039B0C339DF846
:1005940007200299184604F045F80590059B184673
:1005A40007B05DF804FB00BF8006002082B0019014
:1005B4000091034B01221A7000BF02B0704700BFC4
:1005C400BC00002030B58DB003468DF807301A4BBF
:1005D40002AC1D460FCD0FC495E80F0084E80F0050
:1005E400062302934FF0FF3303934FF0FF3304933A
:1005F4004FF0FF3305934FF0EB7308939DF80730EA
:10060400002B01D00D4A00E0002202AB19460C4831
:1006140002F08EFA0B900B9B0A930A9B002B04D0DA
:10062400084A43210A9801F0C1F9074A9DF80730A6
:10063400137000BF0DB030BDA8620000B10500000A
:100644000000002060620000BD00002000B583B0FF
:1006540001238DF807309DF807301846FFF7B2FFE5
:1006640000BF03B05DF804FB00B589B003900291AC
:100674000192019B8DF81F30124B00221A709DF8D5
:100684001F301A4602991048FFF75EFF0690069B3A
:100694000593059B002B04D00C4A5321059801F0C7
:1006A40085F900BF0A4B1B78002B07D0054B1B783C
:1006B400DBB283F00103DBB2002BF3D100BF09B03E
:1006C4005DF804FBBC000020000000206062000014
:1006D400BD00002000B585B003900291054B009346
:1006E4004023054A02990398FFF77AFE00BF05B03C
:1006F4005DF804FB6D0600007C00002082B00190D0
:1007040000BF02B07047000000B583B001900548F7
:10071400FFF7F8FE0020FFF755FF00BF03B05DF8B8
:1007240004FB00BF0000002082B00190019BDB6845
:1007340001225A7100BF02B07047000000B583B0B7
:100744004FF0FF330193FFF781FF0421084800F0C5
:100754008DFD0190019B002B03DA0649482001F02E
:1007640027FA0348FFF7E0FF00BF03B05DF804FB7E
:100774003C620000E862000000B583B00190009183
:10078400019B1B681B6800990198984700BF03B040
:100794005DF804FB00B583B00190019B1B685B68A6
:1007A4000198984700BF03B05DF804FB00B583B01F
:1007B4000190019B1B689B680198984700BF03B098
:1007C4005DF804FB82B001900B468DF80330019B69
:1007D400DB689DF803201A7100BF02B0704782B035
:1007E4000190019BDB681B79184602B0704782B008
:1007F4000190019BDB6801225A7100BF02B070476F
:1008040082B00190019BDB685B79184602B07047A7
:1008140000B585B0019000910C4B00221A700C4871
:1008240001F03AFF0390039B002B01D0039B08E0E7
:10083400084802F0C7F8084A084BD31ADB080293A9
:100844000023184605B05DF804FB00BF2802002011
:100854004C620000346300003C620000E46100006C
:10086400024A034BD31ADB08184670473C62000067
:10087400E461000000B587B001900B468DF80330A9
:100884009DF80330002B1FD0FFF7EAFF04900023EC
:10089400059313E0059B9B000E4A13440393039BAB
:1008A4001B881A46019B1B689A4204D1019B059A36
:1008B4001A60002309E0059B01330593059A049B04
:1008C4009A42E7D3052300E00023184607B05DF8F9
:1008D40004FB00BF0000002000B585B001900B466A
:1008E4008DF803309DF8032001AB11461846FFF73D
:1008F400C1FF0346002B07D1019BDB00054A1344CB
:100904000393039B1B6800E00023184605B05DF8C1
:1009140004FB00BFE461000084B001900B468DF835
:100924000330019BDB00174A134402939DF8033004
:10093400013B032B1CD801A252F823F051090000FB
:1009440059090000610900006B09000002238DF8B9
:100954000F3011E004238DF80F300DE0029B1B795A
:100964008DF80F3008E0029B5B798DF80F3003E0BF
:1009740000238DF80F3000BF9DF80F30184604B0E7
:10098400704700BFE461000084B00190009100232F
:100994008DF80F30019B1B7803F00403DBB2002BAE
:1009A40024D0019B1B78C3F30103DBB2012B02D0DB
:1009B400022B0CD017E0009B1B68019A1288C2F32B
:1009C4008312D2B213449A1C009B1A600BE0009B62
:1009D4001B68019A5288C2F3891292B213449A1C7A
:1009E400009B1A6000BF01238DF80F309DF80F3073
:1009F400184604B07047000000B58BB00023ADF872
:100A040026303E4801F061F93D4801F05EF93D4B66
:100A14009B6804933C4B1B680693049A069B134003
:100A240002339B00374A13440433089304AB19463A
:100A34000898FFF7A9FF0346002B09D0049A069BE8
:100A4400134002339B002F4A134404330893EDE709
:100A540000BF0023079311E0049B5A1C0492069ADA
:100A64001340079A920001A90A44264902339B00C5
:100A74000B445B681360079B01330793079B012BAF
:100A8400EAD99DF80430C3F30103DBB2012B10D083
:100A9400022B1CD1BDF80A30ADF82630BDF8063063
:100AA400C3F389139BB203339A08049B134404933E
:100AB40013E0BDF80A30ADF82630BDF80430C3F3B6
:100AC4008313DBB21A46049B1344049305E00F49D5
:100AD4004FF4C27001F06CF800BF094801F001F94D
:100AE4000590059B002B02D0049B064A9360BDF839
:100AF400263018460BB05DF804FB00BF400600200A
:100B04003C060020280200201C0000204463000052
:100B140000B585B00021074801F060F80390039BFD
:100B24000293029B83F310030193019B184605B0C3
:100B34005DF804FB4406002000B589B003900291DF
:100B440001920093039B1B0C0793FFF7E1FF0690B0
:100B5400FFF786FE0246079B934204D3214940F2E5
:100B6400A91001F025F8069B1904009B5A1C0A9B46
:100B74001340079A0A431C4902339B000B445A60F2
:100B8400009A0A9B134002339B00174A1344043310
:100B94000593039B03F00703D9B2059A137861F315
:100BA400C5031370019B03F00F03D9B2059A138890
:100BB40061F389131380029BC3F31501059A13682B
:100BC40061F39F231360059A1378012161F30103F4
:100BD4001370059A137823F00403137000BF09B04F
:100BE4005DF804FB446300002802002000BF704746
:100BF40000B58BB00390029113468DF80730039B28
:100C04000233089301238DF81F30002000F07AFF8F
:100C14003E4B5A68029B1A603D4B1A683B4B9968DD
:100C24003A4B5B68CB1A13440133099314E0012156
:100C3400384801F01AF8FFF7DFFE059005993548AA
:100C440001F013F8324B1A68304B99682F4B5B68EC
:100C5400CB1A134401330993089A099B9A42E6D8A4
:100C64009DF81F30002B48D0002304939DF80730D3
:100C7400002B17D09DF81030012262F301038DF888
:100C840010309DF8103043F004038DF81030039BAE
:100C940003F00F03DAB2BDF8103062F38913ADF834
:100CA400103016E09DF81030022262F301038DF833
:100CB40010309DF8103043F004038DF81030039B7E
:100CC400C3F309039AB2BDF8123062F38F13ADF87F
:100CD40012300E4B5A680E4B1B68134002339B00B4
:100CE4000A4A134404330693049A069B1A60074B7A
:100CF4005A68089B1344054A5360002000F016FF0D
:100D04009DF81F3018460BB05DF804FB2802002044
:100D14001C0000204406002000B58BB0059004910F
:100D2400039202931F4B1B68079306AB01221946DB
:100D34000298FFF75DFF0346002B24D0069B023385
:100D440009930023089311E0089B9B00039A1A441B
:100D5400099B591C099107990B40126812490233E7
:100D64009B000B445A60089B01330893089A029B2A
:100D74009A42E9D3069A079B00931346029A049970
:100D84000598FFF7D9FE084B1B78002B04D000F020
:100D940069F80346002BFAD1FFF728FF00BF0BB018
:100DA4005DF804FB1C0000202802002000B583B07D
:100DB400019000910023002200990198FFF7ACFFF5
:100DC40000BF03B05DF804FB00B587B00390029147
:100DD4000192019B059305AA012302990398FFF749
:100DE4009BFF00BF07B05DF804FB00B587B003901C
:100DF400029101920093019B0493009B059304AA22
:100E0400022302990398FFF787FF00BF07B05DF83C
:100E140004FB00B58BB00390029101920093019BF7
:100E24000593009B06930C9B07930D9B08930E9BC5
:100E3400099305AA052302990398FFF76DFF00BFE4
:100E44000BB05DF804FB0000054B9A68044B5B682B
:100E54009A420CBF01230023DBB21846704700BF3F
:100E64002802002000B599B0FFF7EEFF0346002BDF
:100E740001D00023B9E19B4B0022C3F81824BFF32F
:100E84004F8F00BF974B9B680493974B1B6810933D
:100E9400049A109B134002339B00924A1344043378
:100EA4001193002317930023169300230F9304AB8D
:100EB40019461198FFF768FD0346002B19D0894B9A
:100EC400D3F81834002B14D1864B5A68049B9A42E9
:100ED40005D8844B5B68834A9360002385E1049AB8
:100EE400109B134002339B007E4A13440433119336
:100EF400DDE70023159311E0049B5A1C0492109A19
:100F04001340159A920001A90A44764902339B00C2
:100F14000B445B681360159B01331593159B012BE0
:100F2400EAD99DF8043003F00303DBB2022B40F04E
:100F34009C80BDF80630C3F389139BB20D93BDF8B2
:100F44000630C3F389139BB2502B28BF50239BB2A6
:100F54000C930C9BC3F309039AB2BDF8063062F3F9
:100F64008F13ADF806300C9B08330B939DF80430B7
:100F7400C3F3C203DBB20F930B995C4801F097FBF8
:100F84001790179B002B00F0D380179801F020FCDA
:100F940001A9169B0822179801F0D6FC169B08336A
:100FA4001693049BDA43109B134001339B000A936E
:100FB4000C9A0A9B9A4242D90A9B002B08D0049AA5
:100FC400109B134002339B00464A1344043300E051
:100FD400474B08930A9B002B02D00A9BDBB201E02B
:100FE4000C9BDBB28DF81F300A9B002B01D0404BC9
:100FF40000E0002306930A9B002B06D00C9BDAB278
:101004000A9BDBB2D31ADBB200E000238DF8173061
:101014009DF81F20169B0899179801F095FC9DF8E0
:101024001F30169A13441693069B002B16D09DF876
:101034001720169B0699179801F086FC0EE0049A77
:10104400109B134002339B00264A13440433099334
:10105400169B0C9A0999179801F076FC0D9B0333A3
:101064009A08049B1344049362E09DF8043003F04F
:101074000303DBB2012B5BD1BDF80430C3F383134C
:10108400DBB2062B28BF0623DAB2BDF8043062F3C4
:101094008913ADF80430BDF80430C3F38313DBB215
:1010A40002330E939DF80430C3F3C203DBB20F93F3
:1010B4000E9B9B0019460D4801F0F9FA1790179BF7
:1010C400002B35D0179801F083FB01A9169B082249
:1010D400179801F039FC169B0833169300231593D7
:1010E4001DE000BF280200201C0000204C6200000C
:1010F40034020020049B5A1C0492109A13400233B9
:101104009B003C4A1344191D169B0422179801F0B6
:101114001BFC169B04331693159B01331593BDF8E2
:101124000430C3F38313DBB21A46159B9342E1D315
:10113400179B002B39D02F4BD3F8103414932D4B1D
:10114400D3F81834002B1BD0179801F050FB46E05D
:1011540000238DF84F301498FFF752FB0346002B01
:1011640002D001238DF84F309DF84F30002B03D06F
:1011740017991498FFF700FB149BDB681B68149302
:10118400149B002BE4D1179801F031FB002000F0F0
:10119400B9FC184BD3F81834002B02D1049B154A20
:1011A4009360002000F0C2FC19E0124BD3F8103415
:1011B400129306E01298FFF7F9FA129BDB681B689A
:1011C4001293129B002BF5D10B4A0C4BD31ADB085C
:1011D4001B0443F002030A491846FFF7E7FDFFF733
:1011E40033FE034683F00103DBB2184619B05DF801
:1011F40004FB00BF2802002014620000E461000028
:101204008863000000B585B00023039323E0164BE8
:10121400D3F81034029301238DF807300FE00298BD
:10122400FFF7DDFA03461A46039B934203D10023DA
:101234008DF8073006E0029BDB681B680293029B73
:10124400002BECD19DF80730002B01D0039B07E065
:10125400039B01330393039B092BD8DD4FF0FF332A
:10126400184605B05DF804FB2802002000B585B0DF
:1012740001900B468DF80330FFF7C4FF0390039BE6
:10128400B3F1FF3F01D1039B22E0039BDBB219467C
:101294000198FFF797FA104BD3F81034002B08D1BC
:1012A4000D4A019BC2F81034019BDB6800221A60CE
:1012B4000DE0094BD3F81034DA68019BDB6812683F
:1012C4001A60054BD3F81034DB68019A1A60039B4B
:1012D400184605B05DF804FB2802002000B583B071
:1012E4000C4BD3F8103401930A4B01221A7009E015
:1012F4000198FFF77CFA0198FFF74CFA019BDB6831
:101304001B680193019B002BF2D100BF00BF03B007
:101314005DF804FB2802002082B00190009100BF18
:1013240002B0704710B584B003900291039BDB8830
:10133400002B0AD0039BDB881A461F4B00931346ED
:101344001E4A1F49029800F0FBFD039B1B7A052BE4
:101354002ED0039B5B7A002B12D0039B9B881A46EA
:10136400039B1B7A19461046FFF7D6FA03461A4622
:10137400144B53F822301A461349029800F0E0FD4A
:10138400039B1B6819460298FFF7C6FF039B1B7A51
:101394001A460E4B53F82240039B9B8800211846A3
:1013A400FFF79AFA034622460949029800F0C8FD5D
:1013B40000BF04B010BD00BFBC630000CC630000DC
:1013C40004640000340000201C640000200000209D
:1013D4002064000000B585B00390029113468DF897
:1013E4000730039B1B7A052B0FD0039B5B7A002BE2
:1013F40006D00D4B1B681A460C49029800F0A0FD5C
:101404000B49029800F09CFD07E09DF80730002B83
:1014140003D00749029800F093FD029800F06EFD96
:1014240000BF05B05DF804FB340000201C6400001C
:101434002C64000030B58BB007900691059204939C
:101444000E9B1B7B8DF827300E9B00221A730E997E
:101454000498FFF767FF059B062B7FD801A252F87B
:1014640023F000BF851400008F1400009F140000B7
:10147400B3140000D1140000F91400002915000071
:1014840007990E9800F05CFD69E0069B1B681A46FC
:1014940007990E9800F054FD61E0069B1A68069BBC
:1014A40004331B6807990E9800F04AFD57E0069B29
:1014B4001A68069B04331968069B08331B6800935B
:1014C4000B4607990E9800F03BFD48E0069B19680F
:1014D400069B04331868069B08331B68069A0C3273
:1014E40012680192009303460A4607990E9800F089
:1014F40027FD34E0069B1868069B04331C68069B92
:1015040008331B68069A0C32126806991031096870
:101514000291019200932346024607990E9800F027
:101524000FFD1CE0069B1C68069B04331D68069B8C
:1015340008331B68069A0C32126806991031096840
:1015440006981430006803900291019200932B4690
:10155400224607990E9800F0F3FC00E000BF002239
:101564000E990498FFF736FF0E9B9DF827201A73F7
:1015740000BF0BB030BD00BF00B587B0039002912F
:1015840001920093029B082B60D8009B1B7B8DF873
:101594001330009B00221A7300990198FFF7C2FED2
:1015A4000023059314E0059A029B9A4209D2039AF8
:1015B400059B13441B781A462649009800F0C0FC8A
:1015C40003E02549009800F0BBFC059B013305931B
:1015D400059B072BE7D92149009800F0B1FC0023B3
:1015E400059326E0059A029B9A421BD2039A059B17
:1015F40013441B788DF812309DF812307E2B0AD8D4
:101604009DF81230184604F0A0FD0346002B02D0CA
:101614009DF8123000E02E231A461149009800F07C
:101624008FFC03E00F49009800F08AFC059B01330E
:101634000593059B072BD5D9012200990198FFF743
:10164400C9FE009B9DF813201A7300E000BF07B089
:101654005DF804FB30640000386400003C64000062
:10166400406400004464000000B583B00190019B15
:101674001B68184600F0B5F80346002B04D1054951
:101684004FF4F67000F094FA4FF0A043184603B0FC
:101694005DF804FB4864000000B585B0019008467D
:1016A40011461A4603468DF803300B468DF8023076
:1016B40013468DF8013001AB1846FFF7D5FF0390B0
:1016C4009DF803209DF802305B001A439DF8013019
:1016D4009B001A439DF818301B0242EA03019DF84F
:1016E4001C301B04019A1943039B02F5E07243F872
:1016F400221000BF05B05DF804FB00B585B003906F
:101704000023019300230093002301220121039865
:10171400FFF7C2FF00BF05B05DF804FB00B585B05C
:1017240003900B468DF80B309DF80B30002201928C
:1017340000220092002200210398FFF7ADFF00BFB2
:1017440005B05DF804FB00B585B0019001AB184607
:10175400FFF78AFF0390019B012202FA03F3194663
:10176400039800F02AF800BF05B05DF804FB00B54B
:1017740085B0019001AB1846FFF776FF0390019BFB
:10178400012202FA03F31946039800F020F800BF7F
:1017940005B05DF804FB00B583B001900091009B97
:1017A400002B03D10198FFF7E2FF02E00198FFF755
:1017B400CAFF00BF03B05DF804FB82B00190009142
:1017C400019B009AC3F8082500BF02B0704782B09D
:1017D40001900091019B009AC3F80C2500BF02B050
:1017E400704784B00190019B5B090293002303932B
:1017F400029B002B03D14FF0FF33039300BF019BE7
:1018040003F01F030193039A019B22FA03F303F0ED
:101814000103002B14BF01230023DBB2184604B0DC
:101824007047000000B583B00190019B032B03D9DE
:101834000749472000F0BCF9064A019B13441B7872
:1018440001211846FFF7A7FF00BF03B05DF804FBB2
:1018540078640000A864000000B583B000230193FD
:1018640005E00198FFF7DEFF019B01330193019B23
:10187400032BF6D900BF00BF03B05DF804FB0000E2
:1018840000B583B00023019309E0094A019B134486
:101894001B781846FFF731FF019B01330193019B2D
:1018A400032BF2D9FFF7D8FF00BF03B05DF804FBA8
:1018B400A864000000B583B0002301930AE0094A3C
:1018C400019B13441B7803211846FFF727FF019B54
:1018D40001330193019B032BF1D900BF00BF03B077
:1018E4005DF804FBAC64000000B583B00190019B7B
:1018F40003F00103002B01D0FFF7C2FF019B03F0AB
:101904000203002B01D0FFF7D5FF00BF03B05DF841
:1019140004FB000086B003900291019201238DF82C
:1019240017309DF81730204A039B13601E4A029B10
:1019340053601D4A019B9360039B44F2010293424E
:1019440012D0039B44F20202934220D1019B164A17
:10195400D360154BDB681B68134A9361124BDB6839
:101964005B68114AD36112E0019B0F4A13610E4B6D
:101974001B699B680C4A53610B4B1B691B680A4A21
:101984009361094B1B695B68074AD36100BF72B658
:1019940000BF00BF9DF81730DBB2002BFAD162B64E
:1019A40000BF00BF06B070474806002000B583B0F2
:1019B40002900091019244F2010071466A4600F0DF
:1019C40003F803B000BD00BF30B58BB0079006919B
:1019D400059272B600BFFFF781FCFFF743FA034696
:1019E400002BFAD1079B44F20102934216D0079BC5
:1019F40044F2020293423ED1059B09932C4A2D4B9B
:101A0400D31ADB081B0443F00100099B5B681A46E8
:101A1400099B1B682849FFF7E8F939E0059B0893FF
:101A2400234A244BD31ADB081B0443F00104089B0C
:101A34009D68089B9B68184600F0E2FF0346184621
:101A4400089B5B681946089B1B68069A02920193DF
:101A5400009103462A4619492046FFF7DAF9144A49
:101A6400144BD31ADB081B0443F001031449184632
:101A7400FFF79CF90CE00E4A0E4BD31ADB081B044B
:101A840043F00103069A0F491846FFF79DF900BF7A
:101A94000D4B1B6803F00103002B00D000BE059A18
:101AA40006990798FFF736FF00BF0BB030BD00BFA3
:101AB40014620000E4610000F86400001465000092
:101AC4003C65000050650000F0ED00E072B600BF18
:101AD400034B1B680133024A136000BF704700BF09
:101AE40068060020064B1B68013B054A1360044B43
:101AF4001B68002B01D162B600BF00BF704700BF56
:101B04006806002000B583B0019000F025F8034674
:101B1400012B03D00449432000F04AF8FFF7D6FF15
:101B240000BF03B05DF804FBB465000000B583B0EA
:101B340003468DF8073000F00FF80346012B03D05D
:101B44000449512000F034F8FFF7CCFF00BF03B084
:101B54005DF804FBB465000084B0EFF305830193E2
:101B6400019BC3F308030393039B002B0DD1EFF3F5
:101B740014830093009B0293029B03F00103002B48
:101B84000CBF01230023DBB200E00123184604B09C
:101B94007047000008B5044B1B68044A12681046DD
:101BA400984700BF08BD00BF6C06002070060020E7
:101BB40000B585B003460091ADF80630BDF8063097
:101BC4000293009B039302AB1A46002144F20200E5
:101BD400FFF7FAFE00BF05B05DF804FB10B487B050
:101BE40001900091019B009A53E8004F104643E88E
:101BF400000191F0000FF7D1059404900391059B27
:101C0400184607B05DF8044B704710B487B00190D4
:101C14000091019B009A53E8004F44EA020043E814
:101C2400000191F0000FF6D1059404900391049BF8
:101C3400184607B05DF8044B704710B487B00190A4
:101C44000091019B009A53E8004F04EA020043E824
:101C5400000191F0000FF6D1059404900391059BC7
:101C6400184607B05DF8044B704710B487B0019074
:101C74000091019B009A53E8004F04EB020043E8F3
:101C8400000191F0000FF6D1059404900391049B98
:101C9400184607B05DF8044B704710B487B0019044
:101CA4000091019B009A53E8004FA4EB020043E823
:101CB400000191F0000FF6D1059404900391049B68
:101CC400184607B05DF8044B704700B583B0019027
:101CD40001210198FFF799FF0346184603B05DF808
:101CE40004FB00B583B0019000210198FFF7A5FF24
:101CF4000346184603B05DF804FB000000B583B04A
:101D040001900B468DF80330019B002B03D1084949
:101D1400E820FFF74DFF019BDA689DF80330019935
:101D2400098A01FB03F31344184603B05DF804FB6E
:101D3400F465000000B583B001900091019B002B75
:101D440003D10849F520FFF733FF009B019AD268BD
:101D54009B1A019A128AB3FBF2F3DBB2184603B062
:101D64005DF804FBF465000000B585B00190019BAB
:101D7400002B01D10E234CE0019B1B68002B03D1E7
:101D84002649FF20FFF714FF019B5B68002B04D159
:101D940022494FF48070FFF70BFF019B9B68002BD7
:101DA40004D11E4940F20110FFF702FF019BDB68DA
:101DB400002B04D119494FF48170FFF7F9FE019B00
:101DC4001B8A002B04D1154940F20310FFF7F0FEE3
:101DD400019B9A68019B5B68D31A8DF80F30019BB5
:101DE4001B68019A52681A6007E0019B1A6813681D
:101DF400591C11609DF80F201A709DF80F305A1E5F
:101E04008DF80F20002BF0D1019B1B6800221A7162
:101E14000023184605B05DF804FB00BFF46500001C
:101E240000B585B00190019B002B04D11C494FF4EF
:101E34009270FFF7BDFE002303930020FFF762FEBC
:101E4400019B1B681A68019B5B689A421FD9019B1E
:101E54001B681A68013A1A601B681B7819460198B6
:101E6400FFF74CFF0390019B9A68019B1B681B685A
:101E7400D31A8DF80B30019B1B681B799DF80B203E
:101E84009A4204D9019B1B689DF80B201A7100200B
:101E9400FFF74CFE039B184605B05DF804FB00BF3A
:101EA400F465000010B584B001900091019B002BF3
:101EB40004D1114940F24710FFF77AFE009B002B32
:101EC40004D10D494FF4A470FFF772FE009B0393F5
:101ED4000020FFF717FE019B1B681C68621C1A6038
:101EE40003990198FFF726FF034623700020FFF7AC
:101EF4001DFE00BF04B010BDF465000000B583B042
:101F04000190019B002B03D10C493120FFF750FEB7
:101F1400019B9B68002B0CD0019B5B69019A1069A3
:101F2400019A1168019A92689847019B00229A606D
:101F340000E000BF03B05DF804FB00BF30660000A2
:101F44000EB400B584B00190019B002B03D1184955
:101F54004220FFF72DFE019B5B69002B03D114493E
:101F64004320FFF725FE019B1B68002B03D110497A
:101F74004420FFF71DFE019B5B68002B03D10C4935
:101F84004520FFF715FE059B002B0AD00023039381
:101F940006AB039303AB1A460599019800F0B8F910
:101FA40000E000BF04B05DF804EB03B0704700BF6D
:101FB4003066000000B583B001900B468DF8033005
:101FC4009DF803300A2B03D10D210198FFF7F2FF8E
:101FD400019B1A68019B9B68581C019988601344F3
:101FE4009DF803201A70019B9A68019B5B689A42D2
:101FF40002D30198FFF782FF00BF03B05DF804FB32
:1020040000B587B0039002910192009300230593D9
:10201400009B03F00103002B24D00BE0029B01334F
:102024000293059B013305939DF8133019460398D9
:10203400FFF7C0FF029B1B788DF813309DF8133017
:10204400002BEBD106E0019B013B01932021039877
:10205400FFF7B0FF019A059B9A422ED9019B002BF2
:10206400F1D12AE0029B002B0BD0029804F008F86F
:10207400059006E0019B013B019320210398FFF7A3
:1020840099FF019A059B9A420FD9019B002BF1D12C
:102094000BE0029B01330293059B013305939DF8EA
:1020A400133019460398FFF785FF029B1B788DF8C0
:1020B40013309DF81330002BEBD100BF07B05DF84F
:1020C40004FB000000B589B00390029101920093D3
:1020D400029B07930123069307E0079A019BB2FB37
:1020E400F3F30793069B01330693079A019B9A42E5
:1020F400F3D2009A069B9A4201D9009B06930B9B4C
:1021040003F00103002B22D10A9B002B1FD00B9B51
:1021140003F00203002B06D0009B002B03D13023D5
:102124008DF8173002E020238DF8173008E00A9B61
:10213400013B0A939DF8173019460398FFF73AFFBD
:102144000A9B002B03D0069A0A9B9A42EFD30123E1
:102154000793009B012B03D9009B013B009309E0EB
:10216400029A079BB2FBF3F30493049A019B9A42ED
:1021740000D205E0079B019A02FB03F30793E8E70B
:10218400029A079BB2FBF3F30493049B079A02FBA6
:1021940003F3029AD31A0293154A049B13441B783F
:1021A40019460398FFF706FF079A019BB2FBF3F366
:1021B4000793079B002BE3D10B9B03F00103002B38
:1021C40011D00A9B002B0ED006E00A9B013B0A9318
:1021D40020210398FFF7EEFE0A9B002B03D0069AFA
:1021E4000A9B9A42F1D300BF09B05DF804FB00BF1B
:1021F4009C66000000B589B0059004910392029397
:10220400049B002BB8BF5B4206930123079307E0AE
:10221400039B069A92FBF3F30693079B0133079300
:10222400039B069A9A42F3DA029A079B9A4201D9CF
:10223400029B07930A9B002B0AD0049B002B04DB10
:102244000B9B03F00403002B02D00A9B013B0A936F
:102254000B9B03F00203002B02D0029B002B16D031
:102264000B9B03F00103002B11D10A9B002B0ED012
:1022740006E00A9B013B0A9320210598FFF79AFE8A
:102284000A9B002B03D0079A0A9B9A42F1D3049B22
:10229400002B07DA049B5B4204932D210598FFF77A
:1022A40089FE08E00B9B03F00403002B03D02B21D1
:1022B4000598FFF77FFE0B9B03F00203002B19D058
:1022C4000B9B03F00103002B14D1029B002B11D1B3
:1022D4000A9B002B0ED006E00A9B013B0A93302197
:1022E4000598FFF767FE0A9B002B03D0079A0A9B09
:1022F4009A42F1D304990B9B01930A9B0093029B8E
:10230400039A0598FFF7DEFE00BF09B05DF804FBF1
:1023140000B58FB0059004910392059B002B04D166
:10232400AD4940F25220FFF743FC059B5B69002B4B
:1023340004D1A9494FF41570FFF73AFC059B1B68BB
:10234400002B04D1A44940F25520FFF731FC059B32
:102354005B68002B04D1A04940F25620FFF728FC0B
:10236400049B002B00F09381049B1B788DF837307D
:10237400049B013304939DF83730002B00F07E81D9
:102384009DF83730252B40F06D8100230A930123FB
:102394000C93049B1B788DF837309DF83730302B25
:1023A4000DD0302B1BDC2B2B11D02D2B17D10A9BDE
:1023B40043F001030A93049B0133049312E00A9B44
:1023C40043F002030A93049B013304930AE00A9B3B
:1023D40043F004030A93049B0133049302E00023B3
:1023E4000C9300BF0C9B002BD3D1002309939DF8C1
:1023F40037302A2B0CD1039B1B68191D039A1160DB
:102404001B68099A13440993049B013304931AE04B
:10241400049B1B788DF837309DF837302F2B12D959
:102424009DF83730392B0ED8049B01330493099A55
:1024340013469B0013445B001A469DF8373013443F
:10244400303B0993D3E700230B93049B1B788DF84F
:1024540037309DF837302E2B1DD1049B0133049364
:10246400049B1B788DF837309DF837302F2B12D909
:102474009DF83730392B0ED8049B013304930B9A03
:1024840013469B0013445B001A469DF837301344EF
:10249400303B0B93E4E7049B1B788DF837309DF8B1
:1024A40037306C2B03D09DF83730682B07D1049B51
:1024B40001330493049B1B788DF83730EFE79DF8C4
:1024C4003730252B00F0C480252BC0F2C680782B32
:1024D40000F3C380582BC0F2C080583B202B00F27D
:1024E400BC8001A252F823F0E12500005F26000021
:1024F4005F2600005F2600005F2600005F260000C4
:102504005F2600005F2600005F2600005F260000B3
:102514005F26000071250000932500005F2600005F
:102524005F2600005F2600005F2600009325000060
:102534005F2600005F2600005F2600005F26000083
:102544005F2600005F260000212600005F260000B1
:102554005F260000052600005F260000B725000066
:102564005F2600005F260000E1250000039B1B6836
:10257400191D039A11601B680C930C9B8DF81F3076
:102584009DF81F3019460598FFF714FD66E0039B7C
:102594001B68191D039A11601B680C930A9B019315
:1025A400099B00930B9B0A220C990598FFF722FEC6
:1025B40054E0039B1B68191D039A11601B680C935C
:1025C4000C990A9B0193099B00930B9B0A22059883
:1025D400FFF778FD42E000BF64660000039B1B68C0
:1025E400191D039A11601B680C930C990A9B0193A3
:1025F400099B00930B9B10220598FFF763FD2DE0C8
:10260400039B1B68191D039A11601B6808930A9B9E
:10261400099A08990598FFF7F3FC1FE0039B1B68D0
:10262400191D039A11601B680C9330210598FFF75C
:10263400C1FC78210598FFF7BDFC0C990023019398
:1026440008230093082310220598FFF73BFD05E0BB
:1026540025210598FFF7AEFC00E000BF049B013381
:10266400049305E09DF8373019460598FFF7A2FC5E
:10267400049B1B78002B7FF477AE00E000BF059B22
:102684001B7B002B04D00598FFF738FC00E000BF4B
:102694000FB05DF804FB00BF00B583B00190019852
:1026A400FFF762FB0346184603B05DF804FB00B570
:1026B4008BB001900091019B1B8A043B0793009A05
:1026C400079B1344DA1C079BB2FBF3F38DF81B3012
:1026D4000198FFF7A5FB0590059B002B01D1002372
:1026E40038E0059B00221A71059B01225A71079B51
:1026F4009AB2059BDA80059B09939DF81B30013B38
:102704000493099B019A1A60002308931DE0019821
:10271400FFF786FB0390039B002B0ED0059B5B7990
:102724000133DAB2059B5A71099B039A1A60039B21
:10273400019A1A60039B099304E0059800F00EF8CF
:10274400002307E0089B01330893089A049B9A42EC
:10275400DDD3059B18460BB05DF804FB00B58BB0C8
:102764000190019B0793079B5B798DF81B30019BBC
:1027740008939DF81B30013B05930023099305E062
:10278400089B1B680893099B01330993099A059BCD
:102794009A42F5D3089B1B680493019B089300237A
:1027A40009930BE0089B1B68039308990498FFF7AF
:1027B40079FB039B0893099B013309939DF81B3014
:1027C400099A9A42EED300BF00BF0BB05DF804FB38
:1027D40000B585B00190019B0393039B0433012151
:1027E4001846FFF742FA00BF05B05DF804FB00B5D8
:1027F40087B00190019B0593059B04330121184682
:10280400FFF74BFA0346039303AB0493049B1B7833
:10281400002B02D10198FFF7A1FF00BF07B05DF8BC
:1028240004FB000000B591B0039002910192009363
:10283400039B002B03D14349B620FFF7B9F9039B4F
:102844000993039B0F93099BDB881A46099B5B79C9
:1028540002FB03F3043B0893009A089B9A4203D3B8
:102864003849C420FFF7A4F9099BDB880793009B30
:102874001A1D079BB2FBF3F30E93009B0433079AD4
:10288400B3FBF2F2079901FB02F29B1A0D93019B31
:102894001A68009B1344089A9A4203D2089A009B30
:1028A400D31A01E0019B1B680C93019B0C9A1A60DC
:1028B40005E00F9B1B680F930E9B013B0E930E9B31
:1028C400002BF6D100230B93079A0D9BD31A0A937E
:1028D4000A9A0C9B934228BF13460A932AE0029A51
:1028E4000B9B134406930F9A0D9B134404330593D7
:1028F4009DF84830002B05D00A9A0599069803F0F4
:10290400D5FB04E00A9A0699059803F0CFFB00234F
:102914000D930F9B1B680F930C9A0A9BD31A0C936D
:102924000B9A0A9B13440B93079A0C9B934228BF60
:1029340013460A930C9B002BD1D100BF00BF11B0EA
:102944005DF804FBAC66000000B589B00590049105
:1029540003920293039B079307AA00230093029B0D
:1029640004990598FFF75EFF079B039A9A4203D0E8
:102974000349F620FFF71CF900BF09B05DF804FB1A
:10298400AC66000000B589B00590049103920293EF
:10299400039B079307AA01230093029B04990598BC
:1029A400FFF740FF079B039A9A4204D004494FF46F
:1029B4008070FFF7FDF800BF09B05DF804FB00BFAD
:1029C400AC66000082B00190019B9B6800229A6073
:1029D400019B9B6800221A61019B9B6800225A613B
:1029E400019B9B680022DA60019B9B6800225A606D
:1029F400019B9B6800221A6000BF02B07047000070
:102A040000B585B00190019800F00EF80390039B87
:102A1400002B01D0039B00E0024B184605B05DF883
:102A240004FB00BF3467000086B00190164B059389
:102A3400164B04931FE0049A059BD31ADB10DA0F9C
:102A440013445B10DB00059A13440393039B1B6838
:102A54000293029A019B9A4202D9039B04930AE0CF
:102A6400029A019B9A4203D2039B0833059302E026
:102A7400039B5B6804E0059A049B9A42DBD3002322
:102A8400184606B0704700BF086B0000206C0000B9
:102A940000B589B001900091009B0793019B1B78BE
:102AA4008DF80C30019B5B680493019B9B68DBB23F
:102AB4008DF81430019BDB680693074A079B52F894
:102AC40023300649079A51F8221003AA1046984762
:102AD40000BF09B05DF804FB780600207C060020E6
:102AE40000B589B001900091009B0793019B1B786E
:102AF4008DF80C30019B5B680493019B9B68DBB2EF
:102B04008DF81430019BDB680693074A079B52F843
:102B140023300649079A51F8221003AA1046984711
:102B240000BF09B05DF804FB780600207C06002095
:102B340030B58FB0039002910192039B1B780C93E4
:102B440026490C9B019A41F82320029B1A692449C7
:102B54000C9B41F82320029B5B7F1946214A0C9B66
:102B640013440A461A70029B04AC1D460FCD0FC4D1
:102B740095E80F0084E80F000C9B089300230D9345
:102B8400039B1B781A46174B9B5C002B0DD0039BB1
:102B9400181D019B002B01D0134A00E0002204AB56
:102BA400194602F0C3FA0D9014E0039B1B781A46F1
:102BB4000C4B9B5C002B0DD1039B03F10C00019B80
:102BC400002B01D0094A00E0002204AB194601F0B1
:102BD40047FC0D900D9B18460FB030BD78060020C1
:102BE4007C06002080060020952A0000E52A0000CB
:102BF40082B001904FF08042019BC2F8083300BFBD
:102C040002B0704784B00346ADF80630BDF8063014
:102C140003F1804300221A60BDF8063003F18043BB
:102C24001B680393039B00BF04B0704782B0034644
:102C3400ADF80630BDF8063003F180431B68002B65
:102C440014BF01230023DBB2184602B07047000012
:102C540008B54FF48070FFF7E9FF0346002B14D04A
:102C64004FF48070FFF7CEFF0120FFF7C1FF114B37
:102C74005B7983F00103DBB2002B06D00D4B0122FC
:102C84005A710C4B1B68002098474FF48270FFF771
:102C9400CDFF0346002B0AD04FF48270FFF7B2FF3A
:102CA4000220FFF7A5FF034B1B680120984700BFD4
:102CB40008BD00BF8406002000B583B00346ADF80C
:102CC4000630BDF80630184600F026F803461B68A7
:102CD400012B0CBF01230023DBB2184603B05DF8BF
:102CE40004FB00B585B00346ADF80630BDF80630E8
:102CF400184600F011F803461A4600231360BDF885
:102D04000630184600F008F803461B680393039B3B
:102D140000BF05B05DF804FB82B00346ADF8063091
:102D2400BDF8063003F1804303F5C043184602B0F2
:102D34007047000082B00190034BD3F80423019B39
:102D44001340184602B070470060004082B0019002
:102D5400054A019B03F5A27352F823301B0A03F0C2
:102D64001F03184602B070470060004082B0019013
:102D7400064A019B03F5A27352F823301B0C03F09F
:102D84000303DBB2184602B0704700BF0060004086
:102D940000B583B00190019B1B68184600F095F8BC
:102DA4000346002B04D105494FF4F670FEF700FFEB
:102DB4004FF0A043184603B05DF804FB046D000017
:102DC40000B585B001900B468DF8033001AB184671
:102DD400FFF7DEFF0390019A039B02F5E07253F8BC
:102DE4002230019A23F44031039B02F5E07243F848
:102DF4002210019A039B02F5E07253F822109DF809
:102E040003301B04019A1943039B02F5E07243F853
:102E1400221000BF05B05DF804FB00B585B0019039
:102E240001AB1846FFF7B4FF0390019A039B02F528
:102E3400E07253F822301B0C03F00303DBB2184694
:102E440005B05DF804FB86B00390029101924FF047
:102E5400A0430493039B059319E0059B9B0018333F
:102E64006B4453F8083CD3F82025019B1A60059B5A
:102E74009B0018336B4453F8083C019A1268C3F85A
:102E84002025019B04330193059B01330593039A89
:102E9400029B1344059A9A42DFD300BF00BF06B0D9
:102EA400704700B585B0019001AB1846FFF770FF7D
:102EB4000390019B012202FA03F31A46039BC3F811
:102EC400202500BF05B05DF804FB84B00190019B90
:102ED4005B09029300230393029B002B03D14FF061
:102EE400FF33039300BF019B03F01F030193039A75
:102EF400019B22FA03F303F00103002B14BF012307
:102F04000023DBB2184604B0704784B001900091EE
:102F1400009B0393019BDB080293019B03F00703CF
:102F240001930122019B02FA03F30399029A0A44D2
:102F340012781340184604B07047000082B0019024
:102F4400044A019B1344303393F90030184602B00D
:102F5400704700BF8C06002082B00190034A019B99
:102F640052F82330184602B0704700BF8C06002088
:102F740084B00190074A019B1344503393F9003005
:102F84008DF80F309DF80F3023F0C003184604B0BD
:102F9400704700BF8C06002084B00190074A019B53
:102FA4001344503393F900308DF80F309DF80F30EF
:102FB4009B09DBB2184604B0704700BF8C060020A2
:102FC40000B585B00190019A01210020FFF73BFF75
:102FD400002303930BE0039B9B00019A13441B689B
:102FE400002B01D0012306E0039B01330393039BD1
:102FF400002BF0D00023184605B05DF804FB000058
:1030040000B587B00190002305935BE0344A059B2B
:103014001344503393F90030B3F1FF3F4ED0059879
:10302400FFF7A6FF049001990498FFF76EFF03468B
:10303400002B44D00598FFF7AFFF03468DF80F30FF
:103044000498FFF7EAFE03468DF80E309DF80E3023
:10305400022B01D1032300E002238DF80D309DF8EB
:103064000D3019460498FFF7ABFE0498FFF719FFDB
:103074000498FFF763FF03461846FFF76DFF0290BD
:10308400029B002B1BD09DF80F30032B0FD09DF813
:103094000E30022B03D19DF80F30012B07D09DF881
:1030A4000E30032B0BD19DF80F30022B07D19DF866
:1030B4000F20029B11460498984700E000BF059B2F
:1030C40001330593059B032BA0D90198FFF778FFE3
:1030D4000346002B97D100BF00BF07B05DF804FB87
:1030E4008C06002000B589B00023069300230093CA
:1030F4004FF48073ADF81230012307930023059336
:1031040021E0BDF812301846FFF7D6FD0346002B28
:103114000ED00798FFF70EFE0346002B08D0BDF82B
:1031240012301846FFF7DDFD069A079B13430693FA
:10313400079B5B000793BDF812300433ADF81230DF
:10314400059B01330593059B072BDAD94FF4BE7019
:10315400FFF7B2FD0346002B0DD04FF4BE70FFF70E
:10316400C0FD069B43F0004306936B461A460121BB
:103174000020FFF768FE069BDBB2002B29D0012359
:1031840007930023059321E0079A069B1340002B25
:1031940016D00598FFF7DAFD03900598FFF7E6FDD2
:1031A40003468DF80B300598FFF7D6FE0190019B7E
:1031B400002B05D09DF80B20019B114603989847DE
:1031C400079B5B000793059B01330593059B072B26
:1031D400DAD9069B002B03DA6B461846FFF710FF7B
:1031E40000BF09B05DF804FB08B5064B1B68002B53
:1031F40003D105495120FEF7DBFC024B1B689847BD
:1032040008BD00BFE80600207C6D000082B001907C
:10321400019B044A934201D1034B00E0002318466A
:1032240002B0704700200040E806002000B587B0D7
:1032340001900091019B002B03D118497720FEF7E0
:10324400B7FC0198FFF7E2FF0590059B002B1ED009
:1032540000238DF813300020FEF754FC059B1B79E6
:10326400002B03D001238DF8133005E0059B009A51
:103274001A60059B01221A710020FEF757FC9DF885
:103284001330002B03D011230393039B02E000238C
:103294000393039B184607B05DF804FB7C6D0000A4
:1032A40000B585B00190019B002B03D10A499B20F6
:1032B400FEF77EFC0198FFF7A9FF0390039B002B08
:1032C40005D0039B00221A60039B00221A7100BFE1
:1032D40005B05DF804FB00BF7C6D000082B00346BE
:1032E4008DF807309DF90730002B0CDB9DF8073073
:1032F40003F01F0205499DF907305B09012000FA1C
:1033040002F241F8232000BF02B0704700E100E060
:1033140082B0034600918DF807309DF90730002BE9
:103324000ADB009BDAB20C499DF907305201D2B294
:103334000B4483F800230BE0009BDAB207499DF8A5
:10334400073003F00F03043B5201D2B20B441A7648
:1033540000BF02B0704700BF00E100E000ED00E0F4
:1033640082B00190019B03F06043B3F1005F0CBF96
:1033740001230023DBB2184602B0704782B00190EB
:10338400019B1B0B5BB2184602B0704700B583B0BB
:1033940003460A468DF8073013468DF806309DF82B
:1033A4000630072B03D908496B20FEF701FC9DF872
:1033B40006209DF9073011461846FFF7A9FF00BF04
:1033C40003B05DF804FB00BFB86D000000B583B026
:1033D40003468DF807309DF907301846FFF77EFF46
:1033E40000BF03B05DF804FB82B001900B468DF87A
:1033F40003309DF80330019A134401221A6000BF80
:1034040002B0704782B001900B468DF803309DF8EE
:103414000320019B1344184602B0704784B0019006
:103424000B46ADF80230BDF80230019A1344002275
:103434001A60BDF80230019A13441B680393039B7E
:1034440000BF04B0704782B001900B46ADF8023063
:10345400BDF80230019A13441B68002B14BF0123EA
:103464000023DBB2184602B0704782B0019000918D
:10347400019B009AC3F8002200BF02B0704782B0DB
:1034840001900091019B009AC3F8002300BF02B091
:10349400704782B00190019B0122C3F8002500BF50
:1034A40002B0704784B00190009100238DF80F3072
:1034B40011E09DF80F309B00009A13449DF80F20F3
:1034C4001968019B02F5AC7243F822109DF80F3085
:1034D40001338DF80F309DF80F30032BE9D900BF6D
:1034E40000BF04B07047000000B583B001900846E7
:1034F40011461A4603468DF803300B468DF8023008
:103504001346ADF80030BDF90030002B04DA0C4945
:103514004FF42870FEF74CFB9DF80320019BC3F881
:103524000C259DF80220019BC3F80425BDF800205A
:10353400019BC3F8082500BF03B05DF804FB00BF7E
:10354400E86D000000B585B003900B4601928DF83C
:103554000B30019B002B04D1144940F2AB20FEF741
:1035640027FB019B1A689DF80B301946039800F05D
:103574001FF8019B9A889DF80B301946039800F0B8
:103584003DF8019B9A689DF80B301946039800F0AA
:1035940069F8019BDA689DF80B301946039800F02E
:1035A40089F800BF05B05DF804FB00BFE86D0000BA
:1035B40000B585B003900B4601928DF80B309DF851
:1035C4000B30012B04D90C4940F2B720FEF7F0FA76
:1035D400019B002B04D108494FF42E70FEF7E8FA42
:1035E4009DF80B30019A039929335B010B441A604F
:1035F40000BF05B05DF804FBE86D000000B583B0C2
:1036040001900B468DF803301346ADF800309DF859
:103614000330012B04D912494FF43070FEF7C8FA75
:10362400BDF80030002B04D10D4940F2C120FEF753
:10363400BFFABDF90030002B04DA094940F2C22078
:10364400FEF7B6FA9DF80330BDF80020019929333E
:103654005B010B4404331A6000BF03B05DF804FB44
:10366400E86D000000B585B003900B4601928DF81B
:103674000B309DF80B30012B04D90D4940F2CA20C0
:10368400FEF796FA019BB3F1807F04D3084940F218
:10369400CB20FEF78DFA9DF80B30039A5B0113449F
:1036A40003F5A563019A1A6000BF05B05DF804FB39
:1036B400E86D000000B585B003900B4601928DF8CB
:1036C4000B309DF80B30012B04D90D4940F2D32067
:1036D400FEF76EFA019BB3F1807F04D308494FF4DF
:1036E4003570FEF765FA9DF80B30039A5B011344BD
:1036F40003F22C53019A1A6000BF05B05DF804FB75
:10370400E86D000082B001900B468DF8033013463B
:103714008DF802309DF803209DF802301B021A43F5
:10372400019BC3F8102500BF02B0704782B001901E
:103734000B46ADF80230BDF80220019BC3F81425F6
:1037440000BF02B07047000000B583B00190019B38
:103754001B68184600F08EF80346002B04D1054977
:103764004FF4F670FEF724FA4FF0A043184603B066
:103774005DF804FB186E000000B585B001900846A2
:1037840011461A4603468DF803300B468DF8023075
:1037940013468DF8013001AB1846FFF7D5FF0390AF
:1037A4009DF803209DF802305B001A439DF8013018
:1037B4009B001A439DF818301B0242EA03019DF84E
:1037C4001C301B04019A1943039B02F5E07243F871
:1037D400221000BF05B05DF804FB00B585B003906E
:1037E4000023019300230093002301220121039865
:1037F400FFF7C2FF00BF05B05DF804FB00B585B05C
:10380400019001AB1846FFF79FFF0390019B012233
:1038140002FA03F31946039800F018F800BF05B044
:103824005DF804FB00B585B0019001AB1846FFF7C5
:103834008BFF0390019B012202FA03F319460398BC
:1038440000F00EF800BF05B05DF804FB82B00190F3
:103854000091019B009AC3F8082500BF02B070478D
:1038640082B001900091019B009AC3F80C2500BF1F
:1038740002B0704784B00190019B5B09029300235E
:103884000393029B002B03D14FF0FF33039300BF3C
:10389400019B03F01F030193039A019B22FA03F394
:1038A40003F00103002B14BF01230023DBB21846ED
:1038B40004B0704700B589B00190009100238DF8E1
:1038C4001F3050E09DF81F30009AD35C8DF81E30F5
:1038D4009DF81E30FF2B38D09DF81E3003F0800376
:1038E400002B14BF012300238DF81D309DF81E20EA
:1038F4009DF81F3022F080029B0020336B4443F874
:10390400142C9DF81D30002B0AD09DF81F309B000D
:1039140020336B4453F8143C1846FFF76FFF09E05B
:103924009DF81F309B0020336B4453F8143C184619
:10393400FFF778FF9DF81F309B0020336B4453F84A
:10394400143C1846FFF749FF08E09DF81F309B0020
:1039540020336B444FF0FF3243F8142C9DF81F3092
:1039640001338DF81F309DF81F30032BAAD9019B1A
:103974001B6803AA11461846FFF794FD00BF09B05F
:103984005DF804FB00B587B0039002910192029B9D
:10399400002B03D13E498020FEF70AF9039B1B79D3
:1039A400DB003C4A13440593059B1B79DBB2002BD7
:1039B40003D008230493049B66E0059B019A1A60D4
:1039C40002990398FFF776FF039B1B681846FFF7DD
:1039D40060FD039B1868029B5979029B9A79029BAC
:1039E4001B89FFF781FD039B1868029B997A029B50
:1039F400DB7A1A46FFF786FE039B1B6800211846F4
:103A0400FFF733FD039B1B6800211846FFF737FDC2
:103A1400039B1B684FF48E711846FFF7FFFC039B52
:103A24001B684FF488711846FFF7F8FC039B1B686A
:103A34004FF48A711846FFF7F1FC039B1B684FF49F
:103A440082711846FFF7EAFC059B1B68002B15D012
:103A5400039B1B681846FFF791FC03461A46029B1A
:103A64001B7919461046FFF791FC039B1B68184607
:103A7400FFF784FC03461846FFF7A8FC059B0122C8
:103A84001A7100230493049B184607B05DF804FBE5
:103A94004C6E0000F006002000B587B00390029140
:103AA40011461A460B468DF8073013468DF806303A
:103AB400029B02221A71029B9DF807205A71029BF5
:103AC4001B68002B25D0822305939DF8073003F053
:103AD4000403002B03D0059B43F0100305939DF8CA
:103AE400073003F00803002B03D0059B43F02003A9
:103AF40005939DF8073003F01003002B03D0059BBA
:103B040023F080030593039B1B6805991846FFF770
:103B1400B6FC039B1B684FF482711846FFF77EFCCA
:103B24009DF90730002B0ADA039B1B689DF80620D9
:103B340011461846FFF766FC0490049B08E0039BBB
:103B44001B689DF8062011461846FFF74DFC00231C
:103B5400184607B05DF804FB00B589B003900291E4
:103B640000931346ADF80630039B1B79DB003C4AF7
:103B740013440593059B1B79DBB2002B04D139490F
:103B84004FF48D70FEF714F8BDF80630002B04D105
:103B9400344940F21B10FEF70BF8029B1B681846D1
:103BA400FFF7DEFB0346002B04D12E494FF48E7041
:103BB400FDF7FEFF039B1B68029A00211846FFF7DE
:103BC400C1FC039B1B68029A01211846FFF7BAFC4B
:103BD400BDF8063003F00103002B14BF01230023BA
:103BE4008DF81F30039B1A68BDF806305B089BB242
:103BF4009DF81F100B449BB219461046FFF796FD23
:103C0400009B03F00103002B02D0102306930FE066
:103C1400009B03F00203002B08D09DF81F30002BFB
:103C240001D0082300E00423069301E00023069357
:103C3400039B1B6806991846FFF717FC009BDAB232
:103C44009DF81F30002B01D00C2300E008230599B8
:103C54000398FFF721FF0346184609B05DF804FBFB
:103C6400F00600204C6E000000B583B00190009176
:103C74004FF488710198FFF7E6FB0346002B12D03E
:103C84004FF488710198FFF7C9FB009B5B7903F03F
:103C94000403002B07D0009B1B68002B03D0009B60
:103CA4001B68012098474FF48A710198FFF7CBFBFA
:103CB4000346002B12D04FF48A710198FFF7AEFB34
:103CC400009B5B7903F00803002B07D0009B1B6863
:103CD400002B03D0009B1B68022098474FF48E7181
:103CE4000198FFF7B0FB0346002B12D04FF48E71FE
:103CF4000198FFF793FB009B5B7903F01003002B03
:103D040007D1009B1B68002B03D0009B1B6800207D
:103D140098474FF482710198FFF795FB0346002BF7
:103D24000FD04FF482710198FFF778FB009B0122BA
:103D34001A71009B1B68002B03D0009B1B68032097
:103D4400984700BF03B05DF804FB000008B50349C1
:103D54000348FFF789FF00BF08BD00BFF00600203D
:103D640000C0014008B503490348FFF77DFF00BFC9
:103D740008BD00BFF80600200010024008B5034942
:103D84000348FFF771FF00BF08BD00BF0007002014
:103D94000020024082B003468DF807309DF90730B9
:103DA400002B0CDB9DF8073003F01F0205499DF939
:103DB40007305B09012000FA02F241F8232000BF1A
:103DC40002B0704700E100E082B003468DF807308E
:103DD4009DF90730002B13DB9DF8073003F01F0219
:103DE40009499DF907305B09012000FA02F22033EA
:103DF40041F82320BFF34F8F00BFBFF36F8F00BF85
:103E040000BF02B0704700BF00E100E082B003468B
:103E140000918DF807309DF90730002B0ADB009BD9
:103E2400DAB20C499DF907305201D2B20B4483F83F
:103E340000230BE0009BDAB207499DF8073003F03A
:103E44000F03043B5201D2B20B441A7600BF02B0F6
:103E5400704700BF00E100E000ED00E082B0019097
:103E6400019B1B0B5BB2184602B0704700B583B0D0
:103E740003460A468DF8073013468DF806309DF840
:103E84000630072B03D908496B20FDF791FE9DF8F6
:103E940006209DF9073011461846FFF7B7FF00BF0B
:103EA40003B05DF804FB00BF846E000000B583B06E
:103EB40003468DF807309DF907301846FFF76AFF6F
:103EC40000BF03B05DF804FB00B583B003468DF872
:103ED40007309DF907301846FFF776FF00BF03B09F
:103EE4005DF804FB84B001900B46ADF80230BDF8D8
:103EF4000230019A134400221A60BDF80230019A7C
:103F040013441B680393039B00BF04B0704782B043
:103F140001900B46ADF80230BDF80230019A13440B
:103F24001B68002B14BF01230023DBB2184602B028
:103F3400704782B001900091019B009AC3F804235A
:103F440000BF02B0704782B001900091019BD3F88A
:103F54000423009B1340002B14BF01230023DBB276
:103F6400184602B0704782B001900091019B009AFC
:103F7400C3F8082300BF02B0704784B00190019BCE
:103F8400D3F880340393019B039AC3F88024039BE2
:103F9400184604B0704782B00190019B0422C3F814
:103FA400002500BF02B0704782B00190019B00223F
:103FB400C3F8002500BF02B0704784B0039002919B
:103FC4000192039B019AC3F81425039B029AC3F838
:103FD4000C2500BF04B0704700B583B001904FF0CA
:103FE400FF324FF0FF310198FFF7E7FF00BF03B046
:103FF4005DF804FB82B00190019BD3F80C351846A0
:1040040002B0704782B00190019BD3F81435184672
:1040140002B0704782B00190019BD3F8083518466E
:1040240002B0704782B00190019BD3F81035184656
:1040340002B0704784B0039002910192039B029AEC
:10404400C3F80825039B019AC3F8102500BF04B0E8
:10405400704700B583B001904FF0FF324FF0FF314D
:104064000198FFF7E7FF00BF03B05DF804FB82B0DF
:104074000190019BD3F81835DBB2184602B07047A3
:1040840082B001900B468DF803309DF80320019B0C
:10409400C3F81C2500BF02B0704782B001900B46E4
:1040A4008DF803309DF80330019A134401221A60FD
:1040B40000BF02B0704782B001900B468DF8033008
:1040C40013468DF802309DF803209DF80230134307
:1040D400DBB21A46019BC3F86C2500BF02B07047DF
:1040E40082B001900091019B009AC3F8242500BF7F
:1040F40002B0704700B583B00190019B1B6818465D
:1041040000F096F80346002B04D105494FF4F670ED
:10411400FDF74EFD4FF0A043184603B05DF804FBD5
:10412400B46E000000B585B00190084611461A46E9
:1041340003468DF803300B468DF8023013468DF894
:10414400013001AB1846FFF7D5FF03909DF803201B
:104154009DF802305B001A439DF801309B001A431E
:104164009DF818301B0242EA03019DF81C301B0421
:10417400019A1943039B02F5E07243F8221000BF31
:1041840005B05DF804FB00B585B0039000230193EE
:10419400002300930023012201210398FFF7C2FFAB
:1041A40000BF05B05DF804FB00B585B003900B4675
:1041B4008DF80B309DF80B30002201920022009202
:1041C400002200210398FFF7ADFF00BF05B05DF8A2
:1041D40004FB00B585B003900023019300230093F2
:1041E4000023012200210398FFF79CFF00BF05B0C4
:1041F4005DF804FB00B585B0019001AB1846FFF7EC
:1042040079FF0390019B012202FA03F319460398F4
:1042140000F004F800BF05B05DF804FB82B0019023
:104224000091019B009AC3F8082500BF02B07047B3
:1042340084B00190019B5B09029300230393029BCA
:10424400002B03D14FF0FF33039300BF019B03F016
:104254001F030193039A019B22FA03F303F0010362
:10426400002B14BF01230023DBB2184604B07047AF
:1042740000B583B001900091009B1B68B3F1FF3F30
:1042840009D0009B1B681846FFF7B4FF009B1B680E
:104294001846FFF778FF009B5B68B3F1FF3F05D03A
:1042A400009B5B6800211846FFF77EFF019B1A689C
:1042B400009B9B6919461046FFF712FF019B186883
:1042C400009B597D009B1B7D1A46FFF7F4FE019B62
:1042D4001868009B1968009B5B681A46FFF76DFE1F
:1042E400009B1B7D012B22D1009B9B68B3F1FF3FF8
:1042F40005D0009B9B6800211846FFF755FF009BE3
:10430400DB68B3F1FF3F09D0009BDB681846FFF779
:1043140071FF009BDB681846FFF735FF019B1868A7
:10432400009BD968009B9B681A46FFF783FE00BF79
:1043340003B05DF804FB000000B583B001900B46A8
:104344008DF80330019B1B684FF48E711846FFF7FC
:10435400C9FD019B1B684FF4A2711846FFF7C2FD0B
:10436400019B1B680E491846FFF7E3FD019B1B6880
:104374001846FFF773FD03461A469DF803301946A5
:104384001046FFF773FD019B1B681846FFF766FD97
:1043940003461846FFF78AFD00BF03B05DF804FB2F
:1043A4008000020000B583B00190019B1B6808499E
:1043B4001846FFF7D8FD019B1B681846FFF74EFD12
:1043C40003461846FFF780FD00BF03B05DF804FB09
:1043D4008402020000B587B00190019B1B68184657
:1043E400FFF708FE0590019B1B681846FFF70AFEBD
:1043F4000490019B1B681846FFF70CFE0390019B79
:104404001B681846FFF70EFE0290019B1B681846B6
:10441400FFF7E2FD019B1B681846FFF71AFE059B98
:10442400B3F1FF3F02D00598FFF7D3FE049BB3F12D
:10443400FF3F02D00498FFF7CCFE029BB3F1FF3F8D
:1044440002D00298FFF7C5FE039BB3F1FF3F02D0F1
:104454000398FFF7BEFE00BF07B05DF804FB000041
:1044640000B587B0039002910192029B002B03D107
:104474002D49AA20FDF79CFB039B1B791A462C238C
:1044840002FB03F3294A1344049300230593049B7A
:1044940093F82A30002B03D008230593059B3EE0B4
:1044A400039B1A68039B1B791946214B53F821304F
:1044B40019461046FEF7BAFE0346002B03D011231B
:1044C4000593059B2BE002990398FFF7D1FE049B0B
:1044D400019A5A60029B1A69049B1A60049B5B68E8
:1044E400002B05D0029B1B7F19460398FFF724FF7E
:1044F400039B1B681846FFF74EFD049B00229A613C
:10450400049B0022DA61049B002283F82920049B87
:1045140000225A61049B012283F82A20059B184635
:1045240007B05DF804FB00BFEC6E00000807002034
:10453400246F000000B585B00190019B1B791A46D9
:104544002C2302FB03F3114A13440393019B1B68BE
:104554001846FFF729FD039B5B68002B02D00198E6
:10456400FFF720FF0198FFF735FF019B1B681846F2
:10457400FEF796FE039B002283F82A20039B002269
:104584005A6000BF05B05DF804FB00BF08070020B7
:1045940000B585B0019000914FF48E710198FFF73A
:1045A400A1FC009B9A68009B1B6A13441B788DF83E
:1045B4000F30009B1B6A5A1C009B1A629DF80F3037
:1045C40019460198FFF75CFD00BF05B05DF804FBD8
:1045D40000B585B001900091009B5B69039316E0E0
:1045E400009B93F82830DBB2002B01D0002314E0A9
:1045F4004FF48E710198FFF78AFC034683F00103A0
:10460400DBB2002BECD100990198FFF7C1FF009BAE
:104614001B6A039A9A42EBD80123184605B05DF849
:1046240004FB000000B587B0039002910192039B44
:104634001B791A462C2302FB03F33C4A13440493CC
:10464400049B93F82A30012B04D039494FF48C7021
:10465400FDF7AEFA029B002B04D1354940F2191044
:10466400FDF7A6FA019B002B04D131494FF48D705C
:10467400FDF79EFA039800F05DF80346002B03D083
:1046840011230593059B4CE0049B019A5A61049BFA
:10469400029A9A60049B00221A62049B002283F807
:1046A400282000230593039B1B684FF48E71184642
:1046B400FFF718FC039B1B6808211846FFF7EDFC65
:1046C400039B1B6804991846FFF762FF049B5B6811
:1046D400002B25D1039B1B6804991846FFF778FF2C
:1046E400034683F00103DBB2002B02D00F230593B2
:1046F40013E000BF039B1B684FF48E711846FFF74D
:1047040006FC034683F00103DBB2002BF2D1039BCA
:104714001B680C211846FFF7C0FC049B00225A6159
:10472400059B184607B05DF804FB00BF080700208E
:10473400EC6E000082B00190019B1B791946074A78
:104744002C2301FB03F3134414331B68002B14BF05
:1047540001230023DBB2184602B07047080700208B
:1047640010B582B001900091009B9B69002B08D189
:104774004FF484710198FFF7B5FB0198FFF777FCBC
:1047840013E04FF484710198FFF7ACFB009BDA68E7
:10479400009B5B6AD4180198FFF769FC03462370F9
:1047A400009B5B6A5A1C009B5A6202B010BD00B5A4
:1047B40089B003900291019201238DF81030029B7D
:1047C4000693019B0593039B5B68039A116804AAF3
:1047D4001046984700BF09B05DF804FB00B587B0E8
:1047E4000190009100238DF80830009B0493019BF5
:1047F4009B680393019B00225A61019B5B68019AA9
:10480400116802AA1046984700BF07B05DF804FB80
:1048140000B58BB0019000914FF400710198FFF73F
:1048240092FB0346002B39D04FF492710198FFF7A5
:104834006EFB0346002B31D04FF492710198FFF7C1
:1048440051FB4FF401710198FFF78DFB009B93F826
:10485400293083F00103DBB2002B03D0042101983B
:10486400FFF71BFC02238DF80C300198FFF785FB42
:1048740003460693009B9B690593009BDB680493A6
:10488400009B00229A61009B0022DA61009B5B6816
:10489400009A116803AA1046984752E0042101982F
:1048A400FFF751FB0346002B4BD04FF48471019862
:1048B400FFF72DFB0346002B43D000990198FFF727
:1048C4004FFF009B9A69009B5B6A9A4239D1009B17
:1048D400DB69002B19D0009BDB680993009B5B6AA2
:1048E4000893009BDA69009B9A61009B1A69009BFC
:1048F400DA60009B0022DA61009B00225A62099A66
:1049040008990098FFF753FF1BE0009B93F82930A8
:1049140083F00103DBB2002B03D004210198FFF7DD
:10492400BCFB4FF401710198FFF71DFB009B0022B3
:104934009A61009B596A009BDB681A460098FFF74E
:1049440036FF4FF48E710198FFF7E1FA0346002B0E
:1049540024D0009B5B690793009B1B6A079A9A42C9
:104964000DD9009B93F82830DBB283F00103DBB24E
:10497400002B04D000990198FFF70AFE0EE04FF4D3
:104984008E710198FFF7AEFA009B5B69002B05D08E
:10499400009B5B6919460098FFF720FF4FF4A27152
:1049A4000198FFF7B4FA0346002B1CD04FF4A27110
:1049B4000198FFF797FA009B93F82930002B03D056
:1049C40000210198FFF769FB009B9B69002B0AD02B
:1049D400009B00229A61009B596A009BDB681A467F
:1049E4000098FFF7E4FE00BF0BB05DF804FB000085
:1049F40008B503490348FFF70BFF00BF08BD00BF1C
:104A0400080700200020004082B003468DF80730DC
:104A14009DF90730002B0CDB9DF8073003F01F02D3
:104A240005499DF907305B09012000FA02F241F8BB
:104A3400232000BF02B0704700E100E082B00346CB
:104A44008DF807309DF90730002B13DB9DF80730F4
:104A540003F01F0209499DF907305B09012000FAA0
:104A640002F2203341F82320BFF34F8F00BFBFF37E
:104A74006F8F00BF00BF02B0704700BF00E100E0CD
:104A840082B0034600918DF807309DF90730002B62
:104A94000ADB009BDAB20C499DF907305201D2B20D
:104AA4000B4483F800230BE0009BDAB207499DF81E
:104AB400073003F00F03043B5201D2B20B441A76C1
:104AC40000BF02B0704700BF00E100E000ED00E06D
:104AD40082B00190019B03F06043B3F1005F0CBF0F
:104AE40001230023DBB2184602B0704782B0019064
:104AF400019B1B0B5BB2184602B0704700B583B034
:104B040003460A468DF8073013468DF806309DF8A3
:104B14000630072B03D908496B20FDF749F89DF8A7
:104B240006209DF9073011461846FFF7A9FF00BF7C
:104B340003B05DF804FB00BF286F000000B583B02C
:104B440003468DF807309DF907301846FFF75CFFE0
:104B540000BF03B05DF804FB00B583B003468DF8D5
:104B640007309DF907301846FFF768FF00BF03B010
:104B74005DF804FB84B001900B46ADF80230BDF83B
:104B84000230019A134400221A60BDF80230019ADF
:104B940013441B680393039B00BF04B0704782B0A7
:104BA40001900B46ADF80230BDF80230019A13446F
:104BB4001B68002B14BF01230023DBB2184602B08C
:104BC400704782B001900091019BD3F80022009BB2
:104BD400DB431A40019BC3F8002200BF02B07047B8
:104BE40082B001900091019B009AC3F8042300BF96
:104BF40002B0704782B001900091019B009AC3F803
:104C0400082300BF02B0704784B00190019BD3F821
:104C140080340393019B039AC3F88024039B1846B2
:104C240004B0704782B00190019B0822C3F80025AC
:104C340000BF02B0704782B00190019B0022C3F80C
:104C4400002500BF02B0704784B003900291019226
:104C5400039B029AC3F80C25039B019AC3F81425FD
:104C640000BF04B0704700B583B001904FF0FF322D
:104C74004FF0FF310198FFF7E7FF00BF03B05DF885
:104C840004FB82B00190019BD3F80C35184602B0A6
:104C9400704782B00190019BD3F81435184602B0D6
:104CA400704782B00190019BD3F80835184602B0D2
:104CB400704782B00190019BD3F81035184602B0BA
:104CC400704784B0039002910192039B029AC3F847
:104CD4000825039B019AC3F8102500BF04B0704750
:104CE40000B583B001904FF0FF324FF0FF310198CF
:104CF400FFF7E7FF00BF03B05DF804FB82B001904B
:104D04000B468DF803309DF80330019A13440122B9
:104D14001A6000BF02B0704782B001900B468DF854
:104D2400033013468DF802309DF803209DF80230BD
:104D34001343DBB21A46019BC3F86C2500BF02B0D3
:104D4400704782B001900091019B009AC3F824251A
:104D540000BF02B0704784B0039002910192029A9E
:104D6400039BC3F84425039B019AC3F8482500BF5D
:104D740004B0704782B00190019BD3F84C351846BB
:104D840002B0704782B00190019BD3F83C351846BD
:104D940002B0704700B583B00190019B1B681846B0
:104DA40000F096F80346002B04D105494FF4F67041
:104DB400FCF7FEFE4FF0A043184603B05DF804FB79
:104DC400586F000000B585B00190084611461A4698
:104DD40003468DF803300B468DF8023013468DF8E8
:104DE400013001AB1846FFF7D5FF03909DF803206F
:104DF4009DF802305B001A439DF801309B001A4372
:104E04009DF818301B0242EA03019DF81C301B0474
:104E1400019A1943039B02F5E07243F8221000BF84
:104E240005B05DF804FB00B585B003900023019341
:104E3400002300930023012201210398FFF7C2FFFE
:104E440000BF05B05DF804FB00B585B003900B46C8
:104E54008DF80B309DF80B30002201920022009255
:104E6400002200210398FFF7ADFF00BF05B05DF8F5
:104E740004FB00B585B00390002301930023009345
:104E84000023012200210398FFF79CFF00BF05B017
:104E94005DF804FB00B585B0019001AB1846FFF73F
:104EA40079FF0390019B012202FA03F31946039848
:104EB40000F004F800BF05B05DF804FB82B0019077
:104EC4000091019B009AC3F8082500BF02B0704707
:104ED40084B00190019B5B09029300230393029B1E
:104EE400002B03D14FF0FF33039300BF019B03F06A
:104EF4001F030193039A019B22FA03F303F00103B6
:104F0400002B14BF01230023DBB2184604B0704702
:104F140000B583B001900091009B1B68B3F1FF3F83
:104F240009D0009B1B681846FFF7B4FF009B1B6861
:104F34001846FFF778FF009B5B68B3F1FF3F05D08D
:104F4400009B5B6800211846FFF77EFF019B1A68EF
:104F5400009B9B6919461046FFF7F3FE019B1868F6
:104F6400009B597D009B1B7D1A46FFF7D5FE019BD4
:104F74001868009B1968009B5B681A46FFF764FE7B
:104F8400009B1B7D012B22D1009B9B68B3F1FF3F4B
:104F940005D0009B9B6800211846FFF755FF009B36
:104FA400DB68B3F1FF3F09D0009BDB681846FFF7CD
:104FB40071FF009BDB681846FFF735FF019B1868FB
:104FC400009BD968009B9B681A46FFF77AFE00BFD6
:104FD40003B05DF804FB000000B583B001900B46FC
:104FE4008DF80330019B1B684FF488711846FFF756
:104FF400C1FD019B1B684FF490711846FFF7BAFD81
:10500400019B1B684FF492711846FFF7B3FD019B97
:105014001B684FF4A2711846FFF7ACFD019B1B6897
:105024004FF4AC711846FFF7A5FD019B1B680F49AF
:105034001846FFF7D5FD019B1B681846FFF756FD80
:1050440003461A469DF8033019461046FFF756FDED
:10505400019B1B681846FFF749FD03461846FFF7F6
:105064006DFD00BF03B05DF804FB00BF10034200F8
:1050740000B583B00190019B1B6808491846FFF7EF
:10508400B9FD019B1B681846FFF730FD034618461F
:10509400FFF762FD00BF03B05DF804FB100342009C
:1050A40000B587B00190019B1B681846FFF7E9FD26
:1050B4000590019B1B681846FFF7EBFD0490019BCC
:1050C4001B681846FFF7EDFD0390019B1B6818460B
:1050D400FFF7EFFD0290019B1B681846FFF7C3FD25
:1050E400019B1B681846FFF7FBFD059BB3F1FF3FCF
:1050F40002D00598FFF7BDFE049BB3F1FF3F02D039
:105104000498FFF7B6FE029BB3F1FF3F02D002986A
:10511400FFF7AFFE039BB3F1FF3F02D00398FFF705
:10512400A8FE00BF07B05DF804FB000000B587B01F
:10513400039002910192029B002B03D12B49CF20B3
:10514400FCF736FD039B1B791A461346DB00134418
:105154009B00274A1344049300230593049B93F86C
:105164002030002B03D008230593059B3AE0039BD2
:105174001A68039B1B7919461E4B53F821301946B4
:105184001046FEF753F80346002B03D01123059372
:10519400059B27E002990398FFF7BAFE049B019A46
:1051A4005A60029B1A69049B1A60049B5B68002B7B
:1051B40005D0029B1B7F19460398FFF70DFF039B45
:1051C4001B681846FFF72EFD049B00229A61049B7E
:1051D4000022DA61049B00225A61049B012283F8B5
:1051E4002020059B184607B05DF804FB906F000073
:1051F40034070020C86F000000B585B00190019B02
:105204001B791A461346DB0013449B002A4A1344B5
:105214000393019B1B680293039B5B68002B02D0E2
:105224000198FFF725FF20210298FFF7CAFC039B92
:105234009B69002B08D04FF4A2710298FFF79AFCE7
:1052440004210298FFF75AFD4FF4AC710298FFF75E
:1052540091FC0C210298FFF751FD00BF4FF4AC7193
:105264000298FFF79CFC034683F00103DBB2002B9A
:10527400F4D1039B9B69002B0AD04FF4A2710298CE
:10528400FFF78DFC034683F00103DBB2002BE5D16D
:105294000298FFF7D0FC0198FFF702FF0298FDF790
:1052A400FFFF039B002283F82020039B00225A6007
:1052B40000BF05B05DF804FB3407002000B589B0D9
:1052C400039002910192039B1B791A461346DB005B
:1052D40013449B00564A13440593059B93F82030CE
:1052E400012B04D0534940F25310FCF761FC029B9C
:1052F400002B04D14F494FF4AA70FCF759FC019BD1
:10530400002B04D14B4940F25510FCF751FC039B90
:105314001B79002B02D1019BFF2B04D945494FF483
:10532400AB70FCF745FC0298FFF7D2FB034683F011
:105334000103DBB2002B03D010230793079B73E018
:10534400039800F079F80346002B03D01123079348
:10535400079B69E0059B019A5A61059B029A9A6032
:1053640000230793039B1B684FF490711846FFF7C3
:1053740001FC039B1B684FF4AC711846FFF7FAFB62
:10538400039B1868059B9968059B5B691A46FFF7A0
:10539400E2FC039B1B6808211846FFF7AFFC059B42
:1053A4005B68002B3FD1039B1B684FF49071184638
:1053B400FFF7F5FB03468DF81B30039B1B684FF486
:1053C400AC711846FFF7EBFB03468DF81A309DF8D5
:1053D4001B3083F00103DBB2002B06D09DF81A309A
:1053E40083F00103DBB2002BDDD19DF81A30002BD2
:1053F40002D00F23079313E0039B1B680C2118466C
:10540400FFF77CFC00BF039B1B684FF4AC7118468C
:10541400FFF7C5FB034683F00103DBB2002BF2D197
:10542400059B00225A61079B184609B05DF804FBEE
:1054340034070020906F000082B00190019B1B791B
:105444001946084A0B46DB000B449B0013441433F3
:105454001B68002B14BF01230023DBB2184602B0E3
:10546400704700BF3407002000B589B00390029153
:10547400019201238DF81030029B0693019B059342
:10548400039B5B68039A116804AA1046984700BFFF
:1054940009B05DF804FB00B587B0019000910023CA
:1054A4008DF80830009B0493019B9B680393019B38
:1054B40000225A61019B5B68019A116802AA104696
:1054C400984700BF07B05DF804FB00B589B00190B0
:1054D40000914FF492710198FFF761FB0346002B92
:1054E40022D04FF492710198FFF744FB02238DF808
:1054F40008300198FFF788FB034605930198FFF7EE
:1055040041FC03460493009BDB680393009B002249
:105514009A61009B0022DA61009B5B68009A116823
:1055240002AA104698473BE04FF488710198FFF7B0
:1055340036FB0346002B33D04FF488710198FFF7F4
:1055440019FB0198FFF71EFC0790009B9B69079AC3
:105554009A4225D1009BDB69002B17D0009BDB68A6
:10556400069320210198FFF72CFB009BDA69009B2E
:105574009A61009B1A69009BDA60009B0022DA6141
:10558400069A07990098FFF76FFF09E0009B002235
:105594009A61009BDB681A4607990098FFF764FF3D
:1055A4004FF4A2710198FFF7FAFA0346002B18D0C2
:1055B4004FF4A2710198FFF7DDFA009B9B69002B61
:1055C4000FD0009B00229A61009B0022DA610198AF
:1055D400FFF7D8FB0146009BDB681A460098FFF7EB
:1055E40043FF4FF490710198FFF7D9FA0346002B5B
:1055F40014D04FF490710198FFF7BCFA0C21019874
:10560400FFF77CFB009B5B69002B07D00198FFF739
:10561400B1FB034619460098FFF73DFF4FF4AC7108
:105624000198FFF7BCFA0346002B10D04FF4AC717D
:105634000198FFF79FFA009B5B69002B07D0019844
:10564400FFF798FB034619460098FFF724FF00BFB5
:1056540009B05DF804FB000008B503490348FFF7EF
:1056640034FF00BF08BD00BF340700200020004005
:1056740000B587B0002305931BE01B4B1A881B4B16
:105684001B8813449AB2184B1A80174B1988184A6E
:10569400059B22F81310144B1B88059A6432C3F53A
:1056A4009C43203399B2124B23F81210059B01330B
:1056B4000593059B632BE0DD0E4A01AB07CA83E823
:1056C400070001AB002219460B48FEF75BF9049072
:1056D400049B002B04D0094A35210498FCF766F991
:1056E40000BF07B05DF804FBE8080020600000205C
:1056F400580700200070000058000020CC6F000004
:1057040000B583B04FF480410020FBF781F801908D
:10571400019B0093009B002B04D0054A3B21009879
:10572400FCF744F9FBF70AF800BF03B05DF804FB8B
:10573400CC6F000010B584B0064B6C460FCB84E8E8
:105744000F006946022301220348FEF705FA00BF51
:1057540004B010BD0C7000005800002008B5FFF71D
:10576400CFFFFFF785FF0120FCF7BEF8FFF7E2FF4C
:10577400064A074BD31ADB081B0443F0030305490D
:105784001846FBF713FBFBF76DFBFCE71462000004
:10579400E46100001C700000BFF34F8F00BF064B94
:1057A400DB6803F4E0620449044B1343CB60BFF3AA
:1057B4004F8F00BF00BFFDE700ED00E00400FA05D5
:1057C40082B01D4B1B68B3F1FF3F0AD11B4B1B6812
:1057D400DBB201931A4B1B681B0903F00F03009300
:1057E40005E0154B1B680193164B1B680093019B46
:1057F400062B1DD1009B033B042B17D801A252F8A2
:1058040023F000BF1D580000215800002558000057
:10581400295800002D58000001230AE0012308E064
:10582400012306E0012304E0012302E0012300E058
:105834000023184602B0704730010010E00F00F05A
:10584400E80F00F03401001082B0174B1B68DBB284
:105854000193164B1B681B0903F00F030093019B74
:10586400062B1DD1009B033B042B17D801A252F831
:1058740023F000BF8D580000915800009558000097
:10588400995800009D58000001230AE0002308E015
:10589400002306E0002304E0002302E0002300E0EC
:1058A4000023184602B07047E00F00F0E80F00F044
:1058B40082B01D4B1B68B3F1FF3F0AD11B4B1B6821
:1058C400DBB201931A4B1B681B0903F00F0300930F
:1058D40005E0154B1B680193164B1B680093019B55
:1058E400062B1DD1009B033B042B17D801A252F8B1
:1058F40023F000BF0D590000115900001559000094
:10590400195900001D59000001230AE0012308E091
:10591400012306E0012304E0012302E0012300E067
:105924000023184602B0704730010010E00F00F069
:10593400E80F00F03401001082B0174B1B68DBB293
:105944000193164B1B681B0903F00F030093019B83
:10595400062B1DD1009B033B042B17D801A252F840
:1059640023F000BF7D5900008159000085590000D3
:10597400895900008D59000001230AE0002308E042
:10598400002306E0002304E0002302E0002300E0FB
:105994000023184602B07047E00F00F0E80F00F053
:1059A40082B01D4B1B68B3F1FF3F0AD11B4B1B6830
:1059B400DBB201931A4B1B681B0903F00F0300931E
:1059C40005E0154B1B680193164B1B680093019B64
:1059D400062B1DD1009B033B042B17D801A252F8C0
:1059E40023F000BFFD590000015A0000055A0000D1
:1059F400095A00000D5A000001230AE0012308E0BF
:105A0400012306E0012304E0012302E0012300E076
:105A14000023184602B0704730010010E00F00F078
:105A2400E80F00F03401001082B0174B1B68DBB2A2
:105A34000193164B1B681B0903F00F030093019B92
:105A4400062B1DD1009B033B042B17D801A252F84F
:105A540023F000BF6D5A0000715A0000755A00000F
:105A6400795A00007D5A000001230AE0002308E06F
:105A7400002306E0002304E0002302E0002300E00A
:105A84000023184602B07047E00F00F0E80F00F062
:105A940082B0174B1B68DBB20193164B1B681B09C2
:105AA40003F00F030093019B062B1DD1009B033BC6
:105AB400042B17D801A252F823F000BFD55A0000D6
:105AC400D95A0000DD5A0000E15A0000E55A0000EE
:105AD40001230AE0002308E0002306E0002304E099
