:020000022000DC
:106000000000012019620200016202000362020026
:10601000056202000762020009620200000000003F
:106020000000000000000000000000000B62020001
:106030000D620200000000000F6202001162020007
:10604000DD230300136202004131030013620200EA
:1060500013620200136202003D300300136202006B
:106060001362020013620200136202001362020054
:106070001362020013620200136202001362020044
:1060800013620200016F0300136202001362020038
:1060900013620200136202000DC4030013620200C7
:1060A0001362020013620200136202001362020014
:1060B00013620200136202000000000000000000F2
:1060C00013620200136202001362020013620200F4
:1060D000136202001362020013620200000000005B
:1060E00000000000000000000000000000000000B0
:1060F00000000000000000000000000000000000A0
:10610000000000000000000000000000000000008F
:10611000000000000000000000000000000000007F
:10612000000000000000000000000000000000006F
:10613000000000000000000000000000000000005F
:10614000000000000000000000000000000000004F
:10615000000000000000000000000000000000003F
:10616000000000000000000000000000000000002F
:10617000000000000000000000000000000000001F
:10618000000000000000000000000000000000000F
:1061900000000000000000000000000000000000FF
:1061A00000000000000000000000000000000000EF
:1061B00000000000000000000000000000000000DF
:1061C00000000000000000000000000000000000CF
:1061D00000000000000000000000000000000000BF
:1061E00000000000000000000000000000000000AF
:1061F000000000000000000000000000000000009F
:10620000FEE7FEE7FEE7FEE7FEE7FEE7FEE7FEE766
:10621000FEE7FEE700F002B8FFF7FCBF0F484FF0C3
:106220000701884385460E4880470E48016841F4BF
:1062300070010160BFF34F8FBFF36F8F00F01AB88A
:1062400009480A490A4A884207D0521A05D00378F9
:1062500001300B700131013AF9D170470000012083
:106260001987020088ED00E098CD0300D82A0020AD
:10627000EC2A00203A493B480A1A02D007229143EF
:106280008D46394939480A1A06D00722914381F3CD
:106290000988022282F3148835483649364A00F0CC
:1062A00041F836483649374A00F03CF83648374915
:1062B000374A00F037F837483749384A00F032F8A3
:1062C00037483849384A00F02DF838483849394AB3
:1062D00000F028F838483949394A00F023F839489D
:1062E0003949002200F036F838483949002200F0D8
:1062F00031F838483849091A16F07EFB374A90477A
:1063000025482649884205D00268043003B49047E6
:1063100003BCF7E700208646EC4600200021304A07
:106320009047FEE7884214D0521A12D003460B431E
:1063300013430324234206D1036804300B60043165
:10634000043AF9D17047037801300B700131013AFA
:10635000F9D17047884202D002700130FAE77047E5
:106360000000012000E000200000012000000120CA
:10637000A4060400EC2A0020982C0020E46302000C
:10638000E463020022CC0300A4060400EC2A0020EF
:10639000EC2A0020ACCD0300ACCD0300ACCD030053
:1063A000ACCD0300ACCD0300ACCD0300ACCD0300FD
:1063B000ACCD0300A106040050080400982C002076
:1063C000982C0020982C00203041002030410020E3
:1063D0003041002030410020306100204162020045
:0463E000D56F020073
:1063E40076DF704700BF18467ADF704700BF184653
:1063F4007CDF704700BF18468FDF704700BF184628
:1064040033DF704700BF184600B583B003460091E0
:10641400ADF80630BDF80630009A194603480FF06F
:1064240027F900BF03B05DF804FB00BFEFBEADDE8B
:1064340000B583B00190019808F09AFF019809F023
:1064440039FB019808F0F8FF019B1B780D2B03D151
:10645400002000F099FD00E000BF00BF03B05DF82C
:1064640004FB000000B583B00FF05CFD0190019BBC
:106474000093009B002B04D0044ABA2100980FF02B
:10648400F7F800BF03B05DF804FB00BFACCD030018
:1064940000B587B09DF80030012262F303038DF844
:1064A40000309DF80030012262F307138DF80030AC
:1064B4006B460B221A491846FFF79AFF0590059B75
:1064C4000493049B002B04D0164ACD2104980FF0AA
:1064D400CFF801AB08220021184616F005FB102363
:1064E400ADF804303C23ADF806300023ADF8083095
:1064F4004FF4C873ADF80A3001AB1846FFF774FFC8
:106504000590059B0393039B002B04D0054AD721D8
:1065140003980FF0ADF800BF07B05DF804FB00BFAF
:10652400E4CD0300ACCD030000B583B00190044A70
:10653400E42101980FF09CF800BF03B05DF804FB60
:10654400ACCD030000B587B00190019B1B78002BF4
:1065540044D1002305932BE0019B1A69059B134446
:106564001B7818460FF0FAFF0490049B002B19D0F7
:10657400049B112B16D01B4A1B4BD31ADB081B049C
:1065840043F00103049A1949184615F085F8049B51
:106594000393039B002B05D0154A4FF48171039894
:1065A4000FF066F8049B112BD6D0059B013305939D
:1065B400019B9B8A1A46059B9342CDD3019B1A6982
:1065C400019B9B8A013B13441B780D2B06D100BF12
:1065D4000A200FF0C3FF0346112BF9D000BF07B008
:1065E4005DF804FBE0CC0300B8CC0300F0CD03005D
:1065F400ACCD030000B587B000230193174B019382
:1066040001AB1946164806F0DBFC0590059B049384
:10661400049B002B05D0134A4FF48E7104980FF09D
:1066240027F802AB04220021184616F05DFA0E4B3F
:10663400029302AB19460D480BF02EFA0590059B08
:106644000393039B002B05D0064A4FF492710398E1
:106654000FF00EF800BF07B05DF804FB2D650200D3
:10666400B02C0020ACCD030049650200F42A0020C0
:1066740000B585B00190019B1B78002B11D10B4B09
:106684001B883B211846FFF7ABFE0390039B029344
:10669400029B002B05D0064A4FF49D7102980EF020
:1066A400E7FF00BF05B05DF804FB00BF102B00201E
:1066B400ACCD030000B583B00190054A40F245110A
:1066C40001980EF0D5FF00BF03B05DF804FB00BFD6
:1066D400ACCD030000B58BB001AB1C2200211846E1
:1066E40016F002FA002301934FF4A03302934FF4FF
:1066F400F023039303238DF810300023ADF81230F8
:1067040000238DF814300C4B06930C4B079301AB0C
:10671400184603F03DFD0990099B0893089B002B44
:1067240005D0074A4FF4AE7108980EF0A1FF00BFE0
:106734000BB05DF804FB00BF75660200B966020089
:10674400ACCD030000B585B0002001F0C5FA03907C
:10675400039B0293029B002B05D0134A40F267115E
:1067640002980EF085FF01F040FC0390039B019317
:10677400019B002B05D00C4A40F26B1101980EF0DE
:1067840077FFFFF73DFE0390039B0093009B002BD4
:1067940005D0054A40F26F1100980EF069FF00BF62
:1067A40005B05DF804FB00BFACCD030000B585B0B7
:1067B40003468DF807309DF80730002B11D0032BCA
:1067C40012D1022001F088FA0390039B0293029BEA
:1067D400002B0BD0084A40F2811102980EF048FFBA
:1067E40004E0FFF7AFFF02E000BF00E000BF00BF1E
:1067F40005B05DF804FB00BFACCD030000B58BB061
:1068040001900091019B1B88562B00F0A880562B09
:1068140000F3B8803B2B00F08F803B2B00F3B28059
:10682400212B6FD0212B00F3AD80102B02D0112B24
:106834004FD0A7E05A4A5B4BD31ADB081B0443F042
:1068440003035949184614F019FF072001F044FACC
:106854000990099B0593059B002B05D0534A4FF4DF
:10686400CD7105980EF004FF019B9A88504B1A8055
:106874004F4B1B8819464F4806F0C4FB0990099BEF
:106884000493049B002B05D0484A40F29D110498C0
:106894000EF0EEFE012000F03DFD022000F03AFD76
:1068A400032000F037FD019B9B880021184608F067
:1068B40045FA0990099B112B66D0099B0393039B0E
:1068C400002B61D0394A40F2A51103980EF0D0FE96
:1068D4005AE0334A334BD31ADB081B0443F0030357
:1068E4003549184614F0CAFE012000F02DFD02209F
:1068F40000F02AFD032000F027FD2D4B4FF6FF7218
:106904001A8048E000238DF8083000238DF8093000
:10691400019B9B8802AA11461846FFF76DFD09905A
:10692400099B0693069B002B30D0204A40F2BB11F2
:1069340006980EF09DFE29E0019B9B8813211846C2
:10694400FFF74EFD0990099B0893089B002B1FD06D
:10695400164A40F2CF1108980EF08AFE18E0019B07
:106964009B8813211846FFF73BFD0990099B079369
:10697400079B002B0ED00D4A40F2D71107980EF05A
:1069840077FE07E000BF06E000BF04E000BF02E0BE
:1069940000BF00E000BF00BF0BB05DF804FB00BF08
:1069A400E0CC0300B8CC03001CCE0300ACCD030044
:1069B400102B0020B02C002028CE030000B587B097
:1069C40015F042FC0590059B0493049B002B05D015
:1069D400164A4FF4F57104980EF04AFE0023019311
:1069E40001AB1946012015F045FD0590059B039365
:1069F400039B002B05D00D4A4FF4F87103980EF059
:106A040037FE01AB184615F053FE0590059B029323
:106A1400029B002B05D0054A4FF4FA7102980EF040
:106A240027FE00BF07B05DF804FB00BFACCD030038
:106A340000B587B008F080F80590059B0493049B8B
:106A4400002B05D0384A40F2022104980EF010FEC3
:106A54006B4605220021184616F046F89DF80030D2
:106A640043F001038DF800309DF8003023F0020359
:106A74008DF800309DF8003023F004038DF80030C9
:106A84009DF8003023F008038DF800309DF80030A5
:106A9400032262F306138DF800309DF8003023F0D2
:106AA40080038DF8003007238DF8013010238DF812
:106AB40002309DF8033043F001038DF803309DF854
:106AC400033043F002038DF803309DF8043043F0A3
:106AD40001038DF804309DF8043043F002038DF86F
:106AE40004306B46184608F011F90590059B039392
:106AF400039B002B05D00C4A40F2152103980EF09D
:106B0400B7FD0A4808F0DAF80590059B0293029B4A
:106B1400002B05D0044A4FF4067102980EF0A8FD2C
:106B240000BF07B05DF804FBACCD03003564020080
:106B340000B583B00E4A0F4BD31ADB081B0443F095
:106B440003030D49184614F099FD08F055F9019016
:106B5400019B0093009B002B05D0084A40F225219D
:106B640000980EF085FD00BF03B05DF804FB00BF84
:106B7400E0CC0300B8CC030038CE0300ACCD030056
:106B840000B583B001900091009B5A88114B1B887B
:106B94009A421AD1009B1B8840F67722934214D163
:106BA400009B9B88033B9AB20B4B1A800B4A0C4BFD
:106BB400D31ADB081B0443F00300074B1B881A4657
:106BC400054B1B88074914F078FD00BF03B05DF83E
:106BD40004FB00BF102B0020122B0020E0CC03008C
:106BE400B8CC030048CE030000B585B01149124863
:106BF40006F0E6F80390039B0293029B002B05D05A
:106C04000E4A4FF40F7102980EF032FDF7210A4834
:106C140006F001F90390039B0193019B002B05D01F
:106C2400064A40F23F2101980EF022FD00BF05B054
:106C34005DF804FB856B02009C2C0020ACCD0300A6
:106C440000B587B003468DF807309DF807300A2B4E
:106C540006D00A2B36DC042B05D0072B19D031E0E3
:106C6400FFF770FD33E01C4B1B8813211846FFF718
:106C7400B7FB0590059B082B26D0059B0393039B2C
:106C8400002B21D0154A4FF4157103980EF0F0FC37
:106C94001AE0114B1B884FF6FF72934216D110482D
:106CA40003F0F7F80590059B082B0FD0059B049380
:106CB400049B002B0AD0094A40F25E2104980EF08E
:106CC400D7FC03E000BF02E000BF00E000BF00BF4C
:106CD40007B05DF804FB00BF102B0020ACCD03000F
:106CE400BC2C002000B587B00190019B1B78022BBF
:106CF40055D0022B65DC002B02D0012B58D060E06C
:106D0400334B1B781A46334B134418460FF0ECFBF5
:106D14002F4B1B780133DAB22D4B1A702C4B1B7896
:106D2400013B2C4AD35C0A2B0DD0294B1B78013B29
:106D3400284AD35C0D2B06D0254B1B781A46264BCC
:106D44001B889A423FD3224B1B78012B23D9204B1B
:106D54001B78ADF80E30214B1B880DF10E021D4936
:106D64001F480AF03FFF0590059B082B10D0059B98
:106D7400132B0DD0059B052B0AD0059B0493049B74
:106D8400002B05D0174A40F28D2104980EF070FCB8
:106D9400059B132BDBD00E4B00221A7013E0019BD2
:106DA4005B68104A40F2972118460EF061FC0BE034
:106DB400019B5B680B4A40F29B2118460EF058FC7D
:106DC40002E000BF00E000BF00BF07B05DF804FBB5
:106DD400F0300020F4300020122B0020102B002073
:106DE400F42A0020ACCD030030B58DB0134B04ACB5
:106DF4001D460FCD0FC495E8030084E80300104B33
:106E040000934FF4807301930E4B02934FF48073FD
:106E14000393694604A807230B4A0FF0D5FA0B9095
:106E24000B9B0A930A9B002B05D0084A4FF4307140
:106E34000A980EF01DFC00BF0DB030BD64CE0300F7
:106E4400E8310020E8320020E96C0200ACCD0300F8
:106E540000B5AFB001ABAC220021184615F044FEDA
:106E640002238DF8043000238DF8063005238DF8B5
:106E740007300123ADF85030124B159301238DF8E0
:106E840080304023239344F2506324930E4B2A937F
:106E940001AB19460D4802F0E1FD2D902D9B2C937A
:106EA4002C9B002B05D00A4A40F2DB212C980EF0D3
:106EB400DFFB0121054802F0C4FD00BF2FB05DF8DF
:106EC40004FB00BF142B0020B1670200BC2C00207F
:106ED400ACCD030000B587B001901749032000F042
:106EE40015FF0590059B0493049B002B05D0134AC2
:106EF40040F2EA2104980EF0BBFB0DF10B03194696
:106F0400002001F0D5F80590059B0393039B002B0B
:106F140005D00A4A40F2ED2103980EF0A9FB9DF832
:106F24000B30022B0CBF01230023DAB2019B1A7031
:106F340000BF07B05DF804FB456C0200ACCD030054
:106F440000B583B013F09CFD0190019B0093009B5E
:106F5400002B05D0044A4FF4417100980EF088FBD1
:106F640000BF03B05DF804FBACCD030008B514F01A
:106F74000FFC034683F00103DBB2002B01D013F0B6
:106F840095FD00BF08BD000000B585B003468DF82F
:106F940007309DF80730002B02D0FFF7C9FD0FE042
:106FA4000321094802F032FE0390039B0293029BE3
:106FB400002B05D0054A40F2213102980EF058FB0F
:106FC40000BF05B05DF804FBBC2C0020ACCD030071
:106FD40000B583B0FFF708FFFFF744FA012000F083
:106FE400A5FA0DF107031846FFF774FFFFF7A8FF92
:106FF400FFF7E4FCFFF74CFAFFF7F6FDFFF7FAFAA8
:10700400FFF726FFFFF766FBFFF712FD0A4A0B4B5B
:10701400D31ADB081B0443F003030949184614F090
:107024002DFB9DF807301846FFF7AEFF14F0B0FBB8
:10703400FFF79CFFFAE700BFE0CC0300B8CC0300E5
:107044007CCE030000B583B00190019B1B681846F9
:1070540000F011F90346002B04D105494FF4F670F2
:10706400FFF7D2F94FF0A043184603B05DF804FBD4
:10707400A8CE030000B585B00190084611461A4613
:1070840003468DF803300B468DF8023013468DF815
:10709400013001AB1846FFF7D5FF03909DF803209C
:1070A4009DF802305B001A439DF801309B001A439F
:1070B4009DF818301B0242EA03019DF81C301B04A2
:1070C400019A1943039B02F5E07243F8221000BFB2
:1070D40005B05DF804FB00B585B00390002301936F
:1070E400002300930023012201210398FFF7C2FF2C
:1070F40000BF05B05DF804FB00B585B003900B46F6
:107104008DF80B309DF80B30002201920022009282
:10711400002200210398FFF7ADFF00BF05B05DF822
:1071240004FB00B585B0019001AB1846FFF78AFF58
:107134000390019B012202FA03F31946039800F01D
:1071440086F800BF05B05DF804FB00B585B001907A
:1071540001AB1846FFF776FF0390019B012202FA68
:1071640003F31946039800F07CF800BF05B05DF8FE
:1071740004FB00B585B0019001AB1846FFF762FF30
:107184000390039BD3F804350293029BDA43019BDB
:10719400012101FA03F31A40039BC3F80825019B5C
:1071A40001229A40029B1A40039BC3F80C2500BF9E
:1071B40005B05DF804FB00B583B001900091009B1D
:1071C400002B03D10198FFF7C0FF02E00198FFF7FD
:1071D400A8FF00BF03B05DF804FB00B585B00190C3
:1071E40001AB1846FFF72EFF0390039800F01FF839
:1071F4000246019B22FA03F303F00103184605B08B
:107204005DF804FB00B585B0019001AB1846FFF7AB
:1072140019FF0390039800F012F80246019B22FA2A
:1072240003F303F00103184605B05DF804FB82B0D4
:107234000190019BD3F81035184602B0704782B014
:107244000190019BD3F80435184602B0704782B010
:1072540001900091019B009AC3F8082500BF02B079
:10726400704782B001900091019B009AC3F80C25ED
:1072740000BF02B0704784B00190019B5B09029388
:1072840000230393029B002B03D14FF0FF3303939E
:1072940000BF019B03F01F030193039A019B22FA91
:1072A40003F303F00103002B14BF01230023DBB21B
:1072B400184604B07047000000B585B00190019BEA
:1072C400032B03D911493A20FFF79EF8104A019B7A
:1072D40013441B781846FFF795FF0346002B14BF91
:1072E400012300238DF80F309DF80F30002B14BFBD
:1072F40001230023DBB283F00103DBB203F00103BB
:10730400DBB2184605B05DF804FB00BFD8CE03001D
:1073140008CF030000B583B00190019B032B03D970
:1073240007494120FFF770F8064A019B13441B7874
:1073340000211846FFF73FFF00BF03B05DF804FBD0
:10734400D8CE030008CF030000B583B00190019BA1
:10735400032B03D907494720FFF756F8064A019B38
:1073640013441B7801211846FFF725FF00BF03B023
:107374005DF804FBD8CE030008CF030000B583B04A
:107384000023019305E00198FFF7DEFF019B013321
:107394000193019B032BF6D900BF00BF03B05DF836
:1073A40004FB00B583B00023019305E00198FFF7C7
:1073B400B1FF019B01330193019B032BF6D900BF5D
:1073C40000BF03B05DF804FB00B583B00190019BDE
:1073D400032B03D907495F20FFF716F8064A019BE0
:1073E40013441B781846FFF7C4FE00BF03B05DF8D2
:1073F40004FB00BFD8CE030008CF030000B583B060
:107404000023019309E0094A019B13441B781846A1
:10741400FFF761FE019B01330193019B032BF2D91A
:10742400FFF7ACFF00BF03B05DF804FB08CF030017
:1074340000B585B00190019B032B03D91149AC2001
:10744400FEF7E2FF104A019B13441B781846FFF72E
:10745400C4FE0346002B14BF012300238DF80F3014
:107464009DF80F30002B14BF01230023DBB283F0FF
:107474000103DBB203F00103DBB2184605B05DF88B
:1074840004FB00BFD8CE03000CCF030000B583B0CB
:10749400002301930AE0094A019B13441B7803214A
:1074A4001846FFF729FE019B01330193019B032B2F
:1074B400F1D900BF00BF03B05DF804FB0CCF03009B
:1074C40084B001904FF0FF330293002303930DE047
:1074D4000A4A039B13441B781A46019B934202D128
:1074E400039B029305E0039B01330393039B032B4C
:1074F400EED9029B184604B0704700BF0CCF0300BE
:1075040000B583B00190019B032B03D90549CB201F
:10751400FEF77AFF044A019B13441B78184603B014
:107524005DF804FBD8CE03000CCF030000B583B094
:107534000190019B03F00103002B01D0FFF75EFFD4
:10754400019B03F00203002B01D0FFF79FFF00BF54
:1075540003B05DF804FB000000B583B00190019B0B
:107564001B68184600F03DF80346002B04D105497A
:107574004FF4F670FEF748FF4FF0A043184603B0EF
:107584005DF804FB10CF030000B585B001900B46F5
:107594008DF8033001AB1846FFF7DEFF0390019A24
:1075A400039B02F5E07253F82230019A23F4403130
:1075B400039B02F5E07243F82210019A039B02F543
:1075C400E07253F822109DF803301B04019A19430A
:1075D400039B02F5E07243F8221000BF05B05DF88A
:1075E40004FB84B00190019B5B0902930023039385
:1075F400029B002B03D14FF0FF33039300BF019B89
:1076040003F01F030193039A019B22FA03F303F08F
:107614000103002B14BF01230023DBB2184604B07E
:10762400704700B583B00190019B032B04D80198E7
:10763400FFF7FEFE034600E00023184603B05DF8A2
:1076440004FB000000B587B003460A468DF80730F6
:1076540013468DF8063000238DF817300023049369
:107664009DF807301846FFF72BFF0490049B032B6B
:1076740062D89DF80630022B52D0022B5CDC002B22
:1076840031D0012B58D13549049A13465B00134479
:107694000B441B788DF817303049049A13465B006D
:1076A40013440B4401331B78002B0ED02C4B2D4A72
:1076B4004FF4804118460EF0ADFC0390039B002B61
:1076C40003D1284A9DF8073013702449049A1346BD
:1076D4005B0013440B4402331978234A049B13447C
:1076E4000A461A7028E01E4B18460EF0EBFC1E4AA0
:1076F400049B134419781948049A13465B001344F5
:10770400034402331B78994215D11449049A134651
:107714005B0013440B4402331B788DF817300AE0E6
:107724000E49049A13465B0013440B4401331B783F
:107734008DF8173000E000BF9DF81730002B09D0FA
:107744000A4B1B68002B05D0084B1B689DF81720BB
:107754001046984700BF07B05DF804FBF8330020DB
:10776400582B00200434002008340020F433002077
:1077740000B583B00190019B1B7802211846FFF7E6
:1077840061FF00BF03B05DF804FB000000B583B0E7
:107794000C4B1B78002B0FD00023019308E0019BB6
:1077A400022B02D00198FFF7CFFD019B0133019317
:1077B400019B032BF3D901E0FFF7E0FD00BF03B009
:1077C4005DF804FBF03300202DE9D04F92B003465E
:1077D4008DF83F300023119300231093CC4B1B787A
:1077E400002B04D0CA4A00231370FFF7CFFF9DF883
:1077F4003F30172B00F23F8201A252F823F000BF62
:10780400657802007D7802007D7802001979020013
:10781400B5790200317A0200C57A0200E57A0200E5
:10782400F57A0200217B02003F7B02005D7B0200AF
:107834007B7B0200897B0200897B0200897B02003A
:10784400897B0200897B02001D7C02002B7C0200E4
:107854003F7C0200537C02006D7C02006D7C0200C0
:10786400FFF794FFAB4B18460EF02CFC1190AA4A7C
:107874009DF83F301370FFE10020FFF71DFD034624
:10788400002B0DD00020FFF75FFD9DF83F30022B49
:1078940002D14FF4E16301E04FF47A6310930BE0FB
:1078A4000020FFF737FD9DF83F30022B01D1C8239C
:1078B40001E04FF4C8731093974A9DF83F3013705A
:1078C400944C109B0022009301924FF000024FF061
:1078D4000003DDE900673946CB03314643EA5143EF
:1078E4003146CA0312F57A71029143F100030393FE
:1078F4004FF4FA624FF00003DDE9020114F0E2FFF5
:1079040002460B4613460022194620460EF082FB1F
:107914001190B1E10020FFF7CFFC0346002B0DD0FE
:107924000020FFF711FD9DF83F30032B02D14FF4E7
:10793400487301E04FF47A6310930BE00020FFF7E3
:10794400E9FC9DF83F30032B01D1C82301E04FF43B
:10795400C8731093704A9DF83F3013706D4C109BA0
:107964000022049305924FF000024FF00003DDE97A
:1079740004673946CB03314643EA51433146CA03CF
:1079840012F57A71069143F1000307934FF4FA62FA
:107994004FF00003DDE9060114F094FF02460B46A4
:1079A40013460022194620460EF034FB119063E181
:1079B4000020FFF781FC0346002B06D00020FFF7D0
:1079C400C3FC4FF47A63109305E00020FFF7A2FC98
:1079D4004FF4C8731093504A9DF83F3013704D4CC8
:1079E400109B00229A4693464FF000024FF000038A
:1079F4004FEACB3343EA5A434FEACA3212F57A715B
:107A0400089143F1000309934FF4FA624FF0000325
:107A1400DDE9080114F056FF02460B461346002226
:107A2400194620460EF0F6FA119025E10020FFF7E2
:107A340043FC0346002B0CD00020FFF785FC9DF887
:107A44003F30052B01D1C82301E04FF47A63109332
:107A54000BE00020FFF75EFC9DF83F30052B01D1C1
:107A6400C82301E04FF4C87310932B4A9DF83F30AC
:107A74001370284C109B0022984691464FF0000248
:107A84004FF000034FEAC93343EA58434FEAC83280
:107A940012F57A710A9143F100030B934FF4FA62E1
:107AA4004FF00003DDE90A0114F00CFF02460B4617
:107AB40013460022194620460EF0ACFA1190DBE082
:107AC4000020FFF781FC144A9DF83F301370114BDE
:107AD400002240F2666118460EF09CFA1190CBE049
:107AE4000020FFF717FC0C4A9DF83F301370C3E0E9
:107AF400074B01221A700120FFF766FC054B002298
:107B040040F2666118460EF085FA1190B4E000BFA9
:107B1400E9330020182B0020E8330020594B0122C0
:107B24001A700120FFF750FC574B00224FF400510C
:107B340018460EF06FFA11909EE0524B01221A7013
:107B44000120FFF741FC504B002240F266611846C9
:107B54000EF060FA11908FE04A4B01221A70012056
:107B6400FFF732FC484B00224FF4005118460EF048
:107B740051FA119080E0FFF714FC444A9DF83F301D
:107B8400137079E0424B18460EF09CFA11909DF860
:107B94003F30C3F111031093109B002B35D0119B80
:107BA400002B32D1109B012B28D9394C109B9BB24E
:107BB4001A46C82302FB03F3DA171E4617464FF092
:107BC40000024FF00003FB0343EA5643F20312F5AD
:107BD4007A710C9143F100030D934FF4FA624FF064
:107BE4000003DDE90C0114F06DFE02460B4613465A
:107BF4000022194620460EF00DFA11900220FFF7DC
:107C040089FB244B01221A7036E00220FFF79CFB0B
:107C1400204B00221A702FE0FFF7B8FD1B4A9DF895
:107C24003F30137028E0FFF7B1FD0020FFF772FB2F
:107C3400164A9DF83F3013701EE0FFF7A7FD0120A0
:107C4400FFF768FB114A9DF83F30137014E0FFF70B
:107C54009DFD0020FFF75EFB0120FFF75BFB0B4A55
:107C64009DF83F30137007E0FFF79BFB074A9DF830
:107C74003F30137000E000BF119B184612B0BDE8FE
:107C8400D08F00BFE9330020182B0020E8330020F8
:107C9400382B0020F033002000B583B00190074B4F
:107CA4001B6803F00103002B04D0054B1B78184616
:107CB400FFF78AFD00BF03B05DF804FBEC3300203E
:107CC400E833002000B583B001900220FFF77CFB6D
:107CD40000BF03B05DF804FB00B585B003468DF822
:107CE400073000230393084B1B6803F00103002BA8
:107CF40005D09DF807301846FFF766FD0390039BF7
:107D0400184605B05DF804FBEC33002000B585B0DF
:107D140001900091002303932A4A019B13602A4A8D
:107D2400009B1360019B03F00203002B2AD0002365
:107D3400029308E001220121029800F055F8039013
:107D4400029B01330293029B032B02D8039B002B5B
:107D5400F0D0039B002B06D140F2333204211B48A0
:107D64000DF086FB0390039B002B02D10DF008FC61
:107D74000390039B002B05D1154A002115480EF0F2
:107D84000FF90390019B03F00103002B14D0012091
:107D9400FFF7CCFB039B002B05D10F4A00210F48B2
:107DA4000EF0FEF80390039B002B05D10C4A012131
:107DB4000C480EF0F5F80390039B184605B05DF8E7
:107DC40004FB00BFEC330020F43300204CCF03004D
:107DD4007577020048CF03009D7C020040CF03006A
:107DE400C97C020044CF030084B001900B468DF897
:107DF400033013468DF8023000230393019B032BB9
:107E04003CD89DF80230012B0BD19DF80330012B97
:107E140004D1019BDBB20E33DBB200E000238DF80A
:107E240002309DF80330022B0FD0022B23DC002BF1
:107E340016D0012B1FD11449019A13465B00134439
:107E44000B449DF802201A701AE00F49019A134658
:107E54005B0013440B4401339DF802201A700FE0B9
:107E64000949019A13465B0013440B4402339DF8FD
:107E740002201A7004E00723039301E0072303930D
:107E8400039B184604B07047F833002000B585B052
:107E940001900B468DF80330019B032B14D89DF8F9
:107EA4000330002B01D0032300E000238DF80F30B2
:107EB4000198FFF725FB02469DF80F30194610463E
:107EC400FFF762FB002300E00623184605B05DF8C7
:107ED40004FB00B583B0019001210198FFF7D6FFA0
:107EE4000346184603B05DF804FB00B583B00122D5
:107EF40000210020FFF778FF0190019B002B04D0A4
:107F0400019B072B01D0019B1CE0072202210120C9
:107F1400FFF76AFF0190019B002B04D0019B072B04
:107F240001D0019B0EE0042202210020FFF75CFF38
:107F34000190019B002B04D0019B072B01D0019BD6
:107F440000E00023184603B05DF804FB00B583B0DD
:107F5400012202210020FFF747FF0190019B002B23
:107F640004D0019B072B01D0019B1CE007220221B6
:107F74000120FFF739FF0190019B002B04D0019BE6
:107F8400072B01D0019B0EE00A2200210020FFF7FD
:107F94002BFF0190019B002B04D0019B072B01D0E8
:107FA400019B00E00023184603B05DF804FB00B514
:107FB40083B001900120FFF734FB0346002B03D06C
:107FC400019B02221A700CE00020FFF72AFB0346F3
:107FD400002B03D0019B0B221A7002E0019B0022AC
:107FE4001A7000BF03B05DF804FB00B583B0002035
:107FF400FFF76FFF0190019B002B04D0019B062B20
:1080040001D0019B0CE00120FFF763FF0190019B6D
:10801400002B04D0019B062B01D0019B00E0002320
:10802400184603B05DF804FB00B585B001900091DB
:10803400019B1B88102B02D0112B18D02FE01A4B58
:108044001B68002B0DD1FFF750FF0390039B002BFF
:1080540007D0164B1B68002B03D0144B1B680398E6
:108064009847114B1B6801330F4A136017E00E4BFE
:108074001B68013B0C4A13600B4B1B68002B0DD192
:10808400FFF764FF0390039B002B07D0074B1B688B
:10809400002B03D0054B1B680398984700BF00BF13
:1080A40005B05DF804FB00BF103400200C34002040
:1080B40000B585B001900091002303930A4A019B07
:1080C4001360009B002B02D00098FFF770FF074B52
:1080D4001B68002B02D1FFF739FF0390039B18465E
:1080E40005B05DF804FB00BF0C3400201034002000
:1080F400BFF34F8F00BF064BDB6803F4E062044913
:10810400044B1343CB60BFF34F8F00BF00BFFDE7A9
:1081140000ED00E00400FA0582B01D4B1B68B3F1CA
:10812400FF3F0AD11B4B1B68DBB201931A4B1B6840
:108134001B0903F00F03009305E0154B1B68019323
:10814400164B1B680093019B062B1DD1009B033B20
:10815400042B17D801A252F823F000BF7581020046
:10816400798102007D810200818102008581020003
:1081740001230AE0012308E0012306E0012304E0CF
:10818400012302E0012300E00023184602B07047F7
:1081940030010010E00F00F0E80F00F0340100108F
:1081A40082B0174B1B68DBB20193164B1B681B098B
:1081B40003F00F030093019B062B1DD1009B033B8F
:1081C400042B17D801A252F823F000BFE581020066
:1081D400E9810200ED810200F1810200F5810200D3
:1081E40001230AE0002308E0002306E0002304E062
:1081F400002302E0002300E00023184602B0704789
:10820400E00F00F0E80F00F082B01D4B1B68B3F1E3
:10821400FF3F0AD11B4B1B68DBB201931A4B1B684F
:108224001B0903F00F03009305E0154B1B68019332
:10823400164B1B680093019B062B1DD1009B033B2F
:10824400042B17D801A252F823F000BF6582020064
:10825400698202006D82020071820200758202004E
:1082640001230AE0012308E0012306E0012304E0DE
:10827400012302E0012300E00023184602B0704706
:1082840030010010E00F00F0E80F00F0340100109E
:1082940082B0174B1B68DBB20193164B1B681B099A
:1082A40003F00F030093019B062B1DD1009B033B9E
:1082B400042B17D801A252F823F000BFD582020084
:1082C400D9820200DD820200E1820200E58202001E
:1082D40001230AE0002308E0002306E0002304E071
:1082E400002302E0002300E00023184602B0704798
:1082F400E00F00F0E80F00F082B01D4B1B68B3F1F3
:10830400FF3F0AD11B4B1B68DBB201931A4B1B685E
:108314001B0903F00F03009305E0154B1B68019341
:10832400164B1B680093019B062B1DD1009B033B3E
:10833400042B17D801A252F823F000BF5583020082
:10834400598302005D830200618302006583020099
:1083540001230AE0012308E0012306E0012304E0ED
:10836400012302E0012300E00023184602B0704715
:1083740030010010E00F00F0E80F00F034010010AD
:1083840082B0174B1B68DBB20193164B1B681B09A9
:1083940003F00F030093019B062B1DD1009B033BAD
:1083A400042B17D801A252F823F000BFC5830200A2
:1083B400C9830200CD830200D1830200D583020069
:1083C40001230AE0002308E0002306E0002304E080
:1083D400002302E0002300E00023184602B07047A7
:1083E400E00F00F0E80F00F082B0174B1B68DBB21F
:1083F4000193164B1B681B0903F00F030093019BA9
:10840400062B1DD1009B033B042B17D801A252F865
:1084140023F000BF2D840200318402003584020061
:10842400398402003D84020001230AE0002308E0AD
:10843400002306E0002304E0002302E0002300E020
:108444000023184602B07047E00F00F0E80F00F078
:1084540082B01D4B1B68B3F1FF3F0AD11B4B1B6855
:10846400DBB201931A4B1B681B0903F00F03009343
:1084740005E0154B1B680193164B1B680093019B89
:10848400062B1DD1009B033B042B17D801A252F8E5
:1084940023F000BFAD840200B1840200B584020061
:1084A400B9840200BD84020000230AE0002308E02E
:1084B400012306E0012304E0012302E0012300E09C
:1084C4000023184602B0704730010010E00F00F09E
:1084D400E80F00F03401001082B01D4B1B68B3F1AB
:1084E400FF3F0AD11B4B1B68DBB201931A4B1B687D
:1084F4001B0903F00F03009305E0154B1B68019360
:10850400164B1B680093019B062B1DD1009B033B5C
:10851400042B17D801A252F823F000BF35850200BE
:10852400398502003D85020041850200458502002F
:1085340001230AE0012308E0012306E0012304E00B
:10854400012302E0012300E00023184602B0704733
:1085540030010010E00F00F0E80F00F034010010CB
:1085640082B01D4B1B68B3F1FF3F0AD11B4B1B6844
:10857400DBB201931A4B1B681B0903F00F03009332
:1085840005E0154B1B680193164B1B680093019B78
:10859400062B1DD1009B033B042B17D801A252F8D4
:1085A40023F000BFBD850200C1850200C58502001D
:1085B400C9850200CD85020001230AE0012308E0F9
:1085C400012306E0012304E0012302E0012300E08B
:1085D4000023184602B0704730010010E00F00F08D
:1085E400E80F00F03401001082B0154B1B680193B2
:1085F400144B1B680093019B062B1DD1009B033B6E
:10860400042B17D801A252F823F000BF25860200DC
:10861400298602002D86020031860200358602007A
:1086240000230AE0002308E0002306E0012304E01D
:10863400012302E0012300E00023184602B0704742
:10864400300100103401001082B0154B1B680193F7
:10865400144B1B680093019B062B1DD1009B033B0D
:10866400042B17D801A252F823F000BF858602001C
:10867400898602008D86020091860200958602009A
:1086840000230AE0002308E0002306E0002304E0BE
:10869400012302E0012300E00023184602B07047E2
:1086A400300100103401001008B5FFF7CDFF034678
:1086B400002B07D04FF010234FF08042D3F808323C
:1086C400C2F8583500BF08BD00BF044BD3F80034CE
:1086D400002BFAD000BF00BF704700BF00E001408C
:1086E40000B583B00190054A019BC2F80435FFF739
:1086F400EBFF00BF03B05DF804FB00BF00E00140E6
:10870400024B034A1A6000BF704700BF782B002059
:108714000090D00308B5FFF7FFFC0346002B06D0FA
:10872400964B1B681B0A964A03F01F031360FFF75E
:1087340037FD0346002B02D0924B934A1A60FFF791
:1087440063FD0346002B06D0904B1B685B0B904ADD
:1087540003F007031360FFF79BFD0346002B05D0CE
:108764008C4BDB688B4A23F08073D360FFF7C4FD26
:108774000346002B0ED04FF080430022C3F80C2197
:108784004FF080430022C3F810214FF080430022B1
:10879400C3F83825FFF7F4FD0346002B02D07E4BC7
:1087A40003221A60FFF720FE0346002B0BD07B4BFD
:1087B40005221A607A4B01221A607A4B00221A6051
:1087C400794B3F221A60FFF743FE0346002B76D015
:1087D4004FF08053754AD3F80434C2F820354FF073
:1087E4008053724AD3F80834C2F824354FF08053CA
:1087F4006E4AD3F80C34C2F828354FF080536B4AD4
:10880400D3F81034C2F82C354FF08053674AD3F8AC
:108814001434C2F830354FF08053644AD3F8183416
:10882400C2F834354FF08053604AD3F81C34C2F890
:1088340040354FF080535D4AD3F82034C2F84435B4
:108844004FF08053594AD3F82434C2F848354FF0D6
:108854008053564AD3F82834C2F84C354FF080532D
:10886400524AD3F82C34C2F850354FF080534F4A53
:10887400D3F83034C2F854354FF080534B4AD3F810
:108884003434C2F860354FF08053484AD3F8383452
:10889400C2F864354FF08053444AD3F83C34C2F8EC
:1088A40068354FF08053414AD3F84034C2F86C35F0
:1088B4004FF080533D4AD3F84434C2F87035FFF783
:1088C4000BFE0346002B05D0394B1B68394A03F0D5
:1088D4004F031360FFF744FE0346002B0DD04FF007
:1088E4008043D3F8003403F00103002B05D04FF08C
:1088F40080436FF00102C3F80024FFF775FE0346BE
:10890400002B05D02C4B1B682B4A43F48063136067
:108914002A4BD3F88830294A43F47003C2F88830CC
:10892400BFF34F8F00BFBFF36F8F00BFFFF7BCFED5
:108934004FF01023D3F80032002B05DB4FF0102347
:10894400D3F80432002B15DA0120FFF7C9FE4FF0EB
:1089540010231522C3F80022FFF7B6FE4FF01023B0
:108964001522C3F80422FFF7AFFE0020FFF7B8FE7C
:10897400FFF7BEFBFFF7C4FE00BF08BD24030010D1
:108984004035014074C007400DF0ADBA44020010F8
:108994003C050040F0ED00E0A0050040105600400A
:1089A40088560040185600401456004000C000404D
:1089B40058020010E40E00403C17004000ED00E0B7
:1089C4006DDF704700BF184679DF704700BF184657
:1089D4007DDF704700BF184664DF704700BF18464C
:1089E40082B003460091ADF80630BDF80630DAB225
:1089F400009B1A70BDF806301B0A9AB2009B013323
:108A0400D2B21A700223184602B0704700B589B07A
:108A1400039002911346ADF80630029B1B8803F1C4
:108A24000902BDF806309A4201D90C2353E004AB85
:108A34001846FFF7C5FF0790079B0693069B002B7C
:108A440001D0069B47E0029B1B881A46039B1344F4
:108A540008221A70029B1B8801339AB2029B1A8067
:108A6400029B1B881A46039B13441B221A70029B09
:108A74001B8801339AB2029B1A80029B1B881A46F8
:108A8400039B981804AB01330622194613F0FAFF2E
:108A9400029B1B8806339AB2029B1A809DF8103001
:108AA40023F00103DBB2002B07D1029B1B881A467B
:108AB400039B134400221A7006E0029B1B881A468B
:108AC400039B134401221A70029B1B8801339AB240
:108AD400029B1A800023184609B05DF804FB00B518
:108AE40089B0039002910192ADF80230039B1B7888
:108AF400012B05D1039B5B78002B01D1072391E067
:108B0400019B1B889A1CBDF802309A420ED8039B25
:108B14001B78012B0CD1019B1B881A46039B5B78A5
:108B240013449A1CBDF802309A4201D90C2379E00F
:108B3400019B1B88BDF80220D31A9BB2023BADF8FF
:108B44001C30BDF81C30ADF81230019B1B88023379
:108B5400029A13440DF1120211461846FFF738FF2A
:108B64000690069B0593059B002B01D0059B59E0BD
:108B7400039B1B78022B06D0039B5B781A46BDF837
:108B840012309A4209D3BDF81230BDF81C209A4223
:108B940003D309238DF81F3016E008238DF81F3006
:108BA400039B1B78012B0BD1039B5B781A46BDF802
:108BB4001C30934204D3039B5B78ADF8123003E07E
:108BC400BDF81C30ADF81230BDF81230FE2B01D9BF
:108BD4000C2327E0BDF81230DAB2019B1B8819463A
:108BE400029B0B440132D2B21A70019B1B880133E1
:108BF4009AB2019B1A80019B1B881A46029B13445C
:108C04009DF81F201A70019B1B8801339AB2019BA7
:108C14001A80019B1A88BDF8123013449AB2019B42
:108C24001A800023184609B05DF804FB00B589B02A
:108C3400039002911346ADF80630029B1B881A1D5F
:108C4400BDF806309A4201D90C233AE00DF116031F
:108C54001846FFF7B9FE0790079B0693069B002B67
:108C640001D0069B2DE0029B1B881A46039B1344EC
:108C740003221A70029B1B8801339AB2029B1A804A
:108C8400029B1B881A46039B134419221A70029BE9
:108C94001B8801339AB2029B1A80BDF81620029BEE
:108CA4001B881946039B0B4419461046FFF798FE90
:108CB40003461A46029B1B8813449AB2029B1A80ED
:108CC4000023184609B05DF804FB84B002910192B8
:108CD4001A4603468DF80F301346ADF80C30019B4D
:108CE4001B88DA1CBDF80C309A4201D90C2328E009
:108CF400019B1B881A46029B134402221A70019B93
:108D04001B8801339AB2019B1A80019B1B881A4667
:108D1400029B134401221A70019B1B8801339AB2EF
:108D2400019B1A80019B1B881A46029B13449DF8E1
:108D34000F201A70019B1B8801339AB2019B1A8081
:108D44000023184604B0704784B0029101921A4679
:108D540003468DF80F301346ADF80C30019B1B8889
:108D6400DA1CBDF80C309A4201D90C2328E0019B8F
:108D74001B881A46029B134402221A70019B1B880B
:108D840001339AB2019B1A80019B1B881A46029BED
:108D940013440A221A70019B1B8801339AB2019B67
:108DA4001A80019B1B881A46029B13449DF80F20CE
:108DB4001A70019B1B8801339AB2019B1A8000230D
:108DC400184604B0704700B58FB0039001930B466A
:108DD4008DF80B3013468DF80A3000238DF83330AC
:108DE400109B1B88ADF8303000230D9370E0039B7B
:108DF4005A680D9B9B001A4405AB106818600DF16E
:108E04001B0105AB00221846FFF7E6FD0A900A9BFA
:108E14000993099B002B01D0099B7BE09DF81B3033
:108E24009DF80A209A4250D19DF83330002B01D08E
:108E3400002300E002238DF82330109B1B881A4680
:108E44009DF81B301A449DF823301A44BDF8443071
:108E54009A4201DD0C235DE09DF8333083F0010379
:108E6400DBB2002B16D0109B1B8801339AB2109BE7
:108E74001A80109B1B881A46019B13449DF80B20F3
:108E84001A70109B1B8801339AB2109B1A8001231D
:108E94008DF83330109B1B881A46019B1A440DF140
:108EA4001B0105AB1846FFF797FD0A900A9B079331
:108EB400079B002B01D0079B2CE0109B1B889DF87F
:108EC4001B2013449AB2109B1A800D9B01330D93FF
:108ED400039B1B881A460D9B934288DB9DF8333015
:108EE400002B16D0109B1A88BDF83030D31A9BB2D1
:108EF400013BADF82E30BDF82E30FF2B01D90C23E9
:108F040008E0BDF83030019A1344BDF82E20D2B2E7
:108F14001A70002318460FB05DF804FB00B58BB03F
:108F2400059003930B468DF8133013468DF81230D9
:108F34009DF81310BDF8343001930C9B0093039BF0
:108F440002220598FFF73FFF0990099B0893089BAD
:108F5400002B01D0089B14E09DF81210BDF83430AA
:108F640001930C9B0093039B10220598FFF72BFFA2
:108F74000990099B0793079B002B01D0079B00E0F6
:108F8400002318460BB05DF804FB82B00190019BEE
:108F94001B88052B0AD9019B1B88B3F5486F07D999
:108FA400019B1B884FF6FF72934201D0072325E0F3
:108FB400019B5B88052B0AD9019B5B88B3F5486F3D
:108FC40007D9019B5B884FF6FF72934201D00723B8
:108FD40014E0019B1B884FF6FF7293420DD0019B56
:108FE4005B884FF6FF72934207D0019B1A88019B5E
:108FF4005B889A4201D9072300E00023184602B097
:10900400704700B587B0039002910192ADF8023029
:10901400019B1B889A1DBDF802309A4201D90C238A
:109024004BE00398FFF7B1FF0590059B0493049B65
:10903400002B01D0049B40E0019B1B881A46029B35
:10904400134405221A70019B1B8801339AB2019BB9
:109054001A80019B1B881A46029B134412221A7021
:10906400019B1B8801339AB2019B1A80039B1A88C7
:10907400019B1B881946029B0B4419461046FFF7B7
:10908400AFFC03461A46019B1B8813449AB2019B0A
:109094001A80039B5A88019B1B881946029B0B4428
:1090A40019461046FFF79CFC03461A46019B1B8891
:1090B40013449AB2019B1A800023184607B05DF846
:1090C40004FB00B587B0039002910192ADF8023021
:1090D400039B9B8802330593019B1B881A46059BBF
:1090E40013449A1CBDF802309A4201D90C2353E070
:1090F400059BFE2B01D90C234EE0059BDAB2019BA4
:109104001B881946029B0B440132D2B21A70019B90
:109114001B8801339AB2019B1A80019B1B881A4653
:10912400029B1344FF221A70019B1B8801339AB2DD
:10913400019B1A80039B1A88019B1B881946029B7A
:109144000B4419461046FFF74BFC03461A46019B95
:109154001B8813449AB2019B1A80039B9B88002BA3
:1091640019D0039B9B68002B01D1072314E0019BBA
:109174001B881A46029B9818039B9968039B9B883B
:109184001A4613F07FFC019B1A88039B9B881344A7
:109194009AB2019B1A800023184607B05DF804FBBD
:1091A40000B589B0039002910192ADF80230039B9F
:1091B4009B6A002B01D1072371E000238DF81F3037
:1091C40065E0039B996A9DF81F2013465B001344D6
:1091D4009B000B440693069B9B8802330593059BD7
:1091E400FE2B01D90C235AE0059BDAB2019B1B88A4
:1091F4001946029B0B440132D2B21A70019B1B88A0
:1092040001339AB2019B1A80019B1B881A46029B68
:10921400134416221A70019B1B8801339AB2019BD6
:109224001A80069B1A88019B1B881946029B0B44D3
:1092340019461046FFF7D4FB03461A46019B1B88C8
:1092440013449AB2019B1A80069B9B88002B19D069
:10925400069B9B68002B01D1072320E0019B1B8800
:109264001A46029B9818069B9968069B9B881A4687
:1092740013F008FC019B1A88069B9B8813449AB23E
:10928400019B1A809DF81F3001338DF81F30039B1A
:1092940093F82C309DF81F209A4292D3002318464D
:1092A40009B05DF804FB00B595B0059004910392F4
:1092B40000231393039B1B88ADF84A30039B0022C1
:1092C4001A80059B93F82D30002B0ED0BDF84A3040
:1092D4001A4603990498FFF799FB1390139B119373
:1092E400119B002B01D0119BD8E0059B9B78002B90
:1092F4000ED0BDF84A301A4603990498FFF796FC3D
:109304001390139B1093109B002B01D0109BC5E06E
:10931400059BDB78002B10D0059BDB7858B2BDF899
:109324004A30039A0499FFF7D0FC1390139B0F93D0
:109334000F9B002B01D00F9BB0E0059B5B68002BBB
:1093440011D0059B5B6893F90000BDF84A30039A7D
:109354000499FFF7F9FC1390139B0E930E9B002BBB
:1093640001D00E9B9AE0059B1B89002B14D0059B12
:1093740003F10800BDF84A300193039B0093049B5A
:1093840006220221FFF7CAFD1390139B0D930D9B38
:10939400002B01D00D9B81E0059B1B8A002B14D070
:1093A400059B03F11000BDF84A300193039B009321
:1093B400049B07220321FFF7B1FD1390139B0C9329
:1093C4000C9B002B01D00C9B68E0059B1B8B002B96
:1093D40014D0059B03F11800BDF84A300193039B98
:1093E4000093049B15221421FFF798FD1390139BFF
:1093F4000B930B9B002B01D00B9B4FE0059B1B6A2F
:10940400002B0FD0059B186ABDF84A30039A0499C3
:10941400FFF7F7FD1390139B0A930A9B002B01D0CF
:109424000A9B3BE0059B5B6A002B0FD0059B586AA7
:10943400BDF84A30039A0499FFF743FE1390139B37
:109444000993099B002B01D0099B27E0059B93F806
:109454002C30002B0ED0BDF84A30039A049905989D
:10946400FFF79EFE1390139B0893089B002B01D0DB
:10947400089B13E0059B1B78002B0ED0BDF84A30E7
:10948400039A04990598FFF72AFB1390139B0793FB
:10949400079B002B01D0079B00E0139B184615B0D7
:1094A4005DF804FB86B0039001921A460B46ADF8B2
:1094B4000A3013468DF80930039B002B02D0019B20
:1094C400002B01D100235BE00023ADF816300CE043
:1094D400BDF81630039A13441B781A46BDF81630AB
:1094E40013449BB20133ADF81630BDF816305A1C44
:1094F400BDF80A309A420FDA019B1B88BDF816208A
:109504009A42E5D3BDF816300133039A13441B780D
:109514009DF809209A42DBD1BDF81620BDF80A3027
:109524009A4201D300232BE0BDF816300233ADF884
:109534001430BDF81630039A13441B78002B07D05F
:10954400BDF81630039A13441B78013B9BB200E02C
:109554000023ADF81230BDF81230002B08D0BDF84E
:109564001420BDF812301A44BDF80A309A4201DDC5
:10957400002305E0019BBDF814201A80BDF81230C9
:10958400184606B0704700B585B001900B46ADF89B
:10959400023013468DF801300023ADF80C309DF8ED
:1095A400013003AABDF802100198FFF77BFF0346C0
:1095B400ADF80E30BDF80E30002B01D1002304E0CD
:1095C400BDF80C301A46019B1344184605B05DF8EB
:1095D40004FB72DF704700BF184673DF704700BF9B
:1095E400184674DF704700BF184682B00190019B93
:1095F40093F83034184602B0704784B001900023C9
:1096040003930AE0019A039B13441B78002B01D0B7
:10961400012306E0039B01330393039B052BF1D93C
:109624000023184604B0704782B003468DF8073013
:109634009DF807305A1C074B83FB02135910D317AC
:10964400C91A0B469B000B44D11ACBB2184602B080
:10965400704700BF6766666682B001900091009B08
:10966400DB7B012B04D1009B9A88019BA3F8242463
:1096740000BF02B0704700B585B001900091019B16
:10968400002283F82E24009B9A88019BB3F824348B
:109694009A4216D1019B1B7983F00103DBB2002BA4
:1096A4000FD00121019800F0B1FA0390039B002B25
:1096B40007D0019B9B6B002B03D0019B9B6B0398F2
:1096C400984700BF05B05DF804FB00B585B0019074
:1096D4000091009B1B88262B1ED1009B1B7A012B1B
:1096E40003D0009B1B7A022B17D1019B9B78184651
:1096F400FFF79AFF03461946019800F087FA039092
:10970400039B002B09D0019B9B6B002B05D0019B75
:109714009B6B0398984700E000BF05B05DF804FB1D
:1097240000B585B001900B468DF80330019B03F220
:1097340027431846FFF761FF03468DF80F309DF865
:109744000330013B032B33D801A252F823F000BFAE
:1097540065970200899702009D970200A99702006D
:10976400019B9B79002B0DD0019B93F8243083F04F
:109774000103DBB2002B05D09DF80F30002B01D084
:10978400012316E0019BDB79002B05D09DF80F30F7
:10979400002B01D002230CE0019B1B7A002B01D08B
:1097A400032306E0019B5B7A002B01D0042300E035
:1097B4000023184605B05DF804FB00BF82B0019099
:1097C4000091019B012283F83120019B0022C3F800
:1097D4002024019B03F22642009B5A60009B002236
:1097E4009A60009B02221A70009B80229A810023B7
:1097F400184602B0704782B001900091019B02228A
:1098040083F83120019B93F82430002B03D0009B74
:1098140007221A7002E0009B03221A70019B1B6945
:109824009AB2009B9A81019B0022C3F82024019BD9
:1098340003F22642009B5A60019BDA68009B9A60FF
:109844000023184602B0704700B583B00190019B15
:109854005B79002B0FD0019B93F82E3483F0010326
:10986400DBB2002B07D00198FFF7BFFE0346002BA5
:1098740001D0012300E0002303F00103DBB218460A
:1098840003B05DF804FB00B585B001900B468DF87C
:109894000330019BD3F81004019BB3F81434012264
:1098A4001946FFF770FE0390039B002B03D0039B24
:1098B4009DF803201A70019B03F15400019B03F5EA
:1098C4008261019B3C331A46FFF783FE0346184628
:1098D40005B05DF804FB00B585B001900091019BD3
:1098E4005A69009B9A60019B9B699AB2009B9A817A
:1098F400019B93F82430002B04D0019B062283F8AB
:109904003C2003E0019B012283F83C200198FFF7EF
:109914009BFF0346002B13D0009B02221A750421DF
:109924000198FFF7B0FF0390039B0293029B002B67
:1099340001D0029B0FE0019B052283F8312003E054
:10994400019B032283F83120019B03F58262019B72
:10995400C3F820240023184605B05DF804FB00B5C5
:1099640085B001900091019BDA69009B9A60019B8C
:109974001B6A9AB2009B9A81019B93F82430002BB6
:1099840004D0019B062283F83C2003E0019B0122C2
:1099940083F83C200198FFF757FF0346002B13D0B0
:1099A400009B02221A7504210198FFF76CFF0390B3
:1099B400039B0293029B002B01D0029B0FE0019BAF
:1099C400062283F8312003E0019B042283F831202E
:1099D400019B03F58262019BC3F8202400231846EF
:1099E40005B05DF804FB82B00190019B9B78002BCD
:1099F40006D0019B93F82030002B01D000230AE00D
:109A0400019B9B6A042B03D0019B5B6A042B01D14D
:109A1400002300E00123184602B0704784B001908F
:109A2400019B93F82430002B03D0EE23ADF80E30C5
:109A340002E01F23ADF80E30BDF80E30184604B016
:109A4400704782B001900B468DF80330019B9DF85E
:109A5400032083F8302000BF02B0704730B587B0D0
:109A640001900091009B002B02D0019B002B01D19F
:109A74000E23B8E0009B78331846FFF7B4FF034683
:109A840083F00103DBB2002B01D00723ABE0019B81
:109A940000229A70019A009B141D03F178050FCDE2
:109AA4000FC40FCD0FC495E8070084E80700019B9D
:109AB400002283F83020009BD3F8A420019B5A6332
:109AC400009BD3F8A820019B9A63019B4FF6FF7279
:109AD400A3F82424019B03F58262019BC3F820248C
:109AE400019B03F2264307220021184612F0FCFFD3
:109AF400019B1B7883F00103DBB2002B03D0019B95
:109B0400FF2283F85420019B03F15502019BC3F803
:109B140010240198FFF782FF03461A46019BA3F81D
:109B240014240098019B03F15501019B03F2144393
:109B34001A46FFF7B8FB0590059B0493049B002B82
:109B440001D0049B4FE0019B03F23122019BC3F837
:109B540018240198FFF762FF03461A46019BA3F8F5
:109B64001C24009B03F13C00019BD3F81814019BB7
:109B740003F21C431A46FFF796FB0590059B0393DB
:109B8400039B002B01D0039B2DE0019B012283F852
:109B94005120019B9B699AB2019BA3F84820019B29
:109BA400012283F83C20019B00221A64019B0022BD
:109BB40083F85020019B5A69019B5A64019B03F16D
:109BC4005400019B3C331A460021FFF702FD059027
:109BD400059B0293029B002B01D0029B03E0019B97
:109BE40001221A70059B184607B030BD82B001905F
:109BF400019B1B68012B03D0019B1B68022B01D125
:109C0400012300E00023184602B0704700B585B078
:109C140001900B468DF80330019B1B7883F0010300
:109C2400DBB2002B01D0082309E1019B9DF803203E
:109C34009A70019B03F2264307220021184612F072
:109C440053FF019B9B79002B03D0019B9B78012B35
:109C54000FD0019BDB79002B03D0019B9B78012B58
:109C640007D0019BDB79002B14D0019B9B78022B3E
:109C740010D1019B5B6B002B08D0019B012283F860
:109C84002D24019B5B6B0820984703E0019B002275
:109C940083F82D249DF8033019460198FFF740FD01
:109CA40003461A46019B9A70019B5B6B002B20D0E4
:109CB400019B9B78032B03D0019B9B78042B18D129
:109CC400019B5B79002B14D0019B93F82E3483F015
:109CD4000103DBB2002B0CD0019B002283F830245B
:109CE400019B012283F82F24019B5B6B072098477B
:109CF40003E0019B002283F82F24019B3C331822AC
:109D04000021184612F0F0FE019B012283F83C204A
:109D1400019B2C331846FFF769FF0346002B06D03E
:109D2400019BDB6ADAB2019B83F8512003E0019BBB
:109D3400012283F85120019B93F82430002B12D088
:109D4400019B28331846FFF751FF0346002B06D02A
:109D5400019B9B6ADAB2019B83F8522003E0019BCA
:109D6400012283F85220019B002283F85020019B9A
:109D74009B78042B31D801A252F823F0D59D020020
:109D8400959D0200A59D0200B59D0200C59D02009F
:109D9400019B3C3319460198FFF710FD03901DE029
:109DA400019B3C3319460198FFF725FD039015E00C
:109DB400019B3C3319460198FFF78DFD03900DE09C
:109DC400019B3C3319460198FFF7C9FD039005E058
:109DD400019B002283F8312000E000BF019B9B78A7
:109DE400002B20D0019B03F15400019BD3F82014D5
:109DF400019B3C331A46FFF7ECFB0390039B002BBB
:109E040001D0039B1BE0019B93F85420019B93F822
:109E1400303019461046FFF7E0FB0390039B002BFC
:109E240001D0039B0BE0019B5B6B002B06D0019BD5
:109E34005B6B019A92F8312010469847002318462C
:109E440005B05DF804FB00BF00B585B0019000913A
:109E5400009B0393019B1B88262B10D0262B13DC1D
:109E6400102B02D0112B05D00EE001990398FFF7B7
:109E7400F3FB0AE001990398FFF7FDFB05E0019964
:109E84000398FFF722FC00E000BF00BF05B05DF8B7
:109E940004FB00B585B00190019B93F8543018463B
:109EA400FFF79FFB019B012283F82E24019B0022D4
:109EB40083F83024019B002283F850200621019866
:109EC400FFF7E1FC0390039B0293029B002B01D05C
:109ED400029B12E0019B9B7819460198FFF796FEBE
:109EE4000390039B002B07D0019B9B6B002B03D09B
:109EF400019B9B6B039898470023184605B05DF8B7
:109F040004FB75DF704700BF184676DF704700BF5B
:109F140018467ADF704700BF18467BDF704700BFE2
:109F24001846000084B00346ADF8063000230393BE
:109F340016E00F49039A13469B0013449B000B44FD
:109F44001B88BDF806209A4207D1039A13469B004A
:109F540013449B00064A134406E0039B0133039316
:109F6400039B002BE5D00023184604B0704700BFC4
:109F74003834002082B001900B46ADF80230019BCA
:109F8400BDF802201A80019B00221A72019B054928
:109F940003F10A020B4603CB1060516000BF02B00C
:109FA400704700BF6834002082B00190019B4FF6D7
:109FB400FF721A8000BF02B0704788B0039002910C
:109FC40011461A460B46ADF806301346ADF8043078
:109FD400039B9B881A46BDF8063013440793039BE2
:109FE4009B881946039B9B88BDF80620934228BF93
:109FF40013469BB2CB1A0693039BDB881A46BDF823
:10A00400043013440593039BDB881946039BDB88C8
:10A01400BDF80420934228BF13469BB2CB1A049385
:10A02400029B5A88039B1B889A4205D3029B5A8839
:10A03400039B5B889A4201D900231CE0029B9B8806
:10A044001A46069B934205D8029B9B881A46079B97
:10A05400934201D200230EE0029BDB881A46049B44
:10A06400934205D8029BDB881A46059B934201D292
:10A07400002300E00123184608B0704700B583B000
:10A084000190064B9B69002B03D0044B9B690198FC
:10A09400984700BF03B05DF804FB00BF4C340020B8
:10A0A40000B585B003460091ADF80630BDF8063022
:10A0B40000991846FFF725FF0390039B002B05D05A
:10A0C400039B112B02D00398FFF7D8FF039B002BAF
:10A0D4000CBF01230023DBB2184605B05DF804FB76
:10A0E40000B589B00190019B0793079B9BB218466A
:10A0F400FFF718FF0690069B002B42D0069B1A7AA6
:10A10400224B1B7B9A4215D2079B9AB2069B0A33B9
:10A1140019461046FFF7C4FF03468DF813309DF827
:10A124001330002B2DD0069B1B7A0133DAB2069B29
:10A134001A7226E0069B00221A72144B1B7C002B19
:10A144000FD0079B9BB23B211846FFF7DEFE05901C
:10A15400059B002B05D0059B082B02D00598FFF723
:10A164008DFF0A4B5B69002B0BD000238DF80C305C
:10A17400079B9BB2ADF80E30044B5B6903AA1046F3
:10A18400984700BF09B05DF804FB00BF4C340020C1
:10A1940030B587B00190019B002B01D10E2353E011
:10A1A4002B4A019B14461D460FCD0FC495E80700AA
:10A1B40084E80700264B274A1A60019B1B68002B82
:10A1C40011D0019B1B681846FFF7A3FE0490049B63
:10A1D400002B01D0049B37E0019B1A681D4B1068CB
:10A1E400516803C308E01B48FFF797FE0490049BE3
:10A1F400002B01D0049B27E00023059320E0059A5F
:10A2040013469B0013449B00134A1344039303987F
:10A21400FFF7CAFE059B5B01104A1A44039B5A6070
:10A22400039B04330E4A002118460BF0B9FE049038
:10A23400049B002B01D0032306E0059B0133059307
:10A24400059B002BDBD00023184607B030BD00BFB0
:10A254004C340020683400203834002018340020A6
:10A26400E5A0020000B587B003460091ADF80630C2
:10A27400009B5B7A002B1AD1009B1B7A002B03D125
:10A28400164B5B68059302E0144B9B680593009B97
:10A294005B68BDF80620059918460BF0BBFE0490D8
:10A2A400049B002B16D00498FFF7E8FE12E0009BF5
:10A2B40000221A72094B5B69002B0BD001238DF825
:10A2C4000C30BDF80630ADF80E30044B5B6903AAC0
:10A2D4001046984700BF07B05DF804FB4C340020DB
:10A2E40000B585B00190019BDB7B8DF80F30019B9D
:10A2F4009B88ADF80C309DF80F30012B2CD14FF614
:10A30400FF70FFF70FFE0290029B002B03D1042085
:10A31400FFF7B4FE21E0BDF80C3019460298FFF7B0
:10A3240029FE029B03F10A00019B03F110014FF681
:10A33400FF7340F2F312FFF740FE03461A46029BF6
:10A344005A72074BDB89002B07D1BDF80C300299F8
:10A354001846FFF787FF00E000BF05B05DF804FB77
:10A364004C34002000B587B00190019B9B88ADF868
:10A374001630BDF816301846FFF7D4FD0490049B40
:10A38400002B0ED0049B5B6818460BF09BFE0390D9
:10A39400039B002B02D00398FFF770FE0498FFF78D
:10A3A40003FE00BF07B05DF804FB000000B587B0F2
:10A3B4000190019B06330593059B1A88194BDB8991
:10A3C4009A422BD1059B5B89022B27D1019B9B8849
:10A3D400ADF81230BDF812301846FFF7A3FD039014
:10A3E400039B002B1AD0059B0C33184600F0FAFB94
:10A3F4000346002B06D0BDF8123003991846FFF728
:10A4040031FF0BE0039B5B6818460BF05BFE029088
:10A41400029B002B02D00298FFF730FE00BF07B06A
:10A424005DF804FB4C34002000B585B00190019B1D
:10A434009B88ADF80E30BDF80E301846FFF772FD5C
:10A444000290029B002B15D0029B03F10A00019B92
:10A4540003F108014FF6FF7340F2F312FFF7ADFD6D
:10A4640003461A46029B5A72BDF80E3002991846EA
:10A47400FFF7F8FE00BF05B05DF804FB00B583B03C
:10A4840001900091019B1B88502B12D0502B18DC9B
:10A49400122B12D0122B14DC102B02D0112B04D04F
:10A4A4000FE00198FFF71CFF0CE00198FFF75AFF3B
:10A4B40008E00198FFF77AFF04E00198FFF7B4FF82
:10A4C40000E000BF00BF03B05DF804FB30B58FB0FF
:10A4D4000190009100230293009B002B1AD00023CB
:10A4E4000D9314E06B460D9918460EF024FE0346B6
:10A4F400002B09D0029B5A1C02920D9A92B25B0067
:10A5040038336B4423F82C2C0D9B01330D930D9B96
:10A51400132BE7D9019B1D4602AC0FCC0FC50FCC02
:10A524000FC594E8070085E8070001980FB030BD17
:10A5340000B583B00346ADF80630BDF80630132BE2
:10A5440001D900230CE0BDF80630194606480EF088
:10A554009DFDBDF80630194604480EF097FD012311
:10A56400184603B05DF804FB7834002074340020EE
:10A5740000B585B00346ADF80630002303930DE023
:10A58400039B9B00094A13440433BDF8062011467B
:10A5940018460EF0B7FD039B01330393039B1D2B59
:10A5A400EED900BF00BF05B05DF804FB7034002095
:10A5B40000B583B00346ADF80630BDF80630194641
:10A5C40003480EF09FFD00BF03B05DF804FB00BF1D
:10A5D4007834002030B59BB0184B9B68DB4318934C
:10A5E400164B5A6818AB114618460EF07AFE189AA4
:10A5F4006B4611461846FFF769FF0DAC6D460FCD4B
:10A604000FC40FCD0FC495E8070084E807000023AA
:10A6140019930BE0199B5B0068336B4433F8303CAF
:10A624001846FFF7A5FF199B013319930D9B199A3F
:10A634009A42EFD300BF00BF1BB030BD703400207E
:10A6440000B583B003468DF807309DF807301946EE
:10A6540003480EF070FD0346184603B05DF804FB92
:10A664007034002000B583B001900B46ADF8023081
:10A6740013468DF801309DF80130002B06D0BDF84B
:10A684000230194601980EF001FD05E0BDF80230D4
:10A69400194601980EF036FD00BF03B05DF804FBC7
:10A6A40000B585B001900091019B9B88ADF80E30F8
:10A6B400019B1B88103B0A2B00F2888001A252F8F0
:10A6C40023F000BFF5A6020031A70200D1A70200C3
:10A6D400D1A70200D1A70200D1A70200D1A702008E
:10A6E400D1A70200D1A702009BA702003DA7020048
:10A6F400FFF770FFBDF80E301846FFF719FF034649
:10A7040083F00103DBB2002B05D0324AF021042090
:10A714000AF0AEFF57E0019BDB7B022B53D1BDF85F
:10A724000E3019462C480EF0B1FC4CE0BDF80E304A
:10A734001846FFF73DFF49E0019B1B7AC3F303135F
:10A74400DBB28DF80D309DF80D30032B8CBF012347
:10A754000023DAB2BDF80E3019462048FFF782FF15
:10A764009DF80D30022B8CBF01230023DAB2BDF813
:10A774000E3019461A48FFF775FF9DF80D30012B6E
:10A784008CBF01230023DAB2BDF80E3019461548F8
:10A79400FFF768FF1AE0019B1B7A002B15D1019B80
:10A7A4005B7AC3F3C003DBB2002B14BF0123002385
:10A7B4008DF80C309DF80C20BDF80E301946074872
:10A7C400FFF750FF01E000BF00E000BF00BF05B08D
:10A7D4005DF804FB6CCF03007C3400208834002037
:10A7E400843400208034002000B583B00346ADF8E3
:10A7F4000630BDF80630132B01D9002306E0BDF85E
:10A804000630194603480EF096FC0346184603B07A
:10A814005DF804FB7434002000B585B00346ADF840
:10A82400063000238DF80F30BDF806301846FFF7C8
:10A83400DBFF0346002B11D0BDF8063019460A4849
:10A844000EF079FC03468DF80E309DF80E30002B87
:10A8540001D0022300E001238DF80F309DF80F3062
:10A86400184605B05DF804FB7C34002000B585B0C3
:10A874000346ADF8063000238DF80F30BDF80630DE
:10A884001846FFF7B1FF0346002B11D0BDF8063080
:10A8940019460A480EF04FFC03468DF80E309DF819
:10A8A4000E30002B01D0022300E001238DF80F307D
:10A8B4009DF80F30184605B05DF804FB783400208D
:10A8C40000B583B00346ADF80630BDF8063018462F
:10A8D400FFF78AFF0346002B07D0BDF80630194660
:10A8E40004480EF028FC034600E00023184603B099
:10A8F4005DF804FB8034002000B583B00346ADF856
:10A904000630BDF806301846FFF76EFF0346002BED
:10A9140007D0BDF80630194604480EF00CFC034677
:10A9240000E00023184603B05DF804FB84340020E3
:10A9340000B583B00346ADF80630BDF806301846BE
:10A94400FFF752FF0346002B07D0BDF80630194627
:10A9540004480EF0F0FB034600E00023184603B061
:10A964005DF804FB8834002000B583B00346ADF8DD
:10A974000630BDF806301846FFF736FF0346002BB5
:10A9840002D0BDF8063000E01423184603B05DF889
:10A9940004FB000000B583B0182107480EF0E3FB68
:10A9A4000190019B182B01D1182301E0019BDBB21C
:10A9B400184603B05DF804FB7034002000B583B082
:10A9C40003460A46ADF8063013468DF805309DF867
:10A9D40005301846FFF734FE0346002B16D0BDF8A9
:10A9E40006301846FFF700FF0346002B0ED09DF8F3
:10A9F400053006339B00084A13440433BDF806208F
:10AA0400114618460EF097FB034600E00023184653
:10AA140003B05DF804FB00BF7034002000B583B0C0
:10AA24000346ADF806300B468DF8053013468DF815
:10AA340004309DF805301846FFF702FE0346002B4C
:10AA440015D0BDF806301846FFF7CEFE0346002B9E
:10AA54000DD09DF8053006339B00074A1344043398
:10AA64009DF80420BDF806101846FFF7FBFD00BF53
:10AA740003B05DF804FB00BF7034002000B587B05C
:10AA8400039002910192029B002B01D100231FE04D
:10AA940000230593039B002B19D00023049313E098
:10AAA40003AB049918460EF046FB0346002B08D06E
:10AAB400049B9AB2029B019910469847059B013367
:10AAC4000593049B01330493049B132BE8D9059B42
:10AAD400184607B05DF804FB00B585B00346029143
:10AAE40001928DF80F309DF80F301846FFF7A8FD3E
:10AAF400034683F00103DBB2002B01D000230CE0FA
:10AB04009DF80F30074A06339B0013445B68019A93
:10AB140002991846FFF7B2FF0346184605B05DF8E0
:10AB240004FB00BF7034002000B587B003900B46CF
:10AB34000192ADF80A30019B002B01D10E2338E0BD
:10AB4400019B00221A60039B002B01D10E2330E0ED
:10AB5400039B1B68002B01D10E232AE0039BDB8897
:10AB640003F003039BB2002B01D0072321E0BDF8BF
:10AB74000A301846FFF7F8FE03468DF817309DF8A3
:10AB84001730142B01D1052313E0039B1B799DF887
:10AB940017209A4201D304230BE0039B1B689DF802
:10ABA40017200399C98801FB02F21A44019B1A6019
:10ABB4000023184607B05DF804FB82B00190019BA6
:10ABC4001B781AB2019B01331B781BB21B021BB208
:10ABD40013431BB29BB2184602B07047AADF7047FA
:10ABE40000BF184600B585B001900198FFF7E5FF56
:10ABF4000346ADF80E30BDF80E3003F00103002B10
:10AC040014BF01230023DBB2184605B05DF804FB32
:10AC140082B0034600918DF80730009A137823F030
:10AC24000F031370009A137823F0F00313709DF848
:10AC34000730052B5BD801A252F823F059AC02006F
:10AC44006FAC020089AC0200A3AC0200BDAC0200F0
:10AC5400D7AC0200009A137823F00F031370009A04
:10AC6400137823F0F003137040E0009A1378012165
:10AC740061F303031370009A1378012161F307133E
:10AC8400137033E0009A1378012161F30303137006
:10AC9400009A1378022161F30713137026E0009AD7
:10ACA4001378012161F303031370009A13780321CD
:10ACB40061F30713137019E0009A1378022161F30A
:10ACC40003031370009A1378012161F307131370BF
:10ACD4000CE0009A1378022161F303031370009AC5
:10ACE4001378022161F30713137000BF00BF00BF84
:10ACF40002B0704700B595B0034602910192ADF8D9
:10AD04000E30029B9B78002B03D101238DF81E305B
:10AD140003E0029B9B788DF81E30029B1B88ADF8E4
:10AD24001C3006AB03220021184611F0DDFE029B05
:10AD34005B7C06AA11461846FFF76AFF029B9A7CC1
:10AD440006AB013319461046FFF762FF029BDA7B1C
:10AD54009DF81A3062F3C3038DF81A30029B1A7CF3
:10AD64009DF81A3062F304138DF81A30029B1A7B93
:10AD74009DF81A3062F300038DF81A30029B1B7D94
:10AD8400002B01D0022200E001229DF81A3062F368
:10AD940042038DF81A300DAB1C220021184611F025
:10ADA400A3FE029B5B7B03F01003DBB2002B06D1F6
:10ADB400029B5B7B03F02003DBB2002B24D004ABAB
:10ADC40003220021184611F08FFE029BDA7C04ABAB
:10ADD400013319461046FFF71BFF9DF8103001227E
:10ADE40062F303038DF810309DF81030012262F3F2
:10ADF40007138DF810309DF81230012262F34203DC
:10AE04008DF8123004AB1293029B5B7B8DF83430C7
:10AE1400029B9B7B8DF8353008AB14220021184629
:10AE240011F062FE07AB089306AB0993029B9B8863
:10AE3400ADF82C30029B9B68002B06D0029BDB886C
:10AE4400ADF82830029B9B680C93029B9B69002BF6
:10AE54004FD005AB03220021184611F045FE029B9A
:10AE64009B691B88ADF83C30029B9B695B88ADF8FD
:10AE74003E30029B9B695B680E9305AB1193029B6A
:10AE84009B691B7B05AA11461846FFF7C1FE029B6E
:10AE94009B695A7B05AB013319461046FFF7B8FE90
:10AEA400029B9B699A7A9DF8163062F3C3038DF86E
:10AEB4001630029B9B69DA7A9DF8163062F304130C
:10AEC4008DF81630029B9B691A7A9DF8163062F34E
:10AED40000038DF81630029B9B699B7B002B01D0ED
:10AEE400022200E001229DF8163062F342038DF83D
:10AEF4001630029BDB69002B02D0029BDB691093A6
:10AF040008AA0DA9BDF80E00019BFFF767FE0346D2
:10AF1400184615B05DF804FBA0DF704700BF184663
:10AF2400A1DF704700BF1846ADDF704700BF184669
:10AF3400B3DF704700BF1846B4DF704700BF184640
:10AF440000B583B00190019B002B03D10649722008
:10AF5400FBF75AFA019B00221A60BFF35F8F00BF10
:10AF640000BF03B05DF804FBA8CF030000B585B0B3
:10AF74000190019B002B03D10A498520FBF744FA79
:10AF8400012101980EF04EF90390BFF35F8F00BFCB
:10AF9400039B002B0CBF01230023DBB2184605B032
:10AFA4005DF804FBA8CF030000B583B00190019BBA
:10AFB400002B03D10A499220FBF726FA019B1B6858
:10AFC400012B03D006499320FBF71EFABFF35F8FD2
:10AFD40000BF019B00221A6000BF03B05DF804FBB0
:10AFE400A8CF0300024B00221A7000BF704700BFB5
:10AFF400EC34002000B585B00190019B5B881846B5
:10B0040001F0ECFA03461A46019B9A80002303934D
:10B0140008E0084A039B52F8233001989847039BA1
:10B0240001330393039B002BF3D000BF00BF05B093
:10B034005DF804FB7C2B002082B00190019B9B797E
:10B04400012B0BD1019B1B79012B07D1019B5B8841
:10B0540042F60212934201D1012300E0002303F0DF
:10B064000103DBB2184602B0704700B589B003464D
:10B074000091ADF8063003AB00221A605A609A6062
:10B08400DA601A6108238DF80C30BDF80630ADF88B
:10B094000E30009B059303AB1846FFF7ABFF00BFD0
:10B0A40009B05DF804FB000010B58AB00346ADF8A2
:10B0B400063000238DF8273003AB00221A605A6053
:10B0C4009A60DA601A61BDF80630ADF80E30BDF84A
:10B0D40006304FF6FF72934261D0BDF80630184631
:10B0E40000F0C6FF0890089B43F2020293424BD043
:10B0F400089B43F2020293422DD8089B112B11D0D6
:10B10400089B112B27D8089B002B03D0089B0B2BE3
:10B114000CD020E00F238DF80C3003AB1846FFF75A
:10B1240069FF32E001238DF827302EE010238DF8DB
:10B134000C301C4A1C4BD31ADB081B0443F00203DB
:10B14400BDF806201949184610F0A6FA03AB1846B4
:10B15400FFF750FF19E0134A134BD31ADB081B0403
:10B1640043F0010408980FF0C5FD03461A46BDF8E4
:10B1740006300F49204610F0A0FABDF806300899B1
:10B184001846FFF772FF00E000BF0A4B19789DF8DC
:10B194002720BDF806301846FFF740FC00E000BF4A
:10B1A4000AB010BD38CD0300B8CC0300F4CF0300BF
:10B1B40074D00300F534002000B583B003460A467A
:10B1C400ADF8063013468DF80530064B19789DF816
:10B1D4000520BDF806301846FFF720FC00BF03B079
:10B1E4005DF804FBF434002010B58AB00346ADF8D2
:10B1F400063000238DF8273000238DF82630BDF863
:10B204000630184600F04CFE0890089B43F20202F8
:10B21400934258D0089B43F2020293423AD8089BC7
:10B22400862B17D0089B862B34D8089B112B0DD066
:10B23400089B112B2ED8089B002B03D0089B0B2BAB
:10B2440041D027E001238DF826303DE001238DF81D
:10B25400273039E003AB00221A605A609A60DA6042
:10B264001A6107238DF80C30BDF80630ADF80E30A6
:10B274001C4A1D4BD31ADB081B0443F00203BDF820
:10B2840006201A49184610F007FA03AB1846FFF7D0
:10B29400B1FE19E0134A144BD31ADB081B0443F024
:10B2A400010408980FF026FD03461A46BDF806303F
:10B2B4000F49204610F001FABDF8063008991846E7
:10B2C400FFF7D3FE00E000BF9DF82720BDF806304D
:10B2D40011461846FFF770FF9DF8263018460AB04D
:10B2E40010BD00BF38CD0300B8CC0300C8D00300A4
:10B2F40000D1030000B589B003460091ADF80630D3
:10B3040000238DF81F300DF116031846FFF710FEC9
:10B314000690069B002B04D02A494FF49970FBF742
:10B3240073F80123ADF81C3040E00223ADF8083077
:10B334000023ADF80A3004AB039304A9BDF81C3014
:10B3440000221846FFF7F8FD0690069B002B01D05B
:10B35400069B32E09DF81F3083F00103DBB2002B23
:10B3640009D0BDF8103042F60522934203D10123DF
:10B374008DF81F3015E09DF81F30002B11D0BDF85B
:10B38400103042F6021293420BD1009B039302AA9F
:10B39400BDF81C10BDF806301846FFF7C5FD03467E
:10B3A4000BE0BDF81C300133ADF81C30BDF816308D
:10B3B400BDF81C209A42B8D30523184609B05DF89D
:10B3C40004FB00BF40D1030010B58AB00346ADF8BA
:10B3D400063001238DF8273000238DF82630BDF880
:10B3E4000630184600F0F4FE0890089B43F2014230
:10B3F40093426AD0089B43F2014293426BD8089B64
:10B40400112B29D8089B112B65D801A252F823F0DF
:10B4140069B40200DBB40200DBB40200DBB4020056
:10B42400DBB40200DBB40200B5B40200DBB40200FA
:10B4340095B40200DBB40200DBB40200DBB402000A
:10B44400DBB40200DBB40200DBB40200DBB40200B4
:10B45400DBB402000DB50200089B43F202029342E2
:10B4640054D038E003AB00221A605A609A60DA6064
:10B474001A6111238DF80C30BDF80630ADF80E308A
:10B4840001238DF8263003AB1846FFF7B3FD3EE0E9
:10B494000DF10A02BDF8063011461846FFF72AFFDF
:10B4A4000890089B002B03D1BDF80A30002B2ED145
:10B4B40000238DF82730BDF80630184601F08EF8C9
:10B4C4000346184600F0CCFE21E0BDF806301846CD
:10B4D400FFF7EAFD1BE0184A184BD31ADB081B04DC
:10B4E40043F0010408980FF005FC03461A46BDF822
:10B4F40006301349204610F0E0F8BDF806300899EC
:10B504001846FFF7B2FD02E000BF00E000BF0D4B9C
:10B5140019789DF82720BDF806301846FFF77EFA03
:10B52400094B19789DF82620BDF806301846FFF718
:10B5340075FA00BF0AB010BD38CD0300B8CC0300C3
:10B5440084D10300F6340020F734002000B583B022
:10B5540003460091ADF80630BDF806301846FFF7F3
:10B56400A3FD00BF03B05DF804FB000008B5044B65
:10B574001B78002203491846FFF7AEFA00BF08BD46
:10B58400F534002051B5020000B583B003460091A4
:10B59400ADF806300A48FFF7E9FC0346002B0CD04F
:10B5A400BDF806301846FFF71FFE0346002B03D1F3
:10B5B4000348FFF7F9FC00E000BF03B05DF804FBAB
:10B5C400F034002000B583B003460091ADF8063096
:10B5D4000B4B1A78BDF8063011461846FFF7EEF902
:10B5E400034683F00103DBB2002B04D0BDF8063020
:10B5F4001846FFF7E9FE00BF03B05DF804FB00BF87
:10B60400F734002008B5044B1B7800220349184680
:10B61400FFF762FA00BF08BDF6340020C9B5020086
:10B6240000B583B00346ADF80630BDF806301846C1
:10B6340000F0AAFD0346002B07D0064B1978BDF88D
:10B64400063001221846FFF7E9F900BF03B05DF8A0
:10B6540004FB00BFF634002000B587B00346009118
:10B66400ADF8063004AB04220021184611F03CFA70
:10B6740042F6A623ADF8103001238DF812300D4B9D
:10B684001B68039303AA04A9BDF806301846FFF704
:10B6940043FC0590059B002B07D1074B1978BDF897
:10B6A400063001221846FFF7B9F900BF07B05DF86C
:10B6B40004FB00BFC4D10300F934002000B585B0F9
:10B6C4000346ADF80630BDF80630184600F086FF94
:10B6D4000346184602AA0023092102F019F803467A
:10B6E400052B07D1054B1978BDF806300122184601
:10B6F400FFF794F900BF05B05DF804FBF8340020AF
:10B7040000B583B00B4B1B7800220B491846FFF79A
:10B71400E3F90190019B002B07D1084B1B78002211
:10B7240007491846FFF7D8F9019000BF03B05DF848
:10B7340004FB00BFF43400208DB50200F83400206F
:10B744005DB6020000B583B00190019B1B78002B0D
:10B7540011D1019B5B881846FFF7A6FC019B5B880F
:10B764001846FFF75DFF019B5B881846FFF7A6FFAD
:10B77400FFF7C6FF00E000BF00BF03B05DF804FBA5
:10B7840000B589B00190019B1B78092B5ED1019B08
:10B794005B7A002B5AD1019B1B7A082B47D0082BCC
:10B7A4004DDC012B1BD0072B49D1019B9B881846EC
:10B7B40000F0BEFF0346ADF81E30BDF81E304FF654
:10B7C400FF7293423DD0BDF81E3001211846FFF7A9
:10B7D400F3FCBDF81E301846FFF770FF31E0019B03
:10B7E4009B8803AA0121184602F032FD0690069BAD
:10B7F400002B28D1049B1B78002B24D0019B9B8811
:10B80400184600F095FF0346ADF81630BDF8163023
:10B814004FF6FF72934216D00F4B1978BDF81630CD
:10B8240001221846FFF7FAF8FFF7ECFE0BE00B4B8A
:10B834001B68012B09D10948FFF7B6FB05E000BFDF
:10B8440004E000BF02E000BF00E000BFFFF758FFC4
:10B8540000BF09B05DF804FBF6340020F03400208A
:10B8640008B5FFF7BFFBFFF795F803461A462C4BC4
:10B874001A70FFF78FF803461A462A4B1A70FFF71F
:10B8840089F803461A46284B1A70FFF783F80346D3
:10B894001A46264B1A70FFF77DF803461A46244BC6
:10B8A4001A70FFF777F803461A46224B1A70FFF70F
:10B8B40071F803461A46204B1A70194B1B78182B43
:10B8C40017D0184B1B78182B13D0174B1B78182B39
:10B8D4000FD0164B1B78182B0BD0154B1B78182B3D
:10B8E40007D0144B1B78182B03D0134B1B78182B41
:10B8F4000CD1124A124BD31ADB081B0443F0010388
:10B90400104918460FF0BAFE032306E00E48FFF76D
:10B9140017FB0E4B01221A700023184608BD00BF06
:10B92400F4340020F5340020F6340020F7340020ED
:10B93400F8340020F9340020FA34002038CD030014
:10B94400B8CC0300C8D10300F0340020EC3400204C
:10B9540010B586B003460A46ADF8063013468DF896
:10B96400053003AB00221A605A600123ADF80C3095
:10B9740009238DF80E30194B1978BDF806300022D2
:10B984001846FFF74BF89DF80530002B01D0144BF7
:10B9940000E0144B0493BDF80630184600F01EFE78
:10B9A4000346184603AB0022194601F079FF0590BF
:10B9B400059B002B0FD00C4A0C4BD31ADB081B043D
:10B9C40043F0020405980FF095F903461A46084916
:10B9D40020460FF061FE00BF06B010BDF834002011
:10B9E4004CD3030050D3030038CD0300B8CC03007C
:10B9F40038D2030000B58DB00190019B9B88ADF84F
:10BA04002C30019B1B88353B1F2B00F2688101A25F
:10BA140052F823F029BB02002BBC0200E3BC020055
:10BA2400E3BC0200E3BC0200E3BC0200E3BC02008E
:10BA3400E3BC0200E3BC0200E3BC0200E3BC02007E
:10BA4400E3BC0200E3BC0200E3BC0200E3BC02006E
:10BA5400E3BC0200E3BC0200E3BC0200E3BC02005E
:10BA6400E3BC0200E3BC0200E3BC0200E3BC02004E
:10BA7400E3BC0200E3BC0200E3BC0200E3BC02003E
:10BA840005BB0200E3BC020099BA0200E3BC020059
:10BA9400A5BA0200BDF82C301846FFF705FB1EE1DD
:10BAA40003AB00221A605A609A60DA601A611223AA
:10BAB4008DF80C30BDF82C30ADF80E30BDF82C30BC
:10BAC400184600F08BFD0346ADF81030BDF8103079
