:100000000000012089030000710300007303000059
:100010007503000077030000790300000000000072
:100020000000000000000000000000007B03000052
:100030007D030000000000007F030000810300003A
:10004000A90E000083030000830300008303000067
:1000500083030000830300003D13000083030000BE
:100060008303000083030000830300008303000078
:100070008303000083030000830300008303000068
:1000800035160000310900008303000083030000DF
:100090008303000083030000830300008303000048
:1000A0008303000083030000830300008303000038
:1000B0008303000083030000000000000000000034
:1000C0008303000083030000830300008303000018
:1000D000830300008303000083030000000000008E
:1000E0000000000000000000000000000000000010
:1000F0000000000000000000000000000000000000
:1001000000000000000000000000000000000000EF
:1001100000000000000000000000000000000000DF
:1001200000000000000000000000000000000000CF
:1001300000000000000000000000000000000000BF
:1001400000000000000000000000000000000000AF
:10015000000000000000000000000000000000009F
:10016000000000000000000000000000000000008F
:10017000000000000000000000000000000000007F
:10018000000000000000000000000000000000006F
:10019000000000000000000000000000000000005F
:1001A000000000000000000000000000000000004F
:1001B000000000000000000000000000000000003F
:1001C000000000000000000000000000000000002F
:1001D000000000000000000000000000000000001F
:1001E000000000000000000000000000000000000F
:1001F00000000000000000000000000000000000FF
:100200003A493B480A1A02D0072291438D463949A0
:1002100039480A1A06D00722914381F3098802223D
:1002200082F3148835483649364A00F041F836489A
:100230003649374A00F03CF836483749374A00F02B
:1002400037F837483749384A00F032F837483849E4
:10025000384A00F02DF838483849394A00F028F873
:1002600038483949394A00F023F8394839490022D9
:1002700000F036F838483949002200F031F83848A3
:100280003849091A02F008F9374A904725482649A3
:10029000884205D00268043003B4904703BCF7E7F6
:1002A00000208646EC4600200021304A9047FEE7B9
:1002B000884214D0521A12D003460B43134303242E
:1002C000234206D1036804300B600431043AF9D1AB
:1002D0007047037801300B700131013AF9D1704752
:1002E000884202D002700130FAE770470000012016
:1002F00000E000200000012000000120782700001D
:100300000000002004000020E4030000E4030000DB
:10031000B02400007827000000000020000000202A
:10032000B0240000B0240000B0240000B02400007D
:10033000B0240000B0240000B0240000B02400006D
:10034000762700007C270000040000200400002025
:1003500004000020BC000020BC000020BC000020E5
:10036000BC000020BC200020B1030000091A0000DE
:10037000FEE7FEE7FEE7FEE7FEE7FEE7FEE7FEE755
:10038000FEE7FEE700F002B8FFF7FCBF0F484FF0B2
:100390000701884385460E4880470E48016841F4AE
:1003A00070010160BFF34F8FBFF36F8FFFF728BF5E
:1003B00009480A490A4A884207D0521A05D00378E8
:1003C00001300B700131013AF9D170470000012072
:1003D000BD20000088ED00E0B024000000000020F7
:0403E00000000020F9
:1003E40000B583B00190019B1B68184600F0D7F854
:1003F4000346002B04D105494FF4F67000F0A4FA2B
:100404004FF0A043184603B05DF804FBB02400008D
:1004140000B585B00190084611461A4603468DF88A
:1004240003300B468DF8023013468DF8013001ABD2
:100434001846FFF7D5FF03909DF803209DF802307E
:100444005B001A439DF801309B001A439DF8183055
:100454001B0242EA03019DF81C301B04019A194354
:10046400039B02F5E07243F8221000BF05B05DF86B
:1004740004FB00B585B0039000230193002300938F
:100484000023012201210398FFF7C2FF00BF05B03A
:100494005DF804FB00B585B003900B468DF80B3076
:1004A4009DF80B30002201920022009200220021CC
:1004B4000398FFF7ADFF00BF05B05DF804FB00B57E
:1004C40085B0019001AB1846FFF78AFF0390019BAA
:1004D400012202FA03F31946039800F04CF800BF16
:1004E40005B05DF804FB00B585B0019001AB18467A
:1004F400FFF776FF0390019B012202FA03F31946EA
:10050400039800F042F800BF05B05DF804FB00B5A5
:1005140085B0019001AB1846FFF762FF0390039B7F
:10052400D3F804350293029BDA43019B012101FABB
:1005340003F31A40039BC3F80825019B01229A4048
:10054400029B1A40039BC3F80C2500BF05B05DF85D
:1005540004FB00B583B001900091009B002B03D1F4
:100564000198FFF7C0FF02E00198FFF7A8FF00BF62
:1005740003B05DF804FB82B001900091019B009AE6
:10058400C3F8082500BF02B0704782B00190009103
:10059400019B009AC3F80C2500BF02B0704784B0D9
:1005A4000190019B5B09029300230393029B002BA0
:1005B40003D14FF0FF33039300BF019B03F01F03EC
:1005C4000193039A019B22FA03F303F00103002B26
:1005D40014BF01230023DBB2184604B070470000A7
:1005E40000B583B00190019B032B03D90749412037
:1005F40000F0AAF9064A019B13441B78002118460F
:10060400FFF7A7FF00BF03B05DF804FBE024000080
:100614001025000000B583B00190019B032B03D982
:100624000749472000F090F9064A019B13441B78C0
:1006340001211846FFF78DFF00BF03B05DF804FBEE
:10064400E02400001025000000B583B000230193CE
:1006540005E00198FFF7DEFF019B01330193019B45
:10066400032BF6D900BF00BF03B05DF804FB00B54F
:1006740083B00023019305E00198FFF7B1FF019BCC
:1006840001330193019B032BF6D900BF00BF03B0D4
:100694005DF804FB00B583B00190019B032B03D9E3
:1006A40007495F2000F050F9064A019B13441B7868
:1006B4001846FFF72CFF00BF03B05DF804FB00BF32
:1006C400E02400001025000000B583B0002301934E
:1006D40009E0094A019B13441B781846FFF7C9FE39
:1006E400019B01330193019B032BF2D9FFF7ACFF6C
:1006F40000BF03B05DF804FB1025000000B583B013
:10070400002301930AE0094A019B13441B78032147
:100714001846FFF7BFFE019B01330193019B032B96
:10072400F1D900BF00BF03B05DF804FB142500003D
:1007340000B583B00190019B03F00103002B01D0AD
:10074400FFF7C2FF019B03F00203002B01D0FFF768
:10075400D5FF00BF03B05DF804FB000086B0039032
:100764000291019201238DF817309DF81730204A29
:10077400039B13601E4A029B53601D4A019B9360B6
:10078400039B44F20102934212D0039B44F20202FF
:10079400934220D1019B164AD360154BDB681B683A
:1007A400134A9361124BDB685B68114AD36112E010
:1007B400019B0F4A13610E4B1B699B680C4A5361E2
:1007C4000B4B1B691B680A4A9361094B1B695B68E5
:1007D400074AD36100BF72B600BF00BF9DF817304F
:1007E400DBB2002BFAD162B600BF00BF06B070477F
:1007F4000400002000B583B002900091019244F2FD
:10080400010071466A4600F003F803B000BD00BF62
:1008140000B587B003900291019272B600BF039BAA
:1008240044F20102934207D0039B44F20202934232
:1008340005D1019B059303E0019B049300E000BFF5
:10084400074B1B6803F00103002B00D000BE019A84
:1008540002990398FFF782FF00BF07B05DF804FB1D
:10086400F0ED00E072B600BF034B1B680133024A8F
:10087400136000BF704700BF24000020064B1B68B4
:10088400013B054A1360044B1B68002B01D162B67F
:1008940000BF00BF704700BF2400002000B583B034
:1008A400019000F025F80346012B03D004494320AE
:1008B40000F04AF8FFF7D6FF00BF03B05DF804FB71
:1008C4001825000000B583B003468DF8073000F00A
:1008D4000FF80346012B03D00449512000F034F8EB
:1008E400FFF7CCFF00BF03B05DF804FB1825000040
:1008F40084B0EFF305830193019BC3F308030393CF
:10090400039B002B0DD1EFF314830093009B029300
:10091400029B03F00103002B0CBF01230023DBB275
:1009240000E00123184604B07047000008B5044BEA
:100934001B68044A12681046984700BF08BD00BFF0
:10094400280000202C00002000B585B0034600914B
:10095400ADF80630BDF806300293009B039302AB5A
:100964001A46002144F20200FFF752FF00BF05B00F
:100974005DF804FB044BD3F80034002B14BF0123AF
:100984000023DBB2184670470000014000B583B075
:1009940000230193144B1B78002B02D08523019371
:1009A40014E0114B00229A600F4B00225A600E4B48
:1009B40000221A610C4B0022DA600C4800F01CFA89
:1009C400019000F03FFA084B01221A70FFF7D2FFA2
:1009D4000346002B02D0044B01229A70019B184657
:1009E40003B05DF804FB00BF34000020350B0000A9
:1009F40084B001900091019B1B68039306E0039A65
:100A0400009B9A420DD0039B1B680393039B002B0E
:100A1400F5D1019B1A68009B1A60019B009A1A6029
:100A240000E000BF04B0704784B00190019B1B68D4
:100A34000393039B002B03D0039B1A68019B1A604A
:100A4400039B184604B0704700B583B00190224B55
:100A54001B78002B03D12149F620FFF775FF1E4BAD
:100A64009B78DBB2002B12D0019B002B03D0019B9F
:100A74005B68012098470020FFF710FF164BDB68E6
:100A84000133154AD3600020FFF71CFF17E0002054
:100A9400FFF704FF019B002B03D001991048FFF7D7
:100AA400A7FF0D4BDB68002B01D100F0DFF90A4BE7
:100AB400DB680133084AD3600020FFF703FF064BCD
:100AC400DB68002B04D105494FF48970FFF73CFF24
:100AD40000BF03B05DF804FB34000020582500007B
:100AE4004400002000B585B003468DF807309DF81A
:100AF4000730002B02D10C4B039301E00B4B039303
:100B04000398FFF791FF0290029B002B06D0029BF3
:100B14005B689DF8072010469847F1E700BF00BFC7
:100B240005B05DF804FB00BF3C0000204400002039
:100B340000B583B003468DF807309DF80730002BCD
:100B440005D10A4B01225A700020FFF7CBFF9DF814
:100B54000730012B05D1054B01229A700120FFF7C4
:100B6400C1FF00BF03B05DF804FB00BF34000020E8
:100B740082B003468DF807309DF90730002B0CDB5B
:100B84009DF8073003F01F0205499DF907305B0902
:100B9400012000FA02F241F8232000BF02B070479E
:100BA40000E100E082B0034600918DF807309DF922
:100BB4000730002B0ADB009BDAB20C499DF90730A1
:100BC4005201D2B20B4483F800230BE0009BDAB24B
:100BD40007499DF8073003F00F03043B5201D2B2DA
:100BE4000B441A7600BF02B0704700BF00E100E07A
:100BF40000ED00E082B00190019B1B0B5BB2184634
:100C040002B0704700B583B003460A468DF807303A
:100C140013468DF806309DF80630072B03D9084992
:100C24006B20FFF791FE9DF806209DF907301146D1
:100C34001846FFF7B7FF00BF03B05DF804FB00BF21
:100C44009425000000B583B003468DF807309DF964
:100C540007301846FFF78CFF00BF03B05DF804FBB4
:100C640082B003468DF807300F4A9DF90730002BF8
:100C740000DA1F335B115BB252F823209DF9073071
:100C8400594203F01F0301F01F0158BF4B425BB2EE
:100C940022FA03F303F00103002B14BF0123002302
:100CA400DBB2184602B0704700E100E082B0019068
:100CB4004FF08042019BC2F8043300BF02B070477A
:100CC40082B001904FF08042019BC2F8083300BF0C
:100CD40002B0704782B003468DF807309DF80730A4
:100CE40003F1804301221A6000BF02B0704784B050
:100CF4000346ADF80630BDF8063003F18043002208
:100D04001A60BDF8063003F180431B680393039B0C
:100D140000BF04B0704782B00346ADF80630BDF89A
:100D2400063003F180431B68002B14BF012300230A
:100D3400DBB2184602B0704782B001904FF0804297
:100D4400019BC2F8183500BF02B0704700B583B0EC
:100D540006238DF807304FF08040FFF74BFF034622
:100D64001846FFF77DFF034683F00103DBB2002B37
:100D740013D04FF08040FFF73DFF03461A469DF81D
:100D8400073019461046FFF73DFF4FF08040FFF74C
:100D940031FF03461846FFF755FF00BF03B05DF867
:100DA40004FB000084B0124BDB680393104A039BDE
:100DB40043F08073D3600F4B1B6802930D4A029B70
:100DC40043F0010313600B4B5B68019300BF094BB5
:100DD4005A68019BD31AB3F50A5FF8D3054A029BFC
:100DE4001360034A039BD36000BF04B0704700BF85
:100DF400F0ED00E0001000E000B585B00190019B2B
:100E0400002B03D10D49A420FFF79EFD002303937B
:100E14000B4B1B79002B02D08523039308E0084A6F
:100E2400019B1360064B01221A71054B00225A7173
:100E3400039B184605B05DF804FB00BFC425000001
:100E44004800002008B5074B1B79002B03D1064945
:100E5400BD20FFF779FDFFF779FF0120FFF76CFF55
:100E640000BF08BD48000020C425000008B50B4B96
:100E74001B79002B03D10A49EA20FFF765FD4FF4E3
:100E84008270FFF734FF0220FFF710FFFFF78AFF9D
:100E94000820FFF71FFF00BF08BD00BF4800002067
:100EA400C425000008B54FF48070FFF734FF0346F3
:100EB400002B14D04FF48070FFF719FF0120FFF7C7
:100EC400FFFE114B5B7983F00103DBB2002B06D0EC
:100ED4000D4B01225A710C4B1B68002098474FF4AC
:100EE4008270FFF718FF0346002B0AD04FF482707C
:100EF400FFF7FDFE0220FFF7E3FE034B1B68012012
:100F0400984700BF08BD00BF4800002000B583B06B
:100F14000346ADF80630BDF80630184600F026F852
:100F240003461B68012B0CBF01230023DBB21846C8
:100F340003B05DF804FB00B585B00346ADF8063098
:100F4400BDF80630184600F011F803461A4600238F
:100F54001360BDF80630184600F008F803461B6815
:100F64000393039B00BF05B05DF804FB82B0034606
:100F7400ADF80630BDF8063003F1804303F5C043F5
:100F8400184602B07047000082B00190034BD3F8BA
:100F94000423019B1340184602B0704700600040D0
:100FA40082B00190054A019B03F5A27352F82330E5
:100FB4001B0A03F01F03184602B07047006000408C
:100FC40082B00190064A019B03F5A27352F82330C4
:100FD4001B0C03F00303DBB2184602B0704700BFDA
:100FE4000060004000B583B00190019B1B68184667
:100FF40000F095F80346002B04D105494FF4F67030
:10100400FFF7A2FC4FF0A043184603B05DF804FBC1
:101014002C26000000B585B001900B468DF80330F6
:1010240001AB1846FFF7DEFF0390019A039B02F51C
:10103400E07253F82230019A23F44031039B02F505
:10104400E07243F82210019A039B02F5E07253F810
:1010540022109DF803301B04019A1943039B02F5E7
:10106400E07243F8221000BF05B05DF804FB00B540
:1010740085B0019001AB1846FFF7B4FF0390019AC5
:10108400039B02F5E07253F822301B0C03F00303B8
:10109400DBB2184605B05DF804FB86B003900291FC
:1010A40001924FF0A0430493039B059319E0059B21
:1010B4009B0018336B4453F8083CD3F82025019B5C
:1010C4001A60059B9B0018336B4453F8083C019A43
:1010D4001268C3F82025019B04330193059B013357
:1010E4000593039A029B1344059A9A42DFD300BFE7
:1010F40000BF06B0704700B585B0019001AB18463B
:10110400FFF770FF0390019B012202FA03F31A46D2
:10111400039BC3F8202500BF05B05DF804FB84B031
:101124000190019B5B09029300230393029B002B14
:1011340003D14FF0FF33039300BF019B03F01F0360
:101144000193039A019B22FA03F303F00103002B9A
:1011540014BF01230023DBB2184604B0704784B0E7
:1011640001900091009B0393019BDB080293019B78
:1011740003F0070301930122019B02FA03F303998D
:10118400029A0A4412781340184604B070470000CB
:1011940082B00190044A019B1344303393F9003028
:1011A400184602B0704700BF5000002082B0019082
:1011B400034A019B52F82330184602B0704700BF1F
:1011C4005000002084B00190074A019B134450331F
:1011D40093F900308DF80F309DF80F3023F0C003E1
:1011E400184604B0704700BF5000002084B001903E
:1011F400074A019B1344503393F900308DF80F30A4
:101204009DF80F309B09DBB2184604B0704700BF4D
:101214005000002000B585B00190019A0121002002
:10122400FFF73BFF002303930BE0039B9B00019A12
:1012340013441B68002B01D0012306E0039B0133F8
:101244000393039B002BF0D00023184605B05DF8F0
:1012540004FB000000B587B00190002305935BE018
:10126400344A059B1344503393F90030B3F1FF3FE4
:101274004ED00598FFF7A6FF049001990498FFF754
:101284006EFF0346002B44D00598FFF7AFFF0346DB
:101294008DF80F300498FFF7EAFE03468DF80E3000
:1012A4009DF80E30022B01D1032300E002238DF8B8
:1012B4000D309DF80D3019460498FFF7ABFE0498E5
:1012C400FFF719FF0498FFF763FF03461846FFF77B
:1012D4006DFF0290029B002B1BD09DF80F30032B57
:1012E4000FD09DF80E30022B03D19DF80F30012B47
:1012F40007D09DF80E30032B0BD19DF80F30022B35
:1013040007D19DF80F20029B11460498984700E0EE
:1013140000BF059B01330593059B032BA0D90198BE
:10132400FFF778FF0346002B97D100BF00BF07B03B
:101334005DF804FB5000002000B589B0002307933A
:10134400002300934FF48073ADF816300123049307
:101354000023069321E0BDF816301846FFF7D6FDAA
:101364000346002B0ED00498FFF70EFE0346002B15
:1013740008D0BDF816301846FFF7DDFD079A049B28
:1013840013430793049B5B000493BDF816300433A6
:10139400ADF81630069B01330693069B072BDAD96A
:1013A4004FF4BE70FFF7B2FD0346002B0DD04FF48F
:1013B400BE70FFF7C0FD079B43F0004307936B46E5
:1013C4001A4601210020FFF768FE079BDBB2002BC1
:1013D40029D0012304930023069321E0049A079B58
:1013E4001340002B16D00698FFF7DAFD03900698F9
:1013F400FFF7E6FD03468DF80B300698FFF7D6FE9F
:101404000190019B002B05D09DF80B20019B1146F8
:1014140003989847049B5B000493069B013306934F
:10142400069B072BDAD9079B002B03DA6B46184679
:10143400FFF710FF00BF09B05DF804FB82B003465C
:101444008DF807309DF90730002B0CDB9DF8073031
:1014540003F01F0205499DF907305B09012000FADA
:1014640002F241F8232000BF02B0704700E100E01F
:1014740082B0034600918DF807309DF90730002BA8
:101484000ADB009BDAB20C499DF907305201D2B253
:101494000B4483F800230BE0009BDAB207499DF864
:1014A400073003F00F03043B5201D2B20B441A7607
:1014B40000BF02B0704700BF00E100E000ED00E0B3
:1014C40000B583B003460A468DF8073013468DF8FD
:1014D40006309DF80630072B03D908496B20FFF727
:1014E40033FA9DF806209DF9073011461846FFF798
:1014F400BFFF00BF03B05DF804FB00BF98260000E7
:1015040000B583B003468DF807309DF907301846BF
:10151400FFF794FF00BF03B05DF804FB82B00346FD
:101524008DF80730034A9DF80730C2F80C3500BF28
:1015340002B070470000014082B003468DF80730C6
:101544009DF8073003F1804303F5803301221A60CC
:1015540000BF02B0704784B00346ADF80630BDF852
:10156400063003F1804303F5803300221A60BDF88E
:10157400063003F1804303F580331B680393039B18
:1015840000BF04B0704782B00346ADF80630BDF822
:10159400063003F1804303F580331B68002B14BF2E
:1015A40001230023DBB2184602B0704782B00190D9
:1015B400034A019BC2F8043300BF02B0704700BF66
:1015C4000000014082B00190034A019BC2F8043537
:1015D40000BF02B0704700BF0000014082B0034664
:1015E4008DF80730074BD3F808259DF80730012103
:1015F40001FA03F303491343C1F8083500BF02B0ED
:10160400704700BF0000014082B003468DF80730E8
:10161400054A9DF8073003F5C073044942F82310C6
:1016240000BF02B0704700BF000001403546526E53
:1016340008B54FF48070FFF7A6FF0346002B06D0D1
:10164400044B1B6898474FF48070FFF784FF00BF7A
:1016540008BD00BFB000002030B587B001900091F4
:10166400019B002B03D128494A20FFF76DF9009B09
:10167400002B03D124494E20FFF766F9234A009B2F
:101684001360234B1B78002B23D1214B01221A70AA
:10169400019B1B781846FFF741FF019B5B68002202
:1016A4001C4615464FF000004FF00001E90341EAE3
:1016B4005441E0034FF47A724FF0000300F052FEFD
:1016C40002460B46CDE90223DDE90223012B08D3B0
:1016D40003E008230593059B13E00B496420FFF7FF
:1016E40033F9029B1846FFF76DFF019B1B7A1946DD
:1016F4001020FFF7E5FE1020FFF702FF00230593FB
:10170400059B184607B030BDC8260000B000002075
:10171400AC00002008B50D4B1B78002B03D10C49FD
:101724007520FFF711F90B4B1B78012B03D00849E7
:101734007620FFF709F90120FFF738FF0020FFF7B3
:10174400FBFE044B02221A7000BF08BDAD0000204E
:10175400C8260000AC00002000B585B00190019BB4
:10176400002B03D117498C20FFF7EEF8164B1B789A
:10177400012B03D013498D20FFF7E6F80020FFF773
:101784008DF8124B1B78072B11D8104B1A78019B3C
:101794001A700E4B1B780133DAB20C4B1A70019B92
:1017A4001B781846FFF71AFF0023039301E0042374
:1017B40003930020FFF786F8039B184605B05DF8F5
:1017C40004FB00BFC8260000AC000020AD000020D0
:1017D40000B583B003468DF80730084B1B78022B05
:1017E40003D00749A220FFF7AFF89DF80730184649
:1017F400FFF70AFF00BF03B05DF804FBAC00002054
:10180400C826000000B585B00190019B002B0AD0CA
:10181400074B43F001030393019B9B010293039B3A
:101824000298984700E000BF05B05DF804FB00BFD4
:101834007027000000B583B00190019B1B68184617
:1018440000F073F80346002B04D105494FF4F670F9
:10185400FFF77AF84FF0A043184603B05DF804FB95
:101864000027000000B585B00190084611461A46CD
:1018740003468DF803300B468DF8023013468DF87D
:10188400013001AB1846FFF7D5FF03909DF8032004
:101894009DF802305B001A439DF801309B001A4307
:1018A4009DF818301B0242EA03019DF81C301B040A
:1018B400019A1943039B02F5E07243F8221000BF1A
:1018C40005B05DF804FB00B585B003900B468DF8B8
:1018D4000B309DF80B30002201920022009200226E
:1018E40000210398FFF7BEFF00BF05B05DF804FBBD
:1018F40000B585B0019001AB1846FFF79BFF03903C
:10190400039800F00AF80246019B22FA03F303F05D
:101914000103184605B05DF804FB82B00190019BF9
:10192400D3F81035184602B0704784B00190019B7B
:101934005B09029300230393029B002B03D14FF016
:10194400FF33039300BF019B03F01F030193039A2A
:10195400019B22FA03F303F00103002B14BF0123BC
:101964000023DBB2184604B0704700B583B0019081
:10197400019B002B0AD04FF47A70FFF743FF019BC1
:10198400013B0193019B002BF5D100E000BF03B0A4
:101994005DF804FB00BF704700B587B000230593D2
:1019A400144A6B4607CA83E807006B461249184677
:1019B400FFF752FE0590059B0493049B002B04D073
:1019C4000E4A21210498FEF715FF0D48FFF7C4FEC7
:1019D4000590059B0393039B002B04D0074A252104
:1019E4000398FEF707FFFFF795FE00BF07B05DF809
:1019F40004FB00BF64270000991900003027000091
:101A0400B400002000B585B00120FEF791FE03214B
:101A14000E20FFF758FFFEF7B9FF0290029B0193D7
:101A2400019B002B04D0194A3B210198FEF7E2FEEA
:101A34000020FFF709F80023039308E00020FEF7D5
:101A440029FE6420FFF791FF039B01330393039B5B
:101A5400092BF3DDFEF7F8FDFFF79EFF0E20FFF7DD
:101A640047FF0346002B0AD1FEF701FE00BF0E20FC
:101A7400FFF73EFF0346002BF9D0FEF7E5FD044BCC
:101A84001B781846FFF7A4FEE8E700BF30270000E4
:101A9400B4000020BFF34F8F00BF064BDB6803F494
:101AA400E0620449044B1343CB60BFF34F8F00BF84
:101AB40000BFFDE700ED00E00400FA0582B01D4B15
:101AC4001B68B3F1FF3F0AD11B4B1B68DBB20193C8
:101AD4001A4B1B681B0903F00F03009305E0154B19
:101AE4001B680193164B1B680093019B062B1DD1A9
:101AF400009B033B042B17D801A252F823F000BF2C
:101B0400191B00001D1B0000211B0000251B0000E9
:101B1400291B000001230AE0012308E0012306E059
:101B2400012304E0012302E0012300E0002318461E
:101B340002B0704730010010E00F00F0E80F00F031
:101B44003401001082B0174B1B68DBB20193164BB3
:101B54001B681B0903F00F030093019B062B1DD187
:101B6400009B033B042B17D801A252F823F000BFBB
:101B7400891B00008D1B0000911B0000951B0000B9
:101B8400991B000001230AE0002308E0002306E07B
:101B9400002304E0002302E0002300E000231846B1
:101BA40002B07047E00F00F0E80F00F082B01D4B68
:101BB4001B68B3F1FF3F0AD11B4B1B68DBB20193D7
:101BC4001A4B1B681B0903F00F03009305E0154B28
:101BD4001B680193164B1B680093019B062B1DD1B8
:101BE400009B033B042B17D801A252F823F000BF3B
:101BF400091C00000D1C0000111C0000151C000035
:101C0400191C000001230AE0012308E0012306E077
:101C1400012304E0012302E0012300E0002318462D
:101C240002B0704730010010E00F00F0E80F00F040
:101C34003401001082B0174B1B68DBB20193164BC2
:101C44001B681B0903F00F030093019B062B1DD196
:101C5400009B033B042B17D801A252F823F000BFCA
:101C6400791C00007D1C0000811C0000851C000004
:101C7400891C000001230AE0002308E0002306E099
:101C8400002304E0002302E0002300E000231846C0
:101C940002B07047E00F00F0E80F00F082B01D4B77
:101CA4001B68B3F1FF3F0AD11B4B1B68DBB20193E6
:101CB4001A4B1B681B0903F00F03009305E0154B37
:101CC4001B680193164B1B680093019B062B1DD1C7
:101CD400009B033B042B17D801A252F823F000BF4A
:101CE400F91C0000FD1C0000011D0000051D000082
:101CF400091D000001230AE0012308E0012306E096
:101D0400012304E0012302E0012300E0002318463C
:101D140002B0704730010010E00F00F0E80F00F04F
:101D24003401001082B0174B1B68DBB20193164BD1
:101D34001B681B0903F00F030093019B062B1DD1A5
:101D4400009B033B042B17D801A252F823F000BFD9
:101D5400691D00006D1D0000711D0000751D00004F
:101D6400791D000001230AE0002308E0002306E0B7
:101D7400002304E0002302E0002300E000231846CF
:101D840002B07047E00F00F0E80F00F082B0174B8C
:101D94001B68DBB20193164B1B681B0903F00F038E
:101DA4000093019B062B1DD1009B033B042B17D8EA
:101DB40001A252F823F000BFD11D0000D51D000080
:101DC400D91D0000DD1D0000E11D000001230AE013
:101DD400002308E0002306E0002304E0002302E0DF
:101DE400002300E00023184602B07047E00F00F023
:101DF400E80F00F082B01D4B1B68B3F1FF3F0AD11E
:101E04001B4B1B68DBB201931A4B1B681B0903F0C5
:101E14000F03009305E0154B1B680193164B1B68D9
:101E24000093019B062B1DD1009B033B042B17D869
:101E340001A252F823F000BF511E0000551E0000FD
:101E4400591E00005D1E0000611E000000230AE010
:101E5400002308E0012306E0012304E0012302E05B
:101E6400012300E00023184602B07047300100103F
:101E7400E00F00F0E80F00F03401001082B01D4BB9
:101E84001B68B3F1FF3F0AD11B4B1B68DBB2019304
:101E94001A4B1B681B0903F00F03009305E0154B55
:101EA4001B680193164B1B680093019B062B1DD1E5
:101EB400009B033B042B17D801A252F823F000BF68
:101EC400D91E0000DD1E0000E11E0000E51E00001A
:101ED400E91E000001230AE0012308E0012306E0D3
:101EE400012304E0012302E0012300E0002318465B
:101EF40002B0704730010010E00F00F0E80F00F06E
:101F04003401001082B01D4B1B68B3F1FF3F0AD1AE
:101F14001B4B1B68DBB201931A4B1B681B0903F0B4
:101F24000F03009305E0154B1B680193164B1B68C8
:101F34000093019B062B1DD1009B033B042B17D858
:101F440001A252F823F000BF611F0000651F0000CA
:101F5400691F00006D1F0000711F000001230AE0CB
:101F6400012308E0012306E0012304E0012302E049
:101F7400012300E00023184602B07047300100102E
:101F8400E00F00F0E80F00F03401001082B0154BB0
:101F94001B680193144B1B680093019B062B1DD1F6
:101FA400009B033B042B17D801A252F823F000BF77
:101FB400C91F0000CD1F0000D11F0000D51F000065
:101FC400D91F000000230AE0002308E0002306E0F4
:101FD400012304E0012302E0012300E0002318466A
:101FE40002B07047300100103401001082B0154B6C
:101FF4001B680193144B1B680093019B062B1DD196
:10200400009B033B042B17D801A252F823F000BF16
:10201400292000002D200000312000003520000080
:102024003920000000230AE0002308E0002306E032
:10203400002304E0012302E0012300E0002318460A
:1020440002B07047300100103401001008B5FFF7EA
:10205400CDFF0346002B07D04FF010234FF08042F2
:10206400D3F80832C2F8583500BF08BD00BF044B8E
:10207400D3F80034002BFAD000BF00BF704700BF74
:1020840000E0014000B583B00190054A019BC2F80D
:102094000435FFF7EBFF00BF03B05DF804FB00BF9E
:1020A40000E00140024B034A1A6000BF704700BFC2
:1020B400000000200090D00308B5FFF7FFFC0346A2
:1020C400002B06D0964B1B681B0A964A03F01F038D
:1020D4001360FFF737FD0346002B02D0924B934A5F
:1020E4001A60FFF763FD0346002B06D0904B1B6874
:1020F4005B0B904A03F007031360FFF79BFD034655
:10210400002B05D08C4BDB688B4A23F08073D360A3
:10211400FFF7C4FD0346002B0ED04FF0804300228E
:10212400C3F80C214FF080430022C3F810214FF074
:1021340080430022C3F83825FFF7F4FD0346002B43
:1021440002D07E4B03221A60FFF720FE0346002BC9
:102154000BD07B4B05221A607A4B01221A607A4B12
:1021640000221A60794B3F221A60FFF743FE0346B0
:10217400002B76D04FF08053754AD3F80434C2F85C
:1021840020354FF08053724AD3F80834C2F824350E
:102194004FF080536E4AD3F80C34C2F828354FF010
:1021A40080536B4AD3F81034C2F82C354FF0805367
:1021B400674AD3F81434C2F830354FF08053644A78
:1021C400D3F81834C2F834354FF08053604AD3F84A
:1021D4001C34C2F840354FF080535D4AD3F82034A4
:1021E400C2F844354FF08053594AD3F82434C2F826
:1021F40048354FF08053564AD3F82834C2F84C354A
:102204004FF08053524AD3F82C34C2F850354FF073
:1022140080534F4AD3F83034C2F854354FF08053CA
:102224004B4AD3F83434C2F860354FF08053484AEF
:10223400D3F83834C2F864354FF08053444AD3F8A5
:102244003C34C2F868354FF08053414AD3F84034E7
:10225400C2F86C354FF080533D4AD3F84434C2F889
:102264007035FFF70BFE0346002B05D0394B1B6876
:10227400394A03F04F031360FFF744FE0346002B73
:102284000DD04FF08043D3F8003403F00103002B4A
:1022940005D04FF080436FF00102C3F80024FFF72C
:1022A40075FE0346002B05D02C4B1B682B4A43F4C8
:1022B400806313602A4BD3F88830294A43F47003AF
:1022C400C2F88830BFF34F8F00BFBFF36F8F00BFDA
:1022D400FFF7BCFE4FF01023D3F80032002B05DBD0
:1022E4004FF01023D3F80432002B15DA0120FFF746
:1022F400C9FE4FF010231522C3F80022FFF7B6FEE3
:102304004FF010231522C3F80422FFF7AFFE00207C
:10231400FFF7B8FEFFF7BEFBFFF7C4FE00BF08BD22
:10232400240300104035014074C007400DF0ADBADD
:10233400440200103C050040F0ED00E0A005004020
:10234400105600408856004018560040145600406D
:1023540000C0004058020010E40E00403C1700404A
:1023640000ED00E0002B35D129B9B0FBF2FC0CFBE9
:10237400120260467047914215D22DE9F041B2FA3B
:1023840082F39A409940D3F1200C30FA0CFC51EAC4
:102394000C01984000F04EF8280036FA03F20021B0
:1023A4000023BDE8F081F0B5B1FBF2FC0CFB121187
:1023B400B2FA82F39A409940D3F1200630FA06F635
:1023C4003143984000F036F8614628003200DA4084
:1023D4000023F0BDF3B5B3FA83FC49085FEA30008B
:1023E40013FA0CF3DCF1200432FA04F423430CB4A2
:1023F4001A0000F01FF80CBC33FA0CF3DCF11F0CCC
:1024040035FA0CF518BF013D03BCA5FB026705FBBB
:102414000377801BB941904271EB030C05D3821AF8
:1024240071EB0303681C0021F0BD02000B002800BF
:102434000021F0BD940D4FF6C2752D02B5FBF4F4E6
:10244400D60A013604FB04F5A5FB0656F64306EB53
:102454000416550832BF00277708013505FB1677A7
:10246400A6FB07477F0807EBC63714001500E7FBF8
:1024740002457F1B4D1C0400E7FB014505FB1206CA
:10248400A64284BF013DB618964224BF0135B61A50
:10249400704700BF082938BF7047416040F2B80157
:0C24A400C2F200010860002101607047D6
:1024B0002E2E2F2E2E2F2E2E2F2E2E2F2E2E2F2E37
:1024C0002E2F6D6F64756C65732F6E7266782F6832
:1024D000616C2F6E72665F6770696F2E6800000016
:1024E000433A5C4E6F726469635F50726F6A6563F2
:1024F000745C636F6D706F6E656E74735C626F6138
:102500007264735C626F617264732E63000000001A
:10251000111213140D0E0F10433A5C4E6F72646962
:10252000635F50726F6A6563745C636F6D706F6E2A
:10253000656E74735C6C69627261726965735C75F7
:1025400074696C5C6170705F7574696C5F706C61EC
:1025500074666F726D2E6300433A5C4E6F726469ED
:10256000635F50726F6A6563745C696E74656772ED
:102570006174696F6E5C6E7266785C6C65676163CE
:10258000795C6E72665F6472765F636C6F636B2EEC
:10259000630000002E2E2F2E2E2F2E2E2F2E2E2FAC
:1025A0002E2E2F2E2E2F696E746567726174696FDF
:1025B0006E2F6E7266782F6E7266785F676C7565C7
:1025C0002E680000433A5C4E6F726469635F50721C
:1025D0006F6A6563745C6D6F64756C65735C6E7255
:1025E00066785C647269766572735C7372635C6E44
:1025F0007266785F636C6F636B2E63002E2E2F2ED6
:102600002E2F2E2E2F2E2E2F2E2E2F2E2E2F696E6A
:10261000746567726174696F6E2F6E7266782F6E63
:102620007266785F676C75652E6800002E2E2F2EFF
:102630002E2F2E2E2F2E2E2F2E2E2F2E2E2F6D6F35
:1026400064756C65732F6E7266782F68616C2F6E7F
:1026500072665F6770696F2E68000000433A5C4ED7
:102660006F726469635F50726F6A6563745C6D6FEB
:1026700064756C65735C6E7266785C6472697665AD
:1026800072735C7372635C6E7266785F6770696F99
:1026900074652E63000000002E2E2F2E2E2F2E2E5E
:1026A0002F2E2E2F2E2E2F2E2E2F696E74656772D1
:1026B0006174696F6E2F6E7266782F6E7266785FC6
:1026C000676C75652E680000433A5C4E6F726469F2
:1026D000635F50726F6A6563745C6D6F64756C657F
:1026E000735C6E7266785C647269766572735C7333
:1026F00072635C6E7266785F7764742E63000000AC
:102700002E2E2F2E2E2F2E2E2F2E2E2F2E2E2F2EE4
:102710002E2F6D6F64756C65732F6E7266782F68DF
:10272000616C2F6E72665F6770696F2E68000000C3
:10273000433A5C4E6F726469635F50726F6A65639F
:10274000745C6578616D706C65735C4D795F507217
:102750006F6A6563745C32365F5744545C6D6169BF
:102760006E2E630001000000D0070000060000008C
:062770000338FDD870479C
:042778000090D003FA
:04000003000003896D
:00000001FF
