:10000000000001208903000071030000693E000028
:100010007503000077030000790300000000000072
:100020000000000000000000000000007B03000052
:100030007D030000000000007F030000810300003A
:10004000C1AC00008303000061AD0000D1AC000032
:10005000F5AC000083030000D9A5000051B40000F6
:10006000A1B80000B9B80000D1B8000095B30000F5
:1000700083030000CDB10000830300008303000070
:100080004DD2000089280000B5B000003DAD000051
:1000900035B7000041B700004DB7000059B7000068
:1000A00065B7000071B70000E9B8000001B90000B1
:1000B000D1AF0000ADA9000000000000000000006A
:1000C00083030000E9AF000001B0000019AD00009B
:1000D000A9B3000051A70000830300000000000046
:1000E0000000000000000000000000000000000010
:1000F0000000000000000000000000000000000000
:1001000000000000000000000000000000000000EF
:1001100000000000000000000000000000000000DF
:1001200000000000000000000000000000000000CF
:1001300000000000000000000000000000000000BF
:1001400000000000000000000000000000000000AF
:10015000000000000000000000000000000000009F
:10016000000000000000000000000000000000008F
:10017000000000000000000000000000000000007F
:10018000000000000000000000000000000000006F
:10019000000000000000000000000000000000005F
:1001A000000000000000000000000000000000004F
:1001B000000000000000000000000000000000003F
:1001C000000000000000000000000000000000002F
:1001D000000000000000000000000000000000001F
:1001E000000000000000000000000000000000000F
:1001F00000000000000000000000000000000000FF
:100200003A493B480A1A02D0072291438D463949A0
:1002100039480A1A06D00722914381F3098802223D
:1002200082F3148835483649364A00F041F836489A
:100230003649374A00F03CF836483749374A00F02B
:1002400037F837483749384A00F032F837483849E4
:10025000384A00F02DF838483849394A00F028F873
:1002600038483949394A00F023F8394839490022D9
:1002700000F036F838483949002200F031F83848A3
:100280003849091A0DF0F0FD374A904725482649AC
:10029000884205D00268043003B4904703BCF7E7F6
:1002A00000208646EC4600200021304A9047FEE7B9
:1002B000884214D0521A12D003460B43134303242E
:1002C000234206D1036804300B600431043AF9D1AB
:1002D0007047037801300B700131013AF9D1704752
:1002E000884202D002700130FAE770470000012016
:1002F00000E000200000012000000120D01E0100CD
:10030000BC01002070030020E4030000E4030000AF
:100310003EE10000D01E0100BC010020BC01002015
:100320000CE500000CE500000CE500000CE5000009
:100330000CE500000CE500000CE500000CE50000F9
:10034000CD1E0100842001007003002070030020F6
:1003500070030020441C0020441C0020441C00208A
:10036000441C0020443C0020B1030000EDD30000F9
:10037000FEE7FEE7FEE7FEE7FEE7FEE7FEE7FEE755
:10038000FEE7FEE700F002B8FFF7FCBF0F484FF0B2
:100390000701884385460E4880470E48016841F4AE
:1003A00070010160BFF34F8FBFF36F8FFFF728BF5E
:1003B00009480A490A4A884207D0521A05D00378E8
:1003C00001300B700131013AF9D170470000012072
:1003D0008DDA000088ED00E050E30000000000200E
:0403E000BC0100203C
:1003E40000B587B003460A468DF8073013468DF8EA
:1003F400063000238DF81730002304939DF807304E
:10040400184600F003FE0490049B032B62D89DF869
:100414000630022B52D0022B5CDC002B31D0012B96
:1004240058D13549049A13465B0013440B441B7896
:100434008DF817303049049A13465B0013440B447B
:1004440001331B78002B0ED02C4B2D4A4FF48041E6
:10045400184601F033FD0390039B002B03D1284A77
:100464009DF8073013702449049A13465B00134423
:100474000B4402331978234A049B13440A461A7026
:1004840028E01E4B184601F069FD1E4A049B1344E4
:1004940019781948049A13465B0013440344023341
:1004A4001B78994215D11449049A13465B001344EE
:1004B4000B4402331B788DF817300AE00E49049A76
:1004C40013465B0013440B4401331B788DF817303B
:1004D40000E000BF9DF81730002B09D00A4B1B68C1
:1004E400002B05D0084B1B689DF817201046984731
:1004F40000BF07B05DF804FB800300200002002069
:100504008C030020900300207C03002000B583B0FE
:100514000190019B1B7802211846FFF761FF00BF81
:1005240003B05DF804FB000000B583B00C4B1B78EE
:10053400002B0FD00023019308E0019B022B02D073
:10054400019800F0D5FC019B01330193019B032B1F
:10055400F3D901E000F0E6FC00BF03B05DF804FB52
:10056400780300202DE9D04F92B003468DF83F3038
:100574000023119300231093CC4B1B78002B04D041
:10058400CA4A00231370FFF7CFFF9DF83F30172BA3
:1005940000F23F8201A252F823F000BF01060000DE
:1005A4001906000019060000B506000051070000F6
:1005B400CD070000610800008108000091080000D8
:1005C400BD080000DB080000F9080000170900005E
:1005D400250900002509000025090000250900005F
:1005E40025090000B9090000C7090000DB09000063
:1005F400EF090000090A0000090A0000FFF794FF50
:10060400AB4B184601F0AAFC1190AA4A9DF83F3062
:100614001370FFE1002000F023FC0346002B0DD0F3
:10062400002000F065FC9DF83F30022B02D14FF40E
:10063400E16301E04FF47A6310930BE0002000F0D3
:100644003DFC9DF83F30022B01D1C82301E04FF45B
:10065400C8731093974A9DF83F301370944C109BC5
:100664000022009301924FF000024FF00003DDE9F5
:1006740000673946CB03314643EA51433146CA0346
:1006840012F57A71029143F1000303934FF4FA6275
:100694004FF00003DDE902010DF04CFB02460B466E
:1006A400134600221946204601F008FC1190B1E1DE
:1006B400002000F0D5FB0346002B0DD0002000F0F5
:1006C40017FC9DF83F30032B02D14FF4487301E02F
:1006D4004FF47A6310930BE0002000F0EFFB9DF8D9
:1006E4003F30032B01D1C82301E04FF4C8731093AA
:1006F400704A9DF83F3013706D4C109B0022049398
:1007040005924FF000024FF00003DDE9046739461B
:10071400CB03314643EA51433146CA0312F57A7199
:10072400069143F1000307934FF4FA624FF000037C
:10073400DDE906010DF0FEFA02460B4613460022DF
:100744001946204601F0BAFB119063E1002000F045
:1007540087FB0346002B06D0002000F0C9FB4FF4B2
:100764007A63109305E0002000F0A8FB4FF4C873EF
:100774001093504A9DF83F3013704D4C109B00224B
:100784009A4693464FF000024FF000034FEACB33F2
:1007940043EA5A434FEACA3212F57A71089143F197
:1007A400000309934FF4FA624FF00003DDE90801F6
:1007B4000DF0C0FA02460B461346002219462046A5
:1007C40001F07CFB119025E1002000F049FB034679
:1007D400002B0CD0002000F08BFB9DF83F30052B44
:1007E40001D1C82301E04FF47A6310930BE0002099
:1007F40000F064FB9DF83F30052B01D1C82301E0D4
:100804004FF4C87310932B4A9DF83F301370284C53
:10081400109B0022984691464FF000024FF00003CF
:100824004FEAC93343EA58434FEAC83212F57A71A2
:100834000A9143F100030B934FF4FA624FF0000363
:10084400DDE90A010DF076FA02460B461346002252
:100854001946204601F032FB1190DBE0002000F045
:1008640087FB144A9DF83F301370114B002240F26D
:100874006661184601F022FB1190CBE0002000F0E5
:100884001DFB0C4A9DF83F301370C3E0074B012257
:100894001A70012000F06CFB054B002240F26661E7
:1008A400184601F00BFB1190B4E000BF7103002067
:1008B400C001002070030020594B01221A7001204E
:1008C40000F056FB574B00224FF40051184601F03C
:1008D400F5FA11909EE0524B01221A70012000F0AB
:1008E40047FB504B002240F26661184601F0E6FADD
:1008F40011908FE04A4B01221A70012000F038FB5E
:10090400484B00224FF40051184601F0D7FA1190D9
:1009140080E000F01AFB444A9DF83F30137079E000
:10092400424B184601F01AFB11909DF83F30C3F179
:1009340011031093109B002B35D0119B002B32D147
:10094400109B012B28D9394C109B9BB21A46C82303
:1009540002FB03F3DA171E4617464FF000024FF06E
:100964000003FB0343EA5643F20312F57A710C9138
:1009740043F100030D934FF4FA624FF00003DDE9F5
:100984000C010DF0D7F902460B4613460022194616
:10099400204601F093FA1190022000F08FFA244BC4
:1009A40001221A7036E0022000F0A2FA204B002245
:1009B4001A702FE0FFF7B8FD1B4A9DF83F30137003
:1009C40028E0FFF7B1FD002000F078FA164A9DF800
:1009D4003F3013701EE0FFF7A7FD012000F06EFA10
:1009E400114A9DF83F30137014E0FFF79DFD00207D
:1009F40000F064FA012000F061FA0B4A9DF83F30E0
:100A0400137007E000F0A1FA074A9DF83F30137015
:100A140000E000BF119B184612B0BDE8D08F00BFA4
:100A240071030020C001002070030020E0010020B9
:100A34007803002000B583B00190074B1B6803F0D6
:100A44000103002B04D0054B1B781846FFF78AFDE1
:100A540000BF03B05DF804FB7403002070030020A2
:100A640000B583B00190022000F082FA00BF03B009
:100A74005DF804FB00B585B003468DF8073000230C
:100A84000393084B1B6803F00103002B05D09DF86A
:100A940007301846FFF766FD0390039B184605B020
:100AA4005DF804FB7403002000B585B0019000914B
:100AB400002303932A4A019B13602A4A009B136074
:100AC400019B03F00203002B2AD00023029308E0C9
:100AD40001220121029800F055F80390029B013392
:100AE4000293029B032B02D8039B002BF0D0039BA1
:100AF400002B06D140F2333204211B4800F0DCFC09
:100B04000390039B002B02D100F05EFD0390039B36
:100B1400002B05D1154A0021154801F095F90390E1
:100B2400019B03F00103002B14D0012000F08EFA86
:100B3400039B002B05D10F4A00210F4801F084F9D3
:100B44000390039B002B05D10C4A01210C4801F0B2
:100B54007BF90390039B184605B05DF804FB00BFC6
:100B6400740300207C0300209CE5000011050000B4
:100B740098E50000390A000090E50000650A0000CD
:100B840094E5000084B001900B468DF803301346C1
:100B94008DF8023000230393019B032B3CD89DF86E
:100BA4000230012B0BD19DF80330012B04D1019BA2
:100BB400DBB20E33DBB200E000238DF802309DF887
:100BC4000330022B0FD0022B23DC002B16D0012B79
:100BD4001FD11449019A13465B0013440B449DF83A
:100BE40002201A701AE00F49019A13465B0013445D
:100BF4000B4401339DF802201A700FE00949019A51
:100C040013465B0013440B4402339DF802201A7010
:100C140004E00723039301E007230393039B18468F
:100C240004B070478003002000B583B00190019B9D
:100C34001B68184600F0F4F80346002B04D105495C
:100C44004FF4F67003F03CFA4FF0A043184603B09B
:100C54005DF804FBBCE5000000B585B001900846D2
:100C640011461A4603468DF803300B468DF80230C0
:100C740013468DF8013001AB1846FFF7D5FF0390FA
:100C84009DF803209DF802305B001A439DF8013063
:100C94009B001A439DF818301B0242EA03019DF899
:100CA4001C301B04019A1943039B02F5E07243F8BC
:100CB400221000BF05B05DF804FB00B585B00390B9
:100CC40000230193002300930023012201210398B0
:100CD400FFF7C2FF00BF05B05DF804FB00B585B0A7
:100CE40003900B468DF80B309DF80B3000220192D7
:100CF40000220092002200210398FFF7ADFF00BFFD
:100D040005B05DF804FB00B585B0019001AB184651
:100D1400FFF78AFF0390019B012202FA03F31946AD
:100D2400039800F069F800BF05B05DF804FB00B556
:100D340085B0019001AB1846FFF776FF0390019B45
:100D4400012202FA03F31946039800F05FF800BF8A
:100D540005B05DF804FB00B585B0019001AB184601
:100D6400FFF762FF0390039BD3F804350293029BC1
:100D7400DA43019B012101FA03F31A40039BC3F8F0
:100D84000825019B01229A40029B1A40039BC3F849
:100D94000C2500BF05B05DF804FB00B583B00190DD
:100DA4000091009B002B03D10198FFF7C0FF02E0E4
:100DB4000198FFF7A8FF00BF03B05DF804FB00B57E
:100DC40085B0019001AB1846FFF72EFF03900398FE
:100DD40000F00AF80246019B22FA03F303F0010330
:100DE400184605B05DF804FB82B00190019BD3F86E
:100DF4000435184602B0704782B001900091019BFF
:100E0400009AC3F8082500BF02B0704782B0019071
:100E14000091019B009AC3F80C2500BF02B07047F3
:100E240084B00190019B5B09029300230393029B0E
:100E3400002B03D14FF0FF33039300BF019B03F05A
:100E44001F030193039A019B22FA03F303F00103A6
:100E5400002B14BF01230023DBB2184604B07047F3
:100E640000B585B00190019B032B03D911493A20A9
:100E740003F026F9104A019B13441B781846FFF728
:100E84009EFF0346002B14BF012300238DF80F306F
:100E94009DF80F30002B14BF01230023DBB283F035
:100EA4000103DBB203F00103DBB2184605B05DF8C1
:100EB40004FB00BFECE500001CE6000000B583B0B5
:100EC4000190019B032B03D90749412003F0F8F853
:100ED400064A019B13441B7800211846FFF75DFF67
:100EE40000BF03B05DF804FBECE500001CE6000065
:100EF40000B583B00190019B032B03D90749472018
:100F040003F0DEF8064A019B13441B7801211846BE
:100F1400FFF743FF00BF03B05DF804FBECE50000FE
:100F24001CE6000000B583B00023019305E001989E
:100F3400FFF7DEFF019B01330193019B032BF6D9DD
:100F440000BF00BF03B05DF804FB00B583B000230D
:100F5400019305E00198FFF7B1FF019B0133019371
:100F6400019B032BF6D900BF00BF03B05DF804FB5F
:100F740000B583B00190019B032B03D907495F207F
:100F840003F09EF8064A019B13441B781846FFF7AA
:100F9400E2FE00BF03B05DF804FB00BFECE5000017
:100FA4001CE6000000B583B00023019309E0094A60
:100FB400019B13441B781846FFF77FFE019B013306
:100FC4000193019B032BF2D9FFF7ACFF00BF03B0E1
:100FD4005DF804FB1CE6000000B583B00023019318
:100FE4000AE0094A019B13441B7803211846FFF7C2
:100FF40075FE019B01330193019B032BF1D900BFC3
:1010040000BF03B05DF804FB20E6000084B001904B
:101014004FF0FF330293002303930DE00A4A039B2E
:1010240013441B781A46019B934202D1039B0293FB
:1010340005E0039B01330393039B032BEED9029B2F
:10104400184604B0704700BF20E6000000B583B026
:101054000190019B03F00103002B01D0FFF7A2FFD5
:10106400019B03F00203002B01D0FFF7B5FF00BF83
:1010740003B05DF804FB000084B003468DF807302C
:101084009DF807305B08DBB21A460D4B9B5C8DF86C
:101094000F309DF8073003F00103002B04D09DF8B6
:1010A4000F301B09DBB204E09DF80F3003F00F038F
:1010B400DBB28DF80E309DF80E30184604B0704740
:1010C400A803002084B003460A468DF8073013466F
:1010D4008DF806309DF8073003F00103002B01D092
:1010E4000F2300E0F0238DF80F309DF8073003F054
:1010F4000103002B04D09DF806301B01DBB201E094
:101104009DF806308DF80E309DF807305B08DBB291
:101114001A46114B9A5C9DF807305B08DBB21946FE
:101124009DF80F301340DAB20B4B5A549DF8073038
:101134005B08DBB21A46084B9A5C9DF807305B08E3
:10114400DBB219469DF80E301343DAB2024B5A54FF
:1011540000BF04B0704700BFA803002000B585B0ED
:1011640003468DF807300023039310E00F4B1A68F1
:10117400039BDB0013440293029B1B789DF807201A
:101184009A4201D1029B0DE0039B01330393084B68
:101194001B781A46039B9342E8DB0649882002F039
:1011A4008FFF0023184605B05DF804FB940300206C
:1011B4009803002000E8000000B585B003460A4605
:1011C4008DF8073013468DF806309DF80730184621
:1011D400FFF7C4FF0390039B002B0BD0039B5B68BA
:1011E400002B07D0039B5B689DF806109DF8072031
:1011F4001046984700BF05B05DF804FB2DE9F04F99
:1012040085B003460A468DF80F3013468DF80E302C
:101214009DF80F301846FFF72FFF0346042B00F20A
:10122400B48001A252F823F041120000A71200007A
:10123400C3120000F3120000091300009DF80E30E1
:10124400002B00F09F809DF80F3001211846FFF716
:1012540039FF002000F0F2FE9DF80F104FF001025C
:101264004FF00003A1F12004C1F1200003FA01F7BB
:1012740002FA04F4274322FA00F0074302FA01F6C3
:10128400444BD3E9002346EA020100913B43019316
:10129400404BDDE90012C3E90012002000F0E2FE39
:1012A40070E09DF80E30002B01D0022200E00022F5
:1012B4009DF80F3011461846FFF704FF65E09DF8CE
:1012C4000E30002B0CD09DF80F3003211846FFF789
:1012D400F9FE9DF80F3001211846FFF76DFF54E029
:1012E4009DF80F3001211846FFF7ECFE4DE09DF804
:1012F4000E30002B48D19DF80F3004211846FFF71B
:10130400E1FE41E09DF80E30002B06D09DF80F3031
:1013140003211846FFF7D6FE37E09DF80F30002171
:101324001846FFF7CFFE9DF80F3000211846FFF74F
:1013340043FF002000F082FE9DF80F104FF00102E1
:101344004FF00003A1F12006C1F1200003FA01F5DA
:1013540002FA06F6354322FA00F0054302FA01F4D4
:101364006FEA04086FEA05090A4BD3E9002308EA87
:10137400020A09EA030B074BC3E900AB002000F0A3
:1013840071FE02E000BF00E000BF00BF05B0BDE891
:10139400F08F00BFA003002000B583B00648074BC0
:1013A4001B685B080022194600F088FD019000BF0D
:1013B40003B05DF804FB00BF200200209C03002062
:1013C40000B587B001900023049328E01C4B1A68F1
:1013D400049BDB0013440593059B1B78184609F016
:1013E40049F803468DF80F30059B5B78012B0CBF41
:1013F40001230023DBB21A469DF80F309A420CBF3A
:10140400012300238DF80E30059B1B789DF80E20D8
:1014140011461846FFF7F2FE049B01330493094B6F
:101424001B781A46049B9342D0DB074BD3E9002375
:10143400134301D0FFF7B0FF00BF07B05DF804FB12
:101444009403002098030020A003002000B587B077
:1014540001900B468DF80330019BDBB21846FFF771
:101464007DFE0490049B1B78184609F003F803469C
:101474008DF81730049B5B78012B0CBF01230023EC
:10148400DBB21A469DF817309A420CBF01230023A1
:101494008DF80F309DF80F30002B06D0054BD3E9A3
:1014A4000023134301D1FFF777FF00BF07B05DF8B6
:1014B40004FB00BFA003002000B58BB003900B46D3
:1014C40001928DF80B30019B092B01D8072367E0AB
:1014D40008F0C2FE034683F00103DBB2002B09D0FF
:1014E40008F056FE0990099B0893089B002B01D035
:1014F400089B55E02C4A039B13602C4A9DF80B3043
:1015040013702B4A019B13601022002129480CF010
:1015140069FD29494FF000024FF00003C1E900239F
:1015240031E09DF80B30DB00039A13440793032347
:101534008DF8143000238DF815309DF8163023F003
:1015440001038DF816309DF8163023F002038DF850
:1015540016309DF8163023F004038DF81630079BDF
:101564009B788DF81530079B1B78184605AB134AFA
:10157400194608F07DFE0990099B0693069B002BF3
:1015840001D0069B0CE09DF80B305A1E8DF80B2001
:10159400002BC6D10A4A00210A4800F055FC034634
:1015A40018460BB05DF804FB940300209803002058
:1015B4009C030020A8030020A00300205114000075
:1015C400C51300003CE8000000B583B0114B1B6854
:1015D400002B04D1104940F2351002F071FD0023B4
:1015E40001930CE00B4B1A68019BDB0013441B783E
:1015F4000121184608F0BAFE019B01330193074B01
:101604001B781A46019B9342ECD30023184603B07F
:101614005DF804FB9403002000E800009803002018
:1016240086B003900291019201238DF817309DF842
:101634001730204A039B13601E4A029B53601D4AC5
:10164400019B9360039B44F20102934212D0039BDB
:1016540044F20202934220D1019B164AD360154BF7
:10166400DB681B68134A9361124BDB685B68114AA1
:10167400D36112E0019B0F4A13610E4B1B699B68F7
:101684000C4A53610B4B1B691B680A4A9361094B53
:101694001B695B68074AD36100BF72B600BF00BF15
:1016A4009DF81730DBB2002BFAD162B600BF00BF41
:1016B40006B07047B803002000B583B002900091D3
:1016C400019244F2010071466A4600F003F803B047
:1016D40000BD00BF30B58BB007900691059272B67D
:1016E40000BF06F099FD06F003FB0346002BFAD178
:1016F400079B44F2010293421AD0079B44F2020270
:1017040093424AD1059B0993364B5B88002B55D0F5
:10171400354A364BD31ADB081B0443F00100099BFE
:101724005B681A46099B1B68314906F076FA45E066
:10173400059B08932B4B5B88002B1ED02A4A2B4B0E
:10174400D31ADB081B0443F00104089B9D68089B23
:101754009B68184605F068FC03461846089B5B68BE
:101764001946089B1B68069A02920193009103464E
:101774002A462049204606F092FA1A4B5B88002B31
:101784001ED0194A194BD31ADB081B0443F001037A
:101794001949184606F022FA12E0124B5B88002B16
:1017A40010D0114A114BD31ADB081B0443F0010378
:1017B400069A1249184606F01FFA03E000BF02E039
:1017C40000BF00E000BF0E4B1B6803F00103002BB9
:1017D40000D000BE059A06990798FFF721FF00BFC5
:1017E4000BB030BD6C0000200CE200005CE1000096
:1017F40040E800005CE8000084E8000098E800008D
:10180400F0ED00E02DE9F04383B0144801F01FF837
:10181400034600221C461546114BD3E9002314EB62
:10182400020845EB0309CDE900890E4BD3E90023F7
:10183400DDE90001904271EB030307D2DDE90023E7
:1018440012F1807643F10007CDE90067DDE900235A
:101854001046194603B0BDE8F08300BF40020020E3
:10186400E0030020E803002088B001900091019B70
:101874000793009B0693079BD3E90223CDE9042336
:10188400069BD3E90223CDE90223DDE90423DDE944
:101894000201904271EB03032CBF01230023DBB24E
:1018A400184608B070470000F0B585B00190019B60
:1018B4005B69002B03D13C49A52002F001FC002305
:1018C4008DF80F30394B1B78002B68D0019B002B0F
:1018D40065D0FFF797FF019BD3E90223904271EB98
:1018E40003034BD3002000F0A9FB019B1B69002BD1
:1018F40006D101994FF0FF324FF0FF33C1E90223C3
:10190400002000F0AFFB019B5B69019A92691046CD
:101914009847002000F092FB019B1B69002B1AD012
:10192400019BD3E90223B3F1FF3F08BFB2F1FF3FAC
:1019340011D0019BD3E902230199096900200C46C7
:101944000546161943EB0507019BC3E9026701230A
:101954008DF80E3002E000238DF80E30002000F0E8
:1019640081FB9DF80E30002B19D0019B19461048BD
:1019740005F0B4FA01238DF80F3010E0019BD3E990
:101984000223B3F1FF3F08BFB2F1FF3F07D0019B31
:101994001946074805F0A2FA01238DF80F309DF887
:1019A4000F30184605B0F0BDD0E80000DC0300207D
:1019B40010E9000030B58BB0019000910D2307931E
:1019C400009B00221A70019BD3E90223CDE9042372
:1019D400FFF718FFDDE90423141A63EB0105CDE9D1
:1019E4000845DDE90823012A73F1000318DB089B8D
:1019F400B3F5350F05D300F0FBFA0246144B13443C
:101A040000E0049B03934FF49603039A00211148CA
:101A140000F010FE0790079B002B05D1012314E072
:101A240000210C4800F0DEFE079B0D2B07D1019826
:101A3400FFF73AFF03461A46009B1A7004E0064972
:101A44004FF4867002F03CFB002318460BB030BD07
:101A5400FFFFB40040020020D0E8000000B583B0CE
:101A6400044805F075FA0190019B184603B05DF82F
:101A740004FB00BF10E9000000B583B0044805F082
:101A840089FA0190019B184603B05DF804FB00BF7E
:101A940010E9000000B583B0FFF7E0FF0190019B5F
:101AA400002B06D001994FF0FF324FF0FF33C1E90C
:101AB4000223019B002BEFD100BF00BF03B05DF8F0
:101AC40004FB0000054BD3E9002312F1807043F1BD
:101AD4000001024BC3E9000100BF7047E00300208E
:101AE40010B582B00190124B1B68002B1DD00198D9
:101AF40000F0ADFE04460021019800F099FE034673
:101B04001946204600F068FA0346B3F5960F04D34D
:101B1400084940F2411002F0D3FA054B1B681846FD
:101B2400FFF7C2FE024B00221A6000BF02B010BDD4
:101B3400D8030020D0E8000000B583B00190FFF77F
:101B440061FE02460B460349C1E9002300BF03B00E
:101B54005DF804FBE803002000B585B00190FFF7B1
:101B64008BFF039000238DF80B30039B002B58D080
:101B7400039BD3E90223B3F1FF3F08BFB2F1FF3F58
:101B840002D1FFF76BFF54E02E4B1B68002B03D1EF
:101B940001238DF80B301DE0039BD3E90201294B8F
:101BA4001B68D3E90223904271EB030312D2012391
:101BB4008DF80B30234B1B68D3E90223B3F1FF3FAD
:101BC40008BFB2F1FF3F05D01E4B1B6819461E48E3
:101BD40005F084F99DF80B30002B2BD0FFF73EFF66
:101BE40003900DF10A0319460398FFF7E3FE034639
:101BF400002B12D0134B1B68002B02D1019800F06C
:101C040025FC104A039B13609DF80A3083F00103FE
:101C1400DBB2002BA3D000BF0FE00A4B00221A60F6
:101C24009DE7084B1B68002B06D1019800F024FCAB
:101C340002E094E700BF00E000BF00BF05B05DF81C
:101C440004FB00BFD803002010E9000000B587B0F2
:101C540001902B4A03AB1946104602F01CFB059079
:101C640045E0059B1B78022B2BD0022B2FDC002B8D
:101C740002D0012B11D02AE0059B5B68D3E9022333
:101C8400B3F1FF3F08BFB2F1FF3F22D0059B5B6871
:101C940019461C4805F022F91BE0059B5A681A4BAB
:101CA4001B689A4203D1184B00221A6012E0059B6C
:101CB4005B681946134805F081F903468DF8133023
:101CC40008E0FFF7E7FE114B01221A7002E000BFA3
:101CD40000E000BF0A4A03AB1946104602F0F4FACA
:101CE400074A03AB1946104602F0D5FA0590059B46
:101CF400002BB6D100BF00BF07B05DF804FB00BFE6
:101D04004802002010E90000D8030020DC03002072
:101D140000B583B00190019800F057FD0346002BF5
:101D240001D0FFF7CFFE0021019800F06CFD0346BF
:101D3400002B02D00198FFF7D3FE0121019800F097
:101D440062FD0346002B02D00198FFF7F5FE0198CF
:101D5400FFF77CFF0198FFF7FFFE00BF03B05DF8BB
:101D640004FB000008B5024800F07EFD00BF08BD7A
:101D74004002002000B585B0034600918DF807307D
:101D8400114A02AB1946104602F058FA0390039B1D
:101D9400002B13D0039B9DF807201A70039B009A15
:101DA4005A60094A02AB1946104602F060FA03462B
:101DB400002B01D0FFF7D6FF002300E004231846D0
:101DC40005B05DF804FB00BF4802002000B583B0F5
:101DD400164B1B680093164808235822154902F035
:101DE400FAF90190019B002B01D0019B19E06B468D
:101DF400114A1946114800F0A1FA0190019B002BE9
:101E040001D0019B0DE001210C4800F0CDFC012321
:101E14000B4A0121094800F045FB0A4B01221A70C4
:101E2400019B184603B05DF804FB00BF0CE90000F9
:101E340048020020F0030020151D0000400200208D
:101E4400FFFF7F00DC03002000B587B003900B4642
:101E540001928DF80B30039B002B04D1164940F2FC
:101E64005A2002F02DF9019B002B04D1124940F2B3
:101E74005B2002F025F9019B002B01D1072317E019
:101E8400039B1B68059305994FF0FF324FF0FF3316
:101E9400C1E90223059B019A5A619DF80B30012B7D
:101EA4000CBF01230023DBB21A46059B1A610023F1
:101EB400184607B05DF804FBD0E80000F0B587B021
:101EC400039002910192039B002B04D1224940F21A
:101ED4006B2002F0F5F8039B0493002000F0AEF8A9
:101EE400049BD3E90223B3F1FF3F08BFB2F1FF3FE4
:101EF40011D1FFF787FC02460B46029900200C46DD
:101F04000546161943EB0507049BC3E90267012341
:101F14008DF8173002E000238DF81730002000F010
:101F2400A1F89DF8173083F00103DBB2002B01D038
:101F340000230EE0049B019A9A61049B1B69002B09
:101F440002D0049B029A1A6104990020FFF712FF41
:101F54000346184607B0F0BDD0E8000000B585B0D0
:101F64000190019B002B04D11A4940F2932002F006
:101F7400A7F8019B0293002000F060F8029BD3E9CC
:101F84000223B3F1FF3F08BFB2F1FF3F03D10023A7
:101F94008DF80F3009E002994FF0FF324FF0FF3314
:101FA400C1E9022301238DF80F30002000F05AF814
:101FB4009DF80F3083F00103DBB2002B01D0002326
:101FC40004E002990120FFF7D5FE0346184605B048
:101FD4005DF804FBD0E8000082B001900091019A02
:101FE400009BD31A23F07F43184602B070470000C9
:101FF40008B5034800F02BFC0346184608BD00BF93
:102004004002002072B600BF034B1B680133024A32
:10201400136000BF704700BF4C040020064B1B68D0
:10202400013B054A1360044B1B68002B01D162B6C7
:1020340000BF00BF704700BF4C04002000B583B050
:10204400019000F025F80346012B03D004494320F6
:1020540002F036F8FFF7D6FF00BF03B05DF804FBCB
:102064001CE9000000B583B003468DF8073000F08A
:102074000FF80346012B03D00449512002F020F845
:10208400FFF7CCFF00BF03B05DF804FB1CE90000C0
:1020940084B0EFF305830193019BC3F30803039317
:1020A400039B002B0DD1EFF314830093009B029349
:1020B400029B03F00103002B0CBF01230023DBB2BE
:1020C40000E00123184604B07047000082B00346C4
:1020D4008DF807309DF90730002B0CDB9DF8073095
:1020E40003F01F0205499DF907305B09012000FA3E
:1020F40002F241F8232000BF02B0704700E100E083
:1021040082B003468DF807309DF90730002B0DDBB4
:102114009DF8073003F01F0206499DF907305B095B
:10212400012000FA02F2403341F8232000BF02B03C
:10213400704700BF00E100E082B0034600918DF8D3
:1021440007309DF90730002B0ADB009BDAB20C49FB
:102154009DF907305201D2B20B4483F800230BE0FF
:10216400009BDAB207499DF8073003F00F03043BE4
:102174005201D2B20B441A7600BF02B0704700BFBE
:1021840000E100E000ED00E000B583B003460A463C
:102194008DF8073013468DF806309DF80630072B6E
:1021A40003D908496B2001F08BFF9DF806209DF9A7
:1021B400073011461846FFF7BFFF00BF03B05DF8B4
:1021C40004FB00BF5CE9000000B583B003468DF852
:1021D40007309DF907301846FFF778FF00BF03B0BA
:1021E4005DF804FB00B585B00190019B002B0AD07B
:1021F400074B43F001030393019B9B010293039B51
:102204000298984700E000BF05B05DF804FB00BFEA
:1022140040EA000084B0039002910192039B029A69
:1022240002F5A872019943F8221000BF04B0704768
:1022340082B001900091019B009A02F5A87253F8B4
:102244002230184602B0704782B001900091019B81
:10225400009AC3F8042300BF02B0704782B0019013
:102264000091019B009AC3F8082300BF02B0704795
:1022740082B001900B46ADF80230BDF80230019AED
:1022840013441B68184602B0704784B001900B4693
:10229400ADF80230BDF80230019A134400221A60EE
:1022A400BDF80230019A13441B680393039B00BFDB
:1022B40004B0704782B00190019BD3F804351846EE
:1022C40002B0704700B583B001900091009BB3F554
:1022D400805F04D306494FF4BE7001F0F1FE019B08
:1022E400009AC3F8082500BF03B05DF804FB00BFE3
:1022F4008CE9000082B001900B468DF803309DF804
:102304000320019B13441A460123136000BF02B04B
:10231400704782B001900091019B009AC3F8442356
:1023240000BF02B0704782B001900091019B009AF7
:10233400C3F8482300BF02B07047000000B587B05F
:10234400039002910192039B002B03D1374955203E
:1023540001F0B6FE029B002B03D13449562001F054
:10236400AFFE019B002B03D13049572001F0A8FE9A
:10237400039B5B7919462E4A019B42F82130039B4B
:102384005B792C4ADB0013441B79002B12D0082301
:102394000593294B5B88012B0AD9284A284BD31A69
:1023A400DB081B0443F002032649184605F016FC1B
:1023B400059B36E0039B1A68029B1B88194610464E
:1023C400FFF780FF039B93F90420029B9B78194637
:1023D4001046FFF7D9FE039B93F904301846FFF724
:1023E400F3FE039B5B79134ADB00134401221A7149
:1023F400039B5B7919460F4A039B42F83130002353
:1024040005930D4B5B88022B0AD90C4A0C4BD31A4B
:10241400DB081B0443F003030B49184605F0DEFBFD
:10242400059B184607B05DF804FB00BFBCE900003B
:102434005004002054040020740000201CE200001A
:102444005CE10000F4E9000018EA000000B583B084
:102454000190019B002B03D10649872001F030FE37
:10246400019B1B6800211846FFF744FF00BF03B01F
:102474005DF804FBBCE9000000B583B00190019B4A
:10248400002B03D106498D2001F01AFE019B1B6825
:1024940004211846FFF72EFF00BF03B05DF804FBCC
:1024A400BCE9000000B587B00390029101928DF859
:1024B4000330039B002B03D12149962001F000FE39
:1024C4004FF48032029B02FA03F30593029B5033CC
:1024D4009BB29B00ADF81230019B23F07F43019324
:1024E400039B1B6805991846FFF7B8FE039B1B68FE
:1024F40005991846FFF717FF039B1B68BDF81220C8
:1025040011461846FFF7C1FE039B1B68019A029906
:102514001846FFF77FFE039B1B6805991846FFF7D3
:10252400F8FE9DF80330002B05D0039B1B6805992A
:102534001846FFF789FE00BF07B05DF804FB00BF33
:10254400BCE9000000B585B00390029113468DF8F4
:102554000730039B002B03D10B49A92001F0B0FDE8
:10256400039B1B6802991846FFF7D3FE9DF80730BA
:10257400002B05D0039B1B6802991846FFF764FEE5
:1025840000BF05B05DF804FBBCE9000000B583B0F2
:1025940001900091019B002B03D10A49B32001F063
:1025A4008FFD019B1B6800991846FFF7BCFE019B39
:1025B4001B6800991846FFF751FE00BF03B05DF891
:1025C40004FB00BFBCE9000000B583B001900B46DA
:1025D400ADF80230019B002B03D10F49BA2001F062
:1025E4006FFD019B1B68BDF8022011461846FFF7DA
:1025F4003FFE0346002B09D0019B1B68BDF8022057
:1026040011461846FFF741FE012300E00023184657
:1026140003B05DF804FB00BFBCE9000082B0019088
:102624000091019A009BD31A23F07F43184602B00D
:102634007047000000B58BB00390029101920093A3
:10264400039B002B03D15749CD2001F039FD4FF4F2
:102654008032029B02FA03F30993029B50339BB22C
:102664009B00ADF82230019B23F07F43019309992D
:102674000398FFF78BFF039B1B681846FFF71AFEAE
:102684000790039B1B6802991846FFF7D1FD06903B
:10269400039B1B68079A02991846FFF7BBFD039B2F
:1026A4001B68BDF8222011461846FFF7EEFD079976
:1026B4000698FFF7B3FF0346012B0AD11020FFF75A
:1026C40091FD039B1B68BDF8222011461846FFF7B5
:1026D400DCFD039B1B681846FFF7ECFD0790079988
:1026E4000198FFF79BFF0590039B1B680999184607
:1026F400FFF70FFE059B012B15D1039B1868019B67
:1027040001331A460299FFF785FD1020FFF76AFD91
:10271400039B1B681846FFF7CDFD0246079B9342B7
:1027240035D00D2339E0039B1B68019A02991846A2
:10273400FFF770FD039B1B681846FFF7BBFD07906E
:10274400019B013B07991846FFF768FF0590009B22
:10275400C3F1FF1303F57F43059A9A4201D90D2370
:102764001BE0059B002B12D1039B1868019B0133CE
:102774001A460299FFF74EFD039B1B681846FFF7A4
:1027840099FD0246079B934201D00D2305E00122E7
:1027940009990398FFF7D6FE002318460BB05DF89D
:1027A40004FB00BFBCE9000000B583B001900B46F8
:1027B4008DF803309DF803301A4602210198FFF783
:1027C400C1FE00BF03B05DF804FB00B583B0019007
:1027D4004FF482710198FFF7F7FE0346184603B0E1
:1027E4005DF804FB00B583B0019000914FF4803292
:1027F400009B02FA03F319460198FFF7C7FE00BFD6
:1028040003B05DF804FB00B585B001900091009B16
:1028140050339BB29B00ADF80E30BDF80E30194614
:102824000198FFF7D1FE0346184605B05DF804FB96
:1028340000B583B001900091019B1B680099184674
:10284400FFF7F6FC0346184603B05DF804FB00B539
:1028540083B00190019B1B681846FFF72BFD0346CC
:10286400184603B05DF804FB00B583B00190019BEA
:1028740093F904301846FFF743FC00BF03B05DF83A
:1028840004FB000008B5044B1B68044A1268104698
:10289400984700BF08BD00BF500400205404002026
:1028A40082B00190019B03F00303002B0CBF0123B2
:1028B4000023DBB2184602B07047000000B585B0B3
:1028C4000190002303930EE00B4A039B52F823303C
:1028D400002B05D0084A039B52F8233001989847EF
:1028E400039B01330393039B032BEDD900BF00BF6C
:1028F40005B05DF804FB00BF6804002082B00190BD
:102904000091019B1B78013B052B61D801A252F871
:1029140023F000BF31290000392900005F2900009D
:1029240091290000B1290000CD290000009B00225C
:102934001A704EE0009B01221A70019B1A89009BB9
:102944009A81019B9A88009BDA81019BDA68009B3B
:102954009A60009B00221A743BE0009B02221A70CA
:10296400019B1A89009B9A81019B9A88009BDA81BA
:10297400019BDA68009B9A60019B9B7D062B0CBF30
:1029840001230023DAB2009B1A7422E0009B032285
:102994001A70019BDA88009B9A81019B1A89009B1B
:1029A400DA81019BDA68009B9A6012E0009B0422A2
:1029B4001A70019BDA88009B9A81009B0022DA81BD
:1029C400009B00229A6004E0009B05221A7000E03C
:1029D40000BF00BF02B0704784B001900091019B1A
:1029E4000393039A009B9A4206D2039B1B68B3F19C
:1029F400FF3F01D0012300E0002303F00103DBB219
:102A0400184604B0704782B00190019B5B88033381
:102A14009B00019A1344184602B0704700B583B076
:102A2400019000910198FFF7EEFF0246009B93424C
:102A340001D2022311E0019B9B884FF6FF7293425F
:102A440008D0019B1B88002B04D0019B9B68B3F129
:102A5400FF3F01D1012300E00023184603B05DF8D5
:102A640004FB000000B583B00190019B002B13D040
:102A74000D4BDB681A46019B93420DD30A4B1B692D
:102A84001A46019B934207D80198FFF709FF0346B2
:102A9400002B01D0012300E0002303F00103DBB28B
:102AA400184603B05DF804FB0000002082B0034622
:102AB4000A46ADF806301346ADF80430BDF80620DA
:102AC400134913469B0013449B000B4408331A8894
:102AD400BDF804301344ADF80430BDF806200C49A9
:102AE40013469B0013449B000B440A331A88BDF819
:102AF40004301344ADF80430BDF80430B3F5806FEE
:102B040094BF01230023DBB2184602B0704700BF14
:102B14007C04002084B00190009148F2096303937F
:102B24000023ADF80A3027E0BDF80A201649134601
:102B34009B0013449B000B4404331B68009A9A4285
:102B440015D9BDF80A20104913469B0013449B0075
:102B54000B4404331B6803F58053009A9A4206D24F
:102B640000230393019BBDF80A201A8008E0BDF8F6
:102B74000A300133ADF80A30BDF80A30012BD3D93D
:102B8400039B184604B070477C04002082B0019077
:102B94000091009B9B7D022B09D9019B1A89009B04
:102BA400DB8813449BB203339AB2019B1A81019BC5
:102BB4005A89009BDB88D31A9BB2033B9AB2019BD0
:102BC4005A8100BF02B0704700B583B0074B1B6841
:102BD4001946002300930823054A064803F0DCFC49
:102BE4000346184603B05DF804FB00BFA4040020AC
:102BF4008CEA00000000002000B585B00390039922
:102C0400002300930823044A044803F0C5FC034648
:102C1400184605B05DF804FB94EA000000000020AB
:102C240000B585B003460091ADF8063000238DF859
:102C34000F30BDF806300333ADF80A30BDF80A3062
:102C440040F2FE32934202D948F208634BE000237B
:102C5400ADF80C303BE0BDF80C20254913469B0031
:102C640013449B000B441B78002B2BD1BDF80A2086
:102C7400BDF80C3011461846FFF718FF0346002B29
:102C840020D001238DF80F30009BBDF80C201A8052
:102C9400BDF80C20164913469B0013449B000B44BB
:102CA4000A331988BDF80C20BDF80A300B4498B2D9
:102CB4000F4913469B0013449B000B440A330246FE
:102CC4001A8008E0BDF80C300133ADF80C30BDF8C3
:102CD4000C30012BBFD99DF80F30002B01D00023FD
:102CE40001E048F20663184605B05DF804FB00BF36
:102CF4007C04002082B003460A46ADF80630134631
:102D0400ADF80430BDF804200D4913469B0013446C
:102D14009B000B440A331A88BDF80630D31A9BB2C1
:102D2400BDF80420033B98B2054913469B001344A5
:102D34009B000B440A3302461A8000BF02B070475E
:102D44007C04002008B50121024801F030FB034651
:102D5400184608BD7804002000B585B003460091EC
:102D6400ADF80630BDF80620244913469B001344F1
:102D74009B000B4404331B6803F580530293009BB0
:102D84001B680393039B002B04D00398FFF73BFEBF
:102D9400039026E0BDF80620184913469B0013440F
:102DA4009B000B4404331B680833039319E0029916
:102DB4000398FFF733FE0346022B10D0022B10DCDE
:102DC400002B02D0012B05D00BE0009B039A1A6064
:102DD40001230EE00398FFF716FE039001E00023A1
:102DE40007E002990398FFF7F7FD0346002BDED1B5
:102DF4000023184605B05DF804FB00BF7C040020E6
:102E040000B585B001900091019B5B681846FFF7FF
:102E140029FE0346002B19D0019B1A89244B1B89D8
:102E24009A4213D1019B1A68019B5B689B689A4282
:102E34000CD1019B5B6819460098FFF76BFE0346B3
:102E4400002B0CBF01230023DBB22CE0009B0022EB
:102E54001A8023E00023029310E0029B0393039B58
:102E64009A68019B1B689A4208D1029A019B5A6096
:102E74000F4B1A89019B1A81012314E0009B1B88C4
:102E840002AA11461846FFF767FF0346002BE4D158
:102E9400009B1B8801339AB2009B1A80009B1B88FD
:102EA400012BD7D90023184605B05DF804FB00BFF9
:102EB400AC04002000B587B0039002910192009306
:102EC400324B1B78DBB283F00103DBB2002B02D060
:102ED40048F2016355E0019B002B02D0009B002BBC
:102EE40049D148F204634CE0009B9B881946284A68
:102EF4000B469B000B449B0013441B78002B33D1DF
:102F040024E0009B1B680593039B002B06D0059BC4
:102F14009A88039B1B889A4200D017E0029B002BDF
:102F240006D0059B1A88029B1B889A4200D00DE0AC
:102F3400059B9A68019B1A60009B1A68019B5A6062
:102F4400144B1A89019B1A8100231AE0009B9B8869
:102F5400009A11461846FFF7FFFE0346002BD0D116
:102F6400009B00221A6000E000BF009B9B88013395
:102F74009AB2009B9A80009B9B88012BB4D948F29B
:102F84000963184607B05DF804FB00BF5C04002029
:102F94007C040020AC04002000B585B00190084BEF
:102FA4000199184601F04AF903901C220021039864
:102FB4000BF018F8039B184605B05DF804FB00BF3E
:102FC4005C02002000B583B00190044B01991846BF
:102FD40001F04DF900BF03B05DF804FB5C02002072
:102FE40000B583B00190054B0199184601F053F9DF
:102FF4000346184603B05DF804FB00BF5C020020E2
:1030040000B583B00190044B0199184601F05CF9B6
:1030140000BF03B05DF804FB5C02002008B50A4B56
:103024001B68002B04D109494FF4247001F048F8BF
:103034000121054801F0D3F90346002B14BF0123F5
:103044000023DBB2184608BD6404002058EA0000DF
:1030540000B587B003900291039B02229A750299EE
:10306400039B1A1D002300930423074803F094FADA
:103074000590059B002B01D1002301E048F20D636C
:10308400184607B05DF804FB0000002000B587B0C7
:1030940003900291039B1B69002B01D0032200E0E3
:1030A4000122039B9A75029B08331946039B03F183
:1030B4000C02002300930423074803F06DFA0590E3
:1030C400059B002B01D1002301E048F20D63184653
:1030D40007B05DF804FB00BF0000002000B587B016
:1030E40003900291039B1B78032B01D1052200E07E
:1030F4000622039B9A75029B04331946039B03F132
:103104000802002300930423074803F045FA0590BE
:10311400059B002B01D1002301E048F20D63184602
:1031240007B05DF804FB00BF0000002000B587B0C5
:1031340003900B46ADF80A3003990023009304234F
:103144000D4A0E4803F028FA0590059B002B02D087
:1031540048F20D630BE0BDF80A20094913469B00B1
:1031640013449B000B44103301221A7000231846A9
:1031740007B05DF804FB00BF9CEA000000000020DB
:103184007C04002000B589B0019002AB00221A60D3
:103194005A609A60019BDB6802930DF1160202AB40
:1031A40011461846FFF72CFE0346002B12D0039B52
:1031B4000693069B9A88019BDA80069B1A88019BDA
:1031C4001A81039BBDF8162011461846FFF7AEFF7F
:1031D400079002E048F209630793079B184609B079
:1031E4005DF804FB00B587B00190019B981D02AA0D
:1031F4000D4B0021FFF75EFE0590059B002B08D1C7
:10320400039B094A928811461846FFF78FFF0590E1
:1032140004E00822002104480AF0E4FE059B184655
:1032240007B05DF804FB00BFBC04002000B587B004
:1032340003900291039B01229A75029B0C3318465A
:10324400039B1A69039BDB889B00002100910146C4
:10325400074803F0A1F90590059B002B01D1002339
:1032640001E048F20D63184607B05DF804FB00BFA7
:103274000000002082B0184B1B8901339AB2164B10
:103284001A81154B00225A80134B00221A73002313
:10329400ADF8063018E0BDF80620104913469B002F
:1032A40013449B000B441A78BDF80630002A0CBF67
:1032B40001220022D1B2084A13440A469A72BDF888
:1032C40006300133ADF80630BDF80630012BE2D9E3
:1032D40000BF00BF02B07047AC0400207C04002093
:1032E40084B0019000238DF80F300023ADF80C302A
:1032F40031E0BDF80C301C4A13449B7A002B25D0D6
:10330400BDF80C30184A134400229A72BDF80C2000
:10331400164913469B0013449B000B440C331B6853
:10332400002B13D1BDF80C20104913469B00134405
:103334009B000B4410331B78002B07D0019BBDF876
:103344000C201A8001238DF80F3008E0BDF80C30F2
:103354000133ADF80C30BDF80C30012BC9D99DF800
:103364000F30184604B07047AC0400207C040020E1
:1033740008B5084B05221A70074B02229A80064BA7
:103384001B68194600230122044803F009FA034686
:10339400184608BDAC040020A4040020000000204E
:1033A40000B583B0164B5B88ADF80230BDF802203F
:1033B400144913469B0013449B000B440C331B68B5
:1033C400002B14D10E4B04221A70BDF802200D49B3
:1033D40013469B0013449B000B4404331B6819469B
:1033E40000230122084803F0DBF9019002E0FFF713
:1033F400BFFF0190019B184603B05DF804FB00BFBA
:10340400AC0400207C0400200000002000B587B03C
:10341400104B5B680593104B1A680F4B9B889B00FD
:1034240013440493059B5B880333ADF80E30094BBA
:1034340003221A700499074B5A68BDF80E309B009A
:1034440000200090054803F0A7F80346184607B08B
:103454005DF804FBAC040020A4040020000000205C
:1034640000B583B00A4B5B880A491846FFF774FC21
:103474000346002B03D0FFF7C9FF019002E0FFF7DA
:103484008FFF0190019B184603B05DF804FB00BF59
:10349400AC040020B004002008B50A4B06221A70C0
:1034A400084B5B881946084A0B469B000B449B005B
:1034B400134404331B681846FFF79EFB0346184663
:1034C40008BD00BFAC0400207C04002008B5054BF7
:1034D40007221A70034B00225A60FFF775FB03465C
:1034E400184608BDAC04002008B50D48FFF7F8FEE7
:1034F400034683F00103DBB2002B0BD0094B0022FF
:103504001A70084B00225A80064B00225A6041F67A
:103514001D5302E0FFF7A4FF0346184608BD00BF91
:10352400AE040020AC04002082B0094B5B68019318
:10353400019B5B880333ADF80230064B9A88BDF8D3
:10354400023013449AB2034B9A8000BF02B0704712
:10355400AC040020A404002082B01E4B1B6801931D
:103564001D4B5B8819461D4A0B469B000B449B0070
:10357400134404331B68174A1360174B5B881946BE
:10358400164A0B469B000B449B0013440433019AD8
:103594001A60114B5B8819460E4B98880F4A0B46EC
:1035A4009B000B449B001344083302461A80094BCA
:1035B40002229A80084B5B881946084A0B469B00F6
:1035C4000B449B001344103300221A7000BF02B056
:1035D400704700BFA4040020AC0400207C04002039
:1035E40008B51A4B1B78072B2CD801A252F823F0EC
:1035F4001536000049360000493600002136000027
:103604002D360000393600003936000041360000FE
:10361400FFF730FE0D4B01221A7014E0FFF784FF10
:103624000A4B02221A700EE0FFF796FF074B0622A0
:103634001A7008E0054B07221A7004E0034B0122BC
:103644001A7000E000BF00BF08BD00BFAC0400203A
:1036540000B587B00190009148F20E630593019B79
:10366400002B05D0624B00225A604FF40643BAE0A7
:10367400009B1B79032B00F2A98001A252F823F0CE
:1036840095360000A33600003137000051370000A2
:10369400009B01221A71FFF797FA059099E0002325
:1036A4008DF813300023ADF810302BE0BDF8102056
:1036B400504913469B0013449B000B441B78022B78
:1036C4001BD1BDF810204B4913469B0013449B00AB
:1036D4000B4400221A7001238DF81330BDF810201A
:1036E400444913469B0013449B000B4404331B685A
:1036F4001846FFF781FA059008E0BDF81030013351
:10370400ADF81030BDF81030012BCFD99DF813302F
:1037140083F00103DBB2002B5AD0354B01221A701F
:10372400334B00225A6041F61D535CE0009B00229B
:103734001A71314B02229A802F4B1B6819460023C1
:1037440001222E4803F02CF8059042E0009B002251
:103754001A712B4B5B88ADF80E30274B1B68029314
:10376400BDF80E20234913469B0013449B000B44D1
:1037740004331B68204A1360BDF80E201D4913460C
:103784009B0013449B000B440433029A1A60BDF857
:103794000E20194B9888174913469B0013449B002D
:1037A4000B44083302461A80134B02229A80BDF858
:1037B4000E20104913469B0013449B000B44002227
:1037C4001A700298FFF718FA059002E000BF00E0B3
:1037D40000BF059B002B05D0054B00225A6048F220
:1037E4000D6300E00023184607B05DF804FB00BF3A
:1037F4005C0400207C040020A404002000000020BD
:10380400AC04002000B587B001900091009B9B8A16
:103814001A4613469B0013449B003B4A13440493EB
:10382400019B002B06D000990498FFF7AFF94FF4E1
:10383400064364E0049B5A68049B1B899B00134461
:103844000393009B9B7D062B4DD801A252F823F0D5
:1038540099380000BD380000A5380000B1380000D8
:1038640071380000C9380000E3380000274B0022FB
:103874005A60009B9B69254A136025492348FFF73A
:10388400BFFA034683F00103DBB2002B02D048F2F7
:10389400096334E003990098FFF7DAFB059026E00A
:1038A40003990098FFF7F2FB059020E00399009834
:1038B400FFF7BCFC05901AE003990098FFF70EFC93
:1038C400059014E0009B06229A75104B5B68104A21
:1038D400128811461846FFF729FC059007E041F6C7
:1038E4001D53059303E048F20E63059300BF059B47
:1038F400002B03D000990498FFF748F9059B18465C
:1039040007B05DF804FB00BF7C040020C404002061
:10391400D004002000B585B001900091019B002BDC
:1039240002D04FF4064329E0009B1B79022B1BD0E5
:10393400022B1DDC002B02D0012B08D018E0009BC9
:1039440002221A710098FFF71DFC039015E00098FD
:10395400FFF748FC0390039B48F2096293420BD1A2
:1039640041F61D53039307E041F61D53039304E00E
:1039740048F20E63039300E000BF039B184605B0B2
:103984005DF804FB00B585B00190019B002B02D0CB
:103994004FF406433DE0214B1B7B002B03D01F4B10
:1039A40000221A7301E0FFF71BFE1C4B1B78013B3E
:1039B400062B29D801A252F823F000BFDD390000FC
:1039C400E5390000ED390000F53900000D3A00003A
:1039D400FD390000053A0000FFF786FD039017E06B
:1039E400FFF73EFD039013E0FFF710FD03900FE097
:1039F400FFF7D6FC03900BE0FFF74EFD039007E0C2
:103A0400FFF764FD039003E048F20E63039300BFE5
:103A1400039B184605B05DF804FB00BFAC0400200E
:103A240000B589B00190404B1B68002B05D13F487D
:103A3400FFF7D6FA03463C4A13603B4B1B68002B46
:103A440004D13B494FF4B46000F03AFB364B1B6899
:103A54001B78013B052B2CD801A252F823F000BFA0
:103A64007D3A00008D3A00008D3A00009D3A000036
:103A74009D3A0000AD3A00002B4B1B681946019893
:103A8400FFF7E6FD019018E0274B1B6819460198E3
:103A9400FFF7B8FE019010E0234B1B68194601980C
:103AA400FFF738FF019008E00198FFF76BFF0190E2
:103AB40003E048F20E63019300BF019B002B2BD05F
:103AC40003AB00221A605A609A60DA601A61019BA3
:103AD40041F61D52934201D0019B00E00023049360
:103AE400114B1B6803AA11461846FEF707FF03ABE8
:103AF4001846FEF7E3FE0C4B00221A6000230193E4
:103B04000A48FFF77DFAFFF789FA034683F00103B9
:103B1400DBB2002B02D186E700BF00E000BF00BF8C
:103B240009B05DF804FB00BFD4040020D8040020D1
:103B340058EA000008B50121054800F020FC0346BE
:103B4400002B02D10020FFF76BFF00BF08BD00BFB0
:103B54006404002000B583B00190019B5B681846A3
:103B6400FFF75EFF00BF03B05DF804FB00B58BB048
:103B74000390029101928DF803300023ADF82430B4
:103B84000023ADF82630534B1B78DBB283F00103DE
:103B9400DBB2002B02D048F2016397E0029B002BBA
:103BA40002D148F2046391E0029B1B884FF6FF7236
:103BB400934203D0029B5B88002B02D148F203633B
:103BC40084E0029B5B681846FEF76AFE034683F0B6
:103BD4000103DBB2002B02D048F2026376E0019BC2
:103BE400002B11D1029B9B68ADF826300DF11A020F
:103BF400BDF8263011461846FFF712F80890089BC6
:103C0400002B09D0089B61E0019B1B88ADF81A309A
:103C1400019B5B88ADF8263005AB1846FFF7BCF96D
:103C24000790079B002B0AD1BDF81A20BDF8263057
:103C340011461846FFF75EF848F2076346E0079B13
:103C44009DF803201A70079B00229A75BDF81A206C
:103C5400079B9A82029B5A68079B1A61FFF772F8C6
:103C64000246079BDA60029B1A88079B1A81029B13
:103C74005A88079B9A80079BBDF82620DA809DF816
:103C84000330032B06D1079B04229A75039B1A6801
:103C9400079B9A61079BBDF824205A8105AB1846FF
:103CA400FFF790F9039B002B0DD0039B00225A6071
:103CB400079BDA68039B1A60039B00229A72064BE7
:103CC4001A89039B1A81FFF735FF002318460BB0AE
:103CD4005DF804FB5C040020AC04002000B585B052
:103CE40001900091019B002B02D0009B002B02D17C
:103CF40048F204632AE00DF10A0319460198FFF71C
:103D04007FF80346002B1FD0019B5B680393BDF82B
:103D14000A301A4613469B0013449B0008330D4A8D
:103D2400134404330121184600F041FB009B039A1D
:103D34001A60019B5B6803F10C02009B5A60019BB3
:103D440001229A72002301E048F20963184605B083
:103D54005DF804FB7C04002000B585B00190019B54
:103D6400002B02D148F204633BE00DF10A0319462B
:103D74000198FFF745F80346002B2ED0BDF80A3012
:103D840019461A4A0B469B000B449B0013440C3300
:103D94001B68002B1DD0019B9B7A002B19D0BDF80A
:103DA4000A301A46114913469B0013449B000B44E6
:103DB4000C331B68591E0D4813469B0013449B008B
:103DC40003440C331960019B00229A72002303936D
:103DD40006E048F20563039302E048F209630393A3
:103DE400039B184605B05DF804FB00BF7C0400206B
:103DF40000B583B00190009102230022009901983C
:103E0400FFF7B4FE0346184603B05DF804FB00B5A3
:103E140083B001900091019B002B02D148F204630E
:103E240006E00323002200990198FFF79FFE034652
:103E3400184603B05DF804FB00B585B00292019307
:103E44000346ADF80E300B46ADF80C3003A90DF166
:103E54000E00019B029AFFF72DF80346184605B0A1
:103E64005DF804FB1EF0040F1CBFEFF309800AE0A9
:103E7400EFF308800549064A884201D8904202D8E7
:103E84008D464FF00000034B18470000000001204E
:103E940000E00020D53E000000BF00BFBFF34F8FFD
:103EA40000BF064BDB6803F4E0620449044B134390
:103EB400CB60BFF34F8F00BF00BFFDE700ED00E014
:103EC4000400FA0500B583B00190FFF7E7FF000096
:103ED40010B588B0039004F09FF903F009FF03467E
:103EE400002BFAD1039B0693674B9B6A0593069BB1
:103EF400002B41D0654B5B88002B0CD0644A654B8A
:103F0400D31ADB081B0443F00100069B9B691A4685
:103F1400614903F071FE5D4B5B88002B15D05C4A50
:103F24005C4BD31ADB081B0443F00100069B1968A1
:103F3400069B5C68069B9B68069AD2680192009374
:103F440023460A46554903F092FE504B5B88002BEA
:103F540021D04F4A4F4BD31ADB081B0443F0010016
:103F6400069B1A69069B5969069BDB6900930B46FD
:103F74004B4903F066FE0EE0444B5B88002B0AD0ED
:103F8400434A444BD31ADB081B0443F0010345495D
:103F9400184603F023FE3C4BDB6A03F00203002BBC
:103FA4000ED03A4B5B88002B0AD0394A394BD31ACE
:103FB400DB081B0443F001033B49184603F00EFEE3
:103FC4000023079324E00122079B02FA03F31A4615
:103FD400059B1340002B18D0344A079B52F823301A
:103FE400002B12D0294B5B88002B0ED0284A294B7A
:103FF400D31ADB081B0443F001002C4A079B52F838
:1040040023301A462A4903F0F7FD079B013307932F
:10401400079B192BD7D9059B03F08003002B10D0E5
:104024001A4B5B88002B0CD0194A1A4BD31ADB08A5
:104034001B0443F00103144A526B1E49184603F053
:10404400DBFD059B03F40043002B10D00F4B5B8872
:10405400002B0CD00E4A0F4BD31ADB081B0443F081
:104064000103094A926B1449184603F0C5FD134B2A
:104074001B6803F00103002B00D000BE0398FFF778
:1040840021FF00BF08B010BD00ED00E0AC0000202F
:104094008CE200005CE10000ACEA0000C4EA00002D
:1040A400FCEA000024EB000058EB00007002002042
:1040B4009CEB0000A8EB0000C8EB0000F0ED00E072
:1040C40000B585B003460091ADF80630BDF8063062
:1040D4000293009B039302AB1A46002144F20200B0
:1040E400FDF7F8FA00BF05B05DF804FB86B0019057
:1040F4000091019B53E8011F8AB2D8890244988930
:10410400824228BF121A1889824202BFBFF32F8F3E
:10411400002307E0C2EA010243E801200028E9D1B4
:104124004FF001038DF80F30059002910492029A2A
:10413400009B1A609DF80F30DBB2184606B070473A
:1041440084B00190019951E8013FC3EA034341E877
:104154000132002AF7D10392029300BF04B07047E2
:1041640086B001900091019B53E8021F1FFAA1F24F
:10417400D888824202BFBFF32F8F00230DE0D88975
:1041840002449889824228BF121AC1EA024243E8D3
:1041940002200028E8D14FF001038DF80F3005907C
:1041A40002910492029A009B1A609DF80F30DBB2D0
:1041B400184606B0704784B00190019951E8023F57
:1041C400C3EA234341E80232002AF7D1039202935F
:1041D40000BF04B0704784B00390029111461A46A0
:1041E4000B46ADF806301346ADF80430029B002BA5
:1041F40001D10E231FE0BDF80630BDF80420B3FB47
:10420400F2F101FB02F29B1A9BB2002B01D00923AD
:1042140011E0039B029A1A60039B00225A60039BDD
:1042240000229A60039BBDF806209A81039BBDF887
:104234000420DA810023184604B0704700B585B025
:1042440001900091009B19460198FFF74FFF034628
:10425400002B07D0019B1B68009A12881344039318
:10426400039B00E00023184605B05DF804FB00B58D
:1042740083B001900091009B1A88009B5B889A424E
:1042840004D10198FFF75CFF012300E000231846E6
:1042940003B05DF804FB00B585B001900091009B6C
:1042A40019460198FFF75CFF0346002B07D0019BDA
:1042B4001B68009A528813440393039B00E0002375
:1042C400184605B05DF804FB00B583B00190009179
:1042D400009B1A88009B5B889A4204D10198FFF7DF
:1042E4006AFF012300E00023184603B05DF804FBD5
:1042F40010B487B001900091019B009A53E8004FDD
:10430400104643E8000191F0000FF7D105940490A2
:104314000391059B184607B05DF8044B704710B431
:1043240087B001900091019B009A53E8004F44EA42
:10433400020043E8000191F0000FF6D105940490C7
:104344000391049B184607B05DF8044B704710B402
:1043540087B001900091019B009A53E8004F04EA52
:10436400020043E8000191F0000FF6D10594049097
:104374000391059B184607B05DF8044B704710B4D1
:1043840087B001900091019B009A53E8004F04EB21
:10439400020043E8000191F0000FF6D10594049067
:1043A4000391059B184607B05DF8044B704710B4A1
:1043B40087B001900091019B009A53E8004F04EBF1
:1043C400020043E8000191F0000FF6D10594049037
:1043D4000391049B184607B05DF8044B704710B472
:1043E40087B001900091019B009A53E8004FA4EB21
:1043F400020043E8000191F0000FF6D10594049007
:104404000391049B184607B05DF8044B704700B550
:1044140083B0019001210198FFF781FF03461846FC
:1044240003B05DF804FB00B583B00190002101984E
:10443400FFF78DFF0346184603B05DF804FB000048
:1044440000B583B00190019B002B04D1054940F2D3
:104454004510FFF735FE019B1B681B79184603B016
:104464005DF804FB84F1000000B583B00190019B6A
:10447400002B04D1074940F25510FFF721FE019BA0
:104484009A68019B1B681B68D31ADBB2184603B0F9
:104494005DF804FB84F1000082B00190019B9B68ED
:1044A400D3F84831C3F34003DBB2002B14BF01231C
:1044B4000023DBB2184602B07047000000B597B085
:1044C4000B900A9109920B98FFF7E6FF0346002B25
:1044D40005D0002200210B9800F0BAFE61E00A9B8F
:1044E400012B05D9304A02210B9800F085FD58E0D4
:1044F4002E4A2F4BD31A9B082E4AA2FB0323149354
:104504000023159349E0159A1346DB009B1A9B0080
:104514001A46274B13441393139B1B8B1293139B21
:104524001B8B1A46129BD31A1193139B9A68139BE5
:104534005B68D31A10931398FFF782FF03460F9317
:104544001398FFF791FF03460E93139B5B690D933A
:104554000E9B642203FB02F2109BB2FBF3F30F9A4F
:10456400642102FB01F1109AB1FBF2F21099079158
:104574000F9906910592109A04920E9A039202934F
:10458400119B0193129B00930D9B0B4A08210B98DE
:1045940000F032FD159B01331593159A149B9A4232
:1045A400B1D317B05DF804FBC0F1000000E30000D4
:1045B400E4E2000025499224D4F1000000B583B060
:1045C40001900B468DF80330019B002B03D1084961
:1045D400E820FFF775FD019BDA689DF80330019927
:1045E400098B01FB03F31344184603B05DF804FB85
:1045F400B8F2000000B583B001900091019B002B3C
:1046040003D10849F520FFF75BFD009B019AD268AE
:104614009B1A019A128BB3FBF2F3DBB2184603B078
:104624005DF804FBB8F2000000B585B00190019B71
:10463400002B01D10E234CE0019B1B68002B03D1FE
:104644002649FF20FFF73CFD019B5B68002B04D14A
:1046540022494FF48070FFF733FD019B9B68002BC8
:1046640004D11E4940F20110FFF72AFD019BDB68CB
:10467400002B04D119494FF48170FFF721FD019BF0
:104684001B8B002B04D1154940F20310FFF718FDD2
:10469400019B9A68019B5B68D31A8DF80F30019BCC
:1046A4001B68019A52681A6007E0019B1A68136834
:1046B400591C11609DF80F201A709DF80F305A1E76
:1046C4008DF80F20002BF0D1019B1B6800221A717A
:1046D4000023184605B05DF804FB00BFB8F20000E3
:1046E40000B585B00190019B002B04D11C494FF407
:1046F4009270FFF7E5FC002303930020FDF79EFC76
:10470400019B1B681A68019B5B689A421FD9019B35
:104714001B681A68013A1A601B681B7819460198CD
:10472400FFF74CFF0390019B9A68019B1B681B6871
:10473400D31A8DF80B30019B1B681B799DF80B2055
:104744009A4204D9019B1B689DF80B201A71002022
:10475400FDF788FC039B184605B05DF804FB00BF19
:10476400B8F2000010B584B001900091019B002BB9
:1047740004D1114940F24710FFF7A2FC009B002B23
:1047840004D10D494FF4A470FFF79AFC009B0393E6
:104794000020FDF753FC019B1B681C68621C1A6017
:1047A40003990198FFF726FF034623700020FDF7C5
:1047B40059FC00BF04B010BDB8F2000082B00190F3
:1047C400019B9B68D3F84831C3F34003DBB2002B51
:1047D40014BF01230023DBB2184602B07047000067
:1047E40000B585B00190019B002B0AD0074B43F024
:1047F40001030393019B9B010293039B0298984737
:1048040000E000BF05B05DF804FB00BF90F90000B4
:1048140000B583B00190019B1B69184601F0EEFAC4
:1048240000BF03B05DF804FB82B00190019B9A685D
:10483400B2F8483143F00803A2F8483100BF02B08F
:10484400704782B00190019B9A68B2F8483123F016
:104854000803A2F8483100BF02B0704782B001904B
:10486400019B9B68D3F84831C3F3C003DBB21846FD
:1048740002B0704700B583B00190019B002B04D0B7
:10488400019809F0FBFA034600E00023184603B040
:104894005DF804FB10B588B0039002910192009377
:1048A400039B002B02D0029B002B03D12D49F42043
:1048B400FFF706FC039B5B681B68002B03D12949A7
:1048C400F520FFF7FDFB002307933EE0039B5B68A5
:1048D4001B68DC68039B5868029A079BD11805ABD8
:1048E400019AA0470690069B002B03D01D49FF2088
:1048F400FFF7E6FB059B019A9A4204D219494FF44B
:104904008070FFF7DDFB059B079A13440793059B13
:10491400019AD31A0193059B002B16D1039B9B6824
:104924001B78032B11D000BF039B9B68D3F848313D
:10493400C3F34013DBB2002BF6D0039B9A68B2F8A2
:10494400483123F02003A2F84831019B002BBDD14C
:10495400009B002B02D0059A009B1A6000BF08B090
:1049640010BD00BF2CF3000000B583B001900B46CE
:104974008DF80330019B1B699DF8032003491846F9
:1049840001F05EFA00BF03B05DF804FB64F30000BD
:1049940010B586B00390029101920093039B002B03
:1049A40002D0029B002B04D10D4940F22310FFF7E3
:1049B40087FB039B5B68002B04D109494FF4927079
:1049C400FFF77EFB039B5B681B681C69039B5868AD
:1049D400009B019A0299A047059000BF06B010BD44
:1049E4002CF3000000B589B003900291019200936A
:1049F400009B002B04D13B494FF49C70FFF760FBF4
:104A04000A9B002B04D1374940F23910FFF758FBB9
:104A1400029B002B34D1344A344BD31ADB08019A5D
:104A24009A4229D200230693314B0593002307931E
:104A34001BE0079BDB002D4A13440693019B9B005C
:104A4400059A13441A68069B5B681B68194610464E
:104A540009F062FA0346002B04D1069B5A68009BB6
:104A64001A603CE0079B013307931F4A1F4BD31A7C
:104A7400DB08079A9A42DCD3009B00221A602EE0DE
:104A8400039B002B03D1009B00221A6027E0039BA9
:104A94001B78002B10D0039B5B680A9901989847F8
:104AA4000A9B1B68002B03D1009B00221A6016E0AE
:104AB400009B0A9A1A6012E0039B5A68019B1B012F
:104AC40013441B68002B07D0039B5A68019B1B01EE
:104AD4001A44009B1A6002E0009B00221A6009B08D
:104AE4005DF804FB2CF3000040E3000000E3000049
:104AF4009C01002000B583B00190019B1B6904490F
:104B0400184601F09DF900BF03B05DF804FB00BF37
:104B14006CF3000000B583B001900B468DF80330B0
:104B24009DF80330002B07D0019B1B699DF80320DF
:104B34000349184601F084F900BF03B05DF804FB93
:104B440070F3000000B583B001900B468DF803307C
:104B54009DF80330002B07D0019B1B699DF80320AF
:104B64000349184601F06CF900BF03B05DF804FB7B
:104B740078F3000000B583B001900B468DF8033044
:104B84009DF80330002B07D0019B1B699DF803207F
:104B94000349184601F054F900BF03B05DF804FB63
:104BA40080F3000000B583B001900B468DF803300C
:104BB4009DF80330002B07D0019B1B699DF803204F
:104BC4000349184601F03CF900BF03B05DF804FB4B
:104BD40088F3000000B587B001900023ADF81630CB
:104BE4000023ADF8143000238DF80B3000238DF82A
:104BF4001330019B9B68A03380220021184609F0E2
:104C0400F1F9019B1B697649184601F019F90198DD
:104C1400FFF7FEFD0023ADF81030D5E003AB0DF136
:104C24000B0101220198FFF7B3FE039B002B04D173
:104C340040F2E730FFF7D4FDBDE09DF80B301B2BAD
:104C440006D0019B9B6893F8A0301B2B40F0B280E8
:104C54009DF80B30522B40F09380019B9A689DF88D
:104C640013301344002283F8A020019B9B6893F81F
:104C7400A1305B2B06D0019B9B68002283F8A02007
:104C84000B23A8E002238DF813301BE0BDF8143089
:104C94001A46920013445B009AB2019B99689DF8EE
:104CA4001330581C8DF813000B4493F8A0301344B0
:104CB4009BB2303BADF814309DF91330002B01DA70
:104CC4000C2388E0019B9A689DF81330134493F8F1
:104CD400A0303B2BDAD19DF8133001338DF813301B
:104CE4009DF91330002B1DDA0C2374E0BDF8163047
:104CF4001A46920013445B009AB2019B99689DF88E
:104D04001330581C8DF813000B4493F8A03013444F
:104D14009BB2303BADF816309DF91330002B01DA0D
:104D24000C2358E0019B9A689DF81330134493F8C0
:104D3400A030002BDAD1BDF81630FA2B04D9019B30
:104D44009B68FA221A7505E0019B9B68BDF8162042
:104D5400D2B21A75BDF81430FA2B04D9019B9B68A2
:104D6400FA229A7505E0019B9B68BDF81420D2B223
:104D74009A75019B9B68002283F8A02000232AE0F7
:104D8400019B9A689DF813309DF80B1013440A4652
:104D940083F8A0209DF8133001338DF813309DF86B
:104DA4001330092B07D9019B9B68002283F8A020AC
:104DB400042310E000BF039B002B7FF42FAFBDF84A
:104DC40010300133ADF81030BDF81030B3F57A7FF0
:104DD400FFF424AF0D23184607B05DF804FB00BFB1
:104DE40088F9000000B587B0039002910192029BFC
:104DF400002B04D12A4940F24930FFF761F9019BA5
:104E0400002B04D1264940F24A30FFF759F90398A0
:104E1400FFF7E0FE0346002B18D1039B9B681B7D24
:104E2400ADF81630039B9B689B7DADF81430FA21D6
:104E34000398FFF787FEFA210398FFF7B3FE039860
:104E4400FFF7C8FE0346002B24D101E0062322E02D
:104E5400039B9B681A7D029B1A70039B9B689A7D37
:104E6400019B1A70029B1A78BDF81630DBB2D31A74
:104E7400DBB219460398FFF74DFE019B1A78BDF883
:104E84001430DBB2D31ADBB219460398FFF772FE73
:104E9400002300E00623184607B05DF804FB00BFBA
:104EA4002CF3000000B585B001900B468DF803305B
:104EB4009DF80330002B2ED0019B9B68DB7E9DF870
:104EC40003209A4234D01B238DF808305B238DF8DD
:104ED400093031238DF80A303B238DF80B3033230E
:104EE4008DF80C309DF803302F33DBB28DF80D3084
:104EF4006D238DF80E3000238DF80F30019B9B68D5
:104F04009DF80320DA76019B1B6902AA0A49184618
:104F140000F096FF0DE0019B9B689DF80320DA7674
:104F2400019B1B69054A0449184600F089FF00E00B
:104F340000BF05B05DF804FB68F3000098F90000B9
:104F440000B585B001900B468DF803309DF8033011
:104F5400002B29D0019B9B681B7F9DF803209A425C
:104F640021D01B238DF808305B238DF809303423BE
:104F74008DF80A309DF803302F33DBB28DF80B30F7
:104F84006D238DF80C3000238DF80D30019B9B6848
:104F94009DF803201A77019B1B6902AA044918464D
:104FA40000F04EFF00E000BF05B05DF804FB00BF59
:104FB40068F3000082B001900091019B9B681B3351
:104FC4001B889AB2009B1A8000BF02B0704700B5DC
:104FD40083B001900091009B1B7819460198FFF75C
:104FE40061FF009B5B7819460198FFF7A9FF00BF9A
:104FF40003B05DF804FB00000CB400B585B001906B
:105004000B468DF80330069B002B04D12B4940F648
:105014006130FFF755F8019B002B04D1274940F676
:105024006230FFF74DF8019B9B68002B07D0019B72
:105034005B68002B03D0019B1B68002B04D11F4924
:1050440040F66330FFF73CF80023039307AB039368
:10505400019B9B68D3F84831C3F38003DBB2002B78
:105064001ED0019B9B68DB7E9DF803209A4217D0DB
:1050740002AB19460198FFF79DFF9DF803301946CE
:105084000198FFF70FFF019B1B6903AA06991846B5
:1050940001F0BEF802AB19460198FFF798FF07E04C
:1050A400019B1B6903AA0699184601F0B1F800BFD9
:1050B40000BF05B05DF804EB02B070472CF30000AC
:1050C40000B589B00390029101928DF80330029BE0
:1050D400002B00F0B8809DF80330002B05D0019B15
:1050E400DBB219460398FFF72DFD0023069302E077
:1050F400069B01330693029A069B13441B781846B9
:1051040008F0C1FF0346002BF2D100230593029857
:10511400FFF7B0FB0246069BD31A0793039B9B68D9
:105124005B7E1A46019BD31A079A9A4238D8002309
:10513400059324E0069A059B1344029A13441B78B2
:105144000A2B19D10398FFF763FB029A069BD11827
:105154000023059A0398FFF79DFB059A069B1344C9
:10516400013306930398FFF7C5FC019BDBB2194694
:105174000398FFF7E7FC06E0059B01330593059AC6
:10518400079B9A42D6D3039B1869029A069B134441
:10519400194600F055FE00BF0398FFF7ABFC53E03F
:1051A400039B9B685B7E1A46019BD31A0793069A5E
:1051B400059B1344029A13441B78184608F063FFB6
:1051C4000346002B09D0059B0793069A059B1344BD
:1051D400029A13441B780A2B0BD0059A019B1344A3
:1051E400039A9268527E934205D2059B013305933C
:1051F400DDE700BF00E000BF0398FFF709FB029A58
:10520400069BD1180023079A0398FFF743FB069ADD
:10521400079B1344069302E0069B01330693029A0C
:10522400069B13441B78184608F02DFF0346002BF9
:10523400F2D10398FFF75EFC019BDBB21946039899
:10524400FFF780FC61E700BF09B05DF804FB0000D4
:1052540030B591B0059004910392059B002B04D1C5
:10526400B34940F6E230FEF72BFF059B9B68002B09
:1052740007D0059B5B68002B03D0059B1B68002BA4
:1052840004D1AB4940F6E330FEF71AFF0023ADF832
:105294003E30A848FFF7EEFA03469CB2A648FFF753
:1052A400E9FA03469BB2E31AADF83C30059B9B68D0
:1052B4005B68A24A0092A24A08210598FFF79CFE67
:1052C400059B9B685B681846FFF7D4FA03469CB2BB
:1052D4009A48FFF7CFFA03469BB22344ADF83E3019
:1052E400059B9B689968BDF83E2000230598FFF74D
:1052F400E7FE944A00210598FFF77EFE039B002BEE
:105304004AD0049B002B47D000230E9340E00E9A12
:1053140013465B0013449B001A46049B13445B68CA
:105324001846FFF7A7FA04460E9A13465B00134487
:105334009B001A46049B13441B681846FFF79AFA0D
:105344000346E218BDF83C309A421ED90E9A134621
:105354005B0013449B001A46049B13445B68184685
:10536400FFF788FA03469CB20E9A13465B00134477
:105374009B001A46049B13441B681846FFF77AFAED
:1053840003469BB22344ADF83C300E9B01330E938D
:105394000E9A039B9A42BAD36748FFF76BFA034607
:1053A400694A127813449AB2BDF83C301344ADF8FC
:1053B4003C30BDF83C305F4A0092644A08210598AD
:1053C400FFF71AFE604B1B781A46BDF83C301344B5
:1053D4009BB20133ADF83E30BDF83E2000235C495A
:1053E4000598FFF76DFE049B002B00F0028100235B
:1053F4000D93F9E00D9A13465B0013449B001A4683
:10540400049B13445B68002B69D00D9A13465B0020
:1054140013449B001A46049B13441B68002B5ED064
:105424000D9A13465B0013449B001A46049B1344D5
:1054340059680D9A13465B0013449B001A46049B5B
:1054440013441B6801933C4B00930B46414A0821CB
:105454000598FFF7D1FD3C4B1B781A46BDF83C304C
:105464001344ADF83E30BDF83E30DCB20D9A13461D
:105474005B0013449B001A46049B13445B68184664
:10548400FFF7F8F90346DDB20D9A13465B001344A7
:105494009B001A46049B13441B681846FFF7EAF95D
:1054A4000346DBB22B44DAB2274B1B781344DDB23C
:1054B4002148FFF7DFF90346DBB22B44DBB2E31AE2
:1054C400DBB219460598FFF73DFB3A210598FFF733
:1054D4004BFABDF83E300133ADF83E3063E00D9A2F
:1054E40013465B0013449B001A46049B13445B68F9
:1054F400002B31D0BDF83C100D9A13465B001344C9
:105504009B001A46049B13445B6800930B460F4AA6
:1055140008210598FFF770FD0B4B1B781A46BDF860
:105524003C3013449BB20133ADF83E303BE000BF46
:105534002CF300009CF90000A8F90000ACF900006D
:1055440028F4000030F40000B0F900003CF400003E
:1055540044F4000058F400000D9A13465B00134411
:105564009B001A46049B13441B68002B1BD0BDF8F8
:105574003C100D9A13465B0013449B001A46049B8F
:1055840013441B6800930B465B4A08210598FFF7F8
:1055940033FD5A4B1B781A46BDF83C3013449BB27A
:1055A4000133ADF83E300D9A13465B0013449B0063
:1055B4001A46049B13449B68002B0FD00D9A134684
:1055C4005B0013449B001A46049B13449968BDF87E
:1055D4003E2000230598FFF773FD02E00598FFF7CE
:1055E40089FA0D9B01330D930D9A039B9A42FFF4A4
:1055F40001AF059B9B68DB68002B75D0059B9B68FE
:10560400DB680B93002306930023ADF83E300023A0
:10561400ADF83C3000230C930C9A531C0C9306A950
:1056240007AB00930B4601210B98FFF7DBF9069BB0
:10563400002B12D0069B1B681846FFF71BF9024685
:10564400BDF83C309A42E7D9069B1B681846FFF721
:1056540011F90346ADF83C30DEE700BF0C9B012B8B
:1056640044D0274A00210598FFF7C6FC00230C9379
:105674000C9A531C0C9306A907AB00930B4601210B
:105684000B98FFF7AFF9069B002B31D01B4B1B780F
:105694001A46BDF83C301344ADF83E30BDF83E2008
:1056A400069B1B6800931346134A08210598FFF7CD
:1056B400A3FC124B1B781A46BDF83E3013449BB230
:1056C4000133ADF83E30069B5B68002B08D0069B87
:1056D4005968BDF83E2000230598FFF7F1FCC7E7A1
:1056E4000598FFF707FAC3E700BF02E000BF00E038
:1056F40000BF11B030BD00BF3CF40000B0F90000A1
:1057040064F4000000B585B00390019200930B4649
:105714008DF80B300398FFF751F80346002B06D0A1
:10572400009A01990398FFF793FD01230EE09DF879
:105734000B30002B09D0039B9B685B68054A022150
:105744000398FFF759FC012300E00023184605B035
:105754005DF804FBA4F4000000B585B00390029149
:105764000192039B002B04D12B4940F65F50FEF7B6
:10577400A7FC039B9B68002B07D0039B5B68002B53
:1057840003D0039B1B68002B04D123494FF45660BC
:10579400FEF796FC029B022B0BD10398FFF70EF841
:1057A4000346002B05D0002200210398FFF750FD8B
:1057B4002FE0039B002B04D1174940F66850FEF7F5
:1057C4007FFC039B1B69002B04D1134940F66850EE
:1057D400FEF776FC039B1B69104A1149184600F03A
:1057E4002FFB039B002B04D10B4940F66950FEF7B5
:1057F40067FC039B1B69002B04D1074940F66950E1
:10580400FEF75EFC039B1B69064A0549184600F037
:1058140017FB05B05DF804FB2CF30000B4F900009D
:1058240068F30000B8F9000000B585B00390029158
:105834000192039B002B04D1174940F66E50FEF7EA
:105844003FFC039B9B68002B07D0039B5B68002BEA
:1058540003D0039B1B68002B04D10F4940F66F5003
:10586400FEF72EFC029B012B08D0029B022B0BD1CE
:105874000398FEF7A3FF0346002B05D00022002166
:105884000398FFF7E5FC04E0044A02210398FFF7BC
:10589400B3FB05B05DF804FB2CF3000004F4000036
:1058A40000B585B0039002910192029B012B14BFB5
:1058B40001230023D9B2002300220398FFF722FF1B
:1058C4000346002B08D1039B9A68B2F8483123F0B1
:1058D4000403A2F8483100E000BF05B05DF804FB02
:1058E40000B585B0039002910192029B012B14BF75
:1058F40001230023D9B2002300220398FFF702FFFB
:105904000346002B08D1039B9A68B2F8483143F050
:105914000403A2F8483100E000BF05B05DF804FBC1
:1059240000B587B0059004910392059B002B04D128
:105934001F4940F68F50FEF7C3FB059B9B68002B65
:1059440007D0059B5B68002B03D0059B1B68002BCD
:1059540004D117494FF45960FEF7B2FB049B012BA5
:1059640005D1002200210598FFF772FC1DE0049B7D
:10597400022B14BF01230023D9B20023002205986F
:10598400FFF7C0FE0346002B0ED1039B1A68039B4E
:1059940004331B680193074B00931346064A022104
:1059A4000598FFF729FB00E000BF07B05DF804FB92
:1059B4002CF30000CCF40000C0F4000000B587B064
:1059C400059004910392049B022B8CBF01230023B6
:1059D400D9B2002300220598FFF794FE0346002B5A
:1059E40020D1049B022B0ED1039B1A68039B043322
:1059F4001B6801930D4B009313460D4A0221059831
:105A0400FFF7FAFA0FE00598FEF728FF0346002B8C
:105A140001D0084B00E0084B084A00210598FFF725
:105A2400EBFA00E000BF07B05DF804FBCCF4000023
:105A3400C0F40000E4F40000E8F40000ECF400001A
:105A440000B585B0039002910192029B012B14BF13
:105A540001230023D9B2002300220398FFF752FE4A
:105A64000346002B03D10398FEF7EBFE00E000BFD2
:105A740005B05DF804FB00B585B003900291019276
:105A8400029B012B14BF01230023D9B2002300225F
:105A94000398FFF737FE0346002B03D10398FEF764
:105AA400C3FE00E000BF05B05DF804FB00B58DB097
:105AB400059004910392059B002B04D12D4940F6D7
:105AC400C750FEF7FDFA059B9B68002B07D0059B8A
:105AD4005B68002B03D0059B1B68002B04D1254970
