:020000022000DC
:106000000000012019620200016202000362020026
:10601000056202000762020009620200000000003F
:106020000000000000000000000000000B62020001
:106030000D620200000000000F6202001162020007
:1060400039E0020013620200D1E50200136202008F
:106050001362020013620200CDE402001362020028
:106060001362020013620200136202001362020054
:106070001362020013620200136202001362020044
:1060800013620200FD0503001362020013620200A6
:106090001362020013620200AD4D0300136202009E
:1060A0001362020013620200136202001362020014
:1060B00013620200136202000000000000000000F2
:1060C00013620200136202001362020013620200F4
:1060D000136202001362020013620200000000005B
:1060E00000000000000000000000000000000000B0
:1060F00000000000000000000000000000000000A0
:10610000000000000000000000000000000000008F
:10611000000000000000000000000000000000007F
:10612000000000000000000000000000000000006F
:10613000000000000000000000000000000000005F
:10614000000000000000000000000000000000004F
:10615000000000000000000000000000000000003F
:10616000000000000000000000000000000000002F
:10617000000000000000000000000000000000001F
:10618000000000000000000000000000000000000F
:1061900000000000000000000000000000000000FF
:1061A00000000000000000000000000000000000EF
:1061B00000000000000000000000000000000000DF
:1061C00000000000000000000000000000000000CF
:1061D00000000000000000000000000000000000BF
:1061E00000000000000000000000000000000000AF
:1061F000000000000000000000000000000000009F
:10620000FEE7FEE7FEE7FEE7FEE7FEE7FEE7FEE766
:10621000FEE7FEE700F002B8FFF7FCBF0F484FF0C3
:106220000701884385460E4880470E48016841F4BF
:1062300070010160BFF34F8FBFF36F8F00F01AB88A
:1062400009480A490A4A884207D0521A05D00378F9
:1062500001300B700131013AF9D170470000012083
:106260005175020088ED00E0E85303005022002041
:10627000642200203A493B480A1A02D0072291437F
:106280008D46394939480A1A06D00722914381F3CD
:106290000988022282F3148835483649364A00F0CC
:1062A00041F836483649374A00F03CF83648374915
:1062B000374A00F037F837483749384A00F032F8A3
:1062C00037483849384A00F02DF838483849394AB3
:1062D00000F028F838483949394A00F023F839489D
:1062E0003949002200F036F838483949002200F0D8
:1062F00031F838483849091A0EF0AEFE374A90474F
:1063000025482649884205D00268043003B49047E6
:1063100003BCF7E700208646EC4600200021304A07
:106320009047FEE7884214D0521A12D003460B431E
:1063300013430324234206D1036804300B60043165
:10634000043AF9D17047037801300B700131013AFA
:10635000F9D17047884202D002700130FAE77047E5
:106360000000012000E000200000012000000120CA
:10637000D88903006422002034230020E463020053
:10638000E463020082520300D889030064220020E3
:1063900064220020FC530300FC530300FC53030061
:1063A000FC530300FC530300FC530300FC530300A5
:1063B000FC530300D5890300A88A0300342300207E
:1063C0003423002034230020643100206431002075
:1063D00064310020643100206451002041620200D9
:0463E0000165020051
:1063E4008FDF704700BF184600B589B00190009157
:1063F40000230793019B1B88212B42D0212B5CDCBB
:10640400102B0DD0112B58D12E4A2F4BD31ADB0849
:106414001B0443F003032D4918460DF017FE4CE00E
:10642400284A294BD31ADB081B0443F003032849E9
:1064340018460DF00BFE072000F064FC0790079B44
:106444000593059B002B04D0224AD121059809F01D
:1064540011FE019B9B881A461F4B1A601E4B1B683A
:106464009BB219461D4804F033FA0790079B049326
:10647400049B002B1ED0174AD521049809F0FAFD7D
:1064840018E000238DF80C3000238DF80D30019BAB
:106494009B8803AA11461846FFF7A2FF0790079BA3
:1064A4000693069B002B07D00A4AE121069809F0BF
:1064B400E1FD01E000BF00E000BF00BF09B05DF8EE
:1064C40004FB00BF3853030010530300605403005F
:1064D4008454030004540300642200203423002065
:1064E40008B50DF025FE034683F00103DBB2002B53
:1064F40001D00DF069F800BF08BD000008B5074AD7
:10650400074BD31ADB081B0443F003030549184661
:106514000DF09CFDFFF7E4FFFCE700BF38530300D8
:1065240010530300A454030000B583B00190019BF1
:106534001B68184600F09DF80346002B04D105495A
:106544004FF4F6700BF0BEFB4FF0A043184603B0B7
:106554005DF804FBB854030000B585B0019001ABAD
:106564001846FFF7E1FF0390019B012202FA03F3AF
:106574001946039800F069F800BF05B05DF804FB04
:1065840000B585B0019001AB1846FFF7CDFF03902D
:10659400019B012202FA03F31946039800F05FF805
:1065A40000BF05B05DF804FB00B585B0019001ABF8
:1065B4001846FFF7B9FF0390039BD3F80435029301
:1065C400029BDA43019B012101FA03F31A40039B66
:1065D400C3F80825019B01229A40029B1A40039BA1
:1065E400C3F80C2500BF05B05DF804FB00B583B00B
:1065F40001900091009B002B03D10198FFF7C0FF8D
:1066040002E00198FFF7A8FF00BF03B05DF804FBA8
:1066140000B585B0019001AB1846FFF785FF0390E4
:10662400039800F00AF80246019B22FA03F303F0F0
:106634000103184605B05DF804FB82B00190019B8C
:10664400D3F80435184602B0704782B00190009127
:10665400019B009AC3F8082500BF02B0704782B0BE
:1066640001900091019B009AC3F80C2500BF02B071
:10667400704784B00190019B5B090293002303934C
:10668400029B002B03D14FF0FF33039300BF019B08
:1066940003F01F030193039A019B22FA03F303F00F
:1066A4000103002B14BF01230023DBB2184604B0FE
:1066B4007047000000B585B00190019B032B03D9FE
:1066C40011493A200BF0FEFA104A019B13441B783F
:1066D4001846FFF79DFF0346002B14BF0123002338
:1066E4008DF80F309DF80F30002B14BF01230023C9
:1066F400DBB283F00103DBB203F00103DBB2184623
:1067040005B05DF804FB00BFE8540300185503000E
:1067140000B583B00190019B032B03D907494120A5
:106724000BF0D0FA064A019B13441B78002118464B
:10673400FFF75CFF00BF03B05DF804FBE8540300FF
:106744001855030000B583B00190019B032B03D9B6
:10675400074947200BF0B6FA064A019B13441B78FD
:1067640001211846FFF742FF00BF03B05DF804FBA8
:10677400E85403001855030000B583B000230193C7
:1067840005E00198FFF7DEFF019B01330193019BB4
:10679400032BF6D900BF00BF03B05DF804FB00B5BE
:1067A40083B00023019305E00198FFF7B1FF019B3B
:1067B40001330193019B032BF6D900BF00BF03B043
:1067C4005DF804FB00B583B00190019B032B03D952
:1067D40007495F200BF076FA064A019B13441B78A5
:1067E4001846FFF7E1FE00BF03B05DF804FB00BFED
:1067F400E85403001855030000B583B00C4B1B7814
:10680400002B0FD00023019308E0019B022B02D040
:106814000198FFF797FF019B01330193019B032B21
:10682400F3D901E0FFF7A8FF00BF03B05DF804FB54
:10683400902700202DE9D04F92B003468DF83F30C9
:106844000023119300231093CC4B1B78002B04D00E
:10685400CA4A00231370FFF7CFFF9DF83F30172B70
:1068640000F23F8201A252F823F000BFD168020077
:10687400E9680200E968020085690200216A0200F1
:106884009D6A0200316B0200516B0200616B0200D1
:106894008D6B0200AB6B0200C96B0200E76B020058
:1068A400F56B0200F56B0200F56B0200F56B02005C
:1068B400F56B0200896C0200976C0200AB6C02005D
:1068C400BF6C0200D96C0200D96C0200FFF794FF80
:1068D400AB4B184609F04AFD1190AA4A9DF83F3087
:1068E4001370FFE10020FFF7E5FE0346002B0DD0F7
:1068F4000020FFF727FF9DF83F30022B02D14FF411
:10690400E16301E04FF47A6310930BE00020FFF79A
:10691400FFFE9DF83F30022B01D1C82301E04FF464
:10692400C8731093974A9DF83F301370944C109B92
:106934000022009301924FF000024FF00003DDE9C2
:1069440000673946CB03314643EA51433146CA0313
:1069540012F57A71029143F1000303934FF4FA6242
:106964004FF00003DDE902010EF0DCFA02460B46AB
:10697400134600221946204609F0A0FC1190B1E10B
:106984000020FFF797FE0346002B0DD00020FFF7F1
:10699400D9FE9DF83F30032B02D14FF4487301E038
:1069A4004FF47A6310930BE00020FFF7B1FE9DF8DB
:1069B4003F30032B01D1C82301E04FF4C873109377
:1069C400704A9DF83F3013706D4C109B0022049365
:1069D40005924FF000024FF00003DDE904673946E9
:1069E400CB03314643EA51433146CA0312F57A7167
:1069F400069143F1000307934FF4FA624FF000034A
:106A0400DDE906010EF08EFA02460B46134600221B
:106A14001946204609F052FC119063E10020FFF76B
:106A240049FE0346002B06D00020FFF78BFE4FF4EF
:106A34007A63109305E00020FFF76AFE4FF4C873F1
:106A44001093504A9DF83F3013704D4C109B002218
:106A54009A4693464FF000024FF000034FEACB33BF
:106A640043EA5A434FEACA3212F57A71089143F164
:106A7400000309934FF4FA624FF00003DDE90801C3
:106A84000EF050FA02460B461346002219462046E1
:106A940009F014FC119025E10020FFF70BFE0346DA
:106AA400002B0CD00020FFF74DFE9DF83F30052B46
:106AB40001D1C82301E04FF47A6310930BE0002066
:106AC400FFF726FE9DF83F30052B01D1C82301E0D6
:106AD4004FF4C87310932B4A9DF83F301370284C21
:106AE400109B0022984691464FF000024FF000039D
:106AF4004FEAC93343EA58434FEAC83212F57A7170
:106B04000A9143F100030B934FF4FA624FF0000330
:106B1400DDE90A010EF006FA02460B46134600228E
:106B24001946204609F0CAFB1190DBE00020FFF76C
:106B340049FE144A9DF83F301370114B002240F275
:106B44006661184609F0BAFB1190CBE00020FFF70C
:106B5400DFFD0C4A9DF83F301370C3E0074B012260
:106B64001A700120FFF72EFE054B002240F26661E9
:106B7400184609F0A3FB1190B4E000BF8927002058
:106B84006822002088270020594B01221A70012016
:106B9400FFF718FE574B00224FF40051184609F036
:106BA4008DFB11909EE0524B01221A700120FFF7D9
:106BB40009FE504B002240F26661184609F07EFB44
:106BC40011908FE04A4B01221A700120FFF7FAFD61
:106BD400484B00224FF40051184609F06FFB119006
:106BE40080E0FFF7DCFD444A9DF83F30137079E004
:106BF400424B184609F0BAFB11909DF83F30C3F19F
:106C040011031093109B002B35D0119B002B32D114
:106C1400109B012B28D9394C109B9BB21A46C823D0
:106C240002FB03F3DA171E4617464FF000024FF03B
:106C34000003FB0343EA5643F20312F57A710C9105
:106C440043F100030D934FF4FA624FF00003DDE9C2
:106C54000C010EF067F902460B4613460022194652
:106C6400204609F02BFB11900220FFF751FD244B25
:106C740001221A7036E00220FFF764FD204B002247
:106C84001A702FE0FFF7B8FD1B4A9DF83F301370D0
:106C940028E0FFF7B1FD0020FFF73AFD164A9DF802
:106CA4003F3013701EE0FFF7A7FD0120FFF730FD12
:106CB400114A9DF83F30137014E0FFF79DFD00204A
:106CC400FFF726FD0120FFF723FD0B4A9DF83F3017
:106CD400137007E0FFF763FD074A9DF83F30137018
:106CE40000E000BF119B184612B0BDE8D08F00BF72
:106CF400892700206822002088270020882200207D
:106D04009027002000B585B003468DF80730002396
:106D14000393084B1B6803F00103002B05D09DF877
:106D240007301846FFF786FD0390039B184605B00D
:106D34005DF804FB8C27002084B001900B468DF88D
:106D4400033013468DF8023000230393019B032B79
:106D54003CD89DF80230012B0BD19DF80330012B58
:106D640004D1019BDBB20E33DBB200E000238DF8CB
:106D740002309DF80330022B0FD0022B23DC002BB2
:106D840016D0012B1FD11449019A13465B001344FA
:106D94000B449DF802201A701AE00F49019A134619
:106DA4005B0013440B4401339DF802201A700FE07A
:106DB4000949019A13465B0013440B4402339DF8BE
:106DC40002201A7004E00723039301E007230393CE
:106DD400039B184604B070479427002000B583B085
:106DE400012200210020FFF7A7FF0190019B002B47
:106DF40004D0019B072B01D0019B1CE00722022138
:106E04000120FFF799FF0190019B002B04D0019B07
:106E1400072B01D0019B0EE0042202210020FFF782
:106E24008BFF0190019B002B04D0019B072B01D009
:106E3400019B00E00023184603B05DF804FB00B595
:106E440083B0012202210020FFF776FF0190019B0D
:106E5400002B04D0019B072B01D0019B1CE00722CF
:106E640002210120FFF768FF0190019B002B04D051
:106E7400019B072B01D0019B0EE00A220021002078
:106E8400FFF75AFF0190019B002B04D0019B072BB5
:106E940001D0019B00E00023184603B05DF804FB19
:106EA40000B585B001900091019B1B88102B02D086
:106EB400112B18D02FE01A4B1B68002B0DD1FFF7B4
:106EC4008DFF0390039B002B07D0164B1B68002BF0
:106ED40003D0144B1B6803989847114B1B6801336C
:106EE4000F4A136017E00E4B1B68013B0C4A1360FA
:106EF4000B4B1B68002B0DD1FFF7A1FF0390039BE5
:106F0400002B07D0074B1B68002B03D0054B1B68D5
:106F14000398984700BF00BF05B05DF804FB00BFAD
:106F2400A4270020A0270020BFF34F8F00BF064BEB
:106F3400DB6803F4E0620449044B1343CB60BFF302
:106F44004F8F00BF00BFFDE700ED00E00400FA052D
:106F540082B01D4B1B68B3F1FF3F0AD11B4B1B686A
:106F6400DBB201931A4B1B681B0903F00F03009358
:106F740005E0154B1B680193164B1B680093019B9E
:106F8400062B1DD1009B033B042B17D801A252F8FA
:106F940023F000BFAD6F0200B16F0200B56F0200B5
:106FA400B96F0200BD6F020001230AE0012308E06B
:106FB400012306E0012304E0012302E0012300E0B1
:106FC4000023184602B0704730010010E00F00F0B3
:106FD400E80F00F03401001082B0174B1B68DBB2DD
:106FE4000193164B1B681B0903F00F030093019BCD
:106FF400062B1DD1009B033B042B17D801A252F88A
:1070040023F000BF1D7002002170020025700200F1
:10701400297002002D70020001230AE0002308E019
:10702400002306E0002304E0002302E0002300E044
:107034000023184602B07047E00F00F0E80F00F09C
:1070440082B01D4B1B68B3F1FF3F0AD11B4B1B6879
:10705400DBB201931A4B1B681B0903F00F03009367
:1070640005E0154B1B680193164B1B680093019BAD
:10707400062B1DD1009B033B042B17D801A252F809
:1070840023F000BF9D700200A1700200A5700200F1
:10709400A9700200AD70020001230AE0012308E098
:1070A400012306E0012304E0012302E0012300E0C0
:1070B4000023184602B0704730010010E00F00F0C2
:1070C400E80F00F03401001082B0174B1B68DBB2EC
:1070D4000193164B1B681B0903F00F030093019BDC
:1070E400062B1DD1009B033B042B17D801A252F899
:1070F40023F000BF0D71020011710200157102002E
:10710400197102001D71020001230AE0002308E046
:10711400002306E0002304E0002302E0002300E053
:107124000023184602B07047E00F00F0E80F00F0AB
:1071340082B01D4B1B68B3F1FF3F0AD11B4B1B6888
:10714400DBB201931A4B1B681B0903F00F03009376
:1071540005E0154B1B680193164B1B680093019BBC
:10716400062B1DD1009B033B042B17D801A252F818
:1071740023F000BF8D71020091710200957102002D
:10718400997102009D71020001230AE0012308E0C5
:10719400012306E0012304E0012302E0012300E0CF
:1071A4000023184602B0704730010010E00F00F0D1
:1071B400E80F00F03401001082B0174B1B68DBB2FB
:1071C4000193164B1B681B0903F00F030093019BEB
:1071D400062B1DD1009B033B042B17D801A252F8A8
:1071E40023F000BFFD71020001720200057202006B
:1071F400097202000D72020001230AE0002308E074
:10720400002306E0002304E0002302E0002300E062
:107214000023184602B07047E00F00F0E80F00F0BA
:1072240082B0174B1B68DBB20193164B1B681B091A
:1072340003F00F030093019B062B1DD1009B033B1E
:10724400042B17D801A252F823F000BF6572020084
:10725400697202006D72020071720200757202009E
:1072640001230AE0002308E0002306E0002304E0F1
:10727400002302E0002300E00023184602B0704718
:10728400E00F00F0E80F00F082B01D4B1B68B3F173
:10729400FF3F0AD11B4B1B68DBB201931A4B1B68DF
:1072A4001B0903F00F03009305E0154B1B680193C2
:1072B400164B1B680093019B062B1DD1009B033BBF
:1072C400042B17D801A252F823F000BFE572020084
:1072D400E9720200ED720200F1720200F57202001E
:1072E40000230AE0002308E0012306E0012304E070
:1072F400012302E0012300E00023184602B0704796
:1073040030010010E00F00F0E80F00F0340100102D
:1073140082B01D4B1B68B3F1FF3F0AD11B4B1B68A6
:10732400DBB201931A4B1B681B0903F00F03009394
:1073340005E0154B1B680193164B1B680093019BDA
:10734400062B1DD1009B033B042B17D801A252F836
:1073540023F000BF6D7302007173020075730200A5
:10736400797302007D73020001230AE0012308E01F
:10737400012306E0012304E0012302E0012300E0ED
:107384000023184602B0704730010010E00F00F0EF
:10739400E80F00F03401001082B01D4B1B68B3F1FC
:1073A400FF3F0AD11B4B1B68DBB201931A4B1B68CE
:1073B4001B0903F00F03009305E0154B1B680193B1
:1073C400164B1B680093019B062B1DD1009B033BAE
:1073D400042B17D801A252F823F000BFF573020062
:1073E400F9730200FD7302000174020005740200C7
:1073F40001230AE0012308E0012306E0012304E05D
:10740400012302E0012300E00023184602B0704784
:1074140030010010E00F00F0E80F00F0340100101C
:1074240082B0154B1B680193144B1B680093019B9E
:10743400062B1DD1009B033B042B17D801A252F845
:1074440023F000BF5D7402006174020065740200E1
:10745400697402006D74020000230AE0002308E04E
:10746400002306E0012304E0012302E0012300E0FD
:107474000023184602B07047300100103401001098
:1074840082B0154B1B680193144B1B680093019B3E
:10749400062B1DD1009B033B042B17D801A252F8E5
:1074A40023F000BFBD740200C1740200C574020061
:1074B400C9740200CD74020000230AE0002308E02E
:1074C400002306E0002304E0012302E0012300E09E
:1074D4000023184602B07047300100103401001038
:1074E40008B5FFF7CDFF0346002B07D04FF010235C
:1074F4004FF08042D3F80832C2F8583500BF08BDB7
:1075040000BF044BD3F80034002BFAD000BF00BFF7
:10751400704700BF00E0014000B583B00190054A08
:10752400019BC2F80435FFF7EBFF00BF03B05DF821
:1075340004FB00BF00E00140024B034A1A6000BF95
:10754400704700BFA82200200090D00308B5FFF7C1
:10755400FFFC0346002B06D0964B1B681B0A964A79
:1075640003F01F031360FFF737FD0346002B02D01F
:10757400924B934A1A60FFF763FD0346002B06D033
:10758400904B1B685B0B904A03F007031360FFF7F3
:107594009BFD0346002B05D08C4BDB688B4A23F004
:1075A4008073D360FFF7C4FD0346002B0ED04FF069
:1075B40080430022C3F80C214FF080430022C3F81B
:1075C40010214FF080430022C3F83825FFF7F4FD63
:1075D4000346002B02D07E4B03221A60FFF720FEE5
:1075E4000346002B0BD07B4B05221A607A4B0122F9
:1075F4001A607A4B00221A60794B3F221A60FFF717
:1076040043FE0346002B76D04FF08053754AD3F8DF
:107614000434C2F820354FF08053724AD3F808344A
:10762400C2F824354FF080536E4AD3F80C34C2F8B4
:1076340028354FF080536B4AD3F81034C2F82C35F8
:107644004FF08053674AD3F81434C2F830354FF002
:107654008053644AD3F81834C2F834354FF0805359
:10766400604AD3F81C34C2F840354FF080535D4A69
:10767400D3F82034C2F844354FF08053594AD3F834
:107684002434C2F848354FF08053564AD3F828348E
:10769400C2F84C354FF08053524AD3F82C34C2F818
:1076A40050354FF080534F4AD3F83034C2F8543534
:1076B4004FF080534B4AD3F83434C2F860354FF05E
:1076C4008053484AD3F83834C2F864354FF08053B5
:1076D400444AD3F83C34C2F868354FF08053414AE9
:1076E400D3F84034C2F86C354FF080533D4AD3F898
:1076F4004434C2F87035FFF70BFE0346002B05D067
:10770400394B1B68394A03F04F031360FFF744FEFB
:107714000346002B0DD04FF08043D3F8003403F020
:107724000103002B05D04FF080436FF00102C3F832
:107734000024FFF775FE0346002B05D02C4B1B6875
:107744002B4A43F4806313602A4BD3F88830294AC8
:1077540043F47003C2F88830BFF34F8F00BFBFF308
:107764006F8F00BFFFF7BCFE4FF01023D3F8003239
:10777400002B05DB4FF01023D3F80432002B15DA6D
:107784000120FFF7C9FE4FF010231522C3F8002291
:10779400FFF7B6FE4FF010231522C3F80422FFF7BB
:1077A400AFFE0020FFF7B8FEFFF7BEFBFFF7C4FEF5
:1077B40000BF08BD240300104035014074C00740D9
:1077C4000DF0ADBA440200103C050040F0ED00E0BD
:1077D400A00500401056004088560040185600404E
:1077E4001456004000C0004058020010E40E00404F
:1077F4003C17004000ED00E086B0039001921A4669
:107804000B46ADF80A3013468DF80930039B002B64
:1078140002D0019B002B01D100235BE00023ADF8D3
:1078240016300CE0BDF81630039A13441B781A4640
:10783400BDF8163013449BB20133ADF81630BDF8D1
:1078440016305A1CBDF80A309A420FDA019B1B8885
:10785400BDF816209A42E5D3BDF816300133039AD9
:1078640013441B789DF809209A42DBD1BDF81620F9
:10787400BDF80A309A4201D300232BE0BDF816303C
:107884000233ADF81430BDF81630039A13441B7854
:10789400002B07D0BDF81630039A13441B78013B24
:1078A4009BB200E00023ADF81230BDF81230002B7B
:1078B40008D0BDF81420BDF812301A44BDF80A30BF
:1078C4009A4201DD002305E0019BBDF814201A80D3
:1078D400BDF81230184606B0704700B585B0019067
:1078E4000B46ADF8023013468DF801300023ADF895
:1078F4000C309DF8013003AABDF802100198FFF77F
:107904007BFF0346ADF80E30BDF80E30002B01D1DD
:10791400002304E0BDF80C301A46019B13441846BA
:1079240005B05DF804FB72DF704700BF184673DFD3
:10793400704700BF184682B00190019B93F8303421
:10794400184602B0704784B00190002303930AE004
:10795400019A039B13441B78002B01D0012306E0FA
:10796400039B01330393039B052BF1D90023184692
:1079740004B0704782B003468DF807309DF8073095
:107984005A1C074B83FB02135910D317C91A0B4611
:107994009B000B44D11ACBB2184602B0704700BF0B
:1079A4006766666682B001900091009BDB7B012BC9
:1079B40004D1009B9A88019BA3F8242400BF02B041
:1079C400704700B585B001900091019B002283F8B7
:1079D4002E24009B9A88019BB3F824349A4216D132
:1079E400019B1B7983F00103DBB2002B0FD0012133
:1079F400019800F0AFF90390039B002B07D0019B83
:107A04009B6B002B03D0019B9B6B0398984700BF93
:107A140005B05DF804FB00B585B001900091009BB2
:107A24001B88262B1ED1009B1B7A012B03D0009BA5
:107A34001B7A022B17D1019B9B781846FFF79AFFFC
:107A440003461946019800F085F90390039B002B27
:107A540009D0019B9B6B002B05D0019B9B6B03986A
:107A6400984700E000BF05B05DF804FB00B585B0A1
:107A740001900B468DF80330019B03F2274318460F
:107A8400FFF761FF03468DF80F309DF80330013B8B
:107A9400032B33D801A252F823F000BFB17A0200BD
:107AA400D57A0200E97A0200F57A0200019B9B79FB
:107AB400002B0DD0019B93F8243083F00103DBB23B
:107AC400002B05D09DF80F30002B01D0012316E0C8
:107AD400019BDB79002B05D09DF80F30002B01D0E2
:107AE40002230CE0019B1B7A002B01D0032306E048
:107AF400019B5B7A002B01D0042300E0002318468D
:107B040005B05DF804FB00BF82B001900091019BB9
:107B1400012283F83120019B0022C3F82024019B19
:107B240003F22642009B5A60009B00229A60009B4D
:107B340002221A70009B80229A810023184602B008
:107B4400704782B001900091019B022283F831209A
:107B5400019B93F82430002B03D0009B07221A705A
:107B640002E0009B03221A70019B1B699AB2009BDE
:107B74009A81019B0022C3F82024019B03F2264230
:107B8400009B5A60019BDA68009B9A6000231846A8
:107B940002B0704700B583B00190019B5B79002B64
:107BA4000FD0019B93F82E3483F00103DBB2002B3A
:107BB40007D00198FFF7BFFE0346002B01D0012335
:107BC40000E0002303F00103DBB2184603B05DF8C4
:107BD40004FB00B585B001900B468DF80330019B82
:107BE400D3F81004019BB3F8143401221946FFF7AB
:107BF40074FE0390039B002B03D0039B9DF803208A
:107C04001A70019B03F15400019B03F58261019BEF
:107C14003C331A46FFF787FE0346184605B05DF865
:107C240004FB00B585B001900091019B5A69009B4B
:107C34009A60019B9B699AB2009B9A81019B93F87D
:107C44002430002B04D0019B062283F83C2003E05F
:107C5400019B012283F83C200198FFF79BFF034618
:107C6400002B13D0009B02221A7504210198FFF700
:107C7400B0FF0390039B0293029B002B01D0029B55
:107C84000FE0019B052283F8312003E0019B0322CE
:107C940083F83120019B03F58262019BC3F8202401
:107CA4000023184605B05DF804FB00B585B00190CB
:107CB4000091019BDA69009B9A60019B1B6A9AB24E
:107CC400009B9A81019B93F82430002B04D0019BE4
:107CD400062283F83C2003E0019B012283F83C2028
:107CE4000198FFF757FF0346002B13D0009B022295
:107CF4001A7504210198FFF76CFF0390039B02930C
:107D0400029B002B01D0029B0FE0019B062283F80B
:107D1400312003E0019B042283F83120019B03F509
:107D24008262019BC3F820240023184605B05DF845
:107D340004FB82B00190019B1B68012B03D0019BC3
:107D44001B68022B01D1012300E00023184602B076
:107D54007047000000B585B001900B468DF80330E4
:107D6400019B1B7883F00103DBB2002B01D00823B5
:107D740009E1019B9DF803209A70019B03F22643BD
:107D84000722002118460DF0DFF9019B9B79002B97
:107D940003D0019B9B78012B0FD0019BDB79002B37
:107DA40003D0019B9B78012B07D0019BDB79002B2F
:107DB40014D0019B9B78022B10D1019B5B6B002B91
:107DC40008D0019B012283F82D24019B5B6B0820C2
:107DD400984703E0019B002283F82D249DF803308B
:107DE40019460198FFF742FE03461A46019B9A7012
:107DF400019B5B6B002B20D0019B9B78032B03D052
:107E0400019B9B78042B18D1019B5B79002B14D028
:107E1400019B93F82E3483F00103DBB2002B0CD0CA
:107E2400019B002283F83024019B012283F82F2434
:107E3400019B5B6B0720984703E0019B002283F8BA
:107E44002F24019B3C331822002118460DF07CF9A5
:107E5400019B012283F83C20019B2C331846FFF739
:107E640068FF0346002B06D0019BDB6ADAB2019B54
:107E740083F8512003E0019B012283F85120019BE8
:107E840093F82430002B12D0019B28331846FFF7B7
:107E940050FF0346002B06D0019B9B6ADAB2019B7C
:107EA40083F8522003E0019B012283F85220019BB6
:107EB400002283F85020019B9B78042B31D801A227
:107EC40052F823F01D7F0200DD7E0200ED7E0200E9
:107ED400FD7E02000D7F0200019B3C331946019890
:107EE400FFF712FE03901DE0019B3C3319460198F5
:107EF400FFF727FE039015E0019B3C3319460198D8
:107F0400FFF78FFE03900DE0019B3C331946019867
:107F1400FFF7CBFE039005E0019B002283F831209C
:107F240000E000BF019B9B78002B20D0019B03F154
:107F34005400019BD3F82014019B3C331A46FFF7ED
:107F4400F2FC0390039B002B01D0039B1BE0019BDD
:107F540093F85420019B93F8303019461046FFF7EC
:107F6400E6FC0390039B002B01D0039B0BE0019BD9
:107F74005B6B002B06D0019B5B6B019A92F831205E
:107F8400104698470023184605B05DF804FB00BF6F
:107F940000B585B001900091009B0393019B1B8861
:107FA400262B10D0262B13DC102B02D0112B05D03E
:107FB4000EE001990398FFF7F5FC0AE00199039894
:107FC400FFF7FFFC05E001990398FFF724FD00E0AB
:107FD40000BF00BF05B05DF804FB000084B0034699
:107FE400ADF806300023039316E00F49039A1346B5
:107FF4009B0013449B000B441B88BDF806209A4247
:1080040007D1039A13469B0013449B00064A13446A
:1080140006E0039B01330393039B002BE5D000236D
:10802400184604B0704700BFA827002082B0019012
:108034000B46ADF80230019BBDF802201A80019B6B
:1080440000221A72019B054903F10A020B4603CB75
:108054001060516000BF02B0704700BFD8270020F5
:1080640082B00190019B4FF6FF721A8000BF02B0EC
:10807400704788B00390029111461A460B46ADF83A
:1080840006301346ADF80430039B9B881A46BDF8AE
:10809400063013440793039B9B881946039B9B88D4
:1080A400BDF80620934228BF13469BB2CB1A069311
:1080B400039BDB881A46BDF8043013440593039BE5
:1080C400DB881946039BDB88BDF80420934228BF54
:1080D40013469BB2CB1A0493029B5A88039B1B88BA
:1080E4009A4205D3029B5A88039B5B889A4201D922
:1080F40000231CE0029B9B881A46069B934205D8EA
:10810400029B9B881A46079B934201D200230EE0F0
:10811400029BDB881A46049B934205D8029BDB88AA
:108124001A46059B934201D2002300E0012318461E
:1081340008B0704700B583B00190064B9B69002BD3
:1081440003D0044B9B690198984700BF03B05DF8C6
:1081540004FB00BFBC27002000B587B00346009194
:10816400ADF80630009B5B7A002B1AD1009B1B7A7A
:10817400002B03D1164B5B68059302E0144B9B68FC
:108184000593009B5B68BDF806200599184608F026
:1081940095F80490049B002B16D00498FFF7CAFFAF
:1081A40012E0009B00221A72094B5B69002B0BD072
:1081B40001238DF80C30BDF80630ADF80E30044BB9
:1081C4005B6903AA1046984700BF07B05DF804FB3B
:1081D400BC27002000B585B00190019BDB7B8DF8A6
:1081E4000F30019B9B88ADF80C309DF80F30012BAC
:1081F4002CD14FF6FF70FFF7F1FE0290029B002B8B
:1082040003D10420FFF796FF21E0BDF80C30194696
:108214000298FFF70BFF029B03F10A00019B03F195
:1082240010014FF6FF7340F2F312FFF722FF0346EB
:108234001A46029B5A72074BDB89002B07D1BDF803
:108244000C3002991846FFF787FF00E000BF05B025
:108254005DF804FBBC27002000B587B00190019BAA
:108264009B88ADF81630BDF816301846FFF7B6FEF9
:108274000490049B002B0ED0049B5B68184608F006
:1082840075F80390039B002B02D00398FFF752FF6D
:108294000498FFF7E5FE00BF07B05DF804FB00009B
:1082A40000B587B00190019B06330593059B1A889E
:1082B400194BDB899A422BD1059B5B89022B27D171
:1082C400019B9B88ADF81230BDF812301846FFF7B9
:1082D40085FE0390039B002B1AD0059B0C33184694
:1082E40000F083FB0346002B06D0BDF8123003993F
:1082F4001846FFF731FF0BE0039B5B68184608F054
:1083040035F80290029B002B02D00298FFF712FF6F
:1083140000BF07B05DF804FBBC27002000B585B0A2
:108324000190019B9B88ADF80E30BDF80E301846C5
:10833400FFF754FE0290029B002B15D0029B03F121
:108344000A00019B03F108014FF6FF7340F2F31298
:10835400FFF78FFE03461A46029B5A72BDF80E3091
:1083640002991846FFF7F8FE00BF05B05DF804FB5C
:1083740000B583B001900091019B1B88502B12D053
:10838400502B18DC122B12D0122B14DC102B02D021
:10839400112B04D00FE00198FFF71CFF0CE00198AB
:1083A400FFF75AFF08E00198FFF77AFF04E001980D
:1083B400FFF7B4FF00E000BF00BF03B05DF804FBAB
:1083C40030B58FB00190009100230293009B002BE5
:1083D4001AD000230D9314E06B460D99184609F04A
:1083E400ABFD0346002B09D0029B5A1C02920D9A46
:1083F40092B25B0038336B4423F82C2C0D9B013371
:108404000D930D9B132BE7D9019B1D4602AC0FCC9A
:108414000FC50FCC0FC594E8070085E80700019845
:108424000FB030BD00B583B00346ADF80630BDF8DB
:108434000630132B01D900230CE0BDF80630194691
:10844400064809F024FDBDF806301946044809F031
:108454001EFD0123184603B05DF804FBE827002045
:10846400E427002000B585B00346ADF806300023AC
:1084740003930DE0039B9B00094A13440433BDF8A6
:1084840006201146184609F03EFD039B0133039371
:10849400039B1D2BEED900BF00BF05B05DF804FBA4
:1084A400E027002000B583B00346ADF80630BDF8E0
:1084B40006301946034809F026FD00BF03B05DF8F5
:1084C40004FB00BFE827002030B59BB0184B9B6825
:1084D400DB431893164B5A6818AB1146184609F03B
:1084E40001FE189A6B4611461846FFF769FF0DAC5A
:1084F4006D460FCD0FC40FCD0FC495E8070084E877
:108504000700002319930BE0199B5B0068336B444D
:1085140033F8303C1846FFF7A5FF199B0133199334
:108524000D9B199A9A42EFD300BF00BF1BB030BD18
:10853400E027002000B583B003468DF807309DF88E
:1085440007301946034809F0F7FC0346184603B000
:108554005DF804FBE027002000B583B001900B46D2
:10856400ADF8023013468DF801309DF80130002B30
:1085740006D0BDF802301946019809F088FC05E0E0
:10858400BDF802301946019809F0BDFC00BF03B0E4
:108594005DF804FB00B585B001900091019B9B88B8
:1085A400ADF80E30019B1B88103B0A2B00F288802B
:1085B40001A252F823F000BFE985020025860200DB
:1085C400C5860200C5860200C5860200C586020073
:1085D400C5860200C5860200C58602008F86020099
:1085E40031860200FFF770FFBDF80E301846FFF722
:1085F40019FF034683F00103DBB2002B05D0324A96
:10860400F021042007F036FD57E0019BDB7B022BB1
:1086140053D1BDF80E3019462C4809F038FC4CE013
:10862400BDF80E301846FFF73DFF49E0019B1B7A69
:10863400C3F30313DBB28DF80D309DF80D30032B1B
:108644008CBF01230023DAB2BDF80E30194620484E
:10865400FFF782FF9DF80D30022B8CBF012300230E
:10866400DAB2BDF80E3019461A48FFF775FF9DF8C7
:108674000D30012B8CBF01230023DAB2BDF80E307C
:1086840019461548FFF768FF1AE0019B1B7A002B77
:1086940015D1019B5B7AC3F3C003DBB2002B14BF7B
:1086A400012300238DF80C309DF80C20BDF80E300A
:1086B40019460748FFF750FF01E000BF00E000BF84
:1086C40000BF05B05DF804FB1C550300EC27002037
:1086D400F8270020F4270020F027002000B583B0FD
:1086E4000346ADF80630BDF80630132B01D900233C
:1086F40006E0BDF806301946034809F01DFC0346A0
:10870400184603B05DF804FBE427002000B585B0EB
:108714000346ADF8063000238DF80F30BDF806305F
:108724001846FFF7DBFF0346002B11D0BDF80630D7
:1087340019460A4809F000FC03468DF80E309DF8EE
:108744000E30002B01D0022300E001238DF80F30FE
:108754009DF80F30184605B05DF804FBEC270020A7
:1087640000B585B00346ADF8063000238DF80F3010
:10877400BDF806301846FFF7B1FF0346002B11D0B1
:10878400BDF8063019460A4809F0D6FB03468DF8B1
:108794000E309DF80E30002B01D0022300E001239F
:1087A4008DF80F309DF80F30184605B05DF804FBC6
:1087B400E827002000B583B00346ADF80630BDF8C5
:1087C40006301846FFF78AFF0346002B07D0BDF892
:1087D40006301946044809F0AFFB034600E00023C5
:1087E400184603B05DF804FBF027002000B583B001
:1087F4000346ADF80630BDF806301846FFF76EFFA5
:108804000346002B07D0BDF806301946044809F08A
:1088140093FB034600E00023184603B05DF804FB15
:10882400F427002000B583B00346ADF80630BDF848
:1088340006301846FFF752FF0346002B07D0BDF859
:1088440006301946044809F077FB034600E000238C
:10885400184603B05DF804FBF827002000B583B088
:1088640003460A46ADF8063013468DF805309DF8E8
:1088740005301846FFF75EFE0346002B16D0BDF800
:1088840006301846FFF72AFF0346002B0ED09DF84A
:10889400053006339B00084A13440433BDF8062010
:1088A4001146184609F048FB034600E00023184629
:1088B40003B05DF804FB00BFE027002000B583B0DF
:1088C4000346ADF806300B468DF8053013468DF897
:1088D40004309DF805301846FFF72CFE0346002BA4
:1088E40015D0BDF806301846FFF7F8FE0346002BF6
:1088F4000DD09DF8053006339B00074A134404331A
:108904009DF80420BDF806101846FFF725FE00BFA9
:1089140003B05DF804FB00BFE027002000B587B07A
:10892400039002910192029B002B01D100231FE0CE
:1089340000230593039B002B19D00023049313E019
:1089440003AB0499184609F0F7FA0346002B08D044
:10895400049B9AB2029B019910469847059B0133E8
:108964000593049B01330493049B132BE8D9059BC3
:10897400184607B05DF804FB00B585B003460291C4
:1089840001928DF80F309DF80F301846FFF7D2FD95
:10899400034683F00103DBB2002B01D000230CE07B
:1089A4009DF80F30074A06339B0013445B68019A15
:1089B40002991846FFF7B2FF0346184605B05DF862
:1089C40004FB00BFE027002082B00190019B1B78CC
:1089D4001AB2019B01331B781BB21B021BB2134357
:1089E4001BB29BB2184602B0704700B585B0019027
:1089F4000198FFF7E9FF0346ADF80E30BDF80E30DD
:108A040003F00103002B14BF01230023DBB218463B
:108A140005B05DF804FBA0DF704700BF1846A1DF76
:108A2400704700BF1846ADDF704700BF1846B3DF7C
:108A3400704700BF1846B4DF704700BF18460000F7
:108A440000B585B00190019B002B03D10A49852014
:108A540009F038F90121019809F0E5FA0390BFF310
:108A64005F8F00BF039B002B0CBF01230023DBB2ED
:108A7400184605B05DF804FB5855030000B583B0F3
:108A84000190019B002B03D10A49922009F01AF9A5
:108A9400019B1B68012B03D00649932009F012F9AE
:108AA400BFF35F8F00BF019B00221A6000BF03B0B9
:108AB4005DF804FB5855030000B585B00190019B97
:108AC4005B88184601F05AFA03461A46019B9A80BD
:108AD4000023039308E0084A039B52F823300198CB
:108AE4009847039B01330393039B002BF3D000BFF0
:108AF40000BF05B05DF804FBAC22002082B00190F9
:108B0400019B9B79012B0BD1019B1B79012B07D175
:108B1400019B5B8842F60212934201D1012300E0DB
:108B2400002303F00103DBB2184602B0704700B51E
:108B340089B003460091ADF8063003AB00221A60F9
:108B44005A609A60DA601A6108238DF80C30BDF817
:108B54000630ADF80E30009B059303AB1846FFF7C3
:108B6400ABFF00BF09B05DF804FB000010B58AB08C
:108B74000346ADF8063000238DF8273003AB0022FE
:108B84001A605A609A60DA601A61BDF80630ADF86E
:108B94000E30BDF806304FF6FF72934261D0BDF837
:108BA4000630184600F034FF0890089B43F2020296
:108BB40093424BD0089B43F2020293422DD8089B68
:108BC400112B11D0089B112B27D8089B002B03D005
:108BD400089B0B2B0CD020E00F238DF80C3003AB3B
:108BE4001846FFF769FF32E001238DF827302EE0A5
:108BF40010238DF80C301C4A1C4BD31ADB081B04C1
:108C040043F00203BDF80620194918460BF02CFA6C
:108C140003AB1846FFF750FF19E0134A134BD31A5E
:108C2400DB081B0443F0010408980AF04BFD0346DB
:108C34001A46BDF806300F4920460BF026FABDF857
:108C4400063008991846FFF772FF00E000BF0A4B90
:108C540019789DF82720BDF806301846FFF72EFE38
:108C640000E000BF0AB010BD885303001053030096
:108C7400A4550300245603006128002000B583B0E6
:108C840003460A46ADF8063013468DF80530064B08
:108C940019789DF80520BDF806301846FFF70EFE3A
:108CA40000BF03B05DF804FB6028002010B58AB053
:108CB4000346ADF8063000238DF8273000238DF8E5
:108CC4002630BDF80630184600F0BAFD0890089B1F
:108CD40043F20202934258D0089B43F202029342A9
:108CE4003AD8089B862B17D0089B862B34D8089B30
:108CF400112B0DD0089B112B2ED8089B002B03D0D1
:108D0400089B0B2B41D027E001238DF826303DE052
:108D140001238DF8273039E003AB00221A605A6032
:108D24009A60DA601A6107238DF80C30BDF80630BA
:108D3400ADF80E301C4A1D4BD31ADB081B0443F05C
:108D44000203BDF806201A4918460BF08DF903AB4F
:108D54001846FFF7B1FE19E0134A144BD31ADB0887
:108D64001B0443F0010408980AF0ACFC03461A46BD
:108D7400BDF806300F4920460BF087F9BDF80630E0
:108D840008991846FFF7D3FE00E000BF9DF827209E
:108D9400BDF8063011461846FFF770FF9DF82630DF
:108DA40018460AB010BD00BF8853030010530300D7
:108DB40078560300B056030000B589B0034600910D
:108DC400ADF8063000238DF81F300DF11603184658
:108DD400FFF72DFE0690069B002B04D02A494FF482
:108DE400997008F06FFF0123ADF81C3040E00223B6
:108DF400ADF808300023ADF80A3004AB039304A99E
:108E0400BDF81C3000221846FFF715FE0690069B9D
:108E1400002B01D0069B32E09DF81F3083F0010344
:108E2400DBB2002B09D0BDF8103042F60522934284
:108E340003D101238DF81F3015E09DF81F30002B5E
:108E440011D0BDF8103042F6021293420BD1009BB0
:108E5400039302AABDF81C10BDF806301846FFF7AC
:108E6400E2FD03460BE0BDF81C300133ADF81C30C5
:108E7400BDF81630BDF81C209A42B8D30523184615
:108E840009B05DF804FB00BFF056030010B58AB0CA
:108E94000346ADF8063001238DF8273000238DF802
:108EA4002630BDF80630184600F062FE0890089B94
:108EB40043F2014293426AD0089B43F20142934237
:108EC4006BD8089B112B29D8089B112B65D801A2BC
:108ED40052F823F02D8F02009F8F02009F8F020013
:108EE4009F8F02009F8F02009F8F0200798F0200E4
:108EF4009F8F0200598F02009F8F02009F8F0200F4
:108F04009F8F02009F8F02009F8F02009F8F02009D
:108F14009F8F02009F8F0200D18F0200089B43F2B3
:108F24000202934254D038E003AB00221A605A6024
:108F34009A60DA601A6111238DF80C30BDF806309E
:108F4400ADF80E3001238DF8263003AB1846FFF739
:108F5400B3FD3EE00DF10A02BDF806301146184695
:108F6400FFF72AFF0890089B002B03D1BDF80A30B5
:108F7400002B2ED100238DF82730BDF8063018467B
:108F840000F0FCFF0346184600F03AFE21E0BDF86D
:108F940006301846FFF7EAFD1BE0184A184BD31AAF
:108FA400DB081B0443F0010408980AF08BFB03461A
:108FB4001A46BDF80630134920460BF066F8BDF892
:108FC400063008991846FFF7B2FD02E000BF00E042
:108FD40000BF0D4B19789DF82720BDF806301846C0
:108FE400FFF76CFC094B19789DF82620BDF8063074
:108FF4001846FFF763FC00BF0AB010BD8853030096
:109004001053030034570300622800206328002013
:1090140000B583B003460091ADF80630BDF80630C4
:109024001846FFF7A3FD00BF03B05DF804FB000082
:1090340008B5044B1B78002203491846FFF79CFC33
:1090440000BF08BD612800201590020000B583B060
:1090540003460091ADF806300A48FFF7F1FC0346D9
:10906400002B0CD0BDF806301846FFF71FFE034650
:10907400002B03D10348FFF701FD00E000BF03B05C
:109084005DF804FB5C28002000B583B00346009122
:10909400ADF806300B4B1A78BDF806301146184669
:1090A400FFF7DCFB034683F00103DBB2002B04D0A3
:1090B400BDF806301846FFF7E9FE00BF03B05DF8BF
:1090C40004FB00BF6328002008B5044B1B78002272
:1090D40003491846FFF750FC00BF08BD6228002072
:1090E4008D90020000B583B00346ADF80630BDF89C
:1090F4000630184600F018FD0346002B07D0064B37
:109104001978BDF8063001221846FFF7D7FB00BFD7
:1091140003B05DF804FB00BF6228002000B587B0EF
:1091240003460091ADF8063004AB04220021184632
:109134000CF00AF842F6A623ADF8103001238DF89E
:1091440012300D4B1B68039303AA04A9BDF8063023
:109154001846FFF760FC0590059B002B07D1074BD1
:109164001978BDF8063001221846FFF7A7FB00BFA7
:1091740007B05DF804FB00BF7457030065280020A6
:1091840000B585B00346ADF80630BDF80630184684
:1091940000F0F4FE0346184602AA0023092101F058
:1091A400BCFD0346052B07D1054B1978BDF80630E5
:1091B40001221846FFF782FB00BF05B05DF804FBEF
:1091C4006428002000B583B00B4B1B7800220B49A8
:1091D4001846FFF7D1FB0190019B002B07D1084BE8
:1091E4001B78002207491846FFF7C6FB019000BF11
:1091F40003B05DF804FB00BF60280020519002001A
:10920400642800202191020000B583B00190019BE5
:109214001B78002B11D1019B5B881846FFF7A6FC35
:10922400019B5B881846FFF75DFF019B5B8818462E
:10923400FFF7A6FFFFF7C6FF00E000BF00BF03B0C3
:109244005DF804FB00B589B00190019B1B78092BE4
:109254005ED1019B5B7A002B5AD1019B1B7A082BB0
:1092640047D0082B4DDC012B1BD0072B49D1019B88
:109274009B88184600F02CFF0346ADF81E30BDF85D
:109284001E304FF6FF7293423DD0BDF81E300121CF
:109294001846FFF7F3FCBDF81E301846FFF770FFC1
:1092A40031E0019B9B8803AA0121184602F07EFA53
:1092B4000690069B002B28D1049B1B78002B24D0FE
:1092C400019B9B88184600F003FF0346ADF8163057
:1092D400BDF816304FF6FF72934216D00F4B197833
:1092E400BDF8163001221846FFF7E8FAFFF7ECFE46
:1092F4000BE00B4B1B68012B09D10948FFF7BEFBA0
:1093040005E000BF04E000BF02E000BF00E000BFD2
:10931400FFF758FF00BF09B05DF804FB6228002086
:109324005C28002010B586B003460A46ADF8063026
:1093340013468DF8053003AB00221A605A600123EE
:10934400ADF80C3009238DF80E30194B1978BDF89F
:10935400063000221846FFF7B1FA9DF80530002BBD
:1093640001D0144B00E0144B0493BDF806301846AA
:1093740000F004FE0346184603AB0022194601F030
:1093840093FD0590059B002B0FD00C4A0C4BD31A70
:10939400DB081B0443F0020405980AF093F9034622
:1093A4001A46084920460AF05FFE00BF06B010BD09
:1093B40064280020FC58030000590300885303006C
:1093C40010530300E857030000B58DB00190019BD2
:1093D4009B88ADF82C30019B1B88353B1F2B00F27A
:1093E400688101A252F823F0FD940200FF95020067
:1093F400B7960200B7960200B7960200B79602002D
:10940400B7960200B7960200B7960200B79602001C
:10941400B7960200B7960200B7960200B79602000C
:10942400B7960200B7960200B7960200B7960200FC
:10943400B7960200B7960200B7960200B7960200EC
:10944400B7960200B7960200B7960200B7960200DC
:10945400B7960200D9940200B79602006D940200F8
:10946400B796020079940200BDF82C301846FFF735
:109474007DFB1EE103AB00221A605A609A60DA6039
:109484001A6112238DF80C30BDF82C30ADF80E3073
:10949400BDF82C30184600F071FD0346ADF81030CD
:1094A400BDF81030184600F0ABFB864B1978BDF8B8
:1094B4002C3000221846FFF701FA834B1978BDF8C7
:1094C4002C3000221846FFF7F9F903AB1846FFF7D2
:1094D400F3FAEEE0019B06331846FFF70FFB034651
:1094E400002B00F0DF80BDF82C3001211846FFF777
:1094F400C5FBFFF767FED5E000238DF82F30019BF5
:109504009B88ADF82C30019B0A3309936F4B1A7872
:10951400BDF82C3011461846FFF7A0F9034683F036
:109524000103DBB2002B40F0BF80684B1978BDF813
:109534002C3000221846FFF7C1F9019BDB88B3F5F4
:10954400857F4CD0019BDB88002B0DD0604A614B9A
:10955400D31ADB081B0443F00200019BDB881A4684
:109564005D490AF081FD3AE0099B1B88012B0CD070
:10957400574A584BD31ADB081B0443F00200099BDB
:109584001B881A4655490AF06FFD099B5B88012B1D
:109594000DD04F4A4F4BD31ADB081B0443F0020093
:1095A400099B5B881A464E490AF05EFD17E0099B49
:1095B40004331988BDF82C3000221846FFF72FFA1F
:1095C4000890089B002B0AD101238DF82F30454BBE
:1095D4001978BDF82C3001221846FFF76FF99DF871
:1095E4002F3083F00103DBB2002B5FD0BDF82C30A9
:1095F40000211846FFF796FE58E000238DF82E3020
:10960400019B9B88ADF82C30019B0A330A93354BA0
:109614001A78BDF82C3011461846FFF71FF9034697
:1096240083F00103DBB2002B42D12E4B1978BDF835
:109634002C3000221846FFF741F9019BDB88002BF0
:109644000DD0234A234BD31ADB081B0443F002003A
:10965400019BDB881A4620490AF006FD19E00A9BA3
:109664009B88012B0DD01A4A1A4BD31ADB081B0412
:1096740043F002000A9B9B881A4619490AF0F4FC3D
:1096840007E00A9B9B79002B14BF012300238DF86C
:109694002E309DF82E20BDF82C3011461846FFF7C9
:1096A40041FE06E000BF04E000BF02E000BF00E0AE
:1096B40000BFFFF7BDFCFFF707FD00BF0DB05DF86D
:1096C40004FB00BF632800206228002065280020D6
:1096D40088530300105303004858030084580300C0
:1096E400C058030066280020AFDF704700BF18464B
:1096F400B1DF704700BF1846B2DF704700BF18469D
:10970400B3DF704700BF184600B585B00190019BD8
:109714009B88184600F0DCFC03461A46019B5A80DD
:109724000023039308E0084A039B52F8233001986E
:109734009847039B01330393039B002BF3D000BF93
:1097440000BF05B05DF804FBB022002010B588B05E
:109754002D4A05AB92E8030083E8030048E02B4B55
:109764001B8805A90022184601F09EFB0790079B61
:10977400002B34D06B4600221A605A609A60DA607B
:109784001A61224B1B88ADF80430079B112B36D08D
:10979400079B862B07D107238DF800306B461846AC
:1097A400FFF7B2FF2BE01A4A1A4BD31ADB081B044B
:1097B40043F00104079809F085FF03461A46134B4A
:1097C4001B88154920460AF060FC08238DF80030F8
:1097D400079B02936B461846FFF796FF0FE00B4B6F
:1097E4001B88184601F030FC03461A46074B1A80C2
:1097F400064B1B884FF6FF729342B0D100E000BFC6
:1098040000BF08B010BD00BF7059030068280020D5
:1098140090530300105303001859030000B583B09C
:109824000190064B1B884FF6FF72934201D0FFF75D
:109834008DFF00BF03B05DF804FB00BF6828002063
:1098440030B58DB00346ADF80630BDF80630184685
:1098540000F094FB0346ADF82630BDF826304FF6F1
:10986400FF72934202D143F20203C5E00123ADF833
:109874002A3000238DF8293000238DF82930BDF8D3
:109884002A305A1CADF82A201A4604ABBDF826002B
:10989400082101F0A1FF0B900B9B002B40F0A1804D
:1098A400059B0893089B03221A60089B991D089B3B
:1098B4001A1D089B1B68BDF80600FFF71DFF0B90DF
:1098C4000B9B002B62D102AABDF826300821184652
:1098D40001F06CFF0B900B9B002B16D00B9B052B00
:1098E40013D0474A474BD31ADB081B0443F0010447
:1098F4000B9809F0E7FE03461A46BDF806304249C4
:1099040020460AF0C2FB032376E00B9B052B11D003
:10991400089B9A88039B9B889A420BD1089B981DAD
:10992400039B991D089B9B881A460BF09FFB0346DB
:10993400002B09D0BDF82620BDF826300821184692
:1099440002F009F80B9051E0BDF8263008211846C2
:1099540001F0E2FF0690069B002B02D10B230B9330
:1099640044E0274A274BD31ADB081B0443F00104C5
:10997400BDF82650069809F0A5FE03462A46234959
:1099840020460AF082FB03230B932FE00B9B0C2B46
:1099940003D101238DF8293004E00B9B052B01D161
:1099A40000230B93BDF826300821184601F0B4FFBC
:1099B4000790079B002B19D0114A124BD31ADB08CE
:1099C4001B0443F00104BDF82650079809F07AFE01
:1099D40003462A460D4920460AF057FB03230B93FE
:1099E40004E00B9B072B01D10C230B939DF829302A
:1099F400002B7FF441AF0B9B18460DB030BD00BF68
:109A0400905303001053030078590300B059030026
:109A140000B58BB00346ADF80630BDF806301846E5
:109A240000F0ACFA0346ADF8143000230893002389
:109A3400ADF81E300323069301238DF81730BDF8CB
:109A440014304FF6FF72934216D002AABDF81430B8
:109A54000821184601F0AAFE0990099B002B0BD19E
:109A6400039B0493049B06330893049B9B88ADF8E3
:109A74001E30049B1B680693BDF81E20BDF806002B
:109A8400069B0899FFF734FE0990099B042B02D129
:109A94001123099331E0099B082B02D10023099378
:109AA4002BE0099B0B2B28D100238DF81730069B44
:109AB40003F00203002B02D0012306931DE0089B50
:109AC400002B03D1BDF81E30002B07D000230893D0
:109AD4000023ADF81E30032306930EE00F4A104B0B
:109AE400D31ADB081B0443F00103BDF806200D491B
:109AF40018460AF0B9FA03230993099B0B2BBBD030
:109B04009DF8173083F00103DBB2002B01D00B2347
:109B14000993099B18460BB05DF804FB90530300AE
:109B240010530300305A030000B589B00346ADF862
:109B340006300DF117030493BDF80630184600F003
:109B44001DFA0346ADF81E3003AABDF81E300121EC
:109B5400184601F02BFE0690069B002B01D0002333
:109B640001E0049B1B78184609B05DF804FB000073
:109B740010B584B00346ADF806304FF6FF73ADF868
:109B84000E301B48FFF7BCFD0290029B002B11D046
:109B9400184A194BD31ADB081B0443F0010402983A
:109BA40009F090FD03461A46144920460AF05CFA6F
:109BB40003231AE00E4B1988BDF80E20BDF80630B9
:109BC4001846FFF791FD0290029B43F20302934271
:109BD40005D1074B1B8801339AB2054B1A80029BAF
:109BE40043F203029342E5D0029B184604B010BD31
:109BF4006A2800209053030010530300A85A03005E
:109C040000B585B00346ADF80630084A02AB92E8C9
:109C1400030083E8030002A9BDF8063000221846B9
:109C240001F042F900BF05B05DF804FBF45A0300EB
:109C340046DF704700BF184600B585B00190002389
:109C4400039308E0084A039B52F82330019898478D
:109C5400039B01330393039B012BF3D900BF00BF84
:109C640005B05DF804FB00BF045C030084B0019000
:109C7400002303930AE0019A039B13441B78002BEF
:109C840001D0012306E0039B01330393039B0F2BB5
:109C9400F1D90023184604B0704700B583B0019091
:109CA4000091019B002B02D0009B002B01D10023CB
:109CB4001BE0019B1B78C3F34603DAB2009B1B78BD
:109CC400C3F34603DBB29A4201D000230DE0019BAB
:109CD400581C009B0133062219460BF0C7F90346B2
:109CE400002B0CBF01230023DBB2184603B05DF840
:109CF40004FB000030B597B00190019B1B88102B2A
:109D040040F09180019B0AAC1D1D0FCD0FC40FCDF7
:109D14000FC495E8070084E807004FF6FF73ADF819
:109D240056309DF82C3023F00103DBB2062B47D0CC
:109D340001F05CF89DF82C30C3F34603DBB2012B31
:109D440002DC002B15DA3BE0022B2ED038E0089B16
:109D540003F111020AAB043311461846FFF79DFFC5
:109D64000346002B05D0BDF82630ADF8563000BFB1
:109D740026E007AA0DF126031946072001F040F852
:109D84000346002BE3D11BE0089B5A1C0AAB0433A7
:109D94001146184600F08FFA0346002B05D0BDF893
:109DA4002630ADF8563000BF09E007AA0DF12603AE
:109DB4001946072001F024F80346002BE4D100BF24
:109DC400BDF828301946194A0B469B000B445B002A
:109DD4001344BDF856201A80BDF828301946134A9A
:109DE4000B469B000B445B00134402330BAA106820
:109DF40018609188927999809A71BDF856304FF61F
:109E0400FF72934210D0BDF82830ADF80A30BDF887
:109E14005630ADF80C3000238DF8083002AB1846EC
:109E2400FFF70AFF00E000BF17B030BD6C28002028
:109E340000B587B001900091019B11330593009BFD
:109E440011330493019B581C009B013310221946C3
:109E54000BF00CF90346002B11D1019B013318467A
:109E6400FFF704FF0346002B09D0009B013318467B
:109E7400FFF7FCFE0346002B01D0012300E0002382
:109E84008DF80F309DF80F3003F001038DF80F307B
:109E940004990598FFF701FF03468DF80E30059BE2
:109EA4001B7823F00103DBB2042B16D0059B1B782F
:109EB40023F00103DBB2062B0FD0049B1B7823F0A5
:109EC4000103DBB2042B08D0049B1B7823F00103AD
:109ED400DBB2062B01D0012300E000238DF80D3006
:109EE4009DF80D3003F001038DF80D309DF80E3010
:109EF400002B03D09DF80D30002B0AD19DF80F30B4
:109F0400002B08D09DF80D3083F00103DBB2002B49
:109F140001D0012300E0002303F00103DBB2184663
:109F240007B05DF804FB00B587B001900B46ADF8AF
:109F3400023000F05BFF10E0BDF81630BDF80220DF
:109F44009A420AD0049B19460198FFF771FF034611
:109F5400002B02D0BDF816300BE003AA0DF1160356
:109F64001946072000F04CFF0346002BE4D14FF6BE
:109F7400FF73184607B05DF804FB000000B583B01A
:109F84000346ADF80630BDF80630132B0AD8BDF8E9
:109F940006301846FEF7A2FB034683F00103DBB24A
:109FA400002B02D04FF6FF7308E0BDF806200549E8
:109FB40013469B0013445B000B441B88184603B0F4
:109FC4005DF804FB6C28002000B583B003460091C3
:109FD400ADF80630BDF80630132B0AD8BDF80630AC
:109FE4001846FEF77BFB034683F00103DBB2002B2C
:109FF40002D043F2020311E0BDF80620009809499B
:10A0040013469B0013445B000B4402460233196859
:10A01400116099889B79918093710023184603B04D
:10A024005DF804FB6C28002000B583B0019000911A
:10A03400019800F089F8034683F00103DBB2002B9A
:10A0440001D0002315E0019B1A88009B1B889A42CB
:10A0540001D000230DE0019B981C009B02330822D1
:10A0640019460BF003F80346002B0CBF0123002311
:10A07400DBB2184603B05DF804FB00B587B001906D
:10A0840000F0B4FE14E0049B463319460198FFF730
:10A09400CBFF0346002B08D1049B2A3319460198B1
:10A0A400FFF7C2FF0346002B02D0BDF816300BE0C9
:10A0B40003AA0DF116031946072000F0A1FE03467A
:10A0C400002BE0D14FF6FF73184607B05DF804FB90
:10A0D40000B585B00346ADF80630BDF806304FF63E
:10A0E400FF72934202D14FF6FF7326E00023ADF8CE
:10A0F4000E301CE0BDF80E20124913469B00134499
:10A104005B000B441B88BDF806209A420AD1BDF8B7
:10A114000E301846FEF7E2FA0346002B02D0BDF8D3
:10A124000E300AE0BDF80E300133ADF80E30BDF844
:10A134000E30132BDED94FF6FF73184605B05DF8C9
:10A1440004FB00BF6C28002084B00190019B1B8895
:10A15400002B01D0012312E0002303930BE0019AAA
:10A16400039B134402331B78002B01D0012306E028
:10A17400039B01330393039B072BF0D90023184659
:10A1840004B0704782B003460A46ADF80630134661
:10A19400ADF80430BDF80630132B0AD8BDF80620FC
:10A1A400054913469B0013445B000B44BDF804208F
:10A1B4001A8000BF02B070476C28002000B585B03B
:10A1C4000346ADF80630BDF806301846FFF780FFA9
:10A1D4000346ADF80E30BDF80630184601F074FAA7
:10A1E4000290029B002B0ED1BDF80E30132B0AD81F
:10A1F400BDF80E20064913469B0013445B000B4434
:10A204004FF6FF721A80029B184605B05DF804FBF6
:10A214006C28002000B595B00390029101920023B0
:10A2240013930DE0139BC3F10F03039A134419789E
:10A2340005AA139B13440A461A70139B0133139304
:10A24400139B0F2BEED905AB10330D2200211846BA
:10A254000AF07AFF002312930DE0029A129B1A442B
:10A26400129BC3F10F03127850336B4403F82C2C68
:10A27400129B01331293129B022BEED905AB1846A5
:10A28400FFF7D6FC002311930DE0119BC3F10F02DD
:10A294000199119B0B4450326A4412F81C2C1A7019
:10A2A400119B01331193119B022BEED900BF00BF08
:10A2B40015B05DF804FB00B587B001900091019BD7
:10A2C4001B7823F00103DBB2042B01D000231FE031
:10A2D400019B5A1C05AB1188927819809A70019BD6
:10A2E4001A1D03AB1188927819809A70009B04AAF6
:10A2F40003A91846FFF78EFF04A905AB03221846ED
:10A304000AF0B4FE0346002B0CBF01230023DBB28A
:10A31400184607B05DF804FB90DF704700BF18468D
:10A32400A5DF704700BF1846B5DF704700BF184669
:10A3340082B00190019B17221A80019B17225A8038
:10A34400019B00221A71019B00225A71019B1B225E
:10A354009A71019B1B22DA7100BF02B070470000A2
:10A3640030B589B003460A46ADF806301346ADF859
:10A374000430BDF80430ADF81430BDF80430ADF845
:10A3840016300023ADF818300023ADF81A3003ABB3
:10A3940000221A609A8003AA05A9BDF8063018465F
:10A3A400FFF7BAFF0790079B002B39D01E4A1F4BBB
:10A3B400D31ADB081B0443F00104BDF806500798C8
:10A3C40009F080F903462A461949204609F05DFE42
:10A3D400BDF80C30002B03D1BDF80E30002B0ED08D
:10A3E400114A124BD31ADB081B0443F00100BDF8D9
:10A3F4000C301A46BDF80E300E4909F046FEBDF881
:10A404001030002B0CD0084A084BD31ADB081B046D
:10A4140043F00103BDF810200749184609F024FE53
:10A42400079B184609B030BD58530300105303006E
:10A434001C5C0300685C0300A85C030010B586B0D4
:10A4440001900091009B9B88ADF80E30BDF80E3052
:10A45400DB00019A134406330593019B1A79059B8B
:10A464009A71009BDB7B012B02D0022B05D009E003
:10A47400019B1A88059B1A8004E0019B5A88059B5E
:10A484001A8000BF059B1A88059B5B889A4226D9CF
:10A49400059B1A88BDF80E3011461846FFF740FF99
:10A4A4000490049B002B03D1059B01225A7116E0F2
:10A4B400049B112B03D1059B01221A710FE0114A51
:10A4C400114BD31ADB081B0443F00104049809F070
:10A4D400F9F803461A460D49204609F0C5FD059BC7
:10A4E4009A79059BDB799A4208D9059B9B791A4690
:10A4F400BDF80E3011461846FFF732FF00BF06B014
:10A5040010BD00BF5853030010530300005D030047
:10A5140000B583B001900091009B9B88DB00019AF9
:10A52400134406331846FFF703FF00BF03B05DF87A
:10A5340004FB00B587B001900091009B9B88ADF8A7
:10A544001630009B5B89ADF81430BDF81630DB0083
:10A55400019A134406330493049B1B88BDF814200A
:10A56400934228BF13469AB2049B5A80049B5B888B
:10A57400172B38BF17239AB2049B5A80019B1B697F
:10A58400002B15D0049B5B79002B11D040F6772368
:10A59400ADF80830BDF81630ADF80A30049B5B887E
:10A5A400ADF80C30019B1B6902AA1146019898472B
:10A5B400049B00225A71049B00221A7100BF07B049
:10A5C4005DF804FB10B588B001900091009B9B8856
:10A5D400ADF81A30009BDB88ADF81830BDF81A309E
:10A5E400DB00019A134406330593BDF81830172B8A
:10A5F40038BF1723ADF81830059B1B88BDF8182009
:10A60400934228BF13469AB2059B5A80059B0022A9
:10A614001A71059B1A88BDF81A3011461846FFF7BF
:10A6240083FE0790079B002B0FD0174A174BD31AB2
:10A63400DB081B0443F00104079809F043F80346C0
:10A644001A461349204609F00FFD059B5B79002B40
:10A6540016D1019B1B69002B13D040F67723ADF86C
:10A664000C30BDF81A30ADF80E30059B5B88ADF8A0
:10A674001030019B1B6903AA11460198984700E01A
:10A6840000BF08B010BD00BF5853030010530300AF
:10A69400345D030030B591B001900091009B04AC8F
:10A6A4001D1D0FCD0FC40FCD0FC495E8070084E81E
:10A6B4000700BDF81030ADF83E30BDF81420BDF8E9
:10A6C4003E30D1B2019ADB0013440A465A73019B0F
:10A6D4001B69002B19D002AB00221A609A804DF638
:10A6E4007A23ADF80830BDF83E30ADF80A30BDF835
:10A6F4003E30019ADB0013445B7B8DF80C30019BE8
:10A704001B6902AA11460198984700BF11B030BDD9
:10A7140000B587B001900091009B04330593059B1D
:10A724001B88DB00019A134406330493059B9B8822
:10A734008DF80F30049B9B799DF80F20934228BF1E
:10A7440013468DF80E30059B1B889DF80E2092B29F
:10A7540011461846FFF704FE00BF07B05DF804FB7E
:10A7640010B586B001900091009B0593019B9B88D6
:10A77400ADF81230BDF81230002B40F09880019BE8
:10A784001B88552B48D0552B55DC242B32DC102B41
:10A7940051DB103B142B4ED801A252F823F000BF1A
:10A7A400FFA7020009A802003BA802003BA8020080
:10A7B4003BA802003BA802003BA802003BA8020001
:10A7C4003BA802003BA802003BA802003BA80200F1
:10A7D4003BA802003BA802003BA802003BA80200E1
:10A7E4003BA802003BA802003BA8020031A80200DB
:10A7F40027A802003A2B0AD01DE001990598FFF71B
:10A804001DFE19E001990598FFF782FE14E00199F5
:10A814000598FFF78EFE0FE001990598FFF7D2FE29
:10A824000AE001990598FFF735FF05E001990598BD
:10A83400FFF76EFF00E000BFBDF81230059ADB00A1
:10A8440013449B7A002B33D0BDF81230059ADB00F9
:10A854001344DA88BDF8123011461846FFF760FD3C
:10A864000390039B002B0ED1BDF81230059ADB0038
:10A87400134400229A72BDF81230059ADB00134487
:10A884000122DA7214E0039B112B11D0094A0A4BFE
:10A89400D31ADB081B0443F00104039808F012FFE9
:10A8A40003461A460549204609F0DEFB00E000BFD6
:10A8B40006B010BD5853030010530300005D03009D
:10A8C400B0DF704700BF184666DF704700BF184608
:10A8D40082B001900B46ADF80230019B002B01D1F0
:10A8E4000E230AE0019B1B78DE2B01D0082304E031
:10A8F400019BBDF802205A800023184602B070471D
:10A9040000B585B00190019B1B7A002B18D0019BE8
:10A914005B8800211846FFF7D7FF0390039B002BA9
:10A9240003D1019B00221A720AE0039B112B03D16D
:10A93400019B01221A7203E0019B5B68039898470C
:10A9440000BF05B05DF804FB00B583B00190009131
:10A95400009B1B79012B0BD1009B1A88019B5B8800
:10A964009A4205D1019B01221A720198FFF7C8FF90
:10A9740000BF03B05DF804FB82B00190009100BFFA
:10A9840002B0704700B589B001900091009B1A880D
:10A99400019B5B889A4236D1009B02330793079B45
:10A9A4001B78022B31D1079B1B7A042B07D0079B02
:10A9B4001B7A062B03D0079B1B7A052B27D102ABEE
:10A9C40000221A605A609A60DA6002238DF8083017
:10A9D4004FF4C073ADF80C30079B1B7A052B02D1E2
:10A9E4000023ADF80C30009B1B8802AA11461846C0
:10A9F400FFF766FF0690069B002B09D0019B5B685E
:10AA04000698984704E000BF02E000BF00E000BFE2
:10AA140009B05DF804FB00B585B001900091009B7E
:10AA2400002B43D0019B002B40D0009B0393039B3E
:10AA34001B78DE2B3AD1019B9A88039B5B889A4250
:10AA440002D10398FFF75CFF019B1B88512B18D0A0
:10AA5400512B28DC112B1BD0112B24DC012B02D011
:10AA6400022B07D01FE0019B043319460398FFF71C
:10AA74006BFF1BE0019B043319460398FFF77CFF2F
:10AA840014E0019B043319460398FFF77BFF0DE0A4
:10AA9400019B9A88039B5B889A4206D1039B4FF6DD
:10AAA400FF725A8001E000BF00E000BF05B05DF80E
:10AAB40004FB000000B585B00190019B4FF6FF72C6
:10AAC4005A800023039305E0064B01989847039BA3
:10AAD40001330393039B002BF6D000BF00BF05B0E6
:10AAE4005DF804FB21B6020082B00346ADF80630DF
:10AAF400BDF80630A3F580439BB2184602B07047F8
:10AB040082B00346ADF80630BDF8063003F5804345
:10AB14009BB2184602B0704782B003468DF80730E6
:10AB24009DF807309BB2A3F580439BB2184602B050
:10AB3400704782B003468DF807309DF80730072B25
:10AB440017D09DF80730012B13D09DF80730082B40
:10AB54000FD09DF80730052B0BD09DF80730062B3E
:10AB640007D09DF80730092B03D09DF80730042B3C
:10AB740001D1012300E0002303F00103DBB21846F6
:10AB840002B0704700B589B003460091ADF80630B5
:10AB940003AB00221A605A609A60DA601A610823D3
:10ABA4008DF80C30BDF80630ADF81030009B0593DD
:10ABB40003AB1846FFF77EFF00BF09B05DF804FB46
:10ABC40000B589B0354B00221A7001AB0822002170
:10ABD40018460AF0B9FA4FF6FF7001F045F803463B
:10ABE400ADF81E300CE0BDF81E30184600F08EFFA4
:10ABF400BDF81E30184601F037F80346ADF81E3094
:10AC0400BDF81E304FF6FF72934210D0BDF81E30CF
:10AC14001846FFF769FF0346184601AA03AB194615
:10AC240007F029F8034648F209629342DBD0BDF8E5
:10AC34001E304FF6FF7293422CD0BDF81E301846DA
:10AC4400FFF752FF0346ADF81C30BDF81C30184620
:10AC540006F0ACFF0690069B48F20762934203D1CC
:10AC64000E4B01221A7015E0069B002B12D00C4AE1
:10AC74000C4BD31ADB081B0443F00100BDF81E3053
:10AC8400069A094909F001FABDF81E3006991846DA
:10AC9400FFF778FF00BF09B05DF804FB34290020FA
:10ACA400B053030010530300785D030000B587B070
:10ACB40003460092ADF806300B468DF805309DF83A
:10ACC40005301846FFF735FF02AB0822002118466D
:10ACD4000AF03AFABDF806301846FFF705FF0346B6
:10ACE400ADF816309DF805301846FFF715FF0346FA
:10ACF400ADF8143002ABBDF81410BDF81600009A7C
:10AD040006F090FF0490049B002B01D0052300E083
:10AD14000023184607B05DF804FB00B58DB002921D
:10AD240001930346ADF80E300B468DF80D30BDF897
:10AD34000E30FF2B01D9072354E09DF80D3018463F
:10AD4400FFF7F7FE034683F00103DBB2002B01D0CB
:10AD5400072347E006AA9DF80D10BDF80E301846EB
:10AD6400FFF7A4FF0B900B9B002B01D0052339E0C8
:10AD740004AA06AB1146184606F06AFE0B900B9B1C
:10AD8400002B01D005232DE0029B9DF80D209A7025
:10AD9400049B5A88029B1A80019B002B03D1059ABD
:10ADA400029B5A6019E0029B1B889B000A93029B3A
:10ADB4001B889A00019B1B68934228BF1346099382
:10ADC400029B5B680599099A18460AF08BF9099A5F
:10ADD4000A9B9A4201D20C2304E006AB184606F003
:10ADE40075FE002318460DB05DF804FB08B5082273
:10ADF400002102480AF0A8F900BF08BD3829002044
:10AE040000B58DB00346029101928DF80F309DF884
:10AE14000F301846FFF78DFE034683F00103DBB2C3
:10AE2400002B01D0012338E09DF80F301846FFF7BE
:10AE340073FE0346ADF82E3007A9BDF82E30194A2B
:10AE4400184606F005FF0346002B01D0002324E03A
:10AE540005AA07AB1146184606F0FAFD0A900A9BAC
:10AE6400002B01D0002318E0019B9DF80F209A705D
:10AE7400059B5A88019B1A80069A019B5A60059B80
:10AE84009B881846FFF73CFE03461A46029B1A802D
:10AE940007AB184606F01AFE012318460DB05DF8FC
:10AEA40004FB00BF3829002000B58DB00346029191
:10AEB4000192ADF80E30BDF80E30FF2B01D90723F7
:10AEC4008AE0029B9B781846FFF733FE034683F023
:10AED4000103DBB2002B01D007237DE0BDF80E3067
:10AEE4001846FFF701FE0346ADF82030029B9B781D
:10AEF4001846FFF711FE0346ADF82230029B5B684B
:10AF04000993029B1B880A93029B997805AABDF8B2
:10AF14000E301846FFF7CAFE0B900B9B052B07D18A
:10AF240008AA05AB1146184606F01CFE0B9006E075
:10AF340008AA05AB1146184606F023FE0B900B9B9E
:10AF4400002B2BD00B9B48F20D62934236D80B9BFF
:10AF540048F20262934231D30B9BA3F50643023BB2
:10AF64000B2B2BD801A252F823F000BFBDAF020077
:10AF7400C1AF0200C1AF0200C1AF0200B9AF02000D
:10AF8400B5AF0200C1AF0200C1AF0200C1AF020001
:10AF9400C1AF0200C1AF0200B5AF0200019B002B9C
:10AFA40004D005AB0199184606F078FE002313E09F
:10AFB400112311E086230FE010230DE0084A094B0A
:10AFC400D31ADB081B0443F00100BDF80E300B9AC2
:10AFD400054909F05AF8032318460DB05DF804FB3F
:10AFE400B053030010530300485E030008B54FF646
:10AFF400FF7000F053FD0346184608BD00B583B04A
:10B004000346ADF80630BDF80630FF2B01D90723FF
:10B0140007E0BDF80630184600F052FDFFF7D0FDFA
:10B024000023184603B05DF804FB00B583B0034663
:10B03400ADF80630BDF80630184600F081FD034631
:10B04400184603B05DF804FB00B583B00346ADF8C1
:10B054000630BDF80630184600F0D2FD0346184607
:10B0640003B05DF804FB00B583B00346ADF80630C9
:10B07400BDF80630184600F0F7FD0346184603B045
:10B084005DF804FB82B00190019B4FF6FF721A80B9
:10B09400019BFF229A70019BFF225A72019A937AB4
:10B0A40023F002039372019A937A23F001039372BB
:10B0B400019B00221A72019B00225A6000BF02B059
:10B0C4007047000084B003460091ADF80630009B41
:10B0D4001B68039319E01049039A13465B00134459
:10B0E4009B000B441B88BDF806209A420AD1009BA2
:10B0F400039A1A60039A13465B0013449B00064AA2
:10B10400134406E0039B01330393039B032BE2D90F
:10B114000023184604B070475029002000B585B0BC
:10B1240003460A46ADF8063013468DF80530002371
:10B13400029302AABDF8063011461846FFF7C2FF73
:10B1440003900AE0029B0133029302AABDF8063081
:10B1540011461846FFF7B6FF0390039B002B17D048
:10B16400039B9B789DF805209A42EBD1039B9B7A25
:10B1740003F00203DBB2002BE4D1039B9B7A03F0C0
:10B184000103DBB2002BDDD1039B5B68002BD9D11B
:10B19400039B184605B05DF804FB000084B00190E1
:10B1A4000023039316E00F49039A13465B001344EC
:10B1B4009B000B4404331B68019A9A4207D1039AFB
:10B1C40013465B0013449B00064A134406E0039BAA
:10B1D40001330393039B032BE5DD0023184604B0DE
:10B1E400704700BF5029002008B5FF214FF6FF70BB
:10B1F400FFF794FF0346184608BD000000B585B06C
:10B204000190002303930CE0019B5A7A039BDBB269
:10B214001344DBB21946094801F0AAF8039B013331
:10B224000393019B1B7A1A46039B9342ECD3019828
:10B23400FFF728FF00BF05B05DF804FB402900209C
:10B2440000B583B001900B46ADF8023013468DF87B
:10B254000130019B002B13D0FFF7C6FF0246019B70
:10B264001A60019B1B68002B0CD0019B1B68BDF866
:10B2740002201A80019B1B689DF801209A7002E04D
:10B2840000BF00E000BF03B05DF804FB00B585B06B
:10B2940001900023039308E0084A039B52F82330EB
:10B2A40001989847039B01330393039B032BF3D922
:10B2B40000BF00BF05B05DF804FB00BF18610300C8
:10B2C40086B0039001921A460B468DF80B30134654
:10B2D400ADF80830BDF808301A46920013441B013B
:10B2E400ADF81630039B9DF80B209A70039B019ACE
:10B2F4005A60BDF8163003339B109AB2039B1A8030
:10B3040000BF06B0704700B585B00390019200936A
:10B314000B468DF80B30009B9BB29DF80B10019AE5
:10B324000398FFF7CDFF00BF05B05DF804FB0000F4
:10B3340082B00190019B9B78013B072B27D801A287
:10B3440052F823F071B3020093B3020093B30200E6
:10B3540093B3020093B3020079B3020069B302000D
:10B3640081B30200019B14221A8011E0019B012287
:10B374001A800DE0019B01221A8009E0019B5B68A1
:10B384009B8809339B089AB2019B1A8000E000BF96
:10B3940000BF02B0704700BF10B586B00190002313
:10B3A400059302AB00221A605A60019B9B788DF8CA
:10B3B4000A30019B5B7A1946404800F0A8FF0490CC
:10B3C400049B002B0ED13E4A3E4BD31ADB081B04D0
:10B3D40043F00100019B5B7A1A463B4908F044FEA6
:10B3E400032367E0019B9978019B1B7A02A8049AC6
:10B3F400FFF789FF02AB1846FFF79AFF019B1888F5
:10B40400019B1A1D02AB1946FFF74EFD0590059BE3
:10B41400862B2AD0059B862B35D8059B112B14D05F
:10B42400059B112B2FD8059B002B03D0059B072BC5
:10B434003ED028E0019A937A23F002039372019A92
:10B44400937A23F00103937233E0019A937A43F0E1
:10B4540002039372019A937A23F0010393721B4BB4
:10B4640001221A700023059323E0019A937A23F0B2
:10B4740002039372019A937A43F001039372134B7C
:10B4840001221A7015E00E4A0E4BD31ADB081B0476
:10B4940043F00104059808F015F903461A46019B88
:10B4A4001B880B49204608F0F0FD0323059300E0B8
:10B4B40000BF059B184606B010BD00BF4029002000
:10B4C400A853030010530300085F030080290020E1
:10B4D400485F030010B588B001900198FFF75CFF46
:10B4E4000790079B002B2BD04FF6FF73ADF80A3063
:10B4F400019B1B88ADF80C30079B862B03D10723D7
:10B504008DF8083016E008238DF80830079B049363
:10B514000D4A0E4BD31ADB081B0443F001040798B1
:10B5240008F0D0F803461A46019B1B8808492046B8
:10B5340008F0ABFD02AB1846FFF7A8FE002300E0BD
:10B544000123184608B010BDA8530300105303008C
:10B55400785F030000B585B003468DF807302D4BA6
:10B564001B7883F00103DBB2002B4DD1294B002261
:10B574001A700023039343E02749039A13465B00A0
:10B5840013449B000B4408339B78C3F34003DBB2A2
:10B59400002B0DD12049039A13465B0013449B00F2
:10B5A4000B4408339B78C3F30003DBB2002B24D095
:10B5B400184B01221A701849039A13465B0013446E
:10B5C4009B000B4408339B78C3F34003DBB2002B8E
:10B5D40003D19DF80730002B0FD0039A13465B006C
:10B5E40013449B000C4A13441846FFF773FF0346A9
:10B5F40083F00103DBB2002B08D1039B01330393D7
:10B60400039B032BB8D902E000BF00E000BF05B0E4
:10B614005DF804FB802900205029002000B585B086
:10B62400019001238DF80F3000238DF80E30019B1B
:10B63400DB681846FFF7B2FD0290019B1B78142BC0
:10B6440027D0142B29DC092B02D00A2B0BD024E0A1
:10B65400019B5B7A002B22D1029B002B1FD0029806
:10B66400FFF7CCFD1BE0019B5B7A002B19D1029BF9
:10B67400002B16D0029B00225A60029A937A43F060
:10B68400020393720F4B01221A7000238DF80F30BE
:10B6940007E001238DF80E3004E000BF02E000BF94
:10B6A40000E000BF9DF80F30002B02D00198FFF797
:10B6B400EDFD9DF80E301846FFF74CFF00BF05B0B6
:10B6C4005DF804FB8029002030B589B00346ADF84D
:10B6D4000E300023059305AABDF80E301146184616
:10B6E400FFF7F0FC079032E0079B9A78BDF80E3024
:10B6F4001146184600F010F90690069B002B1BD04B
:10B70400069B052B18D0254A254BD31ADB081B04AE
:10B7140043F00104069807F0D5FF03461946BDF827
:10B724000E20079B9B78009313460A461D4920462A
:10B7340008F0BFFC03232EE0059B0133059305AA03
:10B74400BDF80E3011461846FFF7BCFC0790079B66
:10B75400002BC9D1BDF80E301846FFF74FFC0690F8
:10B76400069B002B02D0069B072B01D1069B12E0FF
:10B774000A4A0B4BD31ADB081B0443F00104BDF83F
:10B784000E50069807F09EFF03462A4606492046B7
:10B7940008F07BFC0323184609B030BDA85303000E
:10B7A40010530300F85F03005060030000B583B03A
:10B7B40003460092ADF806300B468DF805309DF82F
:10B7C4000510BDF806000023009AFFF7A6FA034609
:10B7D400184603B05DF804FB10B588B002920193DB
:10B7E4000346ADF80E300B468DF80D30019B002B4F
:10B7F40001D10E2385E09DF80D30072B05D09DF86F
:10B804000D30082B01D007237BE0029B002B02D0D4
:10B81400029B042B01D9072373E000238DF81F300A
:10B824009DF80D20BDF80E3011461846FFF776FC42
:10B8340003460593059B002B0CD19DF80D20BDF804
:10B844000E1005AB1846FFF7FBFC059B002B09D136
:10B85400112356E0059B1B7A1A46029B934201D0A2
:10B864000F234EE0059B5B7AFF2B13D1059C0299B5
:10B87400254800F0E8FC03466372059B5B7AFF2BC6
:10B8840005D1059B1846FFF7FDFB112339E0012381
:10B894008DF81F30059B029AD2B21A72059B5B7A0F
:10B8A4001946194800F033FD0690069B002B0ED173
:10B8B400164A174BD31ADB081B0443F00100059BFF
:10B8C4005B7A1A46134908F0CFFB032319E0029B65
:10B8D4009BB29DF80D10069A0198FFF7F1FC9DF8B4
:10B8E4001F30002B0CD09DF80D30082B08D1019B84
:10B8F4001B889B009AB2019B5B68063A92B29A80BD
:10B904000023184608B010BD40290020A8530300A6
:10B9140010530300A460030000B585B003460A4633
:10B92400ADF8063013468DF805309DF80520BDF8B6
:10B93400063011461846FFF7F1FB0390039B002BDA
:10B9440001D1052303E00398FFF758FC00231846B0
:10B9540005B05DF804FB00B585B00346ADF80630CC
:10B964000B468DF805301346ADF802309DF80530CE
:10B97400072B05D09DF80530082B01D0072326E0BE
:10B98400BDF802301846FFF750FB034683F001036D
:10B99400DBB2002B01D0072319E09DF80520BDF888
:10B9A400063011461846FFF7B9FB0390039B002BA2
:10B9B40001D105230BE0039BBDF802201A80039BF1
:10B9C4009DF805209A700398FFF7E6FC0346184695
:10B9D40005B05DF804FB00B585B003460091ADF8F1
:10B9E40006304FF6FF73ADF80E30BDF806304FF653
:10B9F400FF72934211D14FF48071009806F0B4FAAB
:10BA04000346ADF80E30BDF80E30B3F5807F2AD171
:10BA14004FF6FF73ADF80E3025E0BDF80630FF2B6E
:10BA240021D8BDF806301946009806F048FA0346B6
:10BA3400002B14BF01230023DBB283F00103DBB22C
:10BA44008DF80D309DF80D3003F001038DF80D30A5
:10BA54009DF80D30002B02D0BDF8063001E04FF602
:10BA6400FF73ADF80E30BDF80E30184605B05DF822
:10BA740004FB00B583B003460091ADF80630BDF871
:10BA84000630FF2B05D8BDF806301946009806F09D
:10BA94003AFA00BF03B05DF804FB000000B583B0C0
:10BAA4000346ADF80630BDF8063004491846FFF7E2
:10BAB40092FF0346184603B05DF804FB8429002076
:10BAC40000B585B00346ADF80630BDF806304FF634
