:020000022000DC
:1060000000000120896302007163020073630200D3
:1060100075630200776302007963020000000000EC
:106020000000000000000000000000007B63020090
:106030007D630200000000007F63020081630200B4
:106040008DBC02008363020025C20200836302004C
:10605000836302008363020021C1020083630200A4
:106060008363020083630200836302008363020090
:106070008363020083630200836302008363020080
:1060800083630200157B02008363020083630200C6
:1060900083630200836302001D35030083630200F3
:1060A0008363020083630200836302008363020050
:1060B0008363020083630200000000000000000010
:1060C0008363020083630200836302008363020030
:1060D0008363020083630200836302000000000008
:1060E00000000000000000000000000000000000B0
:1060F00000000000000000000000000000000000A0
:10610000000000000000000000000000000000008F
:10611000000000000000000000000000000000007F
:10612000000000000000000000000000000000006F
:10613000000000000000000000000000000000005F
:10614000000000000000000000000000000000004F
:10615000000000000000000000000000000000003F
:10616000000000000000000000000000000000002F
:10617000000000000000000000000000000000001F
:10618000000000000000000000000000000000000F
:1061900000000000000000000000000000000000FF
:1061A00000000000000000000000000000000000EF
:1061B00000000000000000000000000000000000DF
:1061C00000000000000000000000000000000000CF
:1061D00000000000000000000000000000000000BF
:1061E00000000000000000000000000000000000AF
:1061F000000000000000000000000000000000009F
:106200003A493B480A1A02D0072291438D46394940
:1062100039480A1A06D00722914381F309880222DD
:1062200082F3148835483649364A00F041F836483A
:106230003649374A00F03CF836483749374A00F0CB
:1062400037F837483749384A00F032F83748384984
:10625000384A00F02DF838483849394A00F028F813
:1062600038483949394A00F023F839483949002279
:1062700000F036F838483949002200F031F8384843
:106280003849091A0DF008FA374A90472548264937
:10629000884205D00268043003B4904703BCF7E796
:1062A00000208646EC4600200021304A9047FEE759
:1062B000884214D0521A12D003460B4313430324CE
:1062C000234206D1036804300B600431043AF9D14B
:1062D0007047037801300B700131013AF9D17047F2
:1062E000884202D002700130FAE7704700000120B6
:1062F00000E0002000000120000001202C6F0300BE
:1063000064220020F0220020E4630200E463020023
:10631000C23803002C6F0300642200206422002096
:106320001C3A03001C3A03001C3A03001C3A030009
:106330001C3A03001C3A03001C3A03001C3A0300F9
:10634000296F0300B86F0300F0220020F022002024
:10635000F0220020C02C0020C02C0020C02C0020E7
:10636000C02C0020C04C0020B163020041DE0200BE
:10637000FEE7FEE7FEE7FEE7FEE7FEE7FEE7FEE7F5
:10638000FEE7FEE700F002B8FFF7FCBF0F484FF052
:106390000701884385460E4880470E48016841F44E
:1063A00070010160BFF34F8FBFF36F8FFFF728BFFE
:1063B00009480A490A4A884207D0521A05D0037888
:1063C00001300B700131013AF9D170470000012012
:1063D00095B2020088ED00E0083A03005022002048
:0463E0006422002013
:1063E40000B5A1B00590049103920293049804F0BF
:1063F4002EFA039B1593029B1693002317930023F5
:106404008DF8603000231993229B1A9300231F9365
:106414000FA91F9B0822049804F0F2FA08231F9383
:10642400119B1293BDF84030ADF84C30BDF84230AA
:10643400ADF84E3000238DF851309DF83C3003F018
:106444000303DBB2012B26D10F9BC3F395231C93CB
:106454009DF83C30C3F3C203DBB28DF85030BDF875
:106464003C30C3F38313DBB21B931B9B9A0009A933
:106474001F9B049804F0C4FA1B9B9B001F9A1344AF
:106484001F9312AA09A915AB009313461B9A1C98D3
:1064940000F016FF2FE09DF83C3003F00303DBB25D
:1064A400022B28D1BDF83E30C3F389139BB21E934F
:1064B4009DF83C30C3F3C203DBB28DF850301E9B11
:1064C400082B28BF08231D9307A91F9B1D9A049816
:1064D40004F096FA1F9A1D9B13441F931E9A1D9B4A
:1064E400D31A1E9315AB12AA07A81D9900F08AFFB0
:1064F4001E9B002BE3D1049804F0B8F900BF21B02F
:106504005DF804FB00B583B00190019B1B781A462B
:106514000C4B9B5C002B05D0019B0433184607F001
:106524004BF90BE0019B1B781A46064B9B5C002B36
:1065340004D1019B0C33184606F0D0FA00BF03B017
:106544005DF804FB5829002000B587B00390029140
:1065540013468DF8073000230593039B1B781A46D6
:10656400114B9B5C002B09D0039B04339DF807203F
:106574000299184607F082F905900FE0039B1B78F7
:106584001A46094B9B5C002B08D1039B0C339DF8E6
:1065940007200299184606F019FB0590059B18463A
:1065A40007B05DF804FB00BF5829002082B00190B9
:1065B4000091034B01221A7000BF02B0704700BF64
:1065C4003023002030B58DB003468DF807301A4BC8
:1065D40002AC1D460FCD0FC495E80F0084E80F00F0
:1065E400062302934FF0FF3303934FF0FF330493DA
:1065F4004FF0FF3305934FF0EB7308939DF807308A
:10660400002B01D00D4A00E0002202AB19460C48D1
:1066140005F056F90B900B9B0A930A9B002B04D0B0
:10662400084A43210A9800F0B1FF074A9DF8073051
:10663400137000BF0DB030BD643A0300B1650200B1
:10664400642200201C3A03003123002000B589B0E5
:10665400039002910192019B8DF81F30124B00228E
:106664001A709DF81F301A4602991048FFF76CFF04
:106674000690069B0593059B002B04D00C4A5321DE
:10668400059800F083FF00BF0A4B1B78002B07D04E
:10669400054B1B78DBB283F00103DBB2002BF3D193
:1066A40000BF09B05DF804FB302300206422002001
:1066B4001C3A03003123002000B585B003900291F9
:1066C400054B00934023054A02990398FFF788FE7F
:1066D40000BF05B05DF804FB51660200F022002003
:1066E40082B0019000BF02B07047000000B583B0D3
:1066F40001900548FFF706FF0020FFF763FF00BF86
:1067040003B05DF804FB00BF6422002000B583B031
:1067140001900091019B1B681B68009901989847A0
:1067240000BF03B05DF804FB00B583B00190019B8A
:106734001B685B680198984700BF03B05DF804FBD1
:1067440000B583B00190019B1B689B680198984732
:1067540000BF03B05DF804FB82B00190019BDB68CD
:1067640001225A7100BF02B0704782B00190019BB0
:10677400DB685B79184602B070470000024A034B9D
:10678400D31ADB0818467047F83903003039030080
:1067940000B587B001900B468DF803309DF80330A7
:1067A400002B1FD0FFF7EAFF04900023059313E0AA
:1067B400059B9B000E4A13440393039B1B881A46B4
:1067C400019B1B689A4204D1019B059A1A6000231D
:1067D40009E0059B01330593059A049B9A42E7D38C
:1067E400052300E00023184607B05DF804FB00BF52
:1067F4006422002000B585B001900B468DF803306B
:106804009DF8032001AB11461846FFF7C1FF03466C
:10681400002B07D1019BDB00054A13440393039B20
:106824001B6800E00023184605B05DF804FB00BFB8
:106834003039030084B001900B468DF80330019B7E
:10684400DB00174A134402939DF80330013B032BEA
:106854001CD801A252F823F06D680200756802008A
:106864007D6802008768020002238DF80F3011E072
:1068740004238DF80F300DE0029B1B798DF80F3047
:1068840008E0029B5B798DF80F3003E000238DF85C
:106894000F3000BF9DF80F30184604B0704700BF9A
:1068A4003039030084B00190009100238DF80F303B
:1068B400019B1B7803F00403DBB2002B24D0019B63
:1068C4001B78C3F30103DBB2012B02D0022B0CD0E3
:1068D40017E0009B1B68019A1288C2F38312D2B29C
:1068E40013449A1C009B1A600BE0009B1B68019ADE
:1068F4005288C2F3891292B213449A1C009B1A6004
:1069040000BF01238DF80F309DF80F30184604B0F6
:106914007047000000B58BB00023ADF826303E4828
:1069240002F0CCFE3D4802F0C9FE3D4B9B68049347
:106934003C4B1B680693049A069B134002339B004E
:10694400374A13440433089304AB19460898FFF7F5
:10695400A9FF0346002B09D0049A069B1340023377
:106964009B002F4A134404330893EDE700BF002330
:10697400079311E0049B5A1C0492069A1340079A49
:10698400920001A90A44264902339B000B445B6828
:106994001360079B01330793079B012BEAD99DF8EA
:1069A4000430C3F30103DBB2012B10D0022B1CD142
:1069B400BDF80A30ADF82630BDF80630C3F38913AC
:1069C4009BB203339A08049B1344049313E0BDF869
:1069D4000A30ADF82630BDF80430C3F38313DBB2BC
:1069E4001A46049B1344049305E00F494FF4C27004
:1069F40002F0F4FB00BF094802F06CFE0590059B11
:106A0400002B02D0049B064A9360BDF8263018463A
:106A14000BB05DF804FB00BF1C28002018280020E0
:106A24000424002080220020F43A030000B585B03D
:106A34000021074802F083FD0390039B0293029B0D
:106A440083F310030193019B184605B05DF804FB22
:106A54002028002000B589B0039002910192009390
:106A6400039B1B0C0793FFF7E1FF0690FFF786FEDD
:106A74000246079B934204D3214940F2A91002F035
:106A8400ADFB069B1904009B5A1C0A9B1340079AF2
:106A94000A431C4902339B000B445A60009A0A9B28
:106AA400134002339B00174A134404330593039B9A
:106AB40003F00703D9B2059A137861F3C503137081
:106AC400019B03F00F03D9B2059A138861F389136C
:106AD4001380029BC3F31501059A136861F39F2386
:106AE4001360059A1378012161F301031370059A69
:106AF400137823F00403137000BF09B05DF804FB9E
:106B0400F43A03000424002000BF704700B58DB0A0
:106B14000390029113468DF80730039B02330A93C6
:106B240001238DF8273000238DF81B300DF11B0352
:106B3400184600F061FF404B5A68029B1A603F4BB5
:106B44001A683D4B99683C4B5B68CB1A134401337C
:106B54000B9314E001213A4802F080FDFFF7DAFEBE
:106B640007900799364802F079FD344B1A68324B86
:106B74009968314B5B68CB1A134401330B930A9A1F
:106B84000B9B9A42E6D89DF82730002B48D000236F
:106B940005939DF80730002B17D09DF8143001227F
:106BA40062F301038DF814309DF8143043F00403AC
:106BB4008DF81430039B03F00F03DAB2BDF81430E0
:106BC40062F38913ADF8143016E09DF814300222F4
:106BD40062F301038DF814309DF8143043F004037C
:106BE4008DF81430039BC3F309039AB2BDF8163031
:106BF40062F38F13ADF816300F4B5A680F4B1B68B6
:106C0400134002339B000C4A134404330893059A3F
:106C1400089B1A60084B5A680A9B1344064A53603F
:106C24009DF81B30184600F0FDFE9DF827301846ED
:106C34000DB05DF804FB00BF042400208022002076
:106C44002028002000B58BB0059004910392029394
:106C54001F4B1B68079306AB012219460298FFF7E6
:106C640055FF0346002B24D0069B023309930023CF
:106C7400089311E0089B9B00039A1A44099B591C32
:106C8400099107990B401268124902339B000B4487
:106C94005A60089B01330893089A029B9A42E9D3ED
:106CA400069A079B00931346029A04990598FFF7E6
:106CB400D1FE084B1B78002B04D000F07FF803466C
:106CC400002BFAD1FFF720FF00BF0BB05DF804FBE7
:106CD400802200200424002000B583B0019000919C
:106CE4000023002200990198FFF7ACFF00BF03B016
:106CF4005DF804FB00B587B0039002910192019BFB
:106D0400059305AA012302990398FFF79BFF00BF8F
:106D140007B05DF804FB00B587B0039002910192BF
:106D24000093019B0493009B059304AA02230299F8
:106D34000398FFF787FF00BF07B05DF804FB00B5B9
:106D440089B00390029101920093019B0593009BEB
:106D540006930A9B079305AA032302990398FFF756
:106D640071FF00BF09B05DF804FB00B58BB0039060
:106D7400029101920093019B0593009B06930C9B47
:106D840007930D9B08930E9B099305AA052302996B
:106D94000398FFF757FF00BF0BB05DF804FB00003A
:106DA400054B9A68044B5B689A420CBF012300238D
:106DB400DBB21846704700BF0424002000B599B028
:106DC400FFF7EEFF0346002B01D00023C0E19B4BED
:106DD4000022C3F81824BFF34F8F00BF974B9B6862
:106DE4000493974B1B681093049A109B134002332F
:106DF4009B00924A134404331193002317930023F6
:106E0400169300230F9304AB19461198FFF74AFD1C
:106E14000346002B19D0894BD3F81834002B14D116
:106E2400864B5A68049B9A4205D8844B5B68834A14
:106E3400936000238CE1049A109B134002339B005F
:106E44007E4A134404331193DDE70023159311E0C4
:106E5400049B5A1C0492109A1340159A920001A99B
:106E64000A44764902339B000B445B681360159B0C
:106E740001331593159B012BEAD99DF8043003F0D7
:106E84000303DBB2022B40F09C80BDF80630C3F351
:106E940089139BB20D93BDF80630C3F389139BB2DB
:106EA400502B28BF50239BB20C930C9BC3F30903B4
:106EB4009AB2BDF8063062F38F13ADF806300C9B1E
:106EC40008330B939DF80430C3F3C203DBB20F9372
:106ED4000B995C4803F02AFC1790179B002B00F0D9
:106EE400D380179803F0B3FC01A9169B08221798C6
:106EF40003F068FD169B08331693049BDA43109B3A
:106F0400134001339B000A930C9A0A9B9A4242D97C
:106F14000A9B002B08D0049A109B134002339B0059
:106F2400464A1344043300E0474B08930A9B002B62
:106F340002D00A9BDBB201E00C9BDBB28DF81F3060
:106F44000A9B002B01D0404B00E0002306930A9BD0
:106F5400002B06D00C9BDAB20A9BDBB2D31ADBB24D
:106F640000E000238DF817309DF81F20169B089928
:106F7400179803F027FD9DF81F30169A13441693B3
:106F8400069B002B16D09DF81720169B0699179880
:106F940003F018FD0EE0049A109B134002339B008B
:106FA400264A134404330993169B0C9A099917989B
:106FB40003F008FD0D9B03339A08049B13440493C8
:106FC40062E09DF8043003F00303DBB2012B5BD1D4
:106FD400BDF80430C3F38313DBB2062B28BF0623AA
:106FE400DAB2BDF8043062F38913ADF80430BDF8A9
:106FF4000430C3F38313DBB202330E939DF80430E1
:10700400C3F3C203DBB20F930E9B9B0019460D48DA
:1070140003F08CFB1790179B002B35D0179803F0C7
:1070240016FC01A9169B0822179803F0CBFC169BAB
:1070340008331693002315931DE000BF0424002099
:10704400802200201C39030010240020049B5A1CB9
:107054000492109A134002339B003F4A1344191DB3
:10706400169B0422179803F0ADFC169B0433169369
:10707400159B01331593BDF80430C3F38313DBB2BE
:107084001A46159B9342E1D3179B002B40D0324BF9
:10709400D3F810341493304BD3F81834002B1BD08E
:1070A400179803F0E3FB4DE000238DF84F3014985C
:1070B400FFF75BFB0346002B02D001238DF84F3012
:1070C4009DF84F30002B03D017991498FFF71EFB3F
:1070D400149BDB681B681493149B002BE4D1179852
:1070E40003F0C4FB00238DF803300DF103031846AD
:1070F40000F082FC184BD3F81834002B02D1049B07
:10710400154A93609DF80330184600F08BFC19E093
:10711400114BD3F81034129306E01298FFF710FBCA
:10712400129BDB681B681293129B002BF5D10B4A50
:107134000B4BD31ADB081B0443F00203094918461E
:10714400FFF7CAFDFFF72CFE034683F00103DBB211
:10715400184619B05DF804FB0424002058390300D4
:1071640030390300383B030000B583B00C4BD3F82F
:10717400103401930A4B01221A7009E00198FFF7B9
:10718400EBFA0198FFF7D0FA019BDB681B680193C7
:10719400019B002BF2D100BF00BF03B05DF804FBDC
:1071A4000424002082B00190009100BF02B0704717
:1071B40010B584B003900291039BDB88002B0AD0A6
:1071C400039BDB881A461F4B009313461E4A1F4934
:1071D400029802F05FFB039B1B7A052B2ED0039BC6
:1071E4005B7A002B12D0039B9B881A46039B1B7A65
:1071F40019461046FFF71EFB03461A46144B53F874
:1072040022301A461349029802F044FB039B1B6880
:1072140019460298FFF7C6FF039B1B7A1A460E4BCA
:1072240053F82240039B9B8800211846FFF7E2FA9B
:10723400034622460949029802F02CFB00BF04B021
:1072440010BD00BF6C3B03007C3B0300B43B030058
:1072540098220020CC3B030084220020D03B030072
:1072640000B585B00390029113468DF80730039B57
:107274001B7A052B0FD0039B5B7A002B06D00D4B9A
:107284001B681A460C49029802F004FB0B49029849
:1072940002F000FB07E09DF80730002B03D00749FC
:1072A400029802F0F7FA029802F0D2FA00BF05B091
:1072B4005DF804FB98220020CC3B0300DC3B030078
:1072C40030B58BB007900691059204930E9B1B7BFF
:1072D4008DF827300E9B00221A730E990498FFF73D
:1072E40067FF059B062B7FD801A252F823F000BF4D
:1072F400117302001B7302002B7302003F73020020
:107304005D73020085730200B573020007990E983D
:1073140002F0C0FA69E0069B1B681A4607990E98AA
:1073240002F0B8FA61E0069B1A68069B04331B68F6
:1073340007990E9802F0AEFA57E0069B1A68069B6E
:1073440004331968069B08331B6800930B4607999E
:107354000E9802F09FFA48E0069B1968069B0433D6
:107364001868069B08331B68069A0C32126801924F
:10737400009303460A4607990E9802F08BFA34E00C
:10738400069B1868069B04331C68069B08331B681D
:10739400069A0C321268069910310968029101921A
:1073A40000932346024607990E9802F073FA1CE0F4
:1073B400069B1C68069B04331D68069B08331B68E8
:1073C400069A0C321268069910310968069814302E
:1073D400006803900291019200932B46224607997C
:1073E4000E9802F057FA00E000BF00220E990498AC
:1073F400FFF736FF0E9B9DF827201A7300BF0BB0D2
:1074040030BD00BF00B587B0039002910192009394
:10741400029B082B60D8009B1B7B8DF81330009BCC
:1074240000221A7300990198FFF7C2FE0023059306
:1074340014E0059A029B9A4209D2039A059B1344CD
:107444001B781A462649009802F024FA03E02549DD
:10745400009802F01FFA059B01330593059B072B47
:10746400E7D92149009802F015FA0023059326E094
:10747400059A029B9A421BD2039A059B13441B78DC
:107484008DF812309DF812307E2B0AD89DF81230F8
:1074940018460CF0CAF90346002B02D09DF81230AE
:1074A40000E02E231A461149009802F0F3F903E094
:1074B4000F49009802F0EEF9059B01330593059BF3
:1074C400072BD5D9012200990198FFF7C9FE009B2B
:1074D4009DF813201A7300E000BF07B05DF804FBA9
:1074E400E03B0300E83B0300EC3B0300F03B0300FC
:1074F400F43B030086B003900291019201238DF8BE
:1075040017309DF81730204A039B13601E4A029BD4
:1075140053601D4A019B9360039B44F20102934212
:1075240012D0039B44F20202934220D1019B164ADB
:10753400D360154BDB681B68134A9361124BDB68FD
:107544005B68114AD36112E0019B0F4A13610E4B31
:107554001B699B680C4A53610B4B1B691B680A4AE5
:107564009361094B1B695B68074AD36100BF72B61C
:1075740000BF00BF9DF81730DBB2002BFAD162B612
:1075840000BF00BF06B070472428002000B583B0B8
:1075940002900091019244F2010071466A4600F0A3
:1075A40003F803B000BD00BF30B58BB0079006915F
:1075B400059272B600BFFFF7D7FDFFF7FFFB034646
:1075C400002BFAD1079B44F2020293422FD0079B6F
:1075D40044F20202934269D8079B44F201029342A7
:1075E40037D0079B44F2010293425FD8079B012BDB
:1075F40005D0079B41F2010293420CD056E0394A70
:10760400394BD31ADB081B0443F0010337491846EE
:10761400FFF762FB57E0334A334BD31ADB081B04F2
:1076240043F0010332491846FFF756FB4BE0059B34
:1076340009932C4A2C4BD31ADB081B0443F001009A
:10764400099B5B681A46099B1B682A49FFF763FB81
:1076540039E0059B0893234A234BD31ADB081B0408
:1076640043F00104089B9D68089B9B68184603F03F
:10767400B5FA03461846089B5B681946089B1B68C5
:10768400069A02920193009103462A461A4920461B
:10769400FFF76BFB134A144BD31ADB081B0443F0AC
:1076A400010316491846FFF717FB0CE00D4A0E4B71
:1076B400D31ADB081B0443F00103069A1049184649
:1076C400FFF718FB00BF0F4B1B6803F00103002BEF
:1076D40000D000BE059A06990798FFF70BFF00BF7C
:1076E4000BB030BD5839030030390300403C03006F
:1076F400603C0300843C0300A03C0300C83C03003E
:10770400DC3C0300F0ED00E02DE9F04383B01448C5
:1077140000F0E4F9034600221C461546114BD3E958
:10772400002314EB020845EB0309CDE900890E4B55
:10773400D3E90023DDE90001904271EB030307D292
:10774400DDE9002312F1807643F10007CDE90067FB
:10775400DDE900231046194603B0BDE8F08300BFFD
:10776400BC220020482800205028002008B50248E8
:1077740000F0C1F900BF08BDBC22002000B585B0EF
:10778400034600918DF80730114A02AB19461046A2
:1077940001F0AFFD0390039B002B13D0039B9DF8D6
:1077A40007201A70039B009A5A60094A02AB1946D3
:1077B400104601F0B7FD0346002B01D0FFF7D6FFBA
:1077C400002300E00423184605B05DF804FB00BF65
:1077D40058280020F0B589B0039002910192039BD0
:1077E400002B04D1264940F26B2001F0F7FC039BE7
:1077F400069300238DF817300DF11703184600F097
:10780400FBF8069BD3E90223B3F1FF3F08BFB2F1B3
:10781400FF3F11D1FFF778FF02460B460299002083
:107824000C460546161943EB0507069BC3E9026798
:1078340001238DF81F3002E000238DF81F309DF8DE
:107844001730184600F0EEF89DF81F3083F001035E
:10785400DBB2002B01D000230EE0069B019A9A6153
:10786400069B1B69002B02D0069B029A1A6106999B
:107874000020FFF783FF0346184609B0F0BD00BFA0
:10788400003D030000B587B00190019B002B04D19B
:107894001E4940F2932001F0A1FC019B04930023B4
:1078A4008DF80F300DF10F03184600F0A5F8049B76
:1078B400D3E90223B3F1FF3F08BFB2F1FF3F03D185
:1078C40000238DF8173009E004994FF0FF324FF090
:1078D400FF33C1E9022301238DF817309DF80F30DF
:1078E400184600F09FF89DF8173083F00103DBB2CF
:1078F400002B01D0002304E004990120FFF73EFF90
:107904000346184607B05DF804FB00BF003D0300C2
:1079140082B0EFF310830093009B019372B600BF13
:10792400019B184602B0704762B600BF00BF7047A3
:1079340000B585B00190FFF7EBFF0390164B9B68F1
:10794400002B1BD1144B01229A60144BD3F88020D6
:10795400134B1340104A1360104B114AC3F8802094
:107964000E4BD3F884300C4A53600C4B4FF0FF326B
:10797400C3F88420019B00221A7002E0019B0122BB
:107984001A70039B002B01D1FFF7CEFF002318468A
:1079940005B05DF804FB00BF6828002000E100E0AA
:1079A400FC06FFBD00B585B003468DF80730104BCB
:1079B4009B68002B16D09DF80730002B12D1FFF7DF
:1079C400A7FF03900B4A0A4B1B681360094A084B34
:1079D4005B685360064B00229A60039B002B01D125
:1079E400FFF7A2FF0023184605B05DF804FB00BFB3
:1079F4006828002000E100E000B583B0019000F0A9
:107A04002BF80346012B03D00549432001F0E6FB84
:107A14000198FFF78DFF00BF03B05DF804FB00BFC2
:107A2400403D030000B583B003468DF8073000F0F5
:107A340013F80346012B03D00649512001F0CEFB75
:107A44009DF807301846FFF7ADFF00BF03B05DF89F
:107A540004FB00BF403D030084B0EFF305830193B2
:107A6400019BC3F308030393039B002B0DD1EFF396
:107A740014830093009B0293029B03F00103002BE9
:107A84000CBF01230023DBB200E00123184604B03D
:107A94007047000082B003468DF807309DF9073027
:107AA400002B0DDB9DF8073003F01F0206499DF9FA
:107AB40007305B09012000FA02F2403341F8232029
:107AC40000BF02B0704700BF00E100E082B0019047
:107AD400019BD3F80435184602B0704700B583B053
:107AE4000190019B1B681846FFF7F0FF03461846F8
:107AF40003B05DF804FB00B583B00190019B93F9DA
:107B040004301846FFF7C6FF00BF03B05DF804FB5E
:107B140008B5044B1B68044A12681046984700BF16
:107B240008BD00BF742800207828002082B001908E
:107B3400019B03F00303002B0CBF01230023DBB2E2
:107B4400184602B07047000000B585B001900023CC
:107B540003930EE00B4A039B52F82330002B05D00D
:107B6400084A039B52F8233001989847039B01333A
:107B74000393039B032BEDD900BF00BF05B05DF851
:107B840004FB00BF8C28002082B001900091019B6F
:107B94001B78013B052B61D801A252F823F000BFEA
:107BA400BD7B0200C57B0200EB7B02001D7C020052
:107BB4003D7C0200597C0200009B00221A704EE0BA
:107BC400009B01221A70019B1A89009B9A81019BD8
:107BD4009A88009BDA81019BDA68009B9A60009B7B
:107BE40000221A743BE0009B02221A70019B1A893E
:107BF400009B9A81019B9A88009BDA81019BDA6839
:107C0400009B9A60019B9B7D062B0CBF01230023E4
:107C1400DAB2009B1A7422E0009B03221A70019BC3
:107C2400DA88009B9A81019B1A89009BDA81019B67
:107C3400DA68009B9A6012E0009B04221A70019B90
:107C4400DA88009B9A81009B0022DA81009B002243
:107C54009A6004E0009B05221A7000E000BF00BF98
:107C640002B0704784B001900091019B0393039A82
:107C7400009B9A4206D2039B1B68B3F1FF3F01D0DD
:107C8400012300E0002303F00103DBB2184604B033
:107C9400704782B00190019B5B8803339B00019A7B
:107CA4001344184602B0704700B583B001900091A8
:107CB4000198FFF7EEFF0246009B934201D2022394
:107CC40011E0019B9B884FF6FF72934208D0019B01
:107CD4001B88002B04D0019B9B68B3F1FF3F01D1AB
:107CE400012300E00023184603B05DF804FB000004
:107CF40000B583B00190019B002B13D00D4BDB68C2
:107D04001A46019B93420DD30A4B1B691A46019BE9
:107D1400934207D80198FFF709FF0346002B01D0CF
:107D2400012300E0002303F00103DBB2184603B093
:107D34005DF804FB5022002082B003460A46ADF8E9
:107D440006301346ADF80430BDF806201349134637
:107D54009B0013449B000B4408331A88BDF804307D
:107D64001344ADF80430BDF806200C4913469B00BB
:107D740013449B000B440A331A88BDF8043013449F
:107D8400ADF80430BDF80430B3F5806F94BF01231F
:107D94000023DBB2184602B0704700BFB0280020B1
:107DA40084B00190009148F2096303930023ADF875
:107DB4000A3027E0BDF80A20164913469B001344F5
:107DC4009B000B4404331B68009A9A4215D9BDF8F2
:107DD4000A20104913469B0013449B000B440433B0
:107DE4001B6803F58053009A9A4206D2002303933A
:107DF400019BBDF80A201A8008E0BDF80A3001335F
:107E0400ADF80A30BDF80A30012BD3D9039B1846CC
:107E140004B07047B028002082B001900091009B0C
:107E24009B7D022B09D9019B1A89009BDB88134493
:107E34009BB203339AB2019B1A81019B5A89009B1E
:107E4400DB88D31A9BB2033B9AB2019B5A8100BFD1
:107E540002B0704700B583B0074B1B681946002376
:107E640000930823054A064802F0C0F80346184662
:107E740003B05DF804FB00BFD8280020B43D030024
:107E84005022002000B585B003900399002300938D
:107E94000823044A044802F0A9F80346184605B02A
:107EA4005DF804FBBC3D03005022002000B585B002
:107EB40003460091ADF8063000238DF80F30BDF86D
:107EC40006300333ADF80A30BDF80A3040F2FE3212
:107ED400934202D948F208634BE00023ADF80C301A
:107EE4003BE0BDF80C20254913469B0013449B003E
:107EF4000B441B78002B2BD1BDF80A20BDF80C30A5
:107F040011461846FFF718FF0346002B20D0012323
:107F14008DF80F30009BBDF80C201A80BDF80C20A2
:107F2400164913469B0013449B000B440A331988DB
:107F3400BDF80C20BDF80A300B4498B20F49134623
:107F44009B0013449B000B440A3302461A8008E04A
:107F5400BDF80C300133ADF80C30BDF80C30012BFA
:107F6400BFD99DF80F30002B01D0002301E048F267
:107F74000663184605B05DF804FB00BFB028002076
:107F840082B003460A46ADF806301346ADF8043015
:107F9400BDF804200D4913469B0013449B000B4479
:107FA4000A331A88BDF80630D31A9BB2BDF80420F0
:107FB400033B98B2054913469B0013449B000B44B2
:107FC4000A3302461A8000BF02B07047B02800206E
:107FD40008B50121024801F041FB0346184608BDDB
:107FE4009C28002000B585B003460091ADF806300A
:107FF400BDF80620244913469B0013449B000B4400
:1080040004331B6803F580530293009B1B6803939E
:10801400039B002B04D00398FFF73BFE039026E05C
:10802400BDF80620184913469B0013449B000B44DB
:1080340004331B680833039319E002990398FFF78C
:1080440033FE0346022B10D0022B10DC002B02D08F
:10805400012B05D00BE0009B039A1A6001230EE06C
:108064000398FFF716FE039001E0002307E002994E
:108074000398FFF7F7FD0346002BDED100231846D3
:1080840005B05DF804FB00BFB028002000B585B042
:1080940001900091019B5B681846FFF729FE034697
:1080A400002B19D0019B1A89244B1B899A4213D1A6
:1080B400019B1A68019B5B689B689A420CD1019BE7
:1080C4005B6819460098FFF76BFE0346002B0CBF54
:1080D40001230023DBB22CE0009B00221A8023E062
:1080E4000023029310E0029B0393039B9A68019B75
:1080F4001B689A4208D1029A019B5A600F4B1A8955
:10810400019B1A81012314E0009B1B8802AA1146DB
:108114001846FFF767FF0346002BE4D1009B1B883A
:1081240001339AB2009B1A80009B1B88012BD7D97C
:108134000023184605B05DF804FB00BFE0280020CA
:1081440000B587B00390029101920093324B1B78E3
:10815400DBB283F00103DBB2002B02D048F20163EF
:1081640055E0019B002B02D0009B002B49D148F223
:1081740004634CE0009B9B881946284A0B469B00ED
:108184000B449B0013441B78002B33D124E0009B49
:108194001B680593039B002B06D0059B9A88039BC1
:1081A4001B889A4200D017E0029B002B06D0059B47
:1081B4001A88029B1B889A4200D00DE0059B9A689E
:1081C400019B1A60009B1A68019B5A60144B1A8920
:1081D400019B1A8100231AE0009B9B88009A114698
:1081E4001846FFF7FFFE0346002BD0D1009B002268
:1081F4001A6000E000BF009B9B8801339AB2009B89
:108204009A80009B9B88012BB4D948F209631846D5
:1082140007B05DF804FB00BF80280020B0280020D0
:10822400E028002000B585B00190084B019918465C
:1082340001F05FF803901C22002103980BF0A4FACC
:10824400039B184605B05DF804FB00BFA02800207E
:1082540000B583B00190044B0199184601F062F80F
:1082640000BF03B05DF804FBA028002000B583B074
:108274000190054B0199184601F068F80346184629
:1082840003B05DF804FB00BFA028002000B583B054
:108294000190044B0199184601F071F800BF03B036
:1082A4005DF804FBA028002008B50A4B1B68002BCE
:1082B40004D109494FF4247000F090FF01210548CE
:1082C40001F0E4F90346002B14BF01230023DBB2C1
:1082D400184608BD88280020803D030000B587B0FB
:1082E40003900291039B02229A750299039B1A1D23
:1082F400002300930423074801F078FE0590059BB2
:10830400002B01D1002301E048F20D63184607B0A9
:108314005DF804FB5022002000B587B00390029161
:10832400039B1B69002B01D0032200E00122039B65
:108334009A75029B08331946039B03F10C02002330
:1083440000930423074801F051FE0590059B002B80
:1083540001D1002301E048F20D63184607B05DF82F
:1083640004FB00BF5022002000B587B003900291A7
:10837400039B1B78032B01D1052200E00622039BFB
:108384009A75029B04331946039B03F108020023E8
:1083940000930423074801F029FE0590059B002B58
:1083A40001D1002301E048F20D63184607B05DF8DF
:1083B40004FB00BF5022002000B587B003900B4699
:1083C400ADF80A3003990023009304230D4A0E48A4
:1083D40001F00CFE0590059B002B02D048F20D63C2
:1083E4000BE0BDF80A20094913469B0013449B0087
:1083F4000B44103301221A700023184607B05DF8AD
:1084040004FB00BFC43D030050220020B02800201C
:1084140000B589B0019002AB00221A605A609A60DC
:10842400019BDB6802930DF1160202AB114618465C
:10843400FFF72CFE0346002B12D0039B0693069BEA
:108444009A88019BDA80069B1A88019B1A81039BF8
:10845400BDF8162011461846FFF7AEFF079002E05C
:1084640048F209630793079B184609B05DF804FBBB
:1084740000B587B00190019B981D02AA0D4B002105
:10848400FFF75EFE0590059B002B08D1039B094A6C
:10849400928811461846FFF78FFF059004E00822E2
:1084A400002104480BF070F9059B184607B05DF8ED
:1084B40004FB00BFF028002000B587B003900291B0
:1084C400039B01229A75029B0C331846039B1A697D
:1084D400039BDB889B00002100910146074801F0C3
:1084E40085FD0590059B002B01D1002301E048F296
:1084F4000D63184607B05DF804FB00BF502200204E
:1085040082B0184B1B8901339AB2164B1A81154B52
:1085140000225A80134B00221A730023ADF8063050
:1085240018E0BDF80620104913469B0013449B0035
:108534000B441A78BDF80630002A0CBF0122002231
:10854400D1B2084A13440A469A72BDF80630013380
:10855400ADF80630BDF80630012BE2D900BF00BFEC
:1085640002B07047E0280020B028002084B00190B9
:1085740000238DF80F300023ADF80C3031E0BDF846
:108584000C301C4A13449B7A002B25D0BDF80C30C8
:10859400184A134400229A72BDF80C201649134657
:1085A4009B0013449B000B440C331B68002B13D11A
:1085B400BDF80C20104913469B0013449B000B4448
:1085C40010331B78002B07D0019BBDF80C201A80B8
:1085D40001238DF80F3008E0BDF80C300133ADF8FD
:1085E4000C30BDF80C30012BC9D99DF80F3018465A
:1085F40004B07047E0280020B028002008B5084BDC
:1086040005221A70074B02229A80064B1B681946F2
:1086140000230122044801F0CBFD0346184608BD9F
:10862400E0280020D82800205022002000B583B084
:10863400164B5B88ADF80230BDF80220144913468E
:108644009B0013449B000B440C331B68002B14D178
:108654000E4B04221A70BDF802200D4913469B00EC
:1086640013449B000B4404331B6819460023012266
:10867400084801F09DFD019002E0FFF7BFFF019063
:10868400019B184603B05DF804FB00BFE0280020FE
:10869400B02800205022002000B587B0104B5B6842
:1086A4000593104B1A680F4B9B889B00134404934B
:1086B400059B5B880333ADF80E30094B03221A7017
:1086C4000499074B5A68BDF80E309B0000200090B7
:1086D400054801F08BFC0346184607B05DF804FB1F
:1086E400E0280020D82800205022002000B583B0C4
:1086F4000A4B5B880A491846FFF774FC0346002BB3
:1087040003D0FFF7C9FF019002E0FFF78FFF01904C
:10871400019B184603B05DF804FB00BFE02800206D
:10872400E428002008B50A4B06221A70084B5B881F
:108734001946084A0B469B000B449B001344043320
:108744001B681846FFF79EFB0346184608BD00BF8A
:10875400E0280020B028002008B5054B07221A7035
:10876400034B00225A60FFF775FB0346184608BD09
:10877400E028002008B50D48FFF7F8FE034683F013
:108784000103DBB2002B0BD0094B00221A70084BFB
:1087940000225A80064B00225A6041F61D5302E023
:1087A400FFF7A4FF0346184608BD00BFE2280020D7
:1087B400E028002082B0094B5B680193019B5B8831
:1087C4000333ADF80230064B9A88BDF802301344E7
:1087D4009AB2034B9A8000BF02B07047E028002091
:1087E400D828002082B01E4B1B6801931D4B5B8868
:1087F40019461D4A0B469B000B449B00134404334B
:108804001B68174A1360174B5B881946164A0B46B8
:108814009B000B449B0013440433019A1A60114BD0
:108824005B8819460E4B98880F4A0B469B000B44F5
:108834009B001344083302461A80094B02229A8093
:10884400084B5B881946084A0B469B000B449B0067
:108854001344103300221A7000BF02B0704700BFE7
:10886400D8280020E0280020B028002008B51A4BA2
:108874001B78072B2CD801A252F823F0A188020000
:10888400D5880200D5880200AD880200B9880200AC
:10889400C5880200C5880200CD880200FFF730FEBB
:1088A4000D4B01221A7014E0FFF784FF0A4B0222D9
:1088B4001A700EE0FFF796FF074B06221A7008E0C5
:1088C400054B07221A7004E0034B01221A7000E0E2
:1088D40000BF00BF08BD00BFE028002000B587B07E
:1088E4000190009148F20E630593019B002B05D083
:1088F400624B00225A604FF40643BAE0009B1B7996
:10890400032B00F2A98001A252F823F0218902006E
:108914002F890200BD890200DD890200009B01222B
:108924001A71FFF797FA059099E000238DF8133038
:108934000023ADF810302BE0BDF810205049134649
:108944009B0013449B000B441B78022B1BD1BDF8E6
:1089540010204B4913469B0013449B000B440022F8
:108964001A7001238DF81330BDF8102044491346C2
:108974009B0013449B000B4404331B681846FFF709
:1089840081FA059008E0BDF810300133ADF81030DD
:10899400BDF81030012BCFD99DF8133083F00103BB
:1089A400DBB2002B5AD0354B01221A70334B002214
:1089B4005A6041F61D535CE0009B00221A71314B52
:1089C40002229A802F4B1B681946002301222E484D
:1089D40001F0EEFB059042E0009B00221A712B4B44
:1089E4005B88ADF80E30274B1B680293BDF80E2050
:1089F400234913469B0013449B000B4404331B6818
:108A0400204A1360BDF80E201D4913469B001344F1
:108A14009B000B440433029A1A60BDF80E20194BD4
:108A24009888174913469B0013449B000B44083352
:108A340002461A80134B02229A80BDF80E20104978
:108A440013469B0013449B000B4400221A700298A7
:108A5400FFF718FA059002E000BF00E000BF059B95
:108A6400002B05D0054B00225A6048F20D6300E04C
:108A74000023184607B05DF804FB00BF80280020DF
:108A8400B0280020D828002050220020E028002010
:108A940000B587B001900091009B9B8A1A4613464B
:108AA4009B0013449B003B4A13440493019B002BFB
:108AB40006D000990498FFF7AFF94FF4064364E039
:108AC400049B5A68049B1B899B0013440393009BDB
:108AD4009B7D062B4DD801A252F823F0258B020072
:108AE400498B0200318B02003D8B0200FD8A02009B
:108AF400558B02006F8B0200274B00225A60009BAB
:108B04009B69254A136025492348FFF7BFFA0346AA
:108B140083F00103DBB2002B02D048F2096334E096
:108B240003990098FFF7DAFB059026E00399009873
:108B3400FFF7F2FB059020E003990098FFF7BCFCD7
:108B440005901AE003990098FFF70EFC059014E0D5
:108B5400009B06229A75104B5B68104A12881146D6
:108B64001846FFF729FC059007E041F61D530593CD
:108B740003E048F20E63059300BF059B002B03D06E
:108B840000990498FFF748F9059B184607B05DF86B
:108B940004FB00BFB0280020F8280020042900208E
:108BA40000B585B001900091019B002B02D04FF4D9
:108BB400064329E0009B1B79022B1BD0022B1DDCF2
:108BC400002B02D0012B08D018E0009B02221A715E
:108BD4000098FFF71DFC039015E00098FFF748FC90
:108BE4000390039B48F2096293420BD141F61D5353
:108BF400039307E041F61D53039304E048F20E6328
:108C0400039300E000BF039B184605B05DF804FB26
:108C140000B585B00190019B002B02D04FF40643B0
:108C24003DE0214B1B7B002B03D01F4B00221A730A
:108C340001E0FFF71BFE1C4B1B78013B062B29D8D8
:108C440001A252F823F000BF698C0200718C02006B
:108C5400798C0200818C0200998C0200898C0200BC
:108C6400918C0200FFF786FD039017E0FFF73EFDAD
:108C7400039013E0FFF710FD03900FE0FFF7D6FC1D
:108C840003900BE0FFF74EFD039007E0FFF764FD50
:108C9400039003E048F20E63039300BF039B18465E
:108CA40005B05DF804FB00BFE028002000B589B0E2
:108CB4000190404B1B68002B05D13F48FFF7D6FAC3
:108CC40003463C4A13603B4B1B68002B04D13B49D1
:108CD4004FF4B46000F082FA364B1B681B78013BFA
:108CE400052B2CD801A252F823F000BF098D0200F5
:108CF400198D0200198D0200298D0200298D0200B0
:108D0400398D02002B4B1B6819460198FFF7E6FDCD
:108D1400019018E0274B1B6819460198FFF7B8FE2D
:108D2400019010E0234B1B6819460198FFF738FFA8
:108D3400019008E00198FFF76BFF019003E048F20F
:108D44000E63019300BF019B002B2BD003AB0022C9
:108D54001A605A609A60DA601A61019B41F61D52EA
:108D6400934201D0019B00E000230493114B1B6844
:108D740003AA11461846FEF707FF03AB1846FEF791
:108D8400E3FE0C4B00221A60002301930A48FFF70C
:108D94007DFAFFF789FA034683F00103DBB2002B67
:108DA40002D186E700BF00E000BF00BF09B05DF854
:108DB40004FB00BF082900200C290020803D03008B
:108DC40008B50121054800F031FC0346002B02D10F
:108DD4000020FFF76BFF00BF08BD00BF88280020FC
:108DE40000B583B00190019B5B681846FFF75EFFF6
:108DF40000BF03B05DF804FB00B58BB00390029193
:108E040001928DF803300023ADF824300023ADF82F
:108E14002630534B1B78DBB283F00103DBB2002B0B
:108E240002D048F2016397E0029B002B02D148F282
:108E3400046391E0029B1B884FF6FF72934203D0B8
:108E4400029B5B88002B02D148F2036384E0029BFF
:108E54005B681846FEF76AFE034683F00103DBB243
:108E6400002B02D048F2026376E0019B002B11D163
:108E7400029B9B68ADF826300DF11A02BDF826302E
:108E840011461846FFF712F80890089B002B09D0EA
:108E9400089B61E0019B1B88ADF81A30019B5B883D
:108EA400ADF8263005AB1846FFF7BCF90790079BD1
:108EB400002B0AD1BDF81A20BDF8263011461846F9
:108EC400FFF75EF848F2076346E0079B9DF803202E
:108ED4001A70079B00229A75BDF81A20079B9A8284
:108EE400029B5A68079B1A61FFF772F80246079BB8
:108EF400DA60029B1A88079B1A81029B5A88079B97
:108F04009A80079BBDF82620DA809DF80330032B56
:108F140006D1079B04229A75039B1A68079B9A61E2
:108F2400079BBDF824205A8105AB1846FFF790F93A
:108F3400039B002B0DD0039B00225A60079BDA6829
:108F4400039B1A60039B00229A72064B1A89039BA7
:108F54001A81FFF735FF002318460BB05DF804FBB8
:108F640080280020E028002000B585B00190009101
:108F7400019B002B02D0009B002B02D148F204631A
:108F84002AE00DF10A0319460198FFF77FF803461A
:108F9400002B1FD0019B5B680393BDF80A301A466F
:108FA40013469B0013449B0008330D4A13440433B7
:108FB4000121184600F052FB009B039A1A60019BA2
:108FC4005B6803F10C02009B5A60019B01229A72B8
:108FD400002301E048F20963184605B05DF804FB7C
:108FE400B028002000B585B00190019B002B02D170
:108FF40048F204633BE00DF10A0319460198FFF7B8
:1090040045F80346002B2ED0BDF80A3019461A4AFB
:109014000B469B000B449B0013440C331B68002B32
:109024001DD0019B9B7A002B19D0BDF80A301A463B
:10903400114913469B0013449B000B440C331B68DB
:10904400591E0D4813469B0013449B0003440C33E4
:109054001960019B00229A720023039306E048F2F0
:109064000563039302E048F209630393039B1846E4
:1090740005B05DF804FB00BFB028002000B583B044
:10908400019000910223002200990198FFF7B4FE99
:109094000346184603B05DF804FB00B583B00190A5
:1090A4000091019B002B02D148F2046306E00323E4
:1090B400002200990198FFF79FFE0346184603B06B
:1090C4005DF804FB00B585B00346ADF806301A4BD5
:1090D4001B78DBB283F00103DBB2002B02D048F231
:1090E400016324E0BDF806304FF6FF72934202D1CB
:1090F40048F203631BE002AB1846FFF793F80390B2
:10910400039B002B02D148F2076310E0039B052266
:109114001A70039B01221A71039BBDF80620DA80A2
:1091240002AB1846FFF794F8FFF74AFE00231846EF
:1091340005B05DF804FB00BF8028002000B585B0B1
:10914400029201930346ADF80E300B46ADF80C3095
:1091540003A90DF10E00019B029AFEF7F1FF0346ED
:10916400184605B05DF804FB00B585B003460291CE
:109174000192ADF80E300DF10E01019B029A002010
:10918400FEF7DEFF0346184605B05DF804FB00B5A4
:1091940085B0034602910192ADF80E300DF10E0038
:1091A400019B029A0021FEF7CBFF0346184605B047
:1091B4005DF804FB82B001900091019B002B02D06A
:1091C400009B002B02D148F2046304E0019B1A685F
:1091D400009B1A600023184602B0704700B585B0A2
:1091E40003460091ADF80630BDF806300293009BAB
:1091F400039302AB1A46002144F20200FEF7D4F9AD
:1092040000BF05B05DF804FB86B001900091019B9E
:1092140053E8011F8AB2D88902449889824228BF40
:10922400121A1889824202BFBFF32F8F002307E06E
:10923400C2EA010243E801200028E9D14FF001030A
:109244008DF80F30059002910492029A009B1A60E7
:109254009DF80F30DBB2184606B0704784B0019019
:10926400019951E8013FC3EA034341E80132002A6E
:10927400F7D10392029300BF04B0704786B0019007
:109284000091019B53E8021F1FFAA1F2D888824281
:1092940002BFBFF32F8F00230DE0D88902449889C1
:1092A400824228BF121AC1EA024243E8022000287F
:1092B400E8D14FF001038DF80F300590029104922C
:1092C400029A009B1A609DF80F30DBB2184606B074
:1092D400704784B00190019951E8023FC3EA2343E7
:1092E40041E80232002AF7D10392029300BF04B08E
:1092F400704700B585B001900091009B1946019814
:10930400FFF782FF0346002B07D0019B1B68009ADE
:10931400128813440393039B00E00023184605B00E
:109324005DF804FB00B583B001900091009B1A889E
:10933400009B5B889A4204D10198FFF78FFF0123B9
:1093440000E00023184603B05DF804FB00B585B0C7
:1093540001900091009B19460198FFF78FFF034687
:10936400002B07D0019B1B68009A52881344039377
:10937400039B00E00023184605B05DF804FB00B52C
:1093840083B001900091009B1A88009B5B889A42ED
:1093940004D10198FFF79DFF012300E00023184644
:1093A40003B05DF804FB00B585B001900091009B0B
:1093B4005B099B00019A1A44009B03F01F030121DF
:1093C40001FA03F31946104600F0E8F8039000BFD1
:1093D40005B05DF804FB00B583B001900091009BDB
:1093E4005B099B00019A1A44009B03F01F030121AF
:1093F40001FA03F31946104600F0B8F80246009B40
:1094040003F01F0322FA03F303F00103002B14BF3C
:1094140001230023DBB2184603B05DF804FB00B55A
:1094240085B001900091009B5B099B00019A1A444E
:10943400009B03F01F03012101FA03F3DB431946E8
:10944400104600F0DBF8039000BF05B05DF804FBA4
:1094540082B001900091009B5B099B00019A134428
:109464001A68009B03F01F0322FA03F303F00103BD
:10947400002B14BF01230023DBB2184602B070474F
:1094840000B58DB00190009100230B934BE00B9B32
:109494009B00019A13441B68DB430793079B93FAD1
:1094A400A3F30693069B0893089B002B01D120236A
:1094B40003E0089BB3FA83F3DBB20A932BE00B9B24
:1094C4005B010A9A13440993099A009B9A4226D293
:1094D40009990198FFF77FFF034683F00103DBB28C
:1094E400002B01D0099B26E00B9B9B00019A13449F
:1094F4001B68DB430493049B93FAA3F30393039B3A
:109504000593059B002B01D1202303E0059BB3FAAF
:1095140083F3DBB20A930A9B1F2BD0D900E000BF70
:109524000B9B01330B93009B013B5B0901330B9AAB
:109534009A42ACD3009B18460DB05DF804FB10B4FE
:1095440087B001900091019B009A53E8004F1046A8
:1095540043E8000191F0000FF7D1059404900391C2
:10956400059B184607B05DF8044B704710B487B0EC
:1095740001900091019B009A53E8004F44EA0200D5
:1095840043E8000191F0000FF6D105940490039193
:10959400059B184607B05DF8044B704710B487B0BC
:1095A40001900091019B009A53E8004F44EA0200A5
:1095B40043E8000191F0000FF6D105940490039163
:1095C400049B184607B05DF8044B704710B487B08D
:1095D40001900091019B009A53E8004F04EA0200B5
:1095E40043E8000191F0000FF6D105940490039133
:1095F400059B184607B05DF8044B704710B487B05C
:1096040001900091019B009A53E8004F04EA020084
:1096140043E8000191F0000FF6D105940490039102
:10962400049B184607B05DF8044B704710B487B02C
:1096340001900091019B009A53E8004F04EB020053
:1096440043E8000191F0000FF6D1059404900391D2
:10965400059B184607B05DF8044B704710B487B0FB
:1096640001900091019B009A53E8004F04EB020023
:1096740043E8000191F0000FF6D1059404900391A2
:10968400049B184607B05DF8044B704710B487B0CC
:1096940001900091019B009A53E8004FA4EB020053
:1096A40043E8000191F0000FF6D105940490039172
:1096B400049B184607B05DF8044B704700B583B0AF
:1096C400019001210198FFF769FF0346184603B092
:1096D4005DF804FB00B583B0019000210198FFF709
:1096E40075FF0346184603B05DF804FB00B583B06C
:1096F40001900B468DF80330019B002B03D10849E0
:10970400E820FFF76BFD019BDA689DF803300199AF
:10971400098A01FB03F31344184603B05DF804FB04
:10972400C83D030000B583B001900091019B002B5C
:1097340003D10849F520FFF751FD009B019AD26837
:109744009B1A019A128AB3FBF2F3DBB2184603B0F8
:109754005DF804FBC83D030000B585B00190019B92
:10976400002B04D11F494FF49270FFF737FD0023FB
:10977400039300238DF80A300DF10A031846FEF70F
:109784003BF9019B1B681A68019B5B689A421FD9CD
:10979400019B1B681A68013A1A601B681B781946FA
:1097A4000198FFF7A3FF0390019B9A68019B1B6834
:1097B4001B68D31A8DF80B30019B1B681B799DF82D
:1097C4000B209A4204D9019B1B689DF80B201A7147
:1097D4009DF80A301846FEF725F9039B184605B094
:1097E4005DF804FBC83D030010B584B001900091FE
:1097F400019B002B04D1154940F24710FFF7EEFC02
:10980400009B002B04D111494FF4A470FFF7E6FC30
:10981400009B039300238DF80B300DF10B031846C6
:10982400FEF7EAF8019B1B681C68621C1A60039926
:109834000198FFF777FF034623709DF80B30184615
:10984400FEF7F0F800BF04B010BD00BFC83D030030
:1098540000B583B00190019B002B03D10C4931204A
:10986400FFF7BCFC019B9B68002B0CD0019B5B6940
:10987400019A1069019A1168019A92689847019BAC
:1098840000229A6000E000BF03B05DF804FB00BF53
:10989400043E03000EB400B584B00190019B002B7C
:1098A40003D118494220FFF799FC019B5B69002B07
:1098B40003D114494320FFF791FC019B1B68002B43
:1098C40003D110494420FFF789FC019B5B68002BFE
:1098D40003D10C494520FFF781FC059B002B0AD0DE
:1098E4000023039306AB039303AB1A46059901982F
:1098F40000F0B8F900E000BF04B05DF804EB03B079
:10990400704700BF043E030000B583B001900B46CE
:109914008DF803309DF803300A2B03D10D210198F3
:10992400FFF7F2FF019B1A68019B9B68581C019981
:10993400886013449DF803201A70019B9A68019B68
:109944005B689A4202D30198FFF782FF00BF03B01D
:109954005DF804FB00B587B0039002910192009377
:1099640000230593009B03F00103002B24D00BE09C
:10997400029B01330293059B013305939DF8133039
:1099840019460398FFF7C0FF029B1B788DF813302C
:109994009DF81330002BEBD106E0019B013B0193B2
:1099A40020210398FFF7B0FF019A059B9A422ED914
:1099B400019B002BF1D12AE0029B002B0BD00298D3
:1099C40009F099FE059006E0019B013B01932021DB
:1099D4000398FFF799FF019A059B9A420FD9019BBF
:1099E400002BF1D10BE0029B01330293059B013361
:1099F40005939DF8133019460398FFF785FF029BE2
:109A04001B788DF813309DF81330002BEBD100BF79
:109A140007B05DF804FB000000B589B00390029123
:109A240001920093029B07930123069307E0079A90
:109A3400019BB2FBF3F30793069B01330693079A4A
:109A4400019B9A42F3D2009A069B9A4201D9009B49
:109A540006930B9B03F00103002B22D10A9B002BDE
:109A64001FD00B9B03F00203002B06D0009B002B9E
:109A740003D130238DF8173002E020238DF81730FE
:109A840008E00A9B013B0A939DF817301946039896
:109A9400FFF73AFF0A9B002B03D0069A0A9B9A42CF
:109AA400EFD301230793009B012B03D9009B013BB8
:109AB400009309E0029A079BB2FBF3F30493049A20
:109AC400019B9A4200D205E0079B019A02FB03F333
:109AD4000793E8E7029A079BB2FBF3F30493049B12
:109AE400079A02FB03F3029AD31A0293154A049BC2
:109AF40013441B7819460398FFF706FF079A019B46
:109B0400B2FBF3F30793079B002BE3D10B9B03F00A
:109B14000103002B11D00A9B002B0ED006E00A9BF8
:109B2400013B0A9320210398FFF7EEFE0A9B002BCA
:109B340003D0069A0A9B9A42F1D300BF09B05DF89C
:109B440004FB00BF703E030000B589B0059004918A
:109B540003920293049B002BB8BF5B42069301233C
:109B6400079307E0039B069A92FBF3F30693079B84
:109B740001330793039B069A9A42F3DA029A079BEE
:109B84009A4201D9029B07930A9B002B0AD0049B9B
:109B9400002B04DB0B9B03F00403002B02D00A9B75
:109BA400013B0A930B9B03F00203002B02D0029BA0
:109BB400002B16D00B9B03F00103002B11D10A9B41
:109BC400002B0ED006E00A9B013B0A932021059846
:109BD400FFF79AFE0A9B002B03D0079A0A9B9A422E
:109BE400F1D3049B002B07DA049B5B4204932D21E1
:109BF4000598FFF789FE08E00B9B03F00403002B94
:109C040003D02B210598FFF77FFE0B9B03F0020383
:109C1400002B19D00B9B03F00103002B14D1029BE2
:109C2400002B11D10A9B002B0ED006E00A9B013BAE
:109C34000A9330210598FFF767FE0A9B002B03D097
:109C4400079A0A9B9A42F1D304990B9B01930A9BAE
:109C54000093029B039A0598FFF7DEFE00BF09B04C
:109C64005DF804FB00B58FB0059004910392059B49
:109C7400002B04D1AD4940F25220FFF7AFFA059B07
:109C84005B69002B04D1A9494FF41570FFF7A6FABC
:109C9400059B1B68002B04D1A44940F25520FFF713
:109CA4009DFA059B5B68002B04D1A04940F2562025
:109CB400FFF794FA049B002B00F09381049B1B781C
:109CC4008DF83730049B013304939DF83730002B13
:109CD40000F07E819DF83730252B40F06D81002304
:109CE4000A9301230C93049B1B788DF837309DF85D
:109CF4003730302B0DD0302B1BDC2B2B11D02D2BE0
:109D040017D10A9B43F001030A93049B0133049384
:109D140012E00A9B43F002030A93049B0133049369
:109D24000AE00A9B43F004030A93049B013304935F
:109D340002E000230C9300BF0C9B002BD3D1002323
:109D440009939DF837302A2B0CD1039B1B68191DEE
:109D5400039A11601B68099A13440993049B013305
:109D640004931AE0049B1B788DF837309DF8373044
:109D74002F2B12D99DF83730392B0ED8049B013381
:109D84000493099A13469B0013445B001A469DF8FA
:109D940037301344303B0993D3E700230B93049BE0
:109DA4001B788DF837309DF837302E2B1DD1049B4E
:109DB40001330493049B1B788DF837309DF83730BA
:109DC4002F2B12D99DF83730392B0ED8049B013331
:109DD40004930B9A13469B0013445B001A469DF8A8
:109DE40037301344303B0B93E4E7049B1B788DF826
:109DF40037309DF837306C2B03D09DF83730682B03
:109E040007D1049B01330493049B1B788DF83730EE
:109E1400EFE79DF83730252B00F0C480252BC0F2E6
:109E2400C680782B00F3C380582BC0F2C080583B07
:109E3400202B00F2BC8001A252F823F0359F0200CF
:109E4400B39F0200B39F0200B39F0200B39F0200BE
:109E5400B39F0200B39F0200B39F0200B39F0200AE
:109E6400B39F0200B39F0200C59E0200E79E02005A
:109E7400B39F0200B39F0200B39F0200B39F02008E
:109E8400E79E0200B39F0200B39F0200B39F02004B
:109E9400B39F0200B39F0200B39F0200759F0200AC
:109EA400B39F0200B39F0200599F0200B39F0200B8
:109EB4000B9F0200B39F0200B39F0200359F020074
:109EC400039B1B68191D039A11601B680C930C9B60
:109ED4008DF81F309DF81F3019460598FFF714FDC3
:109EE40066E0039B1B68191D039A11601B680C93A1
:109EF4000A9B0193099B00930B9B0A220C990598DA
:109F0400FFF722FE54E0039B1B68191D039A11609E
:109F14001B680C930C990A9B0193099B00930B9B60
:109F24000A220598FFF778FD42E000BF383E03009F
:109F3400039B1B68191D039A11601B680C930C99F1
:109F44000A9B0193099B00930B9B10220598FFF732
:109F540063FD2DE0039B1B68191D039A11601B68A8
:109F640008930A9B099A08990598FFF7F3FC1FE0E8
:109F7400039B1B68191D039A11601B680C93302105
:109F84000598FFF7C1FC78210598FFF7BDFC0C99F3
:109F94000023019308230093082310220598FFF758
:109FA4003BFD05E025210598FFF7AEFC00E000BF6E
:109FB400049B0133049305E09DF837301946059856
:109FC400FFF7A2FC049B1B78002B7FF477AE00E024
:109FD40000BF059B1B7B002B04D00598FFF738FCC2
:109FE40000E000BF0FB05DF804FB00BF10B586B001
:109FF4000590049103920293059B002B10D1604AB3
:10A00400604BD31ADB081B0443F001005E4A5F492E
:10A014000E2300930B465E49FCF791FE0E23ABE042
:10A02400039B002B10D1564A564BD31ADB081B0452
:10A0340043F00100574A55490E2300930B465449F7
:10A04400FCF77DFE0E2397E0059B1B68002B10D1C7
:10A054004B4A4C4BD31ADB081B0443F001004E4A15
:10A064004A49082300930B464949FCF768FE082334
:10A0740082E0029B002B10D1414A424BD31ADB08E9
:10A084001B0443F00100454A4049092300930B4651
:10A094003F49FCF754FE09236EE0059B5B685A6850
:10A0A400029BB3FBF2F101FB02F29B1A002B10D0CE
:10A0B400334A344BD31ADB081B0443F00100384AFB
:10A0C4003249092300930B463149FCF738FE092332
:10A0D40052E0049800F01EF90346002B10D1284AE0
:10A0E400284BD31ADB081B0443F001002D4A2749EF
:10A0F400102300930B462649FCF721FE10233BE076
:10A10400039B184600F006F90346002B10D11C4AA5
:10A114001C4BD31ADB081B0443F00100224A1B49E1
:10A12400102300930B461A49FCF709FE102323E081
:10A13400029A0499059800F0D3F80346002B10D135
:10A144000F4A104BD31ADB081B0443F00100174AD3
:10A154000E49102300930B460D49FCF7F0FD102324
:10A164000AE0059B1B68DC68089B0093029B039A2A
:10A1740004990598A0470346184606B010BD00BFD1
:10A184008039030030390300903E0300344003005B
:10A19400983E0300243F0300CC3E0300E03E03004E
:10A1A4002C3F0300583F0300703F0300943F03001B
:10A1B40010B586B00590049103920293059B002B81
:10A1C40010D13E4A3E4BD31ADB081B0443F0010076
:10A1D4003C4A3D490E2300930B463C49FCF7AFFD36
:10A1E4000E2368E0059B1B68002B10D1334A344BC7
:10A1F400D31ADB081B0443F00100354A3249082313
:10A2040000930B463149FCF79AFD082353E0039B66
:10A21400002B10D1294A2A4BD31ADB081B0443F024
:10A2240001002C4A2849092300930B462749FCF7CF
:10A2340086FD09233FE00499059800F078F8034669
:10A24400002B10D11D4A1E4BD31ADB081B0443F00C
:10A254000100214A1C49102300930B461B49FCF7BB
:10A264006EFD102327E0059B5B681B68039A02FBC5
:10A2740003F31A460499059800F032F80346002BBC
:10A2840010D10E4A0E4BD31ADB081B0443F0010015
:10A29400124A0D49102300930B460C49FCF74FFD5D
:10A2A400102308E0059B1B681C69029B039A049910
:10A2B4000598A0470346184606B010BD8039030030
:10A2C40030390300903E030048400300983E0300E9
:10A2D400CC3E0300E03E0300BC3F0300E43F030028
:10A2E40084B0039002910192039BDB68029A9A4224
:10A2F40009D3029A019B13445A1E039B1B699A4279
:10A3040001D8012300E0002303F00103DBB2184667
:10A3140004B0704782B00190019B03F00303002B4B
:10A324000CBF01230023DBB2184602B0704782B091
:10A3340001900091019B5B681B685A1E009B1340AF
:10A34400002B0CBF01230023DBB2184602B0704778
:10A3540029DF704700BF184628DF704700BF184642
:10A3640000B589B001900091019B1B689B68002B8C
:10A3740035D002AB00221A605A609A60DA601A6122
:10A384005A61009B0393019B9B680793019B1B7974
:10A39400002B02D0012B0DD01AE001238DF80830D8
:10A3A400019B1B690493019BDB680593019B5B691B
:10A3B40006930DE002238DF80830019BDB684FF40F
:10A3C400805202FB03F30493019B5B69069300BF75
:10A3D400019B1B689B6802AA1046984700E000BFD7
:10A3E40009B05DF804FB00B587B00190019B5A6980
:10A3F400019B9B69D31AB3F5805F28BF4FF4805348
:10A4040005930422059BB3FBF2F3012B38BF012310
:10A414000593019B1A69019B9B6913440493019B57
:10A42400DB681A46019B9B6913440393059A0399BD
:10A434000498FFF78DFF0346184607B05DF804FB48
:10A4440000B583B00190019BDA68019B1B6913443A
:10A454001846FFF781FF0346184603B05DF804FB76
:10A4640008B5034B03491846FEF789FF00BF08BD32
:10A47400102900203829002008B5084B084918463F
:10A48400FEF764FF0346074A1360064B1B68002B64
:10A4940014BF01230023DBB2184608BD1029002095
:10A4A400382900203429002000B583B02A4B1B7AB8
:10A4B400002B0BD1FFF7E0FF034683F00103DBB26F
:10A4C400002B03D0244B00225A6042E0224B02228C
:10A4D4001A72224B1B681B79002B02D0012B07D068
:10A4E4000DE01E4B1B681846FFF77DFF019009E045
:10A4F4001A4B1B681846FFF7A3FF019002E00323E1
:10A50400019300BF019B002B03D0019B112B0CD0A6
:10A514000FE0114B1B7C83F00103DBB2002B17D03F
:10A524000021022000F06EF812E00B4B01221A7297
:10A534000FE00A4B1B6803211846FFF711FF064B77
:10A5440000221A72044B00225A60FFF789FF00E0D0
:10A5540000BF03B05DF804FB20290020342900204B
:10A5640084B001901B4B0022DA60019B1B79002B05
:10A5740002D0012B19D028E0019B5A69019B9B69E9
:10A58400D31AB3F5805F28BF4FF480530393019B24
:10A594009A69039B1A44019B9A61019B9A69019BE6
:10A5A4005B699A420ED1012310E0019B1B695A1C7E
:10A5B400019B1A61019B1A69019B5B699A4203D151
:10A5C400012303E000BF00E000BF0023184604B0ED
:10A5D400704700BF2029002082B00190084BDB683F
:10A5E4000133074AD360064BDB68082B04D9044BBC
:10A5F4000022DA60012300E00023184602B070470D
:10A604002029002000B585B001900091019B022B08
:10A6140002D0019B032B48D1274B1B7A022B05D078
:10A62400022B35DC002B42D0012B31E000238DF8C6
:10A634000F30019B022B03D0019B032B09D011E0A7
:10A644001E4B1B681846FFF78BFF03468DF80F302F
:10A6540008E01A4B1B681846FFF7BEFF03468DF847
:10A664000F3000BF9DF80F30002B10D0124B00228A
:10A674001A72124B1A68019B022B01D1002300E0CD
:10A684000D2319461046FFF76BFEFFF7E9FE00BFE6
:10A69400094B5B7C83F00103DBB2002B02D0FFF794
:10A6A40003FF05E008F0EEFE02E000BF00E000BF9B
:10A6B40005B05DF804FB00BF2029002034290020E8
:10A6C40082B0034600918DF80730064B01225A747C
:10A6D400044B1B7A002B0CBF01230023DBB218466A
:10A6E40002B070472029002000B583B003460091D2
:10A6F4008DF807309DF80730012B03D09DF8073003
:10A70400032B0DD1084B00225A749DF80730012BFE
:10A714000CBF01230023DAB2034B1A74FFF7C4FE03
:10A7240000BF03B05DF804FB2029002000B58BB006
:10A7340001900091019B1B8A043B0793009A079B9D
:10A744001344DA1C079BB2FBF3F38DF81B3001981A
:10A75400FFF702F80590059B002B01D1002338E098
:10A76400059B00221A71059B01225A71079B9AB21C
:10A77400059BDA80059B09939DF81B30013B0493EC
:10A78400099B019A1A60002308931DE00198FEF7C3
:10A79400E3FF0390039B002B0ED0059B5B790133F1
:10A7A400DAB2059B5A71099B039A1A60039B019ABA
:10A7B4001A60039B099304E0059800F00EF8002347
:10A7C40007E0089B01330893089A049B9A42DDD35F
:10A7D400059B18460BB05DF804FB00B58BB00190E7
:10A7E400019B0793079B5B798DF81B30019B0893B2
:10A7F4009DF81B30013B05930023099305E0089B5A
:10A804001B680893099B01330993099A059B9A4293
:10A81400F5D3089B1B680493019B089300230993B9
:10A824000BE0089B1B68039308990498FEF7DCFF70
:10A83400039B0893099B013309939DF81B30099AE4
:10A844009A42EED300BF00BF0BB05DF804FB00B525
:10A8540085B00190019B0393039B043301211846A7
:10A86400FEF7FCFE00BF05B05DF804FB00B587B041
:10A874000190019B0593059B043301211846FEF7C3
:10A8840005FF0346039303AB0493049B1B78002B3F
:10A8940002D10198FFF7A1FF00BF07B05DF804FBE8
:10A8A40000B591B00390029101920093039B002B99
:10A8B40003D14349B620FEF791FC039B0993039B04
:10A8C4000F93099BDB881A46099B5B7902FB03F310
:10A8D400043B0893009A089B9A4203D33849C42046
:10A8E400FEF77CFC099BDB880793009B1A1D079BE2
:10A8F400B2FBF3F30E93009B0433079AB3FBF2F21B
:10A90400079901FB02F29B1A0D93019B1A68009BA5
:10A914001344089A9A4203D2089A009BD31A01E07E
:10A92400019B1B680C93019B0C9A1A6005E00F9B1A
:10A934001B680F930E9B013B0E930E9B002BF6D1CD
:10A9440000230B93079A0D9BD31A0A930A9A0C9B24
:10A95400934228BF13460A932AE0029A0B9B13449E
:10A9640006930F9A0D9B1344043305939DF84830C6
:10A97400002B05D00A9A0599069808F0D3FE04E046
:10A984000A9A0699059808F0CDFE00230D930F9BB3
:10A994001B680F930C9A0A9BD31A0C930B9A0A9B6D
:10A9A40013440B93079A0C9B934228BF13460A93B4
:10A9B4000C9B002BD1D100BF00BF11B05DF804FB8C
:10A9C4005C40030000B589B00590049103920293A2
:10A9D400039B079307AA00230093029B04990598FD
:10A9E400FFF75EFF079B039A9A4203D00349F620C0
:10A9F400FEF7F4FB00BF09B05DF804FB5C40030004
:10AA040000B589B00590049103920293039B0793C8
:10AA140007AA01230093029B04990598FFF740FFBE
:10AA2400079B039A9A4204D004494FF48070FEF7BE
:10AA3400D5FB00BF09B05DF804FB00BF5C40030018
:10AA440082B003468DF807309DF90730002B0DDBEB
:10AA54009DF8073003F01F0206499DF907305B0992
:10AA6400012000FA02F2603341F8232000BF02B053
:10AA7400704700BF00E100E041DF704700BF1846A7
:10AA840000B585B000238DF807300DF10703184693
:10AA9400FCF7B2FFF1EE103A0393039B23F09F03FC
:10AAA4000293029BE1EE103A00BFBFF35F8F00BF39
:10AAB4002620FFF7C5FF9DF807301846FCF7B2FFC4
:10AAC400039B03F00703002B03D004497D20FEF70A
:10AAD40085FB00BF05B05DF804FB00BF30410300F7
:10AAE40000B583B0FFF7CCFF08F0E8FC0346002B69
:10AAF4000ED0FFF7C1FF0190019B002B0BD0019BEF
:10AB0400022B08D006494FF4B070FEF767FB02E051
:10AB140020BF40BF20BF00BF03B05DF804FB00BFEF
:10AB24003041030000B583B001900091019B002BDC
:10AB340003D110495020FEF751FB009B002B03D199
:10AB44000C495120FEF74AFB019B009A1A60019BB5
:10AB54001B681A68019B5A60019B5A68019B1B6819
:10AB64005B689A4202D1019B00225A6000BF03B085
:10AB74005DF804FB7041030000B583B00190019BB4
:10AB8400002B03D114496320FEF728FB019B1B68AB
:10AB9400002B03D110496420FEF720FB019B5B6866
:10ABA400002B14D0019B5B681A46019B1B689B68B1
:10ABB40013441A46019B5A60019B5A68019B1B6807
:10ABC4005B689A4204D1019B00225A6000E000BFF6
:10ABD40003B05DF804FB00BF7041030000B585B00D
:10ABE4000190019800F00EF80390039B002B01D014
:10ABF400039B00E0024B184605B05DF804FB00BF60
:10AC04001042030086B00190164B0593164B049333
:10AC14001FE0049A059BD31ADB10DA0F13445B1070
:10AC2400DB00059A13440393039B1B680293029A67
:10AC3400019B9A4202D9039B04930AE0029A019B66
:10AC44009A4203D2039B0833059302E0039B5B689B
:10AC540004E0059A049B9A42DBD30023184606B00D
:10AC6400704700BF1046030038470300BFF34F8FFF
:10AC740000BF064BDB6803F4E0620449044B134352
:10AC8400CB60BFF34F8F00BF00BFFDE700ED00E0D6
:10AC94000400FA0582B01D4B1B68B3F1FF3F0AD1D3
:10ACA4001B4B1B68DBB201931A4B1B681B0903F097
:10ACB4000F03009305E0154B1B680193164B1B68AB
:10ACC4000093019B062B1DD1009B033B042B17D83B
:10ACD40001A252F823F000BFF1AC0200F5AC02006F
:10ACE400F9AC0200FDAC020001AD020001230AE050
:10ACF400012308E0012306E0012304E0012302E02C
:10AD0400012300E00023184602B070473001001010
:10AD1400E00F00F0E80F00F03401001082B0174B90
:10AD24001B68DBB20193164B1B681B0903F00F036E
:10AD34000093019B062B1DD1009B033B042B17D8CA
:10AD440001A252F823F000BF61AD020065AD02001C
:10AD540069AD02006DAD020071AD020001230AE08D
:10AD6400002308E0002306E0002304E0002302E0BF
:10AD7400002300E00023184602B07047E00F00F003
:10AD8400E80F00F082B01D4B1B68B3F1FF3F0AD1FE
:10AD94001B4B1B68DBB201931A4B1B681B0903F0A6
:10ADA4000F03009305E0154B1B680193164B1B68BA
:10ADB4000093019B062B1DD1009B033B042B17D84A
:10ADC40001A252F823F000BFE1AD0200E5AD02009C
:10ADD400E9AD0200EDAD0200F1AD020001230AE08D
:10ADE400012308E0012306E0012304E0012302E03B
:10ADF400012300E00023184602B070473001001020
:10AE0400E00F00F0E80F00F03401001082B0174B9F
:10AE14001B68DBB20193164B1B681B0903F00F037D
:10AE24000093019B062B1DD1009B033B042B17D8D9
:10AE340001A252F823F000BF51AE020055AE020049
:10AE440059AE02005DAE020061AE020001230AE0C9
:10AE5400002308E0002306E0002304E0002302E0CE
:10AE6400002300E00023184602B07047E00F00F012
:10AE7400E80F00F082B01D4B1B68B3F1FF3F0AD10D
:10AE84001B4B1B68DBB201931A4B1B681B0903F0B5
:10AE94000F03009305E0154B1B680193164B1B68C9
:10AEA4000093019B062B1DD1009B033B042B17D859
:10AEB40001A252F823F000BFD1AE0200D5AE0200C9
:10AEC400D9AE0200DDAE0200E1AE020001230AE0C9
:10AED400012308E0012306E0012304E0012302E04A
:10AEE400012300E00023184602B07047300100102F
:10AEF400E00F00F0E80F00F03401001082B0174BAF
:10AF04001B68DBB20193164B1B681B0903F00F038C
:10AF14000093019B062B1DD1009B033B042B17D8E8
:10AF240001A252F823F000BF41AF020045AF020076
:10AF340049AF02004DAF020051AF020001230AE005
:10AF4400002308E0002306E0002304E0002302E0DD
:10AF5400002300E00023184602B07047E00F00F021
:10AF6400E80F00F082B0174B1B68DBB20193164B5D
:10AF74001B681B0903F00F030093019B062B1DD1D3
:10AF8400009B033B042B17D801A252F823F000BF07
:10AF9400A9AF0200ADAF0200B1AF0200B5AF02002D
:10AFA400B9AF020001230AE0002308E0002306E011
:10AFB400002304E0002302E0002300E000231846FD
:10AFC40002B07047E00F00F0E80F00F082B01D4BB4
:10AFD4001B68B3F1FF3F0AD11B4B1B68DBB2019323
:10AFE4001A4B1B681B0903F00F03009305E0154B74
:10AFF4001B680193164B1B680093019B062B1DD104
:10B00400009B033B042B17D801A252F823F000BF86
:10B0140029B002002DB0020031B0020035B00200A8
:10B0240039B0020000230AE0002308E0012306E00F
:10B03400012304E0012302E0012300E00023184679
:10B0440002B0704730010010E00F00F0E80F00F08C
:10B054003401001082B01D4B1B68B3F1FF3F0AD1CD
:10B064001B4B1B68DBB201931A4B1B681B0903F0D3
:10B074000F03009305E0154B1B680193164B1B68E7
:10B084000093019B062B1DD1009B033B042B17D877
:10B0940001A252F823F000BFB1B00200B5B0020023
:10B0A400B9B00200BDB00200C1B0020001230AE041
:10B0B400012308E0012306E0012304E0012302E068
:10B0C400012300E00023184602B07047300100104D
:10B0D400E00F00F0E80F00F03401001082B01D4BC7
:10B0E4001B68B3F1FF3F0AD11B4B1B68DBB2019312
:10B0F4001A4B1B681B0903F00F03009305E0154B63
:10B104001B680193164B1B680093019B062B1DD1F2
:10B11400009B033B042B17D801A252F823F000BF75
:10B1240039B102003DB1020041B1020045B1020053
:10B1340049B1020001230AE0012308E0012306E0EB
:10B14400012304E0012302E0012300E00023184668
:10B1540002B0704730010010E00F00F0E80F00F07B
:10B164003401001082B0154B1B680193144B1B680B
:10B174000093019B062B1DD1009B033B042B17D886
:10B1840001A252F823F000BFA1B10200A5B1020050
:10B19400A9B10200ADB10200B1B1020000230AE07E
:10B1A400002308E0002306E0012304E0012302E079
:10B1B400012300E00023184602B07047300100105C
:10B1C4003401001082B0154B1B680193144B1B68AB
:10B1D4000093019B062B1DD1009B033B042B17D826
:10B1E40001A252F823F000BF01B2020005B202002E
:10B1F40009B202000DB2020011B2020000230AE0FB
:10B20400002308E0002306E0002304E0012302E019
:10B21400012300E00023184602B0704730010010FB
:10B224003401001008B5FFF7CDFF0346002B07D00B
:10B234004FF010234FF08042D3F80832C2F858354B
:10B2440000BF08BD00BF044BD3F80034002BFAD074
:10B2540000BF00BF704700BF00E0014000B583B0ED
:10B264000190054A019BC2F80435FFF7EBFF00BFCC
:10B2740003B05DF804FB00BF00E00140024B034A49
:10B284001A6000BF704700BFC42200200090D003A2
:10B2940008B5FFF7FFFC0346002B06D0964B1B684E
:10B2A4001B0A964A03F01F031360FFF737FD03469A
:10B2B400002B02D0924B934A1A60FFF763FD0346BA
:10B2C400002B06D0904B1B685B0B904A03F00703DE
:10B2D4001360FFF79BFD0346002B05D08C4BDB6806
:10B2E4008B4A23F08073D360FFF7C4FD0346002B21
:10B2F4000ED04FF080430022C3F80C214FF080435E
:10B304000022C3F810214FF080430022C3F83825EF
:10B31400FFF7F4FD0346002B02D07E4B03221A6094
:10B32400FFF720FE0346002B0BD07B4B05221A604F
:10B334007A4B01221A607A4B00221A60794B3F2221
:10B344001A60FFF743FE0346002B76D04FF080537C
:10B35400754AD3F80434C2F820354FF08053724A4A
:10B36400D3F80834C2F824354FF080536E4AD3F82A
:10B374000C34C2F828354FF080536B4AD3F810349C
:10B38400C2F82C354FF08053674AD3F81434C2F80E
:10B3940030354FF08053644AD3F81834C2F834354A
:10B3A4004FF08053604AD3F81C34C2F840354FF054
:10B3B40080535D4AD3F82034C2F844354FF08053AB
:10B3C400594AD3F82434C2F848354FF08053564ACA
:10B3D400D3F82834C2F84C354FF08053524AD3F88E
:10B3E4002C34C2F850354FF080534F4AD3F83034E0
:10B3F400C2F854354FF080534B4AD3F83434C2F872
:10B4040060354FF08053484AD3F83834C2F8643575
:10B414004FF08053444AD3F83C34C2F868354FF0B7
:10B424008053414AD3F84034C2F86C354FF080530E
:10B434003D4AD3F84434C2F87035FFF70BFE034697
:10B44400002B05D0394B1B68394A03F04F031360B6
:10B45400FFF744FE0346002B0DD04FF08043D3F892
:10B46400003403F00103002B05D04FF080436FF04C
:10B474000102C3F80024FFF775FE0346002B05D034
:10B484002C4B1B682B4A43F4806313602A4BD3F87C
:10B494008830294A43F47003C2F88830BFF34F8FD1
:10B4A40000BFBFF36F8F00BFFFF7BCFE4FF0102348
:10B4B400D3F80032002B05DB4FF01023D3F804320D
:10B4C400002B15DA0120FFF7C9FE4FF010231522D7
:10B4D400C3F80022FFF7B6FE4FF010231522C3F87D
:10B4E4000422FFF7AFFE0020FFF7B8FEFFF7BEFB14
:10B4F400FFF7C4FE00BF08BD24030010403501401F
:10B5040074C007400DF0ADBA440200103C05004081
:10B51400F0ED00E0A00500401056004088560040C1
:10B52400185600401456004000C000405802001055
:10B53400E40E00403C17004000ED00E082B00346FA
:10B544008DF807309DF90730002B13DB9DF8073089
:10B5540003F01F0209499DF907305B09012000FA35
:10B5640002F2203341F82320BFF34F8F00BFBFF313
:10B574006F8F00BF00BF02B0704700BF00E100E062
:10B58400044BD3F80034002B14BF01230023DBB297
:10B59400184670470000014008B507F08FFF0346C6
:10B5A40083F00103DBB2002B03D109497B20FDF7B3
:10B5B40015FEFFF7E5FF034683F00103DBB2002B22
:10B5C40004D000F041FB034B00229A7000BF08BD79
:10B5D400404703003C29002000B583B000230193B9
:10B5E400184B1B78002B02D0852301931CE0154BCC
:10B5F40000229A60134B00225A60124B00221A61F7
:10B60400104B0022DA60104800F0E4FA019007F0D1
:10B6140055FF034683F00103DBB2002B01D000F099
:10B62400FFFA084B01221A70FFF7AAFF0346002B0A
:10B6340002D0044B01229A70019B184603B05DF8B6
:10B6440004FB00BF3C29002025B7020084B0019010
:10B65400019B1B680393039B002B03D0039B1A6875
:10B66400019B1A60039B184604B0704700B583B071
:10B67400164B1B78002B04D1154940F21710FDF727
:10B68400ADFD124BDB68002B04D111494FF48C70D3
:10B69400FDF7A4FD00238DF807300DF107031846CC
:10B6A400FCF7AAF9094BDB68013B084AD360074B56
:10B6B400DB68002B01D1FFF76FFF9DF807301846B8
:10B6C400FCF7B0F900BF03B05DF804FB3C2900208F
:10B6D4004047030000B585B003468DF807309DF858
:10B6E4000730002B02D10C4B039301E00B4B039367
:10B6F4000398FFF7ABFF0290029B002B06D0029B3E
:10B704005B689DF8072010469847F1E700BF00BF2B
:10B7140005B05DF804FB00BF442900204C2900203B
:10B7240000B583B003468DF807309DF80730002B31
:10B7340005D10A4B01225A700020FFF7CBFF9DF878
:10B744000730012B05D1054B01229A700120FFF728
:10B75400C1FF00BF03B05DF804FB00BF3C2900201B
:10B7640000B583B001900091019B002B05D1054BDE
:10B7740001225A700020FFF7ADFF00BF03B05DF84F
:10B7840004FB00BF3C29002000B585B003460091AE
:10B794008DF807309DF80730032B29D0032B35DCB7
:10B7A400002B02D0012B04D030E00020FFF7C6FEAE
:10B7B4002DE000238DF80F300DF10F031846FCF730
:10B7C4001BF9154B1B7883F00103DBB2002B01D06E
:10B7D400FFF702FF104BDB6801330F4AD3600E4BB7
:10B7E40001229A709DF80F301846FCF71BF90EE001
:10B7F400094B1B78002B04D1084940F25220FDF775
:10B80400EDFC00F00DFAFFF731FF00E000BF00BFD0
:10B8140005B05DF804FB00BF3C290020404703004D
:10B8240000B589B001900091009B0793019B1B78A0
:10B834008DF80C30019B5B680493019B9B68DBB221
:10B844008DF81430019BDB680693074A079B52F876
:10B8540023300649079A51F8221003AA1046984744
:10B8640000BF09B05DF804FB5029002054290020D2
:10B8740000B589B001900091009B0793019B1B7850
:10B884008DF80C30019B5B680493019B9B68DBB2D1
:10B894008DF81430019BDB680693074A079B52F826
:10B8A40023300649079A51F8221003AA10469847F4
:10B8B40000BF09B05DF804FB502900205429002082
:10B8C40030B58FB0039002910192039B1B780C93C7
:10B8D40026490C9B019A41F82320029B1A692449AA
:10B8E4000C9B41F82320029B5B7F1946214A0C9B49
:10B8F40013440A461A70029B04AC1D460FCD0FC4B4
:10B9040095E80F0084E80F000C9B089300230D9327
:10B91400039B1B781A46174B9B5C002B0DD0039B93
:10B92400181D019B002B01D0134A00E0002204AB38
:10B93400194601F0DBFE0D9014E0039B1B781A46B8
:10B944000C4B9B5C002B0DD1039B03F10C00019B62
:10B95400002B01D0094A00E0002204AB194601F093
:10B9640053F80D900D9B18460FB030BD50290020A0
:10B97400542900205829002025B8020075B8020077
:10B9840082B003468DF807309DF90730002B0CDB9D
:10B994009DF8073003F01F0205499DF907305B0944
:10B9A400012000FA02F241F8232000BF02B07047E0
:10B9B40000E100E082B0034600918DF807309DF964
:10B9C4000730002B0ADB009BDAB20C499DF90730E3
:10B9D4005201D2B20B4483F800230BE0009BDAB28D
:10B9E40007499DF8073003F00F03043B5201D2B21C
:10B9F4000B441A7600BF02B0704700BF00E100E0BC
:10BA040000ED00E082B00190019B1B0B5BB2184675
:10BA140002B0704700B583B003460A468DF807307C
:10BA240013468DF806309DF80630012B03D99DF896
:10BA34000630032B0BD99DF80630042B03D99DF84F
:10BA44000630072B03D908496B20FDF7C7FB9DF887
:10BA540006209DF9073011461846FFF7ABFF00BFDB
:10BA640003B05DF804FB00BF7C47030000B583B05E
:10BA740003468DF807309DF907301846FFF780FF1D
:10BA840000BF03B05DF804FB82B003468DF80730B5
:10BA94000F4A9DF90730002B00DA1F335B115BB2AC
:10BAA40052F823209DF90730594203F01F0301F097
:10BAB4001F0158BF4B425BB222FA03F303F00103A8
:10BAC400002B14BF01230023DBB2184602B07047D9
