:100000000000012089030000710300007303000059
:100010007503000077030000790300000000000072
:100020000000000000000000000000007B03000052
:100030007D030000000000007F030000810300003A
:100040008303000083030000830300008303000098
:100050008303000083030000751500008303000084
:10006000511A000083030000830300008303000093
:100070008303000083030000830300008303000068
:100080008303000083030000830300008303000058
:100090008303000083030000830300008303000048
:1000A0008303000083030000830300008303000038
:1000B0008303000083030000000000000000000034
:1000C0008303000083030000830300008303000018
:1000D000830300008303000083030000000000008E
:1000E0000000000000000000000000000000000010
:1000F0000000000000000000000000000000000000
:1001000000000000000000000000000000000000EF
:1001100000000000000000000000000000000000DF
:1001200000000000000000000000000000000000CF
:1001300000000000000000000000000000000000BF
:1001400000000000000000000000000000000000AF
:10015000000000000000000000000000000000009F
:10016000000000000000000000000000000000008F
:10017000000000000000000000000000000000007F
:10018000000000000000000000000000000000006F
:10019000000000000000000000000000000000005F
:1001A000000000000000000000000000000000004F
:1001B000000000000000000000000000000000003F
:1001C000000000000000000000000000000000002F
:1001D000000000000000000000000000000000001F
:1001E000000000000000000000000000000000000F
:1001F00000000000000000000000000000000000FF
:100200003A493B480A1A02D0072291438D463949A0
:1002100039480A1A06D00722914381F3098802223D
:1002200082F3148835483649364A00F041F836489A
:100230003649374A00F03CF836483749374A00F02B
:1002400037F837483749384A00F032F837483849E4
:10025000384A00F02DF838483849394A00F028F873
:1002600038483949394A00F023F8394839490022D9
:1002700000F036F838483949002200F031F83848A3
:100280003849091A02F014F9374A90472548264997
:10029000884205D00268043003B4904703BCF7E7F6
:1002A00000208646EC4600200021304A9047FEE7B9
:1002B000884214D0521A12D003460B43134303242E
:1002C000234206D1036804300B600431043AF9D1AB
:1002D0007047037801300B700131013AF9D1704752
:1002E000884202D002700130FAE770470000012016
:1002F00000E000200000012000000120482600004E
:100300000000002004000020E4030000E4030000DB
:1003100030250000482600000000002000000020DA
:100320003025000030250000302500003025000079
:100330003025000030250000302500003025000069
:10034000472600004C260000040000200400002086
:100350000400002090000020900000209000002069
:100360009000002090200020B1030000D51B000069
:10037000FEE7FEE7FEE7FEE7FEE7FEE7FEE7FEE755
:10038000FEE7FEE700F002B8FFF7FCBF0F484FF0B2
:100390000701884385460E4880470E48016841F4AE
:1003A00070010160BFF34F8FBFF36F8FFFF728BF5E
:1003B00009480A490A4A884207D0521A05D00378E8
:1003C00001300B700131013AF9D170470000012072
:1003D0000522000088ED00E030250000000000202C
:0403E00000000020F9
:1003E40086B003900291019201238DF817309DF895
:1003F4001730204A039B13601E4A029B53601D4A18
:10040400019B9360039B44F20102934212D0039B2D
:1004140044F20202934220D1019B164AD360154B49
:10042400DB681B68134A9361124BDB685B68114AF3
:10043400D36112E0019B0F4A13610E4B1B699B6849
:100444000C4A53610B4B1B691B680A4A9361094BA5
:100454001B695B68074AD36100BF72B600BF00BF67
:100464009DF81730DBB2002BFAD162B600BF00BF93
:1004740006B070470400002000B583B002900091DC
:10048400019244F2010071466A4600F003F803B099
:1004940000BD00BF00B587B003900291019272B60F
:1004A40000BF039B44F20102934207D0039B44F232
:1004B4000202934205D1019B059303E0019B04933F
:1004C40000E000BF074B1B6803F00103002B00D0C2
:1004D40000BE019A02990398FFF782FF00BF07B09C
:1004E4005DF804FBF0ED00E072B600BF034B1B683F
:1004F4000133024A136000BF704700BF240000208C
:10050400064B1B68013B054A1360044B1B68002B18
:1005140001D162B600BF00BF704700BF24000020B5
:1005240000B583B0019000F025F80346012B03D0F9
:100534000449432000F03BF8FFF7D6FF00BF03B0A7
:100544005DF804FB3025000000B583B003468DF848
:10055400073000F00FF80346012B03D00449512063
:1005640000F025F8FFF7CCFF00BF03B05DF804FBF3
:100574003025000084B0EFF305830193019BC3F39E
:1005840008030393039B002B0DD1EFF31483009313
:10059400009B0293029B03F00103002B0CBF012379
:1005A4000023DBB200E00123184604B0704700B515
:1005B40085B003460091ADF80630BDF806300293CD
:1005C400009B039302AB1A46002144F20200FFF79A
:1005D40061FF00BF05B05DF804FB0000054B1B780C
:1005E400002B04D1034B01221A70002300E0852361
:1005F400184670472800002082B003468DF8073063
:100604009DF90730002B0CDB9DF8073003F01F0227
:1006140005499DF907305B09012000FA02F241F80F
:10062400232000BF02B0704700E100E082B003461F
:1006340000918DF807309DF90730002B0ADB009BF1
:10064400DAB20C499DF907305201D2B20B4483F857
:1006540000230BE0009BDAB207499DF8073003F052
:100664000F03043B5201D2B20B441A7600BF02B00E
:10067400704700BF00E100E000ED00E082B00190AF
:10068400019B1B0B5BB2184602B0704700B583B0E8
:1006940003460A468DF8073013468DF806309DF858
:1006A4000630072B03D908496B20FFF780FF9DF81C
:1006B40006209DF9073011461846FFF7B7FF00BF23
:1006C40003B05DF804FB00BF7025000000B583B0E3
:1006D40003468DF807309DF907301846FFF78CFF65
:1006E40000BF03B05DF804FB82B003468DF8073009
:1006F4009DF8073003F1804303F5C043184602B068
:10070400704700B583B00346ADF80630BDF8063037
:10071400184600F026F803461B68012B0CBF012382
:100724000023DBB2184603B05DF804FB00B585B0C6
:100734000346ADF80630BDF80630184600F011F84F
:1007440003461A4600231360BDF80630184600F02D
:1007540008F803461B680393039B00BF05B05DF8CC
:1007640004FB82B00346ADF80630BDF8063003F151
:10077400804303F5C043184602B0704782B001902D
:10078400034A019BC2F8043300BF02B0704700BFA4
:100794000060004082B00190034BD3F80423019B16
:1007A4001340184602B070470060004082B00190C8
:1007B400084A019B03F5A27352F82330054943F01C
:1007C4000102019B03F5A27341F8232000BF02B08C
:1007D400704700BF0060004084B00390029113464C
:1007E4008DF80730144A039B03F5A27352F82330A3
:1007F400114923F4473323F44073039A02F5A27298
:1008040041F822300C4A039B03F5A27352F82320CB
:10081400029B1B0203F4F8519DF807301B0403F4F8
:1008240040330B4304491A43039B03F5A27341F875
:10083400232000BF04B070470060004082B00190E4
:10084400054A019B03F5A27352F823301B0A03F0F7
:100854001F03184602B070470060004082B0019048
:10086400064A019B03F5A27352F823301B0C03F0D4
:100874000303DBB2184602B0704700BF00600040BB
:1008840084B00190094A019B03F5A27352F8233006
:1008940043F0030303930549019B03F5A273039AF1
:1008A40041F8232000BF04B0704700BF006000403F
:1008B40084B00390029111461A460B468DF8073016
:1008C40013468DF80630184A039B03F5A27352F8B9
:1008D4002330154923F4981323F4F853039A02F5AB
:1008E400A27241F82230104A039B03F5A27352F816
:1008F4002320029B1B0203F4F8519DF807301B04CC
:1009040003F4403319439DF806301B0503F48013A8
:100914000B4305491A43039B03F5A27341F82320B3
:1009240000BF04B0704700BF0060004000B583B052
:100934000190019B1B68184600F061F90346002BE7
:1009440004D105494FF4F670FFF731FE4FF0A04390
:10095400184603B05DF804FBA025000000B585B07F
:100964000190084611461A4603468DF803300B469B
:100974008DF8023013468DF8013001AB1846FFF7AD
:10098400D5FF03909DF803209DF802305B001A43C5
:100994009DF801309B001A439DF818301B0242EA6F
:1009A40003019DF81C301B04019A1943039B02F5B3
:1009B400E07243F8221000BF05B05DF804FB00B5F7
:1009C40085B00390002301930023009300230122A8
:1009D40001210398FFF7C2FF00BF05B05DF804FBD7
:1009E40000B585B003900B468DF80B309DF80B30A5
:1009F4000022019200220092002200210398FFF7B6
:100A0400ADFF00BF05B05DF804FB00B585B00190F3
:100A140001AB1846FFF78AFF0390019A039B02F586
:100A2400E07253F8223023F002030293019A039BED
:100A340002F5E072029943F8221000BF05B05DF898
:100A440004FB00B585B001900B468DF8033001AB73
:100A54001846FFF76BFF0390019A039B02F5E072BF
:100A640053F82230019A23F44031039B02F5E072DB
:100A740043F82210019A039B02F5E07253F8221006
:100A84009DF803301B04019A1943039B02F5E0729D
:100A940043F8221000BF05B05DF804FB00B585B033
:100AA400019001AB1846FFF741FF0390019B01221F
:100AB40002FA03F31946039800F04BF800BF05B09F
:100AC4005DF804FB00B585B0019001AB1846FFF753
:100AD4002DFF0390019B012202FA03F319460398A8
:100AE40000F041F800BF05B05DF804FB00B585B027
:100AF400019001AB1846FFF719FF0390039800F02B
:100B040020F80246019B22FA03F303F0010318467E
:100B140005B05DF804FB00B585B0019001AB184643
:100B2400FFF704FF0390019A039B02F5E07253F868
:100B340022301B0C03F00303DBB2184605B05DF84A
:100B440004FB82B00190019BD3F81035184602B023
:100B5400704782B001900091019B009AC3F8082568
:100B640000BF02B0704782B001900091019B009ACF
:100B7400C3F80C2500BF02B0704786B00390029101
:100B840001924FF0A0430493039B059319E0059B46
:100B94009B0018336B4453F8083CD3F82025019B81
:100BA4001A60059B9B0018336B4453F8083C019A68
:100BB4001268C3F82025019B04330193059B01337C
:100BC4000593039A029B1344059A9A42DFD300BF0C
:100BD40000BF06B0704700B585B0019001AB184660
:100BE400FFF7A4FE0390019B012202FA03F31A46C5
:100BF400039BC3F8202500BF05B05DF804FB84B057
:100C04000190019B5B09029300230393029B002B39
:100C140003D14FF0FF33039300BF019B03F01F0385
:100C24000193039A019B22FA03F303F00103002BBF
:100C340014BF01230023DBB2184604B0704784B00C
:100C440001900091009B0393019BDB080293019B9D
:100C540003F0070301930122019B02FA03F30399B2
:100C6400029A0A4412781340184604B0704784B0BC
:100C740001900091009B0393019BDB080293019B6D
:100C840003F007030193039A029B13441B785AB29F
:100C94000121019B01FA03F35BB2134359B2039A96
:100CA400029B1344CAB21A7000BF04B0704700001C
:100CB40082B00190074A019B1344243393F9003016
:100CC400B3F1FF3F14BF01230023DBB2184602B087
:100CD400704700BF2C00002082B001900C4A019B99
:100CE4001344243393F90030002B09DB084A019B99
:100CF4001344243393F90030072B01DC012300E073
:100D0400002303F00103DBB2184602B0704700BFB2
:100D14002C00002082B00190064A019B1344243326
:100D240093F90030072BCCBF01230023DBB2184614
:100D340002B070472C00002082B00190064A019B4B
:100D44001344243393F90030DB43DBB2DB09DBB219
:100D5400184602B0704700BF2C00002084B00390F6
:100D6400029101928DF80330029B59B20E4A039B03
:100D7400134424330A461A700B49029B019A41F822
:100D840023209DF8033083F00103DBB2002B08D04D
:100D9400029B083B039A51B2034A13440A4683F860
:100DA400442000BF04B070472C00002082B00190A2
:100DB400044A019B13442433FE221A7000BF02B07C
:100DC400704700BF2C00002082B00190044A019BB0
:100DD40013442433FF221A7000BF02B0704700BFCF
:100DE4002C00002000B583B0019004490198FFF75E
:100DF4003EFF00BF03B05DF804FB00BF710000209C
:100E040082B00190044A019B1344243393F90030C7
:100E1400184602B0704700BF2C00002082B0019039
:100E2400034A019B52F82330184602B0704700BFB2
:100E34002C00002084B00190074A019B13444433E2
:100E440093F900308DF80F309DF80F3023F0C00374
:100E5400184604B0704700BF2C00002084B00190F5
:100E6400074A019B1344443393F900308DF80F3043
:100E74009DF80F309B09DBB2184604B0704700BFE1
:100E84002C00002000B589B00390029113468DF820
:100E94000730FF238DF81F309DF80730002B01D059
:100EA400002300E0082305939DF80730002B01D0B0
:100EB400082300E009230493059B069314E00F4ADA
:100EC400069B52F82330B3F1FF3F0AD19DF8073057
:100ED400029A06990398FFF741FF069B8DF81F308D
:100EE40006E0069B01330693069A049B9A42E6D3D6
:100EF4009DF91F30184609B05DF804FB2C00002052
:100F040082B003468DF807309DF80730094A4FF048
:100F1400FF3142F823109DF80730072B07D99DF8BD
:100F24000730083B034A1344FF2283F8442000BFE0
:100F340002B070472C00002000B583B02D4B93F80D
:100F44004930002B03D008230093009B4EE000237C
:100F54008DF8073011E09DF807301846FFF74FFE73
:100F64000346002B04D09DF807301846FFF72CFFEA
:100F74009DF8073001338DF807309DF807301F2B9B
:100F8400E9D900238DF8073009E09DF807301846A9
:100F9400FFF7B6FF9DF8073001338DF807309DF851
:100FA4000730082BF1D904220021134801F08EFAEE
:100FB4001248FFF763FB034606211846FFF766FB5A
:100FC4000E48FFF75BFB03461846FFF77FFB4FF421
:100FD400BE70FFF7ABFB4FF00040FFF7CFFB054BB4
:100FE400012283F8492000230093009B184603B094
:100FF4005DF804FB2C00002071000020006000401C
:1010040000B585B0019000910198FFF7F8FD034603
:10101400002B04D12D4940F24910FFF7C8FA2C4B9C
:1010240093F84930012B04D028494FF4A570FFF7F9
:10103400BEFA009B002B04D1244940F24B10FFF769
:10104400B6FA002303930198FFF732FE0346002B00
:1010540002D00823039334E0009B9B78002B19D023
:10106400012200210198FFF70DFF03468DF80B3094
:101074009DF90B30B3F1FF3F09D09DF90B00009BA4
:101084001A78009B5B780199FFF712FC05E00423B2
:10109400039302E00198FFF789FE039B002B10D114
:1010A400009B5B78012B03D10198FFF7F7FC02E06A
:1010B4000198FFF707FD0198FFF781FC0198FFF7FE
:1010C40091FE039B184605B05DF804FBD025000093
:1010D4002C00002000B583B001900198FFF78FFD2C
:1010E4000346002B04D1144940F2B310FFF75FFA12
:1010F4000198FFF7DDFD0346002B04D10E494FF4A0
:10110400DA70FFF754FA0198FFF7E6FD0346002B67
:1011140004D1094940F2B510FFF749FA074A019B87
:101124001344243393F900301846FFF7A9FB00BF9A
:1011340003B05DF804FB00BFD02500002C000020A4
:1011440000B583B001900198FFF759FD0346002BC9
:1011540004D10D4940F2C710FFF729FA0198FFF7AF
:10116400BBFD0346002B04D107494FF4E470FFF79D
:101174001EFA0198FFF744FE0346DBB29B00DBB284
:10118400184603B05DF804FBD025000000B585B017
:1011940001900198FFF7D4FF03468DF80F309DF8B6
:1011A4000F301846FFF7A0FA0346184605B05DF85D
:1011B40004FB000000B587B00390029101920398EC
:1011C400FFF71DFD0346002B04D137494FF40C7083
:1011D400FFF7EDF9002305930398FFF7ADFD0346F0
:1011E400002B02D00823059358E0029B9B78C3F39D
:1011F4004003DBB21A4601990398FFF743FE034606
:101204008DF813309DF91330B3F1FF3F44D0029BA6
:101214009B78C3F38003DBB283F00103DBB2002BC2
:1012240013D0029B9B7803F00103DBB2002B03D0A5
:101234000398FFF7EAFB05E0029B5B7819460398E5
:10124400FFF7CEFB0398FFF7CDFD029B9B7803F0DD
:101254000203DBB2002B08D09DF91300029B1B781C
:101264001A460399FFF7B8FA18E09DF91330083BC2
:101274000E4A134493F94410029B1B785BB29B0102
:101284005AB29DF91330083B0A4351B2074A13443A
:101294000A4683F8442001E004230593059B18467D
:1012A40007B05DF804FB00BFD02500002C0000202F
:1012B40000B589B001900B468DF803300198FFF713
:1012C4009EFC0346002B04D13A494FF41870FFF7F3
:1012D4006EF90198FFF730FD0346002B04D1354920
:1012E40040F26120FFF763F90198FFF713FD03460D
:1012F400002B2AD00198FFF783FD0346083B1846CC
:10130400FFF7ACFD03468DF80F309DF80F30032B2B
:101314000BD10198FFF7EAFB0346002B01D003230E
:1013240000E002238DF81F3008E09DF80F30012BF8
:1013340001D1022300E003238DF81F309DF81F30F4
:1013440019460198FFF77DFB30E00198FFF7C4FCD4
:101354000346002B2AD00198FFF752FD034606935B
:10136400069B9BB240339BB29B00ADF81630069BA4
:101374001846FFF71BFABDF816301846FFF7D6F9E2
:101384009DF80330002B11D00198FFF739FD034677
:101394001846FFF743FD0490049B002B06D001225E
:1013A400069B02FA03F31846FFF7E8F900BF09B0F9
:1013B4005DF804FBD025000000B583B001900198CE
:1013C400FFF71DFC0346002B04D1164940F2B92057
:1013D400FFF7EDF80198FFF79DFC0346002B0AD1B7
:1013E4000198FFF779FC0346002B04D10D4940F224
:1013F400BA20FFF7DCF80198FFF76EFC0346002BD8
:1014040009D00198FFF7FCFC03469BB240339BB222
:101414009B009BB201E04FF4BE73184603B05DF825
:1014240004FB00BFD025000000B585B001900198F1
:10143400FFF7C2FF0346ADF80E30BDF80E30184674
:10144400FFF78FF90346184605B05DF804FB00B5B5
:1014540085B00190019A01210020FFF78EFB002343
:1014640003930BE0039B9B00019A13441B68002B1E
:1014740001D0012306E0039B01330393039B002B5C
:10148400F0D00023184605B05DF804FB00B587B022
:101494000190002305935BE0344A059B13444433D5
:1014A40093F90030B3F1FF3F4ED00598FFF7C2FC2B
:1014B400049001990498FFF7C2FB0346002B44D023
:1014C4000598FFF7CBFC03468DF80F300498FFF71F
:1014D40022FB03468DF80E309DF80E30022B01D10D
:1014E400032300E002238DF80D309DF80D301946DA
:1014F4000498FFF7A6FA0498FFF76DFB0498FFF72A
:101504007FFC03461846FFF789FC0290029B002BE0
:101514001BD09DF80F30032B0FD09DF80E30022BFB
:1015240003D19DF80F30012B07D09DF80E30032B0B
:101534000BD19DF80F30022B07D19DF80F20029B91
:1015440011460498984700E000BF059B01330593BA
:10155400059B002BA0D00198FFF779FF0346002BD1
:1015640097D100BF00BF07B05DF804FB2C0000203A
:1015740000B589B000230793002300934FF48073D0
:10158400ADF81630012304930023069321E0BDF83F
:1015940016301846FFF7B5F80346002B0ED0049812
:1015A400FFF7F8F80346002B08D0BDF816301846AC
:1015B400FFF7BCF8079A049B13430793049B5B0053
:1015C4000493BDF816300433ADF81630069B01338E
:1015D4000693069B072BDAD94FF4BE70FFF791F8F8
:1015E4000346002B0DD04FF4BE70FFF79FF8079B06
:1015F40043F0004307936B461A4601210020FFF78E
:10160400BCFA079BDBB2002B29D0012304930023EF
:10161400069321E0049A079B1340002B16D00698EA
:10162400FFF70CF903900698FFF718F903468DF8B5
:101634000B300698FFF7F2FB0190019B002B05D0BD
:101644009DF80B20019B114603989847049B5B006F
:101654000493069B01330693069B072BDAD9079B59
:10166400002B03DA6B461846FFF710FF00BF09B0E2
:101674005DF804FB82B003468DF807309DF807300F
:10168400044A012101FA03F3C2F8043500BF02B091
:10169400704700BF00F0014084B0034602910192FC
:1016A4008DF80F3008499DF80F30A233029A41F8A3
:1016B4003320054A9DF80F30A233DB001344019A0E
:1016C4005A6000BF04B0704700F0014082B0034686
:1016D4008DF807309DF80730012202FA03F318460B
:1016E40002B0704700B583B003468DF807309DF80B
:1016F40007301846FFF7EAFF0346C3F31303002B32
:1017040014BF01230023DBB2184603B05DF804FBC9
:1017140082B001900123184602B0704700B583B02F
:1017240003468DF807309DF807301846FFF7CEFFC3
:1017340003461846FFF7ECFF0346184603B05DF86E
:1017440004FB000000B583B003468DF807309DF814
:1017540007301846FFF7BAFF0246064B1B681340D2
:10176400002B14BF01230023DBB2184603B05DF83D
:1017740004FB00BF7800002000B583B003468DF859
:1017840007309DF807301846FFF7A0FF0246044BC8
:101794001B681343024A136000BF03B05DF804FBE7
:1017A4007800002000B587B0019000230593002342
:1017B400039304230593244B039300238DF81330E0
:1017C40037E00020FEF7ACFE9DF813301846FFF713
:1017D4007DFF0246039B1340002B15D09DF8133068
:1017E4001846FFF7AFFF034683F00103DBB2002B7B
:1017F4000AD09DF813301846FFF7BEFF019B9DF8F1
:1018040013201A70002305930020FEF79DFE059B0C
:10181400002B12D09DF813301846FFF757FF0346EC
:10182400DB43039A134003939DF8133001338DF87F
:101834001330039B002BC4D100E000BF059B184666
:1018440007B05DF804FB00BFFFFF0F0000B587B0D1
:101854000346029101928DF80F30029B002B02D0B7
:10186400019B002B01D10E2325E0002305939DF855
:101874000F301846FFF736FF034683F00103DBB24F
:10188400002B02D00723059314E09DF80F3018466F
:10189400FFF758FF034683F00103DBB2002B02D0AD
:1018A4000823059306E09DF80F30019A0299184623
:1018B400FFF7F2FE059B184607B05DF804FB00B580
:1018C40085B003468DF80730002303939DF8073055
:1018D4001846FFF723FF034683F00103DBB2002B16
:1018E40002D0072303931AE09DF807301846FFF748
:1018F400F9FE0346002B0DD09DF807301846FFF77C
:1019040021FF034683F00103DBB2002B02D008233E
:10191400039304E09DF807301846FFF7ABFE039BE2
:10192400184605B05DF804FB84B001900B46ADF891
:101934000230BDF80230019A134400221A60BDF847
:101944000230019A13441B680393039B00BF04B045
:10195400704782B001900B46ADF80230BDF80230FA
:10196400019A13441B68002B14BF01230023DBB22C
:10197400184602B0704782B001900091019BD3F8E1
:101984000423009B1340002B14BF01230023DBB26C
:10199400184602B0704782B00190019B9B0003F58A
:1019A400A0739BB2184602B0704782B001904FF406
:1019B4008032019B02FA03F3184602B0704700B567
:1019C40087B00390029113468DF8073000238DF8F9
:1019D400173030E09DF817301846FFF7DCFF034658
:1019E400ADF814309DF817301846FFF7DEFF049069
:1019F400BDF8143019460398FFF7ABFF0346002BDC
:101A040014D004990398FFF7B6FF0346002B0DD0BA
:101A1400BDF8143019460398FFF786FF029B1B6834
:101A2400029A5168BDF81420104698479DF8173063
:101A340001338DF817309DF817209DF807309A422E
:101A4400C8D300BF00BF07B05DF804FB08B504228B
:101A540002490348FFF7B3FF00BF08BD7C00002024
:101A64000080004082B001900B468DF8033000BF27
:101A740002B0704700B587B000230593FFF75CFA06
:101A84000590059B0493049B002B04D0214A1E213E
:101A94000498FEF7F1FC204A01AB12681146198044
:101AA4000233120C1A7003238DF8053001AB1B4A64
:101AB40019460D20FFF77EFB0590059B0393039BBE
:101AC400002B04D0134A24210398FEF7D5FC144AB2
:101AD4006B461268114619800233120C1A706B4659
:101AE40019461120FFF78CFA0590059B0293029B7F
:101AF400002B04D0074A28210298FEF7BDFC1120D0
:101B0400FFF7E8FA01210D20FFF7D2FB00BF07B071
:101B14005DF804FB0C26000040260000691A000052
:101B24004426000000B589B00023079300230693E0
:101B340000230593FEF752FD0790079B0493049B33
:101B4400002B04D0204A36210498FEF795FC1F4848
:101B5400FFF728FE0790079B0393039B002B04D0F9
:101B6400194A39210398FEF787FC0D20FFF75CFC26
:101B740006901120FFF70AFB0590144B1B78059A79
:101B840006991846FFF762FE0790079B0293029B93
:101B9400002B04D00C4A3F210298FEF76DFC0B4B3E
:101BA4001B781846FFF78BFE0790079B0193019B58
:101BB400002B04D0044A42210198FEF75DFC00BFCB
:101BC40009B05DF804FB00BF0C260000880000206B
:101BD40008B5FFF74FFFFFF7A5FFFEE7BFF34F8FF1
:101BE40000BF064BDB6803F4E0620449044B134373
:101BF400CB60BFF34F8F00BF00BFFDE700ED00E0F7
:101C04000400FA0582B01D4B1B68B3F1FF3F0AD1F3
:101C14001B4B1B68DBB201931A4B1B681B0903F0B7
:101C24000F03009305E0154B1B680193164B1B68CB
:101C34000093019B062B1DD1009B033B042B17D85B
:101C440001A252F823F000BF611C0000651C0000D3
:101C5400691C00006D1C0000711C000001230AE0D7
:101C6400012308E0012306E0012304E0012302E04C
:101C7400012300E00023184602B070473001001031
:101C8400E00F00F0E80F00F03401001082B0174BB1
:101C94001B68DBB20193164B1B681B0903F00F038F
:101CA4000093019B062B1DD1009B033B042B17D8EB
:101CB40001A252F823F000BFD11C0000D51C000083
:101CC400D91C0000DD1C0000E11C000001230AE017
:101CD400002308E0002306E0002304E0002302E0E0
:101CE400002300E00023184602B07047E00F00F024
:101CF400E80F00F082B01D4B1B68B3F1FF3F0AD11F
:101D04001B4B1B68DBB201931A4B1B681B0903F0C6
:101D14000F03009305E0154B1B680193164B1B68DA
:101D24000093019B062B1DD1009B033B042B17D86A
:101D340001A252F823F000BF511D0000551D000000
:101D4400591D00005D1D0000611D000001230AE013
:101D5400012308E0012306E0012304E0012302E05B
:101D6400012300E00023184602B070473001001040
:101D7400E00F00F0E80F00F03401001082B0174BC0
:101D84001B68DBB20193164B1B681B0903F00F039E
:101D94000093019B062B1DD1009B033B042B17D8FA
:101DA40001A252F823F000BFC11D0000C51D0000B0
:101DB400C91D0000CD1D0000D11D000001230AE053
:101DC400002308E0002306E0002304E0002302E0EF
:101DD400002300E00023184602B07047E00F00F033
:101DE400E80F00F082B01D4B1B68B3F1FF3F0AD12E
:101DF4001B4B1B68DBB201931A4B1B681B0903F0D6
:101E04000F03009305E0154B1B680193164B1B68E9
:101E14000093019B062B1DD1009B033B042B17D879
:101E240001A252F823F000BF411E0000451E00002D
:101E3400491E00004D1E0000511E000001230AE04F
:101E4400012308E0012306E0012304E0012302E06A
:101E5400012300E00023184602B07047300100104F
:101E6400E00F00F0E80F00F03401001082B0174BCF
:101E74001B68DBB20193164B1B681B0903F00F03AD
:101E84000093019B062B1DD1009B033B042B17D809
:101E940001A252F823F000BFB11E0000B51E0000DD
:101EA400B91E0000BD1E0000C11E000001230AE08F
:101EB400002308E0002306E0002304E0002302E0FE
:101EC400002300E00023184602B07047E00F00F042
:101ED400E80F00F082B0174B1B68DBB20193164B7E
:101EE4001B681B0903F00F030093019B062B1DD1F4
:101EF400009B033B042B17D801A252F823F000BF28
:101F0400191F00001D1F0000211F0000251F0000D5
:101F1400291F000001230AE0002308E0002306E053
:101F2400002304E0002302E0002300E0002318461D
:101F340002B07047E00F00F0E80F00F082B01D4BD4
:101F44001B68B3F1FF3F0AD11B4B1B68DBB2019343
:101F54001A4B1B681B0903F00F03009305E0154B94
:101F64001B680193164B1B680093019B062B1DD124
:101F7400009B033B042B17D801A252F823F000BFA7
:101F8400991F00009D1F0000A11F0000A51F000055
:101F9400A91F000000230AE0002308E0012306E053
:101FA400012304E0012302E0012300E0002318469A
:101FB40002B0704730010010E00F00F0E80F00F0AD
:101FC4003401001082B01D4B1B68B3F1FF3F0AD1EE
:101FD4001B4B1B68DBB201931A4B1B681B0903F0F4
:101FE4000F03009305E0154B1B680193164B1B6808
:101FF4000093019B062B1DD1009B033B042B17D898
:1020040001A252F823F000BF212000002520000087
:10201400292000002D2000003120000001230AE0C7
:10202400012308E0012306E0012304E0012302E088
:10203400012300E00023184602B07047300100106D
:10204400E00F00F0E80F00F03401001082B01D4BE7
:102054001B68B3F1FF3F0AD11B4B1B68DBB2019332
:102064001A4B1B681B0903F00F03009305E0154B83
:102074001B680193164B1B680093019B062B1DD113
:10208400009B033B042B17D801A252F823F000BF96
:10209400A9200000AD200000B1200000B520000000
:1020A400B920000001230AE0012308E0012306E02F
:1020B400012304E0012302E0012300E00023184689
:1020C40002B0704730010010E00F00F0E80F00F09C
:1020D4003401001082B0154B1B680193144B1B682C
:1020E4000093019B062B1DD1009B033B042B17D8A7
:1020F40001A252F823F000BF1121000015210000B5
:10210400192100001D2100002121000000230AE004
:10211400002308E0002306E0012304E0012302E099
:10212400012300E00023184602B07047300100107C
:102134003401001082B0154B1B680193144B1B68CB
:102144000093019B062B1DD1009B033B042B17D846
:1021540001A252F823F000BF712100007521000094
:10216400792100007D2100008121000000230AE084
:10217400002308E0002306E0002304E0012302E03A
:10218400012300E00023184602B07047300100101C
:102194003401001008B5FFF7CDFF0346002B07D02C
:1021A4004FF010234FF08042D3F80832C2F858356C
:1021B40000BF08BD00BF044BD3F80034002BFAD095
:1021C40000BF00BF704700BF00E0014000B583B00E
:1021D4000190054A019BC2F80435FFF7EBFF00BFED
:1021E40003B05DF804FB00BF00E00140024B034A6A
:1021F4001A6000BF704700BF000000200090D003A9
:1022040008B5FFF7FFFC0346002B06D0964B1B686E
:102214001B0A964A03F01F031360FFF737FD0346BA
:10222400002B02D0924B934A1A60FFF763FD0346DA
:10223400002B06D0904B1B685B0B904A03F00703FE
:102244001360FFF79BFD0346002B05D08C4BDB6826
:102254008B4A23F08073D360FFF7C4FD0346002B41
:102264000ED04FF080430022C3F80C214FF080437E
:102274000022C3F810214FF080430022C3F8382510
:10228400FFF7F4FD0346002B02D07E4B03221A60B5
:10229400FFF720FE0346002B0BD07B4B05221A6070
:1022A4007A4B01221A607A4B00221A60794B3F2242
:1022B4001A60FFF743FE0346002B76D04FF080539D
:1022C400754AD3F80434C2F820354FF08053724A6B
:1022D400D3F80834C2F824354FF080536E4AD3F84B
:1022E4000C34C2F828354FF080536B4AD3F81034BD
:1022F400C2F82C354FF08053674AD3F81434C2F82F
:1023040030354FF08053644AD3F81834C2F834356A
:102314004FF08053604AD3F81C34C2F840354FF074
:1023240080535D4AD3F82034C2F844354FF08053CB
:10233400594AD3F82434C2F848354FF08053564AEA
:10234400D3F82834C2F84C354FF08053524AD3F8AE
:102354002C34C2F850354FF080534F4AD3F8303400
:10236400C2F854354FF080534B4AD3F83434C2F892
:1023740060354FF08053484AD3F83834C2F8643596
:102384004FF08053444AD3F83C34C2F868354FF0D8
:102394008053414AD3F84034C2F86C354FF080532F
:1023A4003D4AD3F84434C2F87035FFF70BFE0346B8
:1023B400002B05D0394B1B68394A03F04F031360D7
:1023C400FFF744FE0346002B0DD04FF08043D3F8B3
:1023D400003403F00103002B05D04FF080436FF06D
:1023E4000102C3F80024FFF775FE0346002B05D055
:1023F4002C4B1B682B4A43F4806313602A4BD3F89D
:102404008830294A43F47003C2F88830BFF34F8FF1
:1024140000BFBFF36F8F00BFFFF7BCFE4FF0102368
:10242400D3F80032002B05DB4FF01023D3F804322D
:10243400002B15DA0120FFF7C9FE4FF010231522F7
:10244400C3F80022FFF7B6FE4FF010231522C3F89D
:102454000422FFF7AFFE0020FFF7B8FEFFF7BEFB34
:10246400FFF7C4FE00BF08BD24030010403501403F
:1024740074C007400DF0ADBA440200103C050040A2
:10248400F0ED00E0A00500401056004088560040E2
:10249400185600401456004000C000405802001076
:1024A400E40E00403C17004000ED00E0082938BF6E
:1024B4007047416040F28C01C2F2000108600021C3
:1024C4000160704700220B0011001A0084465AB3C1
:1024D400830704D000F8011B013AF9D124E0C9B202
:1024E40041EA012141EA0141202A11D3203A2DE990
:1024F400F0030B460C460D460E460F4688468946A9
:10250400A0E8FA03203AFBD2BDE8F00320320BD056
:10251400042A05D340F8041B043A05D0042AF9D24E
:0C25240000F8011B013AFBD16046704733
:10253000433A5C4E6F726469635F50726F6A6563A1
:10254000745C636F6D706F6E656E74735C6C6962E2
:102550007261726965735C7574696C5C6170705FDF
:102560007574696C5F706C6174666F726D2E630058
:102570002E2E2F2E2E2F2E2E2F2E2E2F2E2E2F2E76
:102580002E2F696E746567726174696F6E2F6E723B
:1025900066782F6E7266785F676C75652E680000CE
:1025A0002E2E2F2E2E2F2E2E2F2E2E2F2E2E2F2E46
:1025B0002E2F6D6F64756C65732F6E7266782F6841
:1025C000616C2F6E72665F6770696F2E6800000025
:1025D000433A5C4E6F726469635F50726F6A656301
:1025E000745C6D6F64756C65735C6E7266785C6448
:1025F0007269766572735C7372635C6E7266785F23
:102600006770696F74652E6300000000433A5C4E8A
:102610006F726469635F50726F6A6563745C65783A
:10262000616D706C65735C4D795F50726F6A656344
:10263000745C31385F5050495C6D61696E2E630087
:07264000020002000301018A
:042648000090D0032B
:04000003000003896D
:00000001FF
