:100000000000012089030000710300007303000059
:100010007503000077030000790300000000000072
:100020000000000000000000000000007B03000052
:100030007D030000000000007F030000810300003A
:100040008303000083030000830300008303000098
:1000500083030000830300001921000083030000D4
:100060001D2B0000830300008303000083030000B6
:100070008303000083030000830300008303000068
:100080008303000083030000830300008303000058
:100090008303000083030000830300008303000048
:1000A0008303000083030000830300008303000038
:1000B0008303000083030000000000000000000034
:1000C0008303000083030000830300008303000018
:1000D000830300008303000083030000000000008E
:1000E0000000000000000000000000000000000010
:1000F0000000000000000000000000000000000000
:1001000000000000000000000000000000000000EF
:1001100000000000000000000000000000000000DF
:1001200000000000000000000000000000000000CF
:1001300000000000000000000000000000000000BF
:1001400000000000000000000000000000000000AF
:10015000000000000000000000000000000000009F
:10016000000000000000000000000000000000008F
:10017000000000000000000000000000000000007F
:10018000000000000000000000000000000000006F
:10019000000000000000000000000000000000005F
:1001A000000000000000000000000000000000004F
:1001B000000000000000000000000000000000003F
:1001C000000000000000000000000000000000002F
:1001D000000000000000000000000000000000001F
:1001E000000000000000000000000000000000000F
:1001F00000000000000000000000000000000000FF
:100200003A493B480A1A02D0072291438D463949A0
:1002100039480A1A06D00722914381F3098802223D
:1002200082F3148835483649364A00F041F836489A
:100230003649374A00F03CF836483749374A00F02B
:1002400037F837483749384A00F032F837483849E4
:10025000384A00F02DF838483849394A00F028F873
:1002600038483949394A00F023F8394839490022D9
:1002700000F036F838483949002200F031F83848A3
:100280003849091A03F020FA374A90472548264989
:10029000884205D00268043003B4904703BCF7E7F6
:1002A00000208646EC4600200021304A9047FEE7B9
:1002B000884214D0521A12D003460B43134303242E
:1002C000234206D1036804300B600431043AF9D1AB
:1002D0007047037801300B700131013AF9D1704752
:1002E000884202D002700130FAE770470000012016
:1002F00000E000200000012000000120E83F000095
:100300000000002010000020E4030000E4030000CF
:10031000A4370000E83F000000000020000000209B
:10032000D8370000D8370000D8370000D837000091
:10033000D8370000D8370000D8370000D837000081
:10034000E83F0000F83F00001000002010000020EF
:100350001000002088050020880500208805002066
:100360008805002088250020B1030000E52D00004D
:10037000FEE7FEE7FEE7FEE7FEE7FEE7FEE7FEE755
:10038000FEE7FEE700F002B8FFF7FCBF0F484FF0B2
:100390000701884385460E4880470E48016841F4AE
:1003A00070010160BFF34F8FBFF36F8FFFF728BF5E
:1003B00009480A490A4A884207D0521A05D00378E8
:1003C00001300B700131013AF9D170470000012072
:1003D0001D34000088ED00E0D83700000000002048
:0403E00000000020F9
:1003E40000B583B001900091019B1B681B680099C4
:1003F4000198984700BF03B05DF804FB00B583B0D3
:100404000190019B1B685B680198984700BF03B08B
:100414005DF804FB00B583B00190019B1B689B68E9
:100424000198984700BF03B05DF804FB82B00190C7
:10043400019BDB6801225A7100BF02B0704782B091
:100444000190019BDB685B79184602B0704700009D
:10045400024A034BD31ADB0818467047C43700001E
:10046400A437000084B00190009100238DF80F3070
:10047400019B1B7803F00403DBB2002B24D0019B07
:100484001B78C3F30103DBB2012B02D0022B0CD087
:1004940017E0009B1B68019A1288C2F38312D2B240
:1004A40013449A1C009B1A600BE0009B1B68019A82
:1004B4005288C2F3891292B213449A1C009B1A60A8
:1004C40000BF01238DF80F309DF80F30184604B09B
:1004D4007047000000B58BB00023ADF826303E48CD
:1004E40000F0E8FD3D4800F0E5FD3D4B9B680493BA
:1004F4003C4B1B680693049A069B134002339B00F3
:10050400374A13440433089304AB19460898FFF799
:10051400A9FF0346002B09D0049A069B134002331B
:100524009B002F4A134404330893EDE700BF0023D4
:10053400079311E0049B5A1C0492069A1340079AED
:10054400920001A90A44264902339B000B445B68CC
:100554001360079B01330793079B012BEAD99DF88E
:100564000430C3F30103DBB2012B10D0022B1CD1E6
:10057400BDF80A30ADF82630BDF80630C3F3891350
:100584009BB203339A08049B1344049313E0BDF80D
:100594000A30ADF82630BDF80430C3F38313DBB260
:1005A4001A46049B1344049305E00F494FF4C270A8
:1005B40000F0F3FC00BF094800F088FD0590059B9E
:1005C400002B02D0049B064A9360BDF826301846DF
:1005D4000BB05DF804FB00BFF8040020F404002015
:1005E400E000002000000020DC37000000B585B0EA
:1005F4000021074800F0E7FC0390039B0293029B51
:1006040083F310030193019B184605B05DF804FBC6
:10061400FC04002000B589B003900291019200937C
:10062400039B1B0C0793FFF7E1FF0690FFF710FFF6
:100634000246079B934204D3214940F2A91000F0DB
:10064400ACFC069B1904009B5A1C0A9B1340079A96
:100654000A431C4902339B000B445A60009A0A9BCC
:10066400134002339B00174A134404330593039B3E
:1006740003F00703D9B2059A137861F3C503137025
:10068400019B03F00F03D9B2059A138861F3891310
:100694001380029BC3F31501059A136861F39F232A
:1006A4001360059A1378012161F301031370059A0D
:1006B400137823F00403137000BF09B05DF804FB42
:1006C400DC370000E000002000BF704700B58BB0AD
:1006D4000390029113468DF80730039B023308936D
:1006E40001238DF81F30002000F010FC3E4B5A68A7
:1006F400029B1A603D4B1A683B4B99683A4B5B6806
:10070400CB1A13440133099314E00121384800F053
:10071400A1FCFFF7DFFE05900599354800F09AFC2F
:10072400324B1A68304B99682F4B5B68CB1A1344D1
:1007340001330993089A099B9A42E6D89DF81F3021
:10074400002B48D0002304939DF80730002B17D0CA
:100754009DF81030012262F301038DF810309DF8EA
:10076400103043F004038DF81030039B03F00F03A3
:10077400DAB2BDF8103062F38913ADF8103016E028
:100784009DF81030022262F301038DF810309DF8B9
:10079400103043F004038DF81030039BC3F30903B6
:1007A4009AB2BDF8123062F38F13ADF812300E4BCB
:1007B4005A680E4B1B68134002339B000A4A1344C9
:1007C40004330693049A069B1A60074B5A68089BE5
:1007D4001344054A5360002000F0ACFB9DF81F3021
:1007E40018460BB05DF804FBE00000200000002078
:1007F400FC04002000B58BB0059004910392029391
:100804001F4B1B68079306AB012219460298FFF79A
:100814005DFF0346002B24D0069B0233099300237B
:10082400089311E0089B9B00039A1A44099B591CE6
:10083400099107990B401268124902339B000B443B
:100844005A60089B01330893089A029B9A42E9D3A1
:10085400069A079B00931346029A04990598FFF79A
:10086400D9FE084B1B78002B04D000F069F803462E
:10087400002BFAD1FFF728FF00BF0BB05DF804FB93
:1008840000000020E000002000B583B0019000913A
:100894000023002200990198FFF7ACFF00BF03B0CA
:1008A4005DF804FB00B587B0039002910192019BAF
:1008B400059305AA012302990398FFF79BFF00BF44
:1008C40007B05DF804FB00B587B003900291019274
:1008D4000093019B0493009B059304AA02230299AD
:1008E4000398FFF787FF00BF07B05DF804FB00B56E
:1008F4008BB00390029101920093019B0593009B9E
:1009040006930C9B07930D9B08930E9B099305AAD2
:10091400052302990398FFF76DFF00BF0BB05DF844
:1009240004FB0000054B9A68044B5B689A420CBFB9
:1009340001230023DBB21846704700BFE00000200B
:1009440000B599B0FFF7EEFF0346002B01D000235A
:10095400B9E19B4B0022C3F81824BFF34F8F00BFAB
:10096400974B9B680493974B1B681093049A109BB6
:10097400134002339B00924A13440433119300231F
:1009840017930023169300230F9304AB1946119871
:10099400FFF768FD0346002B19D0894BD3F81834B0
:1009A400002B14D1864B5A68049B9A4205D8844B79
:1009B4005B68834A9360002385E1049A109B13408B
:1009C40002339B007E4A134404331193DDE7002372
:1009D400159311E0049B5A1C0492109A1340159A23
:1009E400920001A90A44764902339B000B445B68D8
:1009F4001360159B01331593159B012BEAD99DF8C0
:100A0400043003F00303DBB2022B40F09C80BDF8FA
:100A14000630C3F389139BB20D93BDF80630C3F3BC
:100A240089139BB2502B28BF50239BB20C930C9B71
:100A3400C3F309039AB2BDF8063062F38F13ADF81D
:100A440006300C9B08330B939DF80430C3F3C203A8
:100A5400DBB20F930B995C4800F0E8FB1790179BEF
:100A6400002B00F0D380179800F071FC01A9169BAD
:100A74000822179800F026FD169B08331693049B52
:100A8400DA43109B134001339B000A930C9A0A9B90
:100A94009A4242D90A9B002B08D0049A109B134017
:100AA40002339B00464A1344043300E0474B089347
:100AB4000A9B002B02D00A9BDBB201E00C9BDBB249
:100AC4008DF81F300A9B002B01D0404B00E000231F
:100AD40006930A9B002B06D00C9BDAB20A9BDBB26E
:100AE400D31ADBB200E000238DF817309DF81F20E5
:100AF400169B0899179800F0E5FC9DF81F30169A8C
:100B040013441693069B002B16D09DF81720169BB2
:100B14000699179800F0D6FC0EE0049A109B134037
:100B240002339B00264A134404330993169B0C9A00
:100B34000999179800F0C6FC0D9B03339A08049B8F
:100B44001344049362E09DF8043003F00303DBB222
:100B5400012B5BD1BDF80430C3F38313DBB2062B46
:100B640028BF0623DAB2BDF8043062F38913ADF866
:100B74000430BDF80430C3F38313DBB202330E93A5
:100B84009DF80430C3F3C203DBB20F930E9B9B00AA
:100B940019460D4800F04AFB1790179B002B35D0DF
:100BA400179800F0D4FB01A9169B0822179800F0AF
:100BB40089FC169B08331693002315931DE000BF90
:100BC400E000002000000020C4370000EC000020FA
:100BD400049B5A1C0492109A134002339B003C4A13
:100BE4001344191D169B0422179800F06BFC169BE6
:100BF40004331693159B01331593BDF80430C3F3E6
:100C04008313DBB21A46159B9342E1D3179B002B47
:100C140039D02F4BD3F8103414932D4BD3F8183408
:100C2400002B1BD0179800F0A1FB46E000238DF8A1
:100C34004F301498FFF703FC0346002B02D0012326
:100C44008DF84F309DF84F30002B03D0179914982E
:100C5400FFF7C6FB149BDB681B681493149B002BE3
:100C6400E4D1179800F082FB002000F04FF9184BF4
:100C7400D3F81834002B02D1049B154A936000204A
:100C840000F058F919E0124BD3F81034129306E02F
:100C94001298FFF7BFFB129BDB681B681293129B31
:100CA400002BF5D10B4A0C4BD31ADB081B0443F081
:100CB40002030A491846FFF7E7FDFFF733FE034630
:100CC40083F00103DBB2184619B05DF804FB00BFE2
:100CD400E0000020BC370000A437000020380000EA
:100CE40000B583B00C4BD3F8103401930A4B0122A6
:100CF4001A7009E00198FFF799FB0198FFF77EFB52
:100D0400019BDB681B680193019B002BF2D100BFA0
:100D140000BF03B05DF804FBE000002086B0039040
:100D24000291019201238DF817309DF81730204A63
:100D3400039B13601E4A029B53601D4A019B9360F0
:100D4400039B44F20102934212D0039B44F2020239
:100D5400934220D1019B164AD360154BDB681B6874
:100D6400134A9361124BDB685B68114AD36112E04A
:100D7400019B0F4A13610E4B1B699B680C4A53611C
:100D84000B4B1B691B680A4A9361094B1B695B681F
:100D9400074AD36100BF72B600BF00BF9DF8173089
:100DA400DBB2002BFAD162B600BF00BF06B07047B9
:100DB4000005002000B583B002900091019244F236
:100DC400010071466A4600F003F803B000BD00BF9D
:100DD40030B58BB007900691059272B600BFFFF74D
:100DE4007FFFFFF7ADFD0346002BFAD1079B44F2CA
:100DF4000102934216D0079B44F2020293423ED171
:100E0400059B09932C4A2D4BD31ADB081B0443F092
:100E14000100099B5B681A46099B1B682849FFF778
:100E240052FD39E0059B0893234A244BD31ADB086F
:100E34001B0443F00104089B9D68089B9B681846AB
:100E440000F05EFB03461846089B5B681946089B46
:100E54001B68069A02920193009103462A46194997
:100E64002046FFF744FD144A144BD31ADB081B0435
:100E740043F0010314491846FFF706FD0CE00E4A3F
:100E84000E4BD31ADB081B0443F00103069A0F49E7
:100E94001846FFF707FD00BF0D4B1B6803F0010365
:100EA400002B00D000BE059A06990798FFF736FF7D
:100EB40000BF0BB030BD00BFBC370000A43700003A
:100EC4003438000050380000783800008C380000B6
:100ED400F0ED00E072B600BF034B1B680133024A19
:100EE400136000BF704700BF20050020064B1B683D
:100EF400013B054A1360044B1B68002B01D162B609
:100F040000BF00BF704700BF2005002000B583B0BC
:100F1400019000F025F80346012B03D00449432037
:100F240000F03BF8FFF7D6FF00BF03B05DF804FB09
:100F3400A438000000B583B003468DF8073000F0F4
:100F44000FF80346012B03D00449512000F025F883
:100F5400FFF7CCFF00BF03B05DF804FBA43800002A
:100F640084B0EFF305830193019BC3F30803039358
:100F7400039B002B0DD1EFF314830093009B02938A
:100F8400029B03F00103002B0CBF01230023DBB2FF
:100F940000E00123184604B0704700B585B003464D
:100FA4000091ADF80630BDF806300293009B039320
:100FB40002AB1A46002144F20200FFF709FF00BF0A
:100FC40005B05DF804FB10B487B001900091019B5B
:100FD400009A53E8004F104643E8000191F0000FD7
:100FE400F7D1059404900391059B184607B05DF86A
:100FF400044B704710B487B001900091019B009A94
:1010040053E8004F44EA020043E8000191F0000F66
:10101400F6D1059404900391049B184607B05DF83B
:10102400044B704710B487B001900091019B009A63
:1010340053E8004F04EA020043E8000191F0000F76
:10104400F6D1059404900391059B184607B05DF80A
:10105400044B704710B487B001900091019B009A33
:1010640053E8004F04EB020043E8000191F0000F45
:10107400F6D1059404900391049B184607B05DF8DB
:10108400044B704710B487B001900091019B009A03
:1010940053E8004FA4EB020043E8000191F0000F75
:1010A400F6D1059404900391049B184607B05DF8AB
:1010B400044B704700B583B0019001210198FFF7FC
:1010C40099FF0346184603B05DF804FB00B583B0EE
:1010D400019000210198FFF7A5FF0346184603B0CD
:1010E4005DF804FB00B583B001900B468DF8033026
:1010F400019B002B03D10849E820FFF74EFF019B19
:10110400DA689DF803300199098A01FB03F313445B
:10111400184603B05DF804FBE438000000B583B062
:1011240001900091019B002B03D10849F520FFF7A2
:1011340034FF009B019AD2689B1A019A128AB3FB6E
:10114400F2F3DBB2184603B05DF804FBE4380000A8
:1011540000B585B00190019B002B04D11C494FF4CC
:101164009270FFF71AFF002303930020FFF7CEFECF
:10117400019B1B681A68019B5B689A421FD9019BFB
:101184001B681A68013A1A601B681B781946019893
:10119400FFF7A8FF0390019B9A68019B1B681B68DB
:1011A400D31A8DF80B30019B1B681B799DF80B201B
:1011B4009A4204D9019B1B689DF80B201A710020E8
:1011C400FFF7B8FE039B184605B05DF804FB00BFAB
:1011D400E438000010B584B001900091019B002B0D
:1011E40004D1114940F24710FFF7D7FE009B002BB2
:1011F40004D10D494FF4A470FFF7CFFE009B039375
:101204000020FFF783FE019B1B681C68621C1A60A8
:1012140003990198FFF782FF034623700020FFF72C
:1012240089FE00BF04B010BDE438000000B58BB0E7
:1012340001900091019B1B8A043B0793009A079B32
:101244001344DA1C079BB2FBF3F38DF81B300198AF
:10125400FFF77EFF0590059B002B01D1002338E0AA
:10126400059B00221A71059B01225A71079B9AB2B1
:10127400059BDA80059B09939DF81B30013B049381
:10128400099B019A1A60002308931DE00198FFF757
:101294005FFF0390039B002B0ED0059B5B7901330A
:1012A400DAB2059B5A71099B039A1A60039B019A4F
:1012B4001A60039B099304E0059800F00EF80023DC
:1012C40007E0089B01330893089A049B9A42DDD3F4
:1012D400059B18460BB05DF804FB00B58BB001907C
:1012E400019B0793079B5B798DF81B30019B089347
:1012F4009DF81B30013B05930023099305E0089BEF
:101304001B680893099B01330993099A059B9A4228
:10131400F5D3089B1B680493019B0893002309934E
:101324000BE0089B1B68039308990498FFF752FF8E
:10133400039B0893099B013309939DF81B30099A79
:101344009A42EED300BF00BF0BB05DF804FB00B5BA
:1013540085B00190019B0393039B0433012118463C
:10136400FFF778FE00BF05B05DF804FB00B587B059
:101374000190019B0593059B043301211846FFF757
:1013840081FE0346039303AB0493049B1B78002B59
:1013940002D10198FFF7A1FF00BF07B05DF804FB7D
:1013A40000B591B00390029101920093039B002B2E
:1013B40003D14349B620FFF7F0FD039B0993039B38
:1013C4000F93099BDB881A46099B5B7902FB03F3A5
:1013D400043B0893009A089B9A4203D33849C420DB
:1013E400FFF7DBFD099BDB880793009B1A1D079B16
:1013F400B2FBF3F30E93009B0433079AB3FBF2F2B0
:10140400079901FB02F29B1A0D93019B1A68009B3A
:101414001344089A9A4203D2089A009BD31A01E013
:10142400019B1B680C93019B0C9A1A6005E00F9BAF
:101434001B680F930E9B013B0E930E9B002BF6D162
:1014440000230B93079A0D9BD31A0A930A9A0C9BB9
:10145400934228BF13460A932AE0029A0B9B134433
:1014640006930F9A0D9B1344043305939DF848305B
:10147400002B05D00A9A0599069802F02FF904E08A
:101484000A9A0699059802F029F900230D930F9BF7
:101494001B680F930C9A0A9BD31A0C930B9A0A9B02
:1014A40013440B93079A0C9B934228BF13460A9349
:1014B4000C9B002BD1D100BF00BF11B05DF804FB21
:1014C4002039000000B589B005900491039202937D
:1014D400039B079307AA00230093029B0499059892
:1014E400FFF75EFF079B039A9A4203D00349F62055
:1014F400FFF753FD00BF09B05DF804FB203900007D
:1015040000B585B00190019800F00EF80390039B9C
:10151400002B01D0039B00E0024B184605B05DF898
:1015240004FB00BF5C39000086B00190164B0593A4
:10153400164B04931FE0049A059BD31ADB10DA0FB1
:1015440013445B10DB00059A13440393039B1B684D
:101554000293029A019B9A4202D9039B04930AE0E4
:10156400029A019B9A4203D2039B0833059302E03B
:10157400039B5B6804E0059A049B9A42DBD3002337
:10158400184606B0704700BF303D0000483E0000DA
:10159400054B1B78002B04D1034B01221A70002346
:1015A40000E08523184670472405002082B00346D6
:1015B4008DF807309DF90730002B0CDB9DF80730C0
:1015C40003F01F0205499DF907305B09012000FA69
:1015D40002F241F8232000BF02B0704700E100E0AE
:1015E40082B0034600918DF807309DF90730002B37
:1015F4000ADB009BDAB20C499DF907305201D2B2E2
:101604000B4483F800230BE0009BDAB207499DF8F2
:10161400073003F00F03043B5201D2B20B441A7695
:1016240000BF02B0704700BF00E100E000ED00E041
:1016340082B00190019B1B0B5BB2184602B070474D
:1016440000B583B003460A468DF8073013468DF87B
:1016540006309DF80630072B03D908496B20FFF7A5
:101664009CFC9DF806209DF9073011461846FFF7AB
:10167400B7FF00BF03B05DF804FB00BF483E0000A5
:1016840000B583B003468DF807309DF9073018463E
:10169400FFF78CFF00BF03B05DF804FB82B0034684
:1016A4008DF807309DF8073003F1804303F5C043FC
:1016B400184602B0704700B583B00346ADF8063053
:1016C400BDF80630184600F026F803461B68012BC7
:1016D4000CBF01230023DBB2184603B05DF804FB02
:1016E40000B585B00346ADF80630BDF8063018469F
:1016F40000F011F803461A4600231360BDF80630C3
:10170400184600F008F803461B680393039B00BFC8
:1017140005B05DF804FB82B00346ADF80630BDF8B1
:10172400063003F1804303F5C043184602B0704706
:1017340082B00190034A019BC2F8043300BF02B097
:10174400704700BF0060004082B00190034BD3F8A3
:101754000423019B1340184602B070470060004008
:1017640082B00190054A019B03F5A27352F823301D
:101774001B0A03F01F03184602B0704700600040C4
:1017840082B00190064A019B03F5A27352F82330FC
:101794001B0C03F00303DBB2184602B0704700BF12
:1017A4000060004084B00190094A019B03F5A273D4
:1017B40052F8233043F0030303930549019B03F5D7
:1017C400A273039A41F8232000BF04B0704700BFFE
:1017D4000060004084B00390029111461A460B4603
:1017E4008DF8073013468DF80630184A039B03F52D
:1017F400A27352F82330154923F4981323F4F853B1
:10180400039A02F5A27241F82230104A039B03F5B1
:10181400A27352F82320029B1B0203F4F8519DF893
:1018240007301B0403F4403319439DF806301B05AD
:1018340003F480130B4305491A43039B03F5A27376
:1018440041F8232000BF04B0704700BF006000408F
:1018540000B583B00190019B1B68184600F013F992
:101864000346002B04D105494FF4F670FFF795FBAE
:101874004FF0A043184603B05DF804FB783E000027
:1018840000B585B00190084611461A4603468DF806
:1018940003300B468DF8023013468DF8013001AB4E
:1018A4001846FFF7D5FF03909DF803209DF80230FA
:1018B4005B001A439DF801309B001A439DF81830D1
:1018C4001B0242EA03019DF81C301B04019A1943D0
:1018D400039B02F5E07243F8221000BF05B05DF8E7
:1018E40004FB00B585B0039000230193002300930B
:1018F4000023012201210398FFF7C2FF00BF05B0B6
:101904005DF804FB00B585B001900B468DF80330FB
:1019140001AB1846FFF79CFF0390019A039B02F565
:10192400E07253F82230019A23F44031039B02F50C
:10193400E07243F82210019A039B02F5E07253F817
:1019440022109DF803301B04019A1943039B02F5EE
:10195400E07243F8221000BF05B05DF804FB00B547
:1019640085B0019001AB1846FFF772FF0390019B0D
:10197400012202FA03F31946039800F02EF800BF7F
:1019840005B05DF804FB00B585B0019001AB1846C5
:10199400FFF75EFF0390019B012202FA03F319464D
:1019A400039800F024F800BF05B05DF804FB00B50F
:1019B40085B0019001AB1846FFF74AFF0390019AE6
:1019C400039B02F5E07253F822301B0C03F003036F
:1019D400DBB2184605B05DF804FB82B001900091BB
:1019E400019B009AC3F8082500BF02B0704782B07B
:1019F40001900091019B009AC3F80C2500BF02B02E
:101A0400704786B00390029101924FF0A043049373
:101A1400039B059319E0059B9B0018336B4453F813
:101A2400083CD3F82025019B1A60059B9B001833C2
:101A34006B4453F8083C019A1268C3F82025019BB3
:101A440004330193059B01330593039A029B1344CA
:101A5400059A9A42DFD300BF00BF06B0704700B5B5
:101A640085B0019001AB1846FFF7F2FE0390019B8D
:101A7400012202FA03F31A46039BC3F8202500BF90
:101A840005B05DF804FB84B00190019B5B090293EF
:101A940000230393029B002B03D14FF0FF330393E6
:101AA40000BF019B03F01F030193039A019B22FAD9
:101AB40003F303F00103002B14BF01230023DBB263
:101AC400184604B0704784B001900091009B0393C2
:101AD400019BDB080293019B03F00703019301229E
:101AE400019B02FA03F30399029A0A441278134001
:101AF400184604B0704784B001900091009B039392
:101B0400019BDB080293019B03F007030193039AF3
:101B1400029B13441B785AB20121019B01FA03F37F
:101B24005BB2134359B2039A029B1344CAB21A70AC
:101B340000BF04B07047000082B00190074A019BC7
:101B44001344243393F90030B3F1FF3F14BF01234E
:101B54000023DBB2184602B0704700BF28050020FE
:101B640082B001900C4A019B1344243393F9003052
:101B7400002B09DB084A019B1344243393F90030FA
:101B8400072B01DC012300E0002303F00103DBB297
:101B9400184602B0704700BF2805002084B00390A7
:101BA400029101928DF80330029B59B20E4A039BB5
:101BB400134424330A461A700B49029B019A41F8D4
:101BC40023209DF8033083F00103DBB2002B08D0FF
:101BD400029B083B039A51B2034A13440A4683F812
:101BE400442000BF04B070472805002082B0019053
:101BF400044A019B13442433FE221A7000BF02B02E
:101C0400704700BF2805002082B00190044A019B60
:101C140013442433FF221A7000BF02B0704700BF80
:101C24002805002000B583B0019004490198FFF70E
:101C340062FF00BF03B05DF804FB00BF6D05002028
:101C440082B00190044A019B1344243393F9003079
:101C5400184602B0704700BF2805002082B00190EA
:101C6400034A019B52F82330184602B0704700BF64
:101C74002805002084B00190074A019B1344443393
:101C840093F900308DF80F309DF80F3023F0C00326
:101C9400184604B0704700BF2805002084B00190A6
:101CA400074A019B1344443393F900308DF80F30F5
:101CB4009DF80F309B09DBB2184604B0704700BF93
:101CC4002805002000B589B00390029113468DF8D1
:101CD4000730FF238DF81F309DF80730002B01D00B
:101CE400002300E0082305939DF80730002B01D062
:101CF400082300E009230493059B069314E00F4A8C
:101D0400069B52F82330B3F1FF3F0AD19DF8073008
:101D1400029A06990398FFF741FF069B8DF81F303E
:101D240006E0069B01330693069A049B9A42E6D387
:101D34009DF91F30184609B05DF804FB2805002002
:101D440082B003468DF807309DF80730094A4FF0FA
:101D5400FF3142F823109DF80730072B07D99DF86F
:101D64000730083B034A1344FF2283F8442000BF92
:101D740002B070472805002000B583B02D4B93F8BE
:101D84004930002B03D008230093009B4EE000232E
:101D94008DF8073011E09DF807301846FFF773FE01
:101DA4000346002B04D09DF807301846FFF72CFF9C
:101DB4009DF8073001338DF807309DF807301F2B4D
:101DC400E9D900238DF8073009E09DF8073018465B
:101DD400FFF7B6FF9DF8073001338DF807309DF803
:101DE4000730082BF1D904220021134801F0A8FC84
:101DF4001248FFF71DFC034606211846FFF720FC96
:101E04000E48FFF715FC03461846FFF739FC4FF45C
:101E1400BE70FFF765FC4FF00040FFF789FC054BEF
:101E2400012283F8492000230093009B184603B045
:101E34005DF804FB280500206D05002000600040CB
:101E440000B585B0019000910198FFF71CFE034690
:101E5400002B04D12D4940F24910FFF79EF82C4B7A
:101E640093F84930012B04D028494FF4A570FFF7AB
:101E740094F8009B002B04D1244940F24B10FFF747
:101E84008CF8002303930198FFF756FE0346002BBA
:101E940002D00823039334E0009B9B78002B19D0D5
:101EA400012200210198FFF70DFF03468DF80B3046
:101EB4009DF90B30B3F1FF3F09D09DF90B00009B56
:101EC4001A78009B5B780199FFF784FC05E00423F2
:101ED400039302E00198FFF789FE039B002B10D1C6
:101EE400009B5B78012B03D10198FFF738FD02E0DA
:101EF4000198FFF748FD0198FFF7F3FC0198FFF7FD
:101F040091FE039B184605B05DF804FBB03E00004B
:101F14002805002000B583B001900198FFF7B3FDB8
:101F24000346002B04D1144940F2B310FFF735F8EF
:101F34000198FFF701FE0346002B04D10E494FF42C
:101F4400DA70FFF72AF80198FFF70AFE0346002B20
:101F540004D1094940F2B510FFF71FF8074A019B65
:101F64001344243393F900301846FFF71BFC00BFD9
:101F740003B05DF804FB00BFB03E0000280500205C
:101F840000B583B001900198FFF77DFD0346002B57
:101F940004D10D4940F2C710FEF7FFFF0198FFF787
:101FA400DFFD0346002B04D107494FF4E470FEF72C
:101FB400F4FF0198FFF744FE0346DBB29B00DBB25B
:101FC400184603B05DF804FBB03E000000B585B0D0
:101FD40001900198FFF7D4FF03468DF80F309DF868
:101FE4000F301846FFF75AFB0346184605B05DF854
:101FF40004FB00B585B00190019A01210020FFF790
:1020040000FD002303930BE0039B9B00019A134400
:102014001B68002B01D0012306E0039B01330393CB
:10202400039B002BF0D00023184605B05DF804FB99
:1020340000B587B00190002305935BE0344A059B0B
:102044001344443393F90030B3F1FF3F4ED0059865
:10205400FFF710FE049001990498FFF734FD03463E
:10206400002B44D00598FFF719FE03468DF80F3076
:102074000498FFF79CFC03468DF80E309DF80E3053
:10208400022B01D1032300E002238DF80D309DF8CB
:102094000D3019460498FFF735FC0498FFF7DFFC70
:1020A4000498FFF7CDFD03461846FFF7D7FD0290CD
:1020B400029B002B1BD09DF80F30032B0FD09DF8F3
:1020C4000E30022B03D19DF80F30012B07D09DF861
:1020D4000E30032B0BD19DF80F30022B07D19DF846
:1020E4000F20029B11460498984700E000BF059B0F
:1020F40001330593059B002BA0D00198FFF779FFCE
:102104000346002B97D100BF00BF07B05DF804FB66
:102114002805002000B589B000230693002300930E
:102124004FF48073ADF81230012307930023059315
:1021340021E0BDF812301846FFF7BDFA0346002B24
:102144000ED00798FFF700FB0346002B08D0BDF81C
:1021540012301846FFF7C4FA069A079B13430693F6
:10216400079B5B000793BDF812300433ADF81230BF
:10217400059B01330593059B072BDAD94FF4BE70F9
:10218400FFF799FA0346002B0DD04FF4BE70FFF70A
:10219400A7FA069B43F0004306936B461A460121B7
:1021A4000020FFF72EFC069BDBB2002B29D0012375
:1021B40007930023059321E0079A069B1340002B05
:1021C40016D00598FFF7CCFA03900598FFF7D8FAD4
:1021D40003468DF80B300598FFF740FD0190019BF5
:1021E400002B05D09DF80B20019B114603989847BE
:1021F400079B5B000793059B01330593059B072B06
:10220400DAD9069B002B03DA6B461846FFF710FF5A
:1022140000BF09B05DF804FB82B003468DF80730B7
:102224009DF80730044A012101FA03F3C2F804358A
:1022340000BF02B0704700BF00F0014084B0034605
:10224400029101928DF80F3008499DF80F30A233A6
:10225400029A41F83320054A9DF80F30A233DB007F
:102264001344019A5A6000BF04B0704700F0014063
:1022740082B003468DF807309DF80730012202FA38
:1022840003F3184602B0704700B583B003468DF8D7
:1022940007309DF807301846FFF7EAFF0346C3F3FB
:1022A4001303002B14BF01230023DBB2184603B031
:1022B4005DF804FB82B001900123184602B0704718
:1022C40000B583B003468DF807309DF807301846F3
:1022D400FFF7CEFF03461846FFF7ECFF0346184608
:1022E40003B05DF804FB000000B583B003468DF82D
:1022F40007309DF807301846FFF7BAFF0246064B31
:102304001B681340002B14BF01230023DBB21846C3
:1023140003B05DF804FB00BF7405002000B583B072
:1023240003468DF807309DF807301846FFF7A0FFE5
:102334000246044B1B681343024A136000BF03B0F8
:102344005DF804FB7405002000B587B001900023FC
:1023540004930023059304230493244B059300233F
:102364008DF80F3037E00020FEF7D0FD9DF80F30D8
:102374001846FFF77DFF0246059B1340002B15D03E
:102384009DF80F301846FFF7AFFF034683F00103B3
:10239400DBB2002B0AD09DF80F301846FFF7BEFFC2
:1023A400019B9DF80F201A70002304930020FEF770
:1023B400C1FD049B002B12D09DF80F301846FFF787
:1023C40057FF0346DB43059A134005939DF80F30EE
:1023D40001338DF80F30059B002BC4D100E000BF02
:1023E400049B184607B05DF804FB00BFFFFF0F0015
:1023F40000B587B00346029101928DF80F30029B1D
:10240400002B02D0019B002B01D10E2325E00023D9
:1024140005939DF80F301846FFF736FF034683F007
:102424000103DBB2002B02D00723059314E09DF8CF
:102434000F301846FFF758FF034683F00103DBB261
:10244400002B02D00823059306E09DF80F30019A73
:1024540002991846FFF7F2FE059B184607B05DF88F
:1024640004FB00B585B003468DF8073000230393C1
:102474009DF807301846FFF723FF034683F0010356
:10248400DBB2002B02D0072303931AE09DF8073038
:102494001846FFF7F9FE0346002B0DD09DF80730D0
:1024A4001846FFF721FF034683F00103DBB2002B3C
:1024B40002D00823039304E09DF807301846FFF781
:1024C400ABFE039B184605B05DF804FB82B00346DF
:1024D4008DF807309DF90730002B0CDB9DF8073091
:1024E40003F01F0205499DF907305B09012000FA3A
:1024F40002F241F8232000BF02B0704700E100E07F
:1025040082B0034600918DF807309DF90730002B07
:102514000ADB009BDAB20C499DF907305201D2B2B2
:102524000B4483F800230BE0009BDAB207499DF8C3
:10253400073003F00F03043B5201D2B20B441A7666
:1025440000BF02B0704700BF00E100E000ED00E012
:1025540082B00190019B1B0B5BB2184602B070471E
:1025640000B583B003460A468DF8073013468DF84C
:1025740006309DF80630072B03D908496B20FEF777
:102584000CFD9DF806209DF9073011461846FFF70B
:10259400B7FF00BF03B05DF804FB00BFF03E0000CE
:1025A40000B583B003468DF807309DF9073018460F
:1025B400FFF78CFF00BF03B05DF804FB82B001900D
:1025C4000B468DF803309DF80330019A1344012221
:1025D4001A6000BF02B0704784B001900B46ADF89A
:1025E4000230BDF80230019A134400221A60BDF88B
:1025F4000230019A13441B680393039B00BF04B089
:10260400704782B001900B46ADF80230BDF802303D
:10261400019A13441B68002B14BF01230023DBB26F
:10262400184602B0704782B001900091019BD3F824
:102634000022009B1A43019BC3F8002200BF02B092
:10264400704782B001900091019BD3F80022009B57
:10265400DB431A40019BC3F8002200BF02B070475D
:1026640082B001900091019B009AC3F8042300BF3B
:1026740002B0704782B001900091019B009AC3F8A8
:10268400082300BF02B0704782B001900091019B03
:10269400D3F80423009B1340002B14BF0123002311
:1026A400DBB2184602B0704782B001900B468DF839
:1026B4000330019BD3F8043523F003029DF8033063
:1026C40003F003031A43019BC3F8042500BF02B0BF
:1026D400704782B001900B468DF80330019BD3F80C
:1026E400083523F003029DF8033003F003031A4373
:1026F400019BC3F8082500BF02B0704782B0019067
:102704000B468DF80330019BD3F8103523F00F02EC
:102714009DF8033003F00F031A43019BC3F81025FF
:1027240000BF02B0704784B003900B4601928DF84D
:102734000B309DF80B20039B02F5A872019943F816
:10274400221000BF04B0704782B00190019B9B002F
:1027540003F5A0739BB2184602B0704782B0019093
:102764004FF48032019B02FA03F3184602B070471B
:1027740010B588B0039002910192039B1B791A460D
:1027840013465B0013449B006F4A13440793029B58
:10279400002B03D16D494A20FEF7FFFB019B002B60
:1027A40003D16A494B20FEF7F8FB079B1B7A002BE9
:1027B40003D008230593059BC2E0039B1B68644A6E
:1027C40093420FD1029B9B78012B63D0029B9B7891
:1027D400002B5FD0029B9B78022B5BD0029B9B78E3
:1027E400032B57D0039B1B685A4A93420FD1029B79
:1027F4009B78012B4ED0029B9B78002B4AD0029BE6
:102804009B78022B46D0029B9B78032B42D0039BE0
:102814001B68514A93420FD1029B9B78012B39D0FC
:10282400029B9B78002B35D0029B9B78022B31D0E6
:10283400029B9B78032B2DD0039B1B68474A934232
:102844000FD1029B9B78012B24D0029B9B78002BF9
:1028540020D0029B9B78022B1CD0029B9B78032BDD
:1028640018D0039B1B683E4A93420FD1029B9B786E
:10287400012B0FD0029B9B78002B0BD0029B9B78E3
:10288400022B07D0029B9B78032B03D02F495F2098
:10289400FEF783FB079B019A1A60029B5A68079B09
:1028A4005A6000238DF81B3010E0039B1C689DF8D0
:1028B4001B301846FFF748FF034619462046FFF72A
:1028C4008BFE9DF81B3001338DF81B30039B5B7925
:1028D4009DF81B209A42E8D3039B1B681846FFF718
:1028E40037FE03461A46029BDB7819461046FFF76B
:1028F40037FE039B1B681846FFF72AFE034618465B
:10290400FFF74EFE039B1A68029B5B78194610463C
:10291400FFF7CAFE039B1A68029B9B781946104670
:10292400FFF7D7FE039B1A68029B1B7819461046D3
:10293400FFF7E4FE079B01221A7200230593059B0F
:10294400184608B010BD00BF78050020283F0000DD
:10295400008000400090004000A0004000A0014022
:1029640000B0014000B583B00190019B1B7919466A
:10297400114A0B465B000B449B00134408331B783D
:10298400012B03D00D498F20FEF707FB019B1B6829
:1029940000211846FFF712FE019B1B791946064ACF
:1029A4000B465B000B449B001344083302221A704D
:1029B40000BF03B05DF804FB78050020283F000049
:1029C40010B586B0039001921A460B468DF80B3071
:1029D40013468DF80A309DF80B301846FFF7BEFEFB
:1029E40005909DF80A30002B12D0039B1C689DF8BB
:1029F4000B301846FFF7A8FE034619462046FFF79A
:102A0400EBFD039B1B6805991846FFF729FE05E0BB
:102A1400039B1B6805991846FFF72CFE039B1B6854
:102A24009DF80B10019A1846FFF77DFE00BF06B013
:102A340010BD00B585B0039001921A460B468DF87F
:102A44000B301346ADF80830039B1A689DF80B3021
:102A540040F2011101FA03F319461046FFF7F1FDA4
:102A6400039B1B68BDF8082011461846FFF7DBFDE1
:102A74009DF818309DF80B10019A0398FFF7A0FFFA
:102A840000BF05B05DF804FB00B587B00390029168
:102A940013468DF8073000238DF8173030E09DF889
:102AA40017301846FFF750FE0346ADF814309DF872
:102AB40017301846FFF752FE0490BDF8143019463B
:102AC4000398FFF79EFD0346002B14D00499039846
:102AD400FFF7DAFD0346002B0DD0BDF8143019467C
:102AE4000398FFF779FD029B1B68029A5168BDF8B1
:102AF4001420104698479DF8173001338DF817308D
:102B04009DF817209DF807309A42C8D300BF00BF34
:102B140007B05DF804FB000008B50422024903482D
:102B2400FFF7B2FF00BF08BD780500200080004019
:102B340082B001900B46ADF80230BDF80230019A24
:102B44001344184602B0704782B00190019BD3F839
:102B54001035DBB2184602B0704700002DE9F04F83
:102B640087B001908DF803109DF803100591019929
:102B740000200E460746304639464FF0000A4FF013
:102B8400000B4FEA411B4BEAD06B4FEA401A504608
:102B94005946821B61EB07034FF000004FF0000120
:102BA400990041EA9271900002460B4612EB060826
:102BB40043EB07094FF000024FF000034FEAC9133B
:102BC40043EA58634FEAC8129046994642464B4638
:102BD4000599C1F12006A1F1200022FA01F403FABB
:102BE40006F6344323FA00F0044323FA01F5CDE951
:102BF4000245DDE90223012B04D305494FF431706A
:102C0400FEF7CBF9029B184607B0BDE8F08F00BF72
:102C1400603F000000B583B001900B46ADF8023070
:102C2400019B1B68BDF8022011461846FFF780FF80
:102C34000346184603B05DF804FB00B583B0019069
:102C44000091019B1B681846FFF77EFF0346194657
:102C54000098FFF783FF0346184603B05DF804FBB2
:102C640000B583B001900091074A084BD31ADB08E2
:102C74001B0443F0030306491846FDF705FE00BF95
:102C840003B05DF804FB00BFBC370000A4370000AC
:102C9400903F000000B591B0FFF76EF80F900F9BC6
:102CA4000E930E9B002B04D0484A26210E98FEF763
:102CB40081F8FEF76DFC0F900F9B0D930D9B002B7D
:102CC40004D0424A29210D98FEF774F80DF113033C
:102CD4001846FFF739FB0F900F9B0C930C9B002BAE
:102CE40004D03A4A2C210C98FEF764F8384A04AB15
:102CF4001268114619800233120C1A7004AB19467B
:102D04001220FFF79DF80F900F9B0B930B9B002B4A
:102D140004D02E4A31210B98FEF74CF82D4A02AB11
:102D240092E8030083E8030002AB2B4A19462B48C0
:102D3400FFF71EFD0F900F9B0A930A9B002B04D0F4
:102D4400224A36210A98FEF735F84FF4FA612348EF
:102D5400FFF773FF0990012300930123099A0021CF
:102D64001E48FFF766FE4FF4A0711C48FFF752FFA0
:102D740008901220FFF72AF907909DF81330079A5C
:102D840008991846FFF734FB0F900F9B0693069B98
:102D9400002B04D00D4A3F210698FEF70BF89DF84E
:102DA40013301846FFF75DFB0F900F9B0593059BAF
:102DB400002B04D0054A42210598FDF7FBFF1220A1
:102DC400FFF7A8F800BF11B05DF804FB943F0000C2
:102DD400DC3F0000E03F0000652C00000400002000
:102DE40008B5FFF757FF0248FFF7BCFDFEE700BF39
:102DF40004000020BFF34F8F00BF064BDB6803F4D1
:102E0400E0620449044B1343CB60BFF34F8F00BF10
:102E140000BFFDE700ED00E00400FA0582B01D4BA1
:102E24001B68B3F1FF3F0AD11B4B1B68DBB2019354
:102E34001A4B1B681B0903F00F03009305E0154BA5
:102E44001B680193164B1B680093019B062B1DD135
:102E5400009B033B042B17D801A252F823F000BFB8
:102E6400792E00007D2E0000812E0000852E0000AA
:102E7400892E000001230AE0012308E0012306E073
:102E8400012304E0012302E0012300E000231846AB
:102E940002B0704730010010E00F00F0E80F00F0BE
:102EA4003401001082B0174B1B68DBB20193164B40
:102EB4001B681B0903F00F030093019B062B1DD114
:102EC400009B033B042B17D801A252F823F000BF48
:102ED400E92E0000ED2E0000F12E0000F52E00007A
:102EE400F92E000001230AE0002308E0002306E095
:102EF400002304E0002302E0002300E0002318463E
:102F040002B07047E00F00F0E80F00F082B01D4BF4
:102F14001B68B3F1FF3F0AD11B4B1B68DBB2019363
:102F24001A4B1B681B0903F00F03009305E0154BB4
:102F34001B680193164B1B680093019B062B1DD144
:102F4400009B033B042B17D801A252F823F000BFC7
:102F5400692F00006D2F0000712F0000752F0000F5
:102F6400792F000001230AE0012308E0012306E091
:102F7400012304E0012302E0012300E000231846BA
:102F840002B0704730010010E00F00F0E80F00F0CD
:102F94003401001082B0174B1B68DBB20193164B4F
:102FA4001B681B0903F00F030093019B062B1DD123
:102FB400009B033B042B17D801A252F823F000BF57
:102FC400D92F0000DD2F0000E12F0000E52F0000C5
:102FD400E92F000001230AE0002308E0002306E0B3
:102FE400002304E0002302E0002300E0002318464D
:102FF40002B07047E00F00F0E80F00F082B01D4B04
:103004001B68B3F1FF3F0AD11B4B1B68DBB2019372
:103014001A4B1B681B0903F00F03009305E0154BC3
:103024001B680193164B1B680093019B062B1DD153
:10303400009B033B042B17D801A252F823F000BFD6
:10304400593000005D300000613000006530000040
:103054006930000001230AE0012308E0012306E0AF
:10306400012304E0012302E0012300E000231846C9
:1030740002B0704730010010E00F00F0E80F00F0DC
:103084003401001082B0174B1B68DBB20193164B5E
:103094001B681B0903F00F030093019B062B1DD132
:1030A400009B033B042B17D801A252F823F000BF66
:1030B400C9300000CD300000D1300000D530000010
:1030C400D930000001230AE0002308E0002306E0D1
:1030D400002304E0002302E0002300E0002318465C
:1030E40002B07047E00F00F0E80F00F082B0174B19
:1030F4001B68DBB20193164B1B681B0903F00F031B
:103104000093019B062B1DD1009B033B042B17D876
:1031140001A252F823F000BF313100003531000024
:10312400393100003D3100004131000001230AE043
:10313400002308E0002306E0002304E0002302E06B
:10314400002300E00023184602B07047E00F00F0AF
:10315400E80F00F082B01D4B1B68B3F1FF3F0AD1AA
:103164001B4B1B68DBB201931A4B1B681B0903F052
:103174000F03009305E0154B1B680193164B1B6866
:103184000093019B062B1DD1009B033B042B17D8F6
:1031940001A252F823F000BFB1310000B5310000A4
:1031A400B9310000BD310000C131000000230AE044
:1031B400002308E0012306E0012304E0012302E0E8
:1031C400012300E00023184602B0704730010010CC
:1031D400E00F00F0E80F00F03401001082B01D4B46
:1031E4001B68B3F1FF3F0AD11B4B1B68DBB2019391
:1031F4001A4B1B681B0903F00F03009305E0154BE2
:103204001B680193164B1B680093019B062B1DD171
:10321400009B033B042B17D801A252F823F000BFF4
:10322400393200003D3200004132000045320000D6
:103234004932000001230AE0012308E0012306E0EB
:10324400012304E0012302E0012300E000231846E7
:1032540002B0704730010010E00F00F0E80F00F0FA
:103264003401001082B01D4B1B68B3F1FF3F0AD13B
:103274001B4B1B68DBB201931A4B1B681B0903F041
:103284000F03009305E0154B1B680193164B1B6855
:103294000093019B062B1DD1009B033B042B17D8E5
:1032A40001A252F823F000BFC1320000C532000071
:1032B400C9320000CD320000D132000001230AE0FF
:1032C400012308E0012306E0012304E0012302E0D6
:1032D400012300E00023184602B0704730010010BB
:1032E400E00F00F0E80F00F03401001082B0154B3D
:1032F4001B680193144B1B680093019B062B1DD183
:10330400009B033B042B17D801A252F823F000BF03
:10331400293300002D330000313300003533000021
:103324003933000000230AE0002308E0002306E00C
:10333400012304E0012302E0012300E000231846F6
:1033440002B07047300100103401001082B0154BF8
:103354001B680193144B1B680093019B062B1DD122
:10336400009B033B042B17D801A252F823F000BFA3
:10337400893300008D330000913300009533000041
:103384009933000000230AE0002308E0002306E04C
:10339400002304E0012302E0012300E00023184697
:1033A40002B07047300100103401001008B5FFF777
:1033B400CDFF0346002B07D04FF010234FF080427F
:1033C400D3F80832C2F8583500BF08BD00BF044B1B
:1033D400D3F80034002BFAD000BF00BF704700BF01
:1033E40000E0014000B583B00190054A019BC2F89A
:1033F4000435FFF7EBFF00BF03B05DF804FB00BF2B
:1034040000E00140024B034A1A6000BF704700BF4E
:103414000C0000200090D00308B5FFF7FFFC034622
:10342400002B06D0964B1B681B0A964A03F01F0319
:103434001360FFF737FD0346002B02D0924B934AEB
:103444001A60FFF763FD0346002B06D0904B1B6800
:103454005B0B904A03F007031360FFF79BFD0346E1
:10346400002B05D08C4BDB688B4A23F08073D36030
:10347400FFF7C4FD0346002B0ED04FF0804300221B
:10348400C3F80C214FF080430022C3F810214FF001
:1034940080430022C3F83825FFF7F4FD0346002BD0
:1034A40002D07E4B03221A60FFF720FE0346002B56
:1034B4000BD07B4B05221A607A4B01221A607A4B9F
:1034C40000221A60794B3F221A60FFF743FE03463D
:1034D400002B76D04FF08053754AD3F80434C2F8E9
:1034E40020354FF08053724AD3F80834C2F824359B
:1034F4004FF080536E4AD3F80C34C2F828354FF09D
:1035040080536B4AD3F81034C2F82C354FF08053F3
:10351400674AD3F81434C2F830354FF08053644A04
:10352400D3F81834C2F834354FF08053604AD3F8D6
:103534001C34C2F840354FF080535D4AD3F8203430
:10354400C2F844354FF08053594AD3F82434C2F8B2
:1035540048354FF08053564AD3F82834C2F84C35D6
:103564004FF08053524AD3F82C34C2F850354FF000
:1035740080534F4AD3F83034C2F854354FF0805357
:103584004B4AD3F83434C2F860354FF08053484A7C
:10359400D3F83834C2F864354FF08053444AD3F832
:1035A4003C34C2F868354FF08053414AD3F8403474
:1035B400C2F86C354FF080533D4AD3F84434C2F816
:1035C4007035FFF70BFE0346002B05D0394B1B6803
:1035D400394A03F04F031360FFF744FE0346002B00
:1035E4000DD04FF08043D3F8003403F00103002BD7
:1035F40005D04FF080436FF00102C3F80024FFF7B9
:1036040075FE0346002B05D02C4B1B682B4A43F454
:10361400806313602A4BD3F88830294A43F470033B
:10362400C2F88830BFF34F8F00BFBFF36F8F00BF66
:10363400FFF7BCFE4FF01023D3F80032002B05DB5C
:103644004FF01023D3F80432002B15DA0120FFF7D2
:10365400C9FE4FF010231522C3F80022FFF7B6FE6F
:103664004FF010231522C3F80422FFF7AFFE002009
:10367400FFF7B8FEFFF7BEFBFFF7C4FE00BF08BDAF
:10368400240300104035014074C007400DF0ADBA6A
:10369400440200103C050040F0ED00E0A0050040AD
:1036A40010560040885600401856004014560040FA
:1036B40000C0004058020010E40E00403C170040D7
:1036C40000ED00E0082938BF7047416040F28451A2
:1036D400C2F2000108600021016070475AB38446B9
:1036E40090EA01039B071FD1830707D011F8013B20
:1036F40000F8013B013AF7D11CE08446203A09D393
:103704002DE9F007B1E8F807A0E8F807203AF9D264
:10371400BDE8F0071C3205D451F8043B40F8043BE3
:10372400043AF9D2043205D011F8013B00F8013B08
:10373400013AF9D16046704700220B0011001A00CB
:1037440084465AB3830704D000F8011B013AF9D127
:1037540024E0C9B241EA012141EA0141202A11D3FE
:10376400203A2DE9F0030B460C460D460E460F4653
:1037740088468946A0E8FA03203AFBD2BDE8F00364
:1037840020320BD0042A05D340F8041B043A05D098
:10379400042AF9D200F8011B013AFBD160467047B4
:1037A400A83E000000000000EC3E00000000000005
:1037B400203F000000000000D83700000000030391
:1037C400D80000201000002018000020180000205D
:0437D40018000000D9
:1037D80061707000433A5C4E6F726469635F507247
:1037E8006F6A6563745C636F6D706F6E656E74731A
:1037F8005C6C69627261726965735C6C6F675C733B
:1038080072635C6E72665F6C6F675F66726F6E7410
:10381800656E642E630000004261636B656E6473BD
:1038280020666C7573686564000000004153534559
:103838005254494F4E204641494C4544206174201A
:1038480025733A25750000004552524F52202575C0
:10385800205B25735D2061742025733A25750D0A58
:1038680050432061743A20307825303878000000C1
:10387800456E64206F66206572726F722072657083
:103888006F727400554E4B4E4F574E204641554C63
:10389800542061742030782530385800433A5C4E03
:1038A8006F726469635F50726F6A6563745C636F9B
:1038B8006D706F6E656E74735C6C6962726172694B
:1038C80065735C7574696C5C6170705F7574696C44
:1038D8005F706C6174666F726D2E6300433A5C4E64
:1038E8006F726469635F50726F6A6563745C636F5B
:1038F8006D706F6E656E74735C6C6962726172690B
:1039080065735C62616C6C6F635C6E72665F62614A
:103918006C6C6F632E630000433A5C4E6F7264698F
:10392800635F50726F6A6563745C636F6D706F6E0E
:10393800656E74735C6C69627261726965735C6DE3
:10394800656D6F626A5C6E72665F6D656D6F626AE7
:103958002E630000556E6B6E6F776E206572726F06
:103968007220636F646500004E52465F53554343AF
:10397800455353004E52465F4552524F525F53567D
:10398800435F48414E444C45525F4D495353494E5D
:10399800470000004E52465F4552524F525F534F08
:1039A80046544445564943455F4E4F545F454E4142
:1039B800424C4544000000004E52465F4552524F6B
:1039C800525F494E5445524E414C00004E52465F9C
:1039D8004552524F525F4E4F5F4D454D000000001B
:1039E8004E52465F4552524F525F4E4F545F464FBC
:1039F800554E44004E52465F4552524F525F4E4F0D
:103A0800545F535550504F52544544004E52465FF0
:103A18004552524F525F494E56414C49445F5041BE
:103A280052414D004E52465F4552524F525F494EE9
:103A380056414C49445F5354415445004E52465FE9
:103A48004552524F525F494E56414C49445F4C458E
:103A58004E475448000000004E52465F4552524FB0
:103A6800525F494E56414C49445F464C41475300CA
:103A78004E52465F4552524F525F494E56414C494D
:103A8800445F4441544100004E52465F4552524FF4
:103A9800525F444154415F53495A45004E52465F74
:103AA8004552524F525F54494D454F5554000000FE
:103AB8004E52465F4552524F525F4E554C4C000095
:103AC8004E52465F4552524F525F464F524249440A
:103AD80044454E004E52465F4552524F525F494E42
:103AE80056414C49445F4144445200004E52465F9F
:103AF8004552524F525F4255535900004E52465F4D
:103B08004552524F525F4D4F44554C455F4E4F54AE
:103B18005F494E495449414C495A45440000000008
:103B28004E52465F4552524F525F4D555445585F6D
:103B3800494E49545F4641494C4544004E52465F00
:103B48004552524F525F4D555445585F4C4F434B69
:103B58005F4641494C4544004E52465F4552524FDC
:103B6800525F4D555445585F554E4C4F434B5F4639
:103B780041494C45440000004E52465F4552524F61
:103B8800525F4D555445585F434F4E445F494E4927
:103B9800545F4641494C4544000000004E52465F80
:103BA8004552524F525F4D4F44554C455F414C5220
:103BB800454144595F494E495449414C495A454445
:103BC800000000004E52465F4552524F525F535418
:103BD8004F524147455F46554C4C00004E52465F98
:103BE8004552524F525F4150495F4E4F545F494DC5
:103BF800504C454D454E5445440000004E52465FDA
:103C08004552524F525F464541545552455F4E4FBB
:103C1800545F454E41424C45440000004E52465FB9
:103C28004552524F525F494F5F50454E44494E47A7
:103C3800000000004E52465F4552524F525F4452B8
:103C4800565F5457495F4552525F4F564552525539
:103C58004E0000004E52465F4552524F525F44524A
:103C6800565F5457495F4552525F414E41434B009E
:103C78004E52465F4552524F525F4452565F545718
:103C8800495F4552525F444E41434B004E52465F96
:103C98004552524F525F424C455F495053505F5214
:103CA800585F504B545F5452554E4341544544005D
:103CB8004E52465F4552524F525F424C455F495003
:103CC80053505F4348414E4E454C5F414C5245412D
:103CD80044595F4558495354530000004E52465FBB
:103CE8004552524F525F424C455F495053505F4CCA
:103CF800494E4B5F444953434F4E4E454354454408
:103D0800000000004E52465F4552524F525F424CEF
:103D1800455F495053505F504545525F52454A45AB
:103D280043544544000000000000000070390000C2
:103D3800010000007C390000020000009C390000EE
:103D480003000000C039000004000000D43900005E
:103D580005000000E839000006000000FC390000FA
:103D680007000000143A0000080000002C3A000088
:103D780009000000443A00000A000000603A000010
:103D88000B000000783A00000C000000903A000098
:103D98000D000000A43A00000E000000B83A000030
:103DA8000F000000C83A000010000000DC3A0000D4
:103DB80011000000F43A000080000000043B0000FD
:103DC80081000000283B000082000000443B000006
:103DD80083000000603B000084000000803B00007E
:103DE80085000000A43B000086000000CC3B0000DA
:103DF80090000000E43B000091000000043C00003B
:103E080092000000243C0000008200003C3C0000BE
:103E1800018200005C3C000002820000783C000047
:103E280000840000943C000001840000B83C0000BD
:103E380002840000E43C0000038400000C3D000004
:103E48002E2E2F2E2E2F2E2E2F2E2E2F2E2E2F2E85
:103E58002E2F696E746567726174696F6E2F6E724A
:103E680066782F6E7266785F676C75652E680000DD
:103E78002E2E2F2E2E2F2E2E2F2E2E2F2E2E2F2E55
:103E88002E2F6D6F64756C65732F6E7266782F6850
:103E9800616C2F6E72665F6770696F2E6800000034
:103EA8004750494F54450000433A5C4E6F7264696D
:103EB800635F50726F6A6563745C6D6F64756C657F
:103EC800735C6E7266785C647269766572735C7333
:103ED80072635C6E7266785F6770696F74652E6373
:103EE80000000000505049002E2E2F2E2E2F2E2E6F
:103EF8002F2E2E2F2E2E2F2E2E2F696E7465677261
:103F08006174696F6E2F6E7266782F6E7266785F55
:103F1800676C75652E68000054494D4552000000D5
:103F2800433A5C4E6F726469635F50726F6A65638F
:103F3800745C6D6F64756C65735C6E7266785C64D6
:103F48007269766572735C7372635C6E7266785FB1
:103F580074696D65722E63002E2E2F2E2E2F2E2E35
:103F68002F2E2E2F2E2E2F2E2E2F6D6F64756C65F3
:103F7800732F6E7266782F68616C2F6E72665F742D
:103F8800696D65722E6800004A657400433A5C4E9C
:103F98006F726469635F50726F6A6563745C657899
:103FA800616D706C65735C4D795F50726F6A6563A3
:103FB800745C31395F54696D65725F5050495F5761
:103FC8006974685F4750494F54455C6D61696E2E4E
:103FD8006300000003000100040003060000000065
:103FE800FF00000000800040000400000090D003A3
:04000003000003896D
:00000001FF
