:100000000000012089030000710300007916000040
:100010007503000077030000790300000000000072
:100020000000000000000000000000007B03000052
:100030007D030000000000007F030000810300003A
:10004000154B000083030000B54B0000254B00005A
:10005000494B0000830300002D440000895100003B
:10006000D9550000F155000009560000CD500000A0
:1000700083030000054F000083030000830300009A
:10008000A956000099050000ED4D0000914B0000BD
:100090006D54000079540000855400009154000014
:1000A0009D540000A954000021560000395600005C
:1000B000094D0000014800000000000000000000A1
:1000C00083030000214D0000394D00006D4B0000FE
:1000D000E1500000A545000083030000000000007F
:1000E0000000000000000000000000000000000010
:1000F0000000000000000000000000000000000000
:1001000000000000000000000000000000000000EF
:1001100000000000000000000000000000000000DF
:1001200000000000000000000000000000000000CF
:1001300000000000000000000000000000000000BF
:1001400000000000000000000000000000000000AF
:10015000000000000000000000000000000000009F
:10016000000000000000000000000000000000008F
:10017000000000000000000000000000000000007F
:10018000000000000000000000000000000000006F
:10019000000000000000000000000000000000005F
:1001A000000000000000000000000000000000004F
:1001B000000000000000000000000000000000003F
:1001C000000000000000000000000000000000002F
:1001D000000000000000000000000000000000001F
:1001E000000000000000000000000000000000000F
:1001F00000000000000000000000000000000000FF
:100200003A493B480A1A02D0072291438D463949A0
:1002100039480A1A06D00722914381F3098802223D
:1002200082F3148835483649364A00F041F836489A
:100230003649374A00F03CF836483749374A00F02B
:1002400037F837483749384A00F032F837483849E4
:10025000384A00F02DF838483849394A00F028F873
:1002600038483949394A00F023F8394839490022D9
:1002700000F036F838483949002200F031F83848A3
:100280003849091A05F08EFE374A90472548264915
:10029000884205D00268043003B4904703BCF7E7F6
:1002A00000208646EC4600200021304A9047FEE7B9
:1002B000884214D0521A12D003460B43134303242E
:1002C000234206D1036804300B600431043AF9D1AB
:1002D0007047037801300B700131013AF9D1704752
:1002E000884202D002700130FAE770470000012016
:1002F00000E000200000012000000120F872000052
:100300003000002048000020E4030000E403000067
:10031000EA610000F8720000300000203000002088
:100320006C6200006C6200006C6200006C62000095
:100330006C6200006C6200006C6200006C62000085
:10034000F5720000107300004800002048000020F3
:100350004800002004130020041300200413002090
:100360000413002004330020B1030000D156000024
:10037000FEE7FEE7FEE7FEE7FEE7FEE7FEE7FEE755
:10038000FEE7FEE700F002B8FFF7FCBF0F484FF0B2
:100390000701884385460E4880470E48016841F4AE
:1003A00070010160BFF34F8FBFF36F8FFFF728BF5E
:1003B00009480A490A4A884207D0521A05D00378E8
:1003C00001300B700131013AF9D170470000012072
:1003D000F95C000088ED00E03C62000000000020B5
:0403E00030000020C9
:1003E40086B003900291019201238DF817309DF895
:1003F4001730204A039B13601E4A029B53601D4A18
:10040400019B9360039B44F20102934212D0039B2D
:1004140044F20202934220D1019B164AD360154B49
:10042400DB681B68134A9361124BDB685B68114AF3
:10043400D36112E0019B0F4A13610E4B1B699B6849
:100444000C4A53610B4B1B691B680A4A9361094BA5
:100454001B695B68074AD36100BF72B600BF00BF67
:100464009DF81730DBB2002BFAD162B600BF00BF93
:1004740006B070474800002000B587B00390029191
:10048400019272B600BF039B44F20102934207D06B
:10049400039B44F20202934205D1019B059303E0BE
:1004A400019B049300E000BF074B1B6803F00103AA
:1004B400002B00D000BE019A02990398FFF790FF29
:1004C40000BF07B05DF804FBF0ED00E072B600BFBA
:1004D400034B1B680133024A136000BF704700BF1F
:1004E40068000020064B1B68013B054A1360044B5F
:1004F4001B68002B01D162B600BF00BF704700BF6C
:100504006800002000B583B0019000F025F8034690
:10051400012B03D00449432001F010F9FFF7D6FF63
:1005240000BF03B05DF804FB6C62000000B583B04B
:1005340003468DF8073000F00FF80346012B03D073
:100544000449512001F0FAF8FFF7CCFF00BF03B0D3
:100554005DF804FB6C62000084B0EFF30583019343
:10056400019BC3F308030393039B002B0DD1EFF30B
:1005740014830093009B0293029B03F00103002B5E
:100584000CBF01230023DBB200E00123184604B0B2
:100594007047000008B5044B1B68044A12681046F3
:1005A400984700BF08BD00BF6C0000207000002009
:1005B40082B00190019B03F00303002B0CBF0123C5
:1005C4000023DBB2184602B07047000000B585B0C6
:1005D4000190002303930EE00B4A039B52F823304F
:1005E400002B05D0084A039B52F823300198984702
:1005F400039B01330393039B032BEDD900BF00BF7F
:1006040005B05DF804FB00BF8400002082B00190B7
:100614000091019B1B78013B052B61D801A252F884
:1006240023F000BF41060000490600006F060000E9
:10063400A1060000C1060000DD060000009B0022A8
:100644001A704EE0009B01221A70019B1A89009BCC
:100654009A81019B9A88009BDA81019BDA68009B4E
:100664009A60009B00221A743BE0009B02221A70DD
:10067400019B1A89009B9A81019B9A88009BDA81CD
:10068400019BDA68009B9A60019B9B7D062B0CBF43
:1006940001230023DAB2009B1A7422E0009B032298
:1006A4001A70019BDA88009B9A81019B1A89009B2E
:1006B400DA81019BDA68009B9A6012E0009B0422B5
:1006C4001A70019BDA88009B9A81009B0022DA81D0
:1006D400009B00229A6004E0009B05221A7000E04F
:1006E40000BF00BF02B0704784B001900091019B2D
:1006F4000393039A009B9A4206D2039B1B68B3F1AF
:10070400FF3F01D0012300E0002303F00103DBB22B
:10071400184604B0704782B00190019B5B88033394
:100724009B00019A1344184602B0704700B583B089
:10073400019000910198FFF7EEFF0246009B93425F
:1007440001D2022311E0019B9B884FF6FF72934272
:1007540008D0019B1B88002B04D0019B9B68B3F13C
:10076400FF3F01D1012300E00023184603B05DF8E8
:1007740004FB000000B583B00190019B002B13D053
:100784000D4BDB681A46019B93420DD30A4B1B6940
:100794001A46019B934207D80198FFF709FF0346C5
:1007A400002B01D0012300E0002303F00103DBB29E
:1007B400184603B05DF804FB0000002084B00190EB
:1007C400009148F2096303930023ADF80A3027E04F
:1007D400BDF80A20164913469B0013449B000B44A2
:1007E40004331B68009A9A4215D9BDF80A201049AF
:1007F40013469B0013449B000B4404331B6803F50E
:100804008053009A9A4206D200230393019BBDF8B9
:100814000A201A8008E0BDF80A300133ADF80A3026
:10082400BDF80A30012BD3D9039B184604B0704796
:10083400A400002082B001900091009B9B7D022BBC
:1008440009D9019B1A89009BDB8813449BB20333AB
:100854009AB2019B1A81019B5A89009BDB88D31AA7
:100864009BB2033B9AB2019B5A8100BF02B070470E
:1008740000B583B0074B1B68194600230093082377
:10088400054A064802F09CFF0346184603B05DF88B
:1008940004FB00BFCC000020E06200000000002048
:1008A40000B585B003900399002300930823044AFC
:1008B400044802F085FF0346184605B05DF804FBC2
:1008C400E86200000000002000B585B003460091F6
:1008D400ADF80630BDF80620244913469B001344A6
:1008E4009B000B4404331B6803F580530293009B65
:1008F4001B680393039B002B04D00398FFF70BFFA3
:10090400039026E0BDF80620184913469B001344C3
:100914009B000B4404331B680833039319E00299CA
:100924000398FFF703FF0346022B10D0022B10DCC1
:10093400002B02D0012B05D00BE0009B039A1A6018
:1009440001230EE00398FFF7E6FE039001E0002385
:1009540007E002990398FFF7C7FE0346002BDED198
:100964000023184605B05DF804FB00BFA400002076
:1009740000B585B001900091019B5B681846FFF7B4
:10098400F9FE0346002B19D0019B1A89244B1B89BD
:100994009A4213D1019B1A68019B5B689B689A4237
:1009A4000CD1019B5B6819460098FFF707FF0346CB
:1009B400002B0CBF01230023DBB22CE0009B0022A0
:1009C4001A8023E00023029310E0029B0393039B0D
:1009D4009A68019B1B689A4208D1029A019B5A604B
:1009E4000F4B1A89019B1A81012314E0009B1B8879
:1009F40002AA11461846FFF767FF0346002BE4D10D
:100A0400009B1B8801339AB2009B1A80009B1B88B1
:100A1400012BD7D90023184605B05DF804FB00BFAD
:100A2400D400002000B587B0039002910192009396
:100A3400324B1B78DBB283F00103DBB2002B02D014
:100A440048F2016355E0019B002B02D0009B002B70
:100A540049D148F204634CE0009B9B881946284A1C
:100A64000B469B000B449B0013441B78002B33D193
:100A740024E0009B1B680593039B002B06D0059B79
:100A84009A88039B1B889A4200D017E0029B002B94
:100A940006D0059B1A88029B1B889A4200D00DE061
:100AA400059B9A68019B1A60009B1A68019B5A6017
:100AB400144B1A89019B1A8100231AE0009B9B881E
:100AC400009A11461846FFF7FFFE0346002BD0D1CB
:100AD400009B00221A6000E000BF009B9B8801334A
:100AE4009AB2009B9A80009B9B88012BB4D948F250
:100AF4000963184607B05DF804FB00BF78000020C6
:100B0400A4000020D400002000B583B00190054B60
:100B14000199184600F063FE0346184603B05DF8D9
:100B240004FB00BF9400002000B583B00190044B87
:100B34000199184600F06CFE00BF03B05DF804FB99
:100B44009400002008B50A4B1B68002B04D1094906
:100B54004FF4247000F0F2FD0121054800F06CFE12
:100B64000346002B14BF01230023DBB2184608BD43
:100B740080000020AC62000000B587B003900291B1
:100B8400039B02229A750299039B1A1D002300936A
:100B94000423074802F014FE0590059B002B01D1A5
:100BA400002301E048F20D63184607B05DF804FB2A
:100BB4000000002000B587B003900291039B1B69DD
:100BC400002B01D0032200E00122039B9A75029BB3
:100BD40008331946039B03F10C02002300930423FA
:100BE400074802F0EDFD0590059B002B01D1002381
:100BF40001E048F20D63184607B05DF804FB00BF3E
:100C04000000002000B587B003900291039B1B787D
:100C1400032B01D1052200E00622039B9A75029B57
:100C240004331946039B03F10802002300930423B1
:100C3400074802F0C5FD0590059B002B01D1002358
:100C440001E048F20D63184607B05DF804FB00BFED
:100C54000000002000B587B003900B46ADF80A30C1
:100C640003990023009304230D4A0E4802F0A8FDC3
:100C74000590059B002B02D048F20D630BE0BDF8F4
:100C84000A20094913469B0013449B000B4410336C
:100C940001221A700023184607B05DF804FB00BF58
:100CA400F062000000000020A400002000B589B01C
:100CB400019002AB00221A605A609A60019BDB68C3
:100CC40002930DF1160202AB11461846FFF750FECF
:100CD4000346002B12D0039B0693069B9A88019B24
:100CE400DA80069B1A88019B1A81039BBDF81620A3
:100CF40011461846FFF7AEFF079002E048F2096379
:100D04000793079B184609B05DF804FB00B587B04C
:100D14000190019B981D02AA0D4B0021FFF782FE52
:100D24000590059B002B08D1039B094A9288114624
:100D34001846FFF78FFF059004E0082200210448BD
:100D440005F0B6F9059B184607B05DF804FB00BF33
:100D5400E400002000B587B003900291039B0122B8
:100D64009A75029B0C331846039B1A69039BDB8814
:100D74009B00002100910146074802F021FD0590E7
:100D8400059B002B01D1002301E048F20D631846B6
:100D940007B05DF804FB00BF0000002082B0184BD0
:100DA4001B8901339AB2164B1A81154B00225A80C3
:100DB400134B00221A730023ADF8063018E0BDF877
:100DC4000620104913469B0013449B000B441A78D9
:100DD400BDF80630002A0CBF01220022D1B2084A15
:100DE40013440A469A72BDF806300133ADF8063052
:100DF400BDF80630012BE2D900BF00BF02B0704736
:100E0400D4000020A400002084B0019000238DF8B9
:100E14000F300023ADF80C3031E0BDF80C301C4A23
:100E240013449B7A002B25D0BDF80C30184A134488
:100E340000229A72BDF80C20164913469B001344F5
:100E44009B000B440C331B68002B13D1BDF80C2002
:100E5400104913469B0013449B000B4410331B782A
:100E6400002B07D0019BBDF80C201A8001238DF8BC
:100E74000F3008E0BDF80C300133ADF80C30BDF88C
:100E84000C30012BC9D99DF80F30184604B07047B7
:100E9400D4000020A400002008B5084B05221A70D5
:100EA400074B02229A80064B1B6819460023012235
:100EB400044802F0D6FC0346184608BDD4000020BE
:100EC400CC0000200000002000B583B0164B5B88E6
:100ED400ADF80230BDF80220144913469B001344B8
:100EE4009B000B440C331B68002B14D10E4B0422C3
:100EF4001A70BDF802200D4913469B0013449B0051
:100F04000B4404331B68194600230122084802F0ED
:100F1400A8FC019002E0FFF7BFFF0190019B184677
:100F240003B05DF804FB00BFD4000020A40000203F
:100F34000000002000B587B0104B5B680593104B90
:100F44001A680F4B9B889B0013440493059B5B8892
:100F54000333ADF80E30094B03221A700499074B82
:100F64005A68BDF80E309B0000200090054802F03E
:100F740027FC0346184607B05DF804FBD4000020A4
:100F8400CC0000200000002000B583B00A4B5B8831
:100F94000A491846FFF798FC0346002B03D0FFF7D5
:100FA400C9FF019002E0FFF78FFF0190019B1846F3
:100FB40003B05DF804FB00BFD4000020D80000207B
:100FC40008B50A4B06221A70084B5B881946084A72
:100FD4000B469B000B449B00134404331B681846C8
:100FE400FFF75EFC0346184608BD00BFD40000208E
:100FF400A400002008B5054B07221A70034B0022F9
:101004005A60FFF735FC0346184608BDD40000209B
:1010140008B50D48FFF7F8FE034683F00103DBB281
:10102400002B0BD0094B00221A70084B00225A8067
:10103400064B00225A6041F61D5302E0FFF7A4FF5D
:101044000346184608BD00BFD6000020D400002087
:1010540082B0094B5B680193019B5B880333ADF855
:101064000230064B9A88BDF8023013449AB2034BFF
:101074009A8000BF02B07047D4000020CC0000204A
:1010840082B01E4B1B6801931D4B5B8819461D4A99
:101094000B469B000B449B00134404331B68174A04
:1010A4001360174B5B881946164A0B469B000B448A
:1010B4009B0013440433019A1A60114B5B88194650
:1010C4000E4B98880F4A0B469B000B449B0013441D
:1010D400083302461A80094B02229A80084B5B8827
:1010E4001946084A0B469B000B449B0013441033DB
:1010F40000221A7000BF02B0704700BFCC0000206D
:10110400D4000020A400002008B51A4B1B78072B3C
:101114002CD801A252F823F03D11000071110000F7
:101124007111000049110000551100006111000007
:101134006111000069110000FFF730FE0D4B012220
:101144001A7014E0FFF784FF0A4B02221A700EE0B3
:10115400FFF796FF074B06221A7008E0054B07229B
:101164001A7004E0034B01221A7000E000BF00BFB4
:1011740008BD00BFD400002000B587B001900091E5
:1011840048F20E630593019B002B05D0624B0022AD
:101194005A604FF40643BAE0009B1B79032B00F21C
:1011A400A98001A252F823F0BD110000CB11000068
:1011B4005912000079120000009B01221A71FFF7F6
:1011C40057FB059099E000238DF813300023ADF808
:1011D40010302BE0BDF81020504913469B001344F7
:1011E4009B000B441B78022B1BD1BDF810204B49EC
:1011F40013469B0013449B000B4400221A700123E6
:101204008DF81330BDF81020444913469B00134455
:101214009B000B4404331B681846FFF741FB059001
:1012240008E0BDF810300133ADF81030BDF81030CF
:10123400012BCFD99DF8133083F00103DBB2002BCF
:101244005AD0354B01221A70334B00225A6041F6B2
:101254001D535CE0009B00221A71314B02229A80DC
:101264002F4B1B681946002301222E4802F0F9FA7D
:10127400059042E0009B00221A712B4B5B88ADF86D
:101284000E30274B1B680293BDF80E2023491346EA
:101294009B0013449B000B4404331B68204A1360D7
:1012A400BDF80E201D4913469B0013449B000B44BC
:1012B4000433029A1A60BDF80E20194B9888174916
:1012C40013469B0013449B000B44083302461A80C8
:1012D400134B02229A80BDF80E20104913469B003E
:1012E40013449B000B4400221A700298FFF7D8FAAB
:1012F400059002E000BF00E000BF059B002B05D075
:10130400054B00225A6048F20D6300E000231846A2
:1013140007B05DF804FB00BF78000020A4000020A3
:10132400CC00002000000020D400002000B587B0CD
:1013340001900091009B9B8A1A4613469B0013441C
:101344009B003B4A13440493019B002B06D0009955
:101354000498FFF76FFA4FF4064364E0049B5A685D
:10136400049B1B899B0013440393009B9B7D062BCA
:101374004DD801A252F823F0C1130000E513000078
:10138400CD130000D913000099130000F1130000DD
:101394000B140000274B00225A60009B9B69254ACE
:1013A400136025492348FFF7E3FA034683F001035A
:1013B400DBB2002B02D048F2096334E003990098B1
:1013C400FFF7DAFB059026E003990098FFF7F2FB9C
:1013D400059020E003990098FFF7BCFC05901AE003
:1013E40003990098FFF70EFC059014E0009B062279
:1013F4009A75104B5B68104A128811461846FFF71D
:1014040029FC059007E041F61D53059303E048F2DB
:101414000E63059300BF059B002B03D0009904982D
:10142400FFF708FA059B184607B05DF804FB00BFF8
:10143400A4000020EC000020F800002000B585B0D6
:1014440001900091019B002B02D04FF4064329E048
:10145400009B1B79022B1BD0022B1DDC002B02D01E
:10146400012B08D018E0009B02221A710098FFF7A4
:101474001DFC039015E00098FFF748FC0390039BC4
:1014840048F2096293420BD141F61D53039307E0DE
:1014940041F61D53039304E048F20E63039300E006
:1014A40000BF039B184605B05DF804FB00B585B08A
:1014B4000190019B002B02D04FF406433DE0214BE9
:1014C4001B7B002B03D01F4B00221A7301E0FFF794
:1014D4001BFE1C4B1B78013B062B29D801A252F89A
:1014E40023F000BF051500000D15000015150000C0
:1014F4001D15000035150000251500002D150000F0
:10150400FFF786FD039017E0FFF73EFD039013E01D
:10151400FFF710FD03900FE0FFF7D6FC03900BE0FC
:10152400FFF74EFD039007E0FFF764FD039003E02F
:1015340048F20E63039300BF039B184605B05DF8A1
:1015440004FB00BFD400002000B589B00190404BDB
:101554001B68002B05D13F48FFF7D6FA03463C4AE7
:1015640013603B4B1B68002B04D13B494FF4B46020
:1015740000F0E4F8364B1B681B78013B052B2CD894
:1015840001A252F823F000BFA5150000B515000014
:10159400B5150000C5150000C5150000D5150000DF
:1015A4002B4B1B6819460198FFF7E6FD019018E0E4
:1015B400274B1B6819460198FFF7B8FE019010E00D
:1015C400234B1B6819460198FFF738FF019008E088
:1015D4000198FFF76BFF019003E048F20E6301935B
:1015E40000BF019B002B2BD003AB00221A605A6072
:1015F4009A60DA601A61019B41F61D52934201D050
:10160400019B00E000230493114B1B6803AA1146BD
:101614001846FEF7FBFF03AB1846FEF7D7FF0C4B4B
:1016240000221A60002301930A48FFF77DFAFFF7AE
:1016340089FA034683F00103DBB2002B02D186E76B
:1016440000BF00E000BF00BF09B05DF804FB00BFAD
:10165400FC00002000010020AC62000000B583B053
:101664000190019B5B681846FFF76EFF00BF03B053
:101674005DF804FB1EF0040F1CBFEFF309800AE0C1
:10168400EFF308800549064A884201D8904202D8FF
:101694008D464FF00000034B184700000000012066
:1016A40000E00020E516000000BF00BFBFF34F8F2D
:1016B40000BF064BDB6803F4E0620449044B1343A8
:1016C400CB60BFF34F8F00BF00BFFDE700ED00E02C
:1016D4000400FA0500B583B00190FFF7E7FF0000AE
:1016E40000B587B00190019B0493124B9B6A03934E
:1016F400104BDB6A002305930AE00122059B02FAE2
:1017040003F31A46039B1340002B059B01330593F7
:10171400059B192BF1D9084B1B6803F00103002B1F
:1017240000D000BE0198FFF7D5FF00BF07B05DF8F9
:1017340004FB00BF00ED00E0F0ED00E000B585B073
:1017440003460091ADF80630BDF806300293009BC5
:10175400039302AB1A46002144F20200FEF78CFE0A
:1017640000BF05B05DF804FB86B001900091019BB9
:1017740053E8021F1FFAA1F2D888824202BFBFF3C6
:101784002F8F00230DE0D88902449889824228BF14
:10179400121AC1EA024243E802200028E8D14FF0BD
:1017A40001038DF80F30059002910492029A009B78
:1017B4001A609DF80F30DBB2184606B0704784B04B
:1017C4000190019951E8023FC3EA234341E8023200
:1017D400002AF7D10392029300BF04B0704700B50A
:1017E40085B001900091009B19460198FFF7BCFF5A
:1017F4000346002B07D0019B1B68009A52881344B0
:101804000393039B00E00023184605B05DF804FB36
:1018140000B583B001900091009B1A88009B5B88FF
:101824009A4204D10198FFF7CAFF012300E0002384
:10183400184603B05DF804FB10B487B00190009122
:10184400019B009A53E8004FA4EB020043E8000117
:1018540091F0000FF6D1059404900391049B18466F
:1018640007B05DF8044B704700B583B00190019B4D
:10187400002B04D1054940F24510FFF75FFF019B9F
:101884001B681B79184603B05DF804FBF462000082
:1018940000B583B00190019B002B04D1074940F2AD
:1018A4005510FFF74BFF019B9A68019B1B681B684F
:1018B400D31ADBB2184603B05DF804FBF4620000EF
:1018C40082B00190019B9B68D3F84831C3F3400375
:1018D400DBB2002B14BF01230023DBB2184602B095
:1018E4007047000000B597B00B900A9109920B98CD
:1018F400FFF7E6FF0346002B05D0002200210B98DA
:1019040000F0BAFD61E00A9B012B05D9304A02219F
:101914000B9800F085FC58E02E4A2F4BD31A2F4A1F
:10192400A2FB03231B0914930023159349E0159A82
:1019340013465B001344DB001A46274B13441393EE
:10194400139B9B8A1293139B9B8A1A46129BD31A4E
:101954001193139B9A68139B5B68D31A1093139883
:10196400FFF782FF03460F931398FFF791FF034697
:101974000E93139B1B690D930E9B642203FB02F2CF
:10198400109BB2FBF3F30F9A642102FB01F1109A4E
:10199400B1FBF2F2109907910F9906910592109AF2
:1019A40004920E9A03920293119B0193129B00934B
:1019B4000D9B0B4A08210B9800F032FC159B013358
:1019C4001593159A149B9A42B1D317B05DF804FB92
:1019D400306300000462000004620000ABAAAAAAFB
:1019E4004463000082B00190019B9B68D3F84831A6
:1019F400C3F34003DBB2002B14BF01230023DBB28B
:101A0400184602B07047000000B585B00190019BF4
:101A1400002B0AD0074B43F001030393019B9B0166
:101A24000293039B0298984700E000BF05B05DF85D
:101A340004FB00BFD06A000000B583B00190019B95
:101A44001B69184601F0EEFA00BF03B05DF804FB11
:101A540082B00190019B9A68B2F8483143F00803C0
:101A6400A2F8483100BF02B0704782B00190019BD8
:101A74009A68B2F8483123F00803A2F8483100BF4D
:101A840002B0704782B00190019B9B68D3F8483143
:101A9400C3F3C003DBB2184602B0704700B583B08D
:101AA4000190019B002B04D0019804F085FA0346B1
:101AB40000E00023184603B05DF804FB10B588B0BD
:101AC4000390029101920093039B002B02D0029B8E
:101AD400002B03D12D49F420FFF730FE039B5B68F4
:101AE4001B68002B03D12949F520FFF727FE0023AB
:101AF40007933EE0039B5B681B68DC68039B5868A4
:101B0400029A079BD11805AB019AA0470690069B41
:101B1400002B03D01D49FF20FFF710FE059B019AFF
:101B24009A4204D219494FF48070FFF707FE059BCF
:101B3400079A13440793059B019AD31A0193059BB3
:101B4400002B16D1039B9B681B78032B11D000BF7D
:101B5400039B9B68D3F84831C3F34013DBB2002BDB
:101B6400F6D0039B9A68B2F8483123F02003A2F818
:101B74004831019B002BBDD1009B002B02D0059A5C
:101B8400009B1A6000BF08B010BD00BF9C64000039
:101B940000B583B001900B468DF80330019B1B699F
:101BA4009DF803200349184601F05EFA00BF03B014
:101BB4005DF804FBD464000010B586B00390029174
:101BC40001920093039B002B02D0029B002B04D1B3
:101BD4000D4940F22310FFF7B1FD039B5B68002B16
:101BE40004D109494FF49270FFF7A8FD039B5B6889
:101BF4001B681C69039B5868009B019A0299A047C3
:101C0400059000BF06B010BD9C64000000B589B00B
:101C14000390029101920093009B002B04D13B4955
:101C24004FF49C70FFF78AFD0A9B002B04D13749BF
:101C340040F23910FFF782FD029B002B34D1344A65
:101C4400344BD31ADB08019A9A4229D20023069313
:101C5400314B0593002307931BE0079BDB002D4AC0
:101C640013440693019B9B00059A13441A68069B30
:101C74005B681B681946104604F0B4F90346002B50
:101C840004D1069B5A68009B1A603CE0079B013311
:101C940007931F4A1F4BD31ADB08079A9A42DCD3D7
:101CA400009B00221A602EE0039B002B03D1009BB3
:101CB40000221A6027E0039B1B78002B10D0039BA3
:101CC4005B680A99019898470A9B1B68002B03D10B
:101CD400009B00221A6016E0009B0A9A1A6012E028
:101CE400039B5A68019B1B0113441B68002B07D0FC
:101CF400039B5A68019B1B011A44009B1A6002E073
:101D0400009B00221A6009B05DF804FB9C6400008B
:101D14003C620000046200001400002000B583B09F
:101D24000190019B1B690449184601F09DF900BF0D
:101D340003B05DF804FB00BFDC64000000B583B0B1
:101D440001900B468DF803309DF80330002B07D02B
:101D5400019B1B699DF803200349184601F084F98F
:101D640000BF03B05DF804FBE064000000B583B07D
:101D740001900B468DF803309DF80330002B07D0FB
:101D8400019B1B699DF803200349184601F06CF977
:101D940000BF03B05DF804FBE864000000B583B045
:101DA40001900B468DF803309DF80330002B07D0CB
:101DB400019B1B699DF803200349184601F054F95F
:101DC40000BF03B05DF804FBF064000000B583B00D
:101DD40001900B468DF803309DF80330002B07D09B
:101DE400019B1B699DF803200349184601F03CF947
:101DF40000BF03B05DF804FBF864000000B587B0D1
:101E040001900023ADF816300023ADF81430002300
:101E14008DF80B3000238DF81330019B9B68A033A1
:101E240080220021184604F043F9019B1B6976497E
:101E3400184601F019F90198FFF7FEFD0023ADF8EB
:101E44001030D5E003AB0DF10B0101220198FFF72F
:101E5400B3FE039B002B04D140F2E730FFF7D4FD1F
:101E6400BDE09DF80B301B2B06D0019B9B6893F8BB
:101E7400A0301B2B40F0B2809DF80B30522B40F069
:101E84009380019B9A689DF813301344002283F8D1
:101E9400A020019B9B6893F8A1305B2B06D0019B8B
:101EA4009B68002283F8A0200B23A8E002238DF86E
:101EB40013301BE0BDF814301A46920013445B0043
:101EC4009AB2019B99689DF81330581C8DF8130041
:101ED4000B4493F8A03013449BB2303BADF814305C
:101EE4009DF91330002B01DA0C2388E0019B9A68DA
:101EF4009DF81330134493F8A0303B2BDAD19DF8AE
:101F0400133001338DF813309DF91330002B1DDA93
:101F14000C2374E0BDF816301A46920013445B009B
:101F24009AB2019B99689DF81330581C8DF81300E0
:101F34000B4493F8A03013449BB2303BADF81630F9
:101F44009DF91330002B01DA0C2358E0019B9A68A9
:101F54009DF81330134493F8A030002BDAD1BDF868
:101F64001630FA2B04D9019B9B68FA221A7505E0F6
:101F7400019B9B68BDF81620D2B21A75BDF81430C7
:101F8400FA2B04D9019B9B68FA229A7505E0019B00
:101F94009B68BDF81420D2B29A75019B9B680022FD
:101FA40083F8A02000232AE0019B9A689DF813304F
:101FB4009DF80B1013440A4683F8A0209DF81330B3
:101FC40001338DF813309DF81330092B07D9019B89
:101FD4009B68002283F8A020042310E000BF039B29
:101FE400002B7FF42FAFBDF810300133ADF8103063
:101FF400BDF81030B3F57A7FFFF424AF0D231846F3
:1020040007B05DF804FB00BFC86A000000B587B0E4
:10201400039002910192029B002B04D12A4940F2C1
:102024004930FFF78BFB019B002B04D1264940F27A
:102034004A30FFF783FB0398FFF7E0FE0346002BCB
:1020440018D1039B9B681B7DADF81630039B9B68DE
:102054009B7DADF81430FA210398FFF787FEFA212F
:102064000398FFF7B3FE0398FFF7C8FE0346002B5F
:1020740024D101E0062322E0039B9B681A7D029B86
:102084001A70039B9B689A7D019B1A70029B1A78B5
:10209400BDF81630DBB2D31ADBB219460398FFF74A
:1020A4004DFE019B1A78BDF81430DBB2D31ADBB2B3
:1020B40019460398FFF772FE002300E00623184632
:1020C40007B05DF804FB00BF9C64000000B585B058
:1020D40001900B468DF803309DF80330002B2ED071
:1020E400019B9B68DB7E9DF803209A4234D01B231E
:1020F4008DF808305B238DF8093031238DF80A30D0
:102104003B238DF80B3033238DF80C309DF80330CE
:102114002F33DBB28DF80D306D238DF80E30002394
:102124008DF80F30019B9B689DF80320DA76019BA4
:102134001B6902AA0A49184600F096FF0DE0019BAC
:102144009B689DF80320DA76019B1B69054A0449C4
:10215400184600F089FF00E000BF05B05DF804FBFD
:10216400D8640000D86A000000B585B001900B4621
:102174008DF803309DF80330002B29D0019B9B6818
:102184001B7F9DF803209A4221D01B238DF8083031
:102194005B238DF8093034238DF80A309DF8033021
:1021A4002F33DBB28DF80B306D238DF80C30002308
:1021B4008DF80D30019B9B689DF803201A77019BD5
:1021C4001B6902AA0449184600F04EFF00E000BF54
:1021D40005B05DF804FB00BFD864000082B0019034
:1021E4000091019B9B681B331B889AB2009B1A8049
:1021F40000BF02B0704700B583B001900091009B0E
:102204001B7819460198FFF761FF009B5B7819461C
:102214000198FFF7A9FF00BF03B05DF804FB0000BD
:102224000CB400B585B001900B468DF80330069BC5
:10223400002B04D12B4940F66130FFF77FFA019B54
:10224400002B04D1274940F66230FFF777FA019B4F
:102254009B68002B07D0019B5B68002B03D0019B7C
:102264001B68002B04D11F4940F66330FFF766FA60
:102274000023039307AB0393019B9B68D3F8483176
:10228400C3F38003DBB2002B1ED0019B9B68DB7E73
:102294009DF803209A4217D002AB19460198FFF724
:1022A4009DFF9DF8033019460198FFF70FFF019B2E
:1022B4001B6903AA0699184601F0BEF802AB194639
:1022C4000198FFF798FF07E0019B1B6903AA069991
:1022D400184601F0B1F800BF00BF05B05DF804EB8B
:1022E40002B070479C64000000B589B0039002916D
:1022F40001928DF80330029B002B00F0B8809DF80A
:102304000330002B05D0019BDBB219460398FFF77D
:102314002DFD0023069302E0069B01330693029AE7
:10232400069B13441B78184603F013FF0346002B47
:10233400F2D1002305930298FFF7B0FB0246069BF7
:10234400D31A0793039B9B685B7E1A46019BD31A9F
:10235400079A9A4238D80023059324E0069A059BED
:102364001344029A13441B780A2B19D10398FFF7DC
:1023740063FB029A069BD1180023059A0398FFF782
:102384009DFB059A069B1344013306930398FFF7BC
:10239400C5FC019BDBB219460398FFF7E7FC06E096
:1023A400059B01330593059A079B9A42D6D3039B59
:1023B4001869029A069B1344194600F055FE00BFA3
:1023C4000398FFF7ABFC53E0039B9B685B7E1A46C4
:1023D400019BD31A0793069A059B1344029A13444C
:1023E4001B78184603F0B5FE0346002B09D0059B65
:1023F4000793069A059B1344029A13441B780A2BED
:102404000BD0059A019B1344039A9268527E93421F
:1024140005D2059B01330593DDE700BF00E000BF53
:102424000398FFF709FB029A069BD1180023079A29
:102434000398FFF743FB069A079B1344069302E0B5
:10244400069B01330693029A069B13441B78184695
:1024540003F07FFE0346002BF2D10398FFF75EFCE6
:10246400019BDBB219460398FFF780FC61E700BFCC
:1024740009B05DF804FB000030B591B005900491FB
:102484000392059B002B04D1B34940F6E230FFF7D9
:1024940055F9059B9B68002B07D0059B5B68002BB7
:1024A40003D0059B1B68002B04D1AB4940F6E330F5
:1024B400FFF744F90023ADF83E30A848FFF7EEFAE1
:1024C40003469CB2A648FFF7E9FA03469BB2E31A17
:1024D400ADF83C30059B9B685B68A24A0092A24A17
:1024E40008210598FFF79CFE059B9B685B681846CE
:1024F400FFF7D4FA03469CB29A48FFF7CFFA034693
:102504009BB22344ADF83E30059B9B689968BDF8A7
:102514003E2000230598FFF7E7FE944A0021059822
:10252400FFF77EFE039B002B4AD0049B002B47D071
:1025340000230E9340E00E9A13465B0013449B0065
:102544001A46049B13445B681846FFF7A7FA04462F
:102554000E9A13465B0013449B001A46049B1344D3
:102564001B681846FFF79AFA0346E218BDF83C3098
:102574009A421ED90E9A13465B0013449B001A46D6
:10258400049B13445B681846FFF788FA03469CB221
:102594000E9A13465B0013449B001A46049B134493
:1025A4001B681846FFF77AFA03469BB22344ADF83A
:1025B4003C300E9B01330E930E9A039B9A42BAD37E
:1025C4006748FFF76BFA0346694A127813449AB2D4
:1025D400BDF83C301344ADF83C30BDF83C305F4AA4
:1025E4000092644A08210598FFF71AFE604B1B7895
:1025F4001A46BDF83C3013449BB20133ADF83E306B
:10260400BDF83E2000235C490598FFF76DFE049B4E
:10261400002B00F0028100230D93F9E00D9A13467C
:102624005B0013449B001A46049B13445B68002B15
:1026340069D00D9A13465B0013449B001A46049B11
:1026440013441B68002B5ED00D9A13465B001344A1
:102654009B001A46049B134459680D9A13465B0069
:1026640013449B001A46049B13441B6801933C4B80
:1026740000930B46414A08210598FFF7D1FD3C4BD6
:102684001B781A46BDF83C301344ADF83E30BDF813
:102694003E30DCB20D9A13465B0013449B001A468D
:1026A400049B13445B681846FFF7F8F90346DDB250
:1026B4000D9A13465B0013449B001A46049B134473
:1026C4001B681846FFF7EAF90346DBB22B44DAB27B
:1026D400274B1B781344DDB22148FFF7DFF903468B
:1026E400DBB22B44DBB2E31ADBB219460598FFF7E1
:1026F4003DFB3A210598FFF74BFABDF83E30013314
:10270400ADF83E3063E00D9A13465B0013449B0022
:102714001A46049B13445B68002B31D0BDF83C106F
:102724000D9A13465B0013449B001A46049B134402
:102734005B6800930B460F4A08210598FFF770FD6C
:102744000B4B1B781A46BDF83C3013449BB2013343
:10275400ADF83E303BE000BF9C640000DC6A000042
:10276400E86A0000EC6A000098650000A0650000BB
:10277400F06A0000AC650000B4650000C8650000A4
:102784000D9A13465B0013449B001A46049B1344A2
:102794001B68002B1BD0BDF83C100D9A13465B0040
:1027A40013449B001A46049B13441B6800930B4676
:1027B4005B4A08210598FFF733FD5A4B1B781A46EC
:1027C400BDF83C3013449BB20133ADF83E300D9A52
:1027D40013465B0013449B001A46049B13449B68F6
:1027E400002B0FD00D9A13465B0013449B001A462E
:1027F400049B13449968BDF83E2000230598FFF715
:1028040073FD02E00598FFF789FA0D9B01330D93E0
:102814000D9A039B9A42FFF401AF059B9B68DB680A
:10282400002B75D0059B9B68DB680B9300230693F4
:102834000023ADF83E300023ADF83C3000230C9368
:102844000C9A531C0C9306A907AB00930B46012169
:102854000B98FFF7DBF9069B002B12D0069B1B6835
:102864001846FFF71BF90246BDF83C309A42E7D9F7
:10287400069B1B681846FFF711F90346ADF83C3078
:10288400DEE700BF0C9B012B44D0274A00210598AA
:10289400FFF7C6FC00230C930C9A531C0C9306A957
:1028A40007AB00930B4601210B98FFF7AFF9069B8A
:1028B400002B31D01B4B1B781A46BDF83C30134417
:1028C400ADF83E30BDF83E20069B1B6800931346CE
:1028D400134A08210598FFF7A3FC124B1B781A46EC
:1028E400BDF83E3013449BB20133ADF83E30069B35
:1028F4005B68002B08D0069B5968BDF83E20002376
:102904000598FFF7F1FCC7E70598FFF707FAC3E757
:1029140000BF02E000BF00E000BF11B030BD00BF47
:10292400AC650000F06A0000D465000000B585B015
:102934000390019200930B468DF80B300398FFF738
:1029440051F80346002B06D0009A01990398FFF72B
:1029540093FD01230EE09DF80B30002B09D0039B5F
:102964009B685B68054A02210398FFF759FC012321
:1029740000E00023184605B05DF804FBE4650000A0
:1029840000B585B0039002910192039B002B04D102
:102994002B4940F65F50FEF7D1FE039B9B68002B4A
:1029A40007D0039B5B68002B03D0039B1B68002BA1
:1029B40004D123494FF45660FEF7C0FE029B022B5C
:1029C4000BD10398FFF70EF80346002B05D0002225
:1029D40000210398FFF750FD2FE0039B002B04D147
:1029E400174940F66850FEF7A9FE039B1B69002BAC
:1029F40004D1134940F66850FEF7A0FE039B1B69FF
:102A0400104A1149184600F02FFB039B002B04D1F8
:102A14000B4940F66950FEF791FE039B1B69002B9E
:102A240004D1074940F66950FEF788FE039B1B69F1
:102A3400064A0549184600F017FB05B05DF804FB8B
:102A44009C640000F46A0000D8640000F86A000086
:102A540000B585B0039002910192039B002B04D131
:102A6400174940F66E50FEF769FE039B9B68002BE6
:102A740007D0039B5B68002B03D0039B1B68002BD0
:102A840004D10F4940F66F50FEF758FE029B012B0C
:102A940008D0029B022B0BD10398FEF7A3FF034639
:102AA400002B05D0002200210398FFF7E5FC04E089
:102AB400044A02210398FFF7B3FB05B05DF804FB59
:102AC4009C6400007465000000B585B00390029119
:102AD4000192029B012B14BF01230023D9B20023CE
:102AE40000220398FFF722FF0346002B08D1039B23
:102AF4009A68B2F8483123F00403A2F8483100E0A0
:102B040000BF05B05DF804FB00B585B003900291E9
:102B14000192029B012B14BF01230023D9B200238D
:102B240000220398FFF702FF0346002B08D1039B02
:102B34009A68B2F8483143F00403A2F8483100E03F
:102B440000BF05B05DF804FB00B587B005900491A3
:102B54000392059B002B04D11F4940F68F50FEF7CA
:102B6400EDFD059B9B68002B07D0059B5B68002B44
:102B740003D0059B1B68002B04D117494FF45960FF
:102B8400FEF7DCFD049B012B05D1002200210598F2
:102B9400FFF772FC1DE0049B022B14BF01230023EA
:102BA400D9B2002300220598FFF7C0FE0346002B8C
:102BB4000ED1039B1A68039B04331B680193074BD4
:102BC40000931346064A02210598FFF729FB00E00B
:102BD40000BF07B05DF804FB9C6400000C660000B5
:102BE4000066000000B587B0059004910392049B31
:102BF400022B8CBF01230023D9B2002300220598A5
:102C0400FFF794FE0346002B20D1049B022B0ED128
:102C1400039B1A68039B04331B6801930D4B0093B9
:102C240013460D4A02210598FFF7FAFA0FE00598BA
:102C3400FEF728FF0346002B01D0084B00E0084BA9
:102C4400084A00210598FFF7EBFA00E000BF07B03F
:102C54005DF804FB0C6600000066000024660000BA
:102C6400286600002C66000000B585B00390029130
:102C74000192029B012B14BF01230023D9B200232C
:102C840000220398FFF752FE0346002B03D103985A
:102C9400FEF7EBFE00E000BF05B05DF804FB00B5F5
:102CA40085B0039002910192029B012B14BF012372
:102CB4000023D9B2002300220398FFF737FE03460E
:102CC400002B03D10398FEF7C3FE00E000BF05B05C
:102CD4005DF804FB00B58DB0059004910392059B4B
:102CE400002B04D12D4940F6C750FEF727FD059B64
:102CF4009B68002B07D0059B5B68002B03D0059BCA
:102D04001B68002B04D1254940F6C850FEF716FD78
:102D1400049B012B14BF01230023D9B200230022FA
:102D24000598FFF703FE0346002B33D100230B93D2
:102D3400059B9B68D3F840310A930A9B002B23D050
:102D44000B9B072B20D807A9002309220A9800F01F
:102D54008DFE059B9B6803F1A0019DF8243001338F
:102D64001A4609230A9800F081FE089B0A930B9BDC
:102D74005A1C0B92059A9268A0320092084A0021CC
:102D84000598FFF74DFAD8E7059B9B68002283F866
:102D9400A02000E000BF0DB05DF804FB9C640000BF
:102DA4004066000000B587B0059004910392049B2F
:102DB400012B05D1002200210598FFF75DFB1CE0E3
:102DC400049B022B0ED1039B1A68039B04331B68DC
:102DD40001930B4B009313460A4A02210598FFF70F
:102DE4001FFA0AE0049B022B8CBF01230023D9B2F3
:102DF400002300220598FFF799FD07B05DF804FB56
:102E04000C6600000066000000B58BB007900691C8
:102E14000592069B012B14BF01230023D9B2002382
:102E240000220798FFF782FD0346002B29D1079B58
:102E3400DB685B681B680993099800F011FF03467F
:102E44008DF823309DF82330642203FB02F2099BA2
:102E54009B68B2FBF3F38DF82230079B9B68D3F891
:102E640038019DF822309DF8232009998968029140
:102E7400019200930346054A00210798FFF7D0F911
:102E840000E000BF0BB05DF804FB00BF4C6600001F
:102E940000B585B0039002910192029B012B14BFEF
:102EA40001230023D9B2002300220398FFF73EFD3B
:102EB4000346002B0CD1039B9B680022C3F83821E6
:102EC400039BDB685B681B68184600F0DDFE00E0CE
:102ED40000BF05B05DF804FB00B585B00390029116
:102EE4000192029B012B14BF01230023D9B20023BA
:102EF40000220398FFF71AFD0346002B20D1039B01
:102F0400002B04D1104940F62160FEF717FC039B07
:102F14001B69002B04D10C4940F62160FEF70EFC1E
:102F2400039B1B69094A0A49184600F09DF8039B54
:102F34009B6850225A76039B9B6818221A7600E0FD
:102F440000BF05B05DF804FB9C640000006B00004A
:102F5400D864000000B587B0059004910392059BE6
:102F6400002B04D12B4940F62860FEF7E7FB059BB4
:102F74009B68002B07D0059B5B68002B03D0059B47
:102F84001B68002B04D1234940F62960FEF7D6FBC9
:102F9400049B012B1BD1059B9B6803F11901059B25
:102FA4009B6818331A460598FFF730F80346002B40
:102FB4002AD0059B9B6850225A76059B9B68182251
:102FC4001A76154A04210598FFF72AF91CE0049B98
:102FD400022B8CBF01230023D9B2002300220598C1
:102FE400FFF7A4FC0346002B10D1039B1A68039B34
:102FF40004331B680193094B00931346084A0221CA
:103004000598FFF70DF902E000BF00E000BF07B02C
:103014005DF804FB9C640000846600000C660000FC
:103024000066000000B583B00190019B002B03D122
:103034000C493120FEF782FB019B9B68002B0CD0CE
:10304400019B5B69019A1069019A1168019A92685F
:103054009847019B00229A6000E000BF03B05DF82E
:1030640004FB00BF086B00000EB400B584B00190EF
:10307400019B002B03D118494220FEF75FFB019B03
:103084005B69002B03D114494320FEF757FB019BD6
:103094001B68002B03D110494420FEF74FFB019B12
:1030A4005B68002B03D10C494520FEF747FB059BC9
:1030B400002B0AD00023039306AB039303AB1A46F9
:1030C4000599019800F0B8F900E000BF04B05DF87C
:1030D40004EB03B0704700BF086B000000B583B079
:1030E40001900B468DF803309DF803300A2B03D171
:1030F4000D210198FFF7F2FF019B1A68019B9B6861
:10310400581C0199886013449DF803201A70019B90
:103114009A68019B5B689A4202D30198FFF782FF89
:1031240000BF03B05DF804FB00B587B003900291C3
:103134000192009300230593009B03F00103002BED
:1031440024D00BE0029B01330293059B01330593CA
:103154009DF8133019460398FFF7C0FF029B1B78B4
:103164008DF813309DF81330002BEBD106E0019B52
:10317400013B019320210398FFF7B0FF019A059BBF
:103184009A422ED9019B002BF1D12AE0029B002BFD
:103194000BD0029802F010FF059006E0019B013B62
:1031A400019320210398FFF799FF019A059B9A4206
:1031B4000FD9019B002BF1D10BE0029B0133029349
:1031C400059B013305939DF8133019460398FFF7C7
:1031D40085FF029B1B788DF813309DF81330002B6C
:1031E400EBD100BF07B05DF804FB000000B589B067
:1031F4000390029101920093029B0793012306938B
:1032040007E0079A019BB2FBF3F30793069B013394
:103214000693079A019B9A42F3D2009A069B9A421C
:1032240001D9009B06930B9B03F00103002B22D1D1
:103234000A9B002B1FD00B9B03F00203002B06D02C
:10324400009B002B03D130238DF8173002E020239C
:103254008DF8173008E00A9B013B0A939DF817305C
:1032640019460398FFF73AFF0A9B002B03D0069AEE
:103274000A9B9A42EFD301230793009B012B03D9A6
:10328400009B013B009309E0029A079BB2FBF3F316
:103294000493049A019B9A4200D205E0079B019A89
:1032A40002FB03F30793E8E7029A079BB2FBF3F3ED
:1032B4000493049B079A02FB03F3029AD31A029322
:1032C400154A049B13441B7819460398FFF706FF1D
:1032D400079A019BB2FBF3F30793079B002BE3D1FF
:1032E4000B9B03F00103002B11D00A9B002B0ED083
:1032F40006E00A9B013B0A9320210398FFF7EEFEA8
:103304000A9B002B03D0069A0A9B9A42F1D300BF72
:1033140009B05DF804FB00BF746B000000B589B010
:103324000590049103920293049B002BB8BF5B4267
:1033340006930123079307E0039B069A92FBF3F39A
:103344000693079B01330793039B069A9A42F3DA89
:10335400029A079B9A4201D9029B07930A9B002B6E
:103364000AD0049B002B04DB0B9B03F00403002B0B
:1033740002D00A9B013B0A930B9B03F00203002B30
:1033840002D0029B002B16D00B9B03F00103002BF1
:1033940011D10A9B002B0ED006E00A9B013B0A9335
:1033A40020210598FFF79AFE0A9B002B03D0079A69
:1033B4000A9B9A42F1D3049B002B07DA049B5B42DD
:1033C40004932D210598FFF789FE08E00B9B03F079
:1033D4000403002B03D02B210598FFF77FFE0B9BE2
:1033E40003F00203002B19D00B9B03F00103002B05
:1033F40014D1029B002B11D10A9B002B0ED006E0A6
:103404000A9B013B0A9330210598FFF767FE0A9B4C
:10341400002B03D0079A0A9B9A42F1D304990B9B81
:1034240001930A9B0093029B039A0598FFF7DEFE23
:1034340000BF09B05DF804FB00B58FB0059004919E
:103444000392059B002B04D1AD4940F25220FEF7B4
:1034540075F9059B5B69002B04D1A9494FF41570DC
:10346400FEF76CF9059B1B68002B04D1A44940F2BC
:103474005520FEF763F9059B5B68002B04D1A04936
:1034840040F25620FEF75AF9049B002B00F093817A
:10349400049B1B788DF83730049B013304939DF80B
:1034A4003730002B00F07E819DF83730252B40F01B
:1034B4006D8100230A9301230C93049B1B788DF8E0
:1034C40037309DF83730302B0DD0302B1BDC2B2BB5
:1034D40011D02D2B17D10A9B43F001030A93049BAF
:1034E4000133049312E00A9B43F002030A93049B02
:1034F400013304930AE00A9B43F004030A93049BF8
:103504000133049302E000230C9300BF0C9B002BB7
:10351400D3D1002309939DF837302A2B0CD1039B78
:103524001B68191D039A11601B68099A13440993B7
:10353400049B013304931AE0049B1B788DF8373005
:103544009DF837302F2B12D99DF83730392B0ED8F0
:10355400049B01330493099A13469B0013445B00B4
:103564001A469DF837301344303B0993D3E70023C0
:103574000B93049B1B788DF837309DF837302E2B36
:103584001DD1049B01330493049B1B788DF83730C1
:103594009DF837302F2B12D99DF83730392B0ED8A0
:1035A400049B013304930B9A13469B0013445B0062
:1035B4001A469DF837301344303B0B93E4E7049BE1
:1035C4001B788DF837309DF837306C2B03D09DF87D
:1035D4003730682B07D1049B01330493049B1B7879
:1035E4008DF83730EFE79DF83730252B00F0C48095
:1035F400252BC0F2C680782B00F3C380582BC0F271
:10360400C080583B202B00F2BC8001A252F823F06A
:10361400093700008737000087370000873700002C
:10362400873700008737000087370000873700009E
:10363400873700008737000087370000993600007D
:10364400BB3600008737000087370000873700004B
:1036540087370000BB36000087370000873700003B
:10366400873700008737000087370000873700005E
:103674004937000087370000873700002D370000E6
:1036840087370000DF3600008737000087370000E7
:1036940009370000039B1B68191D039A11601B68FE
:1036A4000C930C9B8DF81F309DF81F30194605981C
:1036B400FFF714FD66E0039B1B68191D039A116054
:1036C4001B680C930A9B0193099B00930B9B0A2292
:1036D4000C990598FFF722FE54E0039B1B68191D03
:1036E400039A11601B680C930C990A9B0193099B24
:1036F40000930B9B0A220598FFF778FD42E000BF78
:103704003C6B0000039B1B68191D039A11601B6826
:103714000C930C990A9B0193099B00930B9B102219
:103724000598FFF763FD2DE0039B1B68191D039AA1
:1037340011601B6808930A9B099A08990598FFF77A
:10374400F3FC1FE0039B1B68191D039A11601B689F
:103754000C9330210598FFF7C1FC78210598FFF7F9
:10376400BDFC0C9900230193082300930823102225
:103774000598FFF73BFD05E025210598FFF7AEFC12
:1037840000E000BF049B0133049305E09DF837304B
:1037940019460598FFF7A2FC049B1B78002B7FF4C5
:1037A40077AE00E000BF059B1B7B002B04D005987F
:1037B400FFF738FC00E000BF0FB05DF804FB00BF6A
:1037C40010B586B00590049103920293059B002BDB
:1037D40001D10E2342E0039B002B01D10E233DE0D7
:1037E400059B1B68002B01D1082337E0029B002BAB
:1037F40001D1092332E0059B5B685A68029BB3FB45
:10380400F2F101FB02F29B1A002B01D0092325E0FF
:10381400049800F07BF80346002B01D110231DE02F
:10382400039B184600F072F80346002B01D11023C5
:1038340014E0029A0499059800F04EF80346002B10
:1038440001D110230AE0059B1B68DC68089B0093E8
:10385400029B039A04990598A0470346184606B0AC
:1038640010BD10B584B00390029101920093039BA4
:10387400002B01D10E232CE0039B1B68002B01D1EC
:10388400082326E0019B002B01D1092321E00299A2
:10389400039800F048F80346002B01D1102318E0E8
:1038A400039B5B681B68019A02FB03F31A460299A7
:1038B400039800F011F80346002B01D1102308E00F
:1038C400039B1B681C69009B019A02990398A047FB
:1038D4000346184604B010BD84B0039002910192CF
:1038E400039BDB68029A9A4209D3029A019B134410
:1038F4005A1E039B1B699A4201D8012300E000234E
:1039040003F00103DBB2184604B0704782B00190A3
:10391400019B03F00303002B0CBF01230023DBB244
:10392400184602B0704782B001900091019B5B6819
:103934001B685A1E009B1340002B0CBF012300235D
:10394400DBB2184602B0704700B591B00390029103
:1039540001920093039B002B03D14349B620FDF74A
:10396400EDFE039B0993039B0F93099BDB881A4687
:10397400099B5B7902FB03F3043B0893009A089BC1
:103984009A4203D33849C420FDF7D8FE099BDB884B
:103994000793009B1A1D079BB2FBF3F30E93009B46
:1039A4000433079AB3FBF2F2079901FB02F29B1A64
:1039B4000D93019B1A68009B1344089A9A4203D200
:1039C400089A009BD31A01E0019B1B680C93019B8E
:1039D4000C9A1A6005E00F9B1B680F930E9B013B2A
:1039E4000E930E9B002BF6D100230B93079A0D9B8D
:1039F400D31A0A930A9A0C9B934228BF13460A933C
:103A04002AE0029A0B9B134406930F9A0D9B1344CE
:103A1400043305939DF84830002B05D00A9A059984
:103A2400069802F013FB04E00A9A0699059802F03E
:103A34000DFB00230D930F9B1B680F930C9A0A9B9D
:103A4400D31A0C930B9A0A9B13440B93079A0C9B5F
:103A5400934228BF13460A930C9B002BD1D100BF7D
:103A640000BF11B05DF804FB846B000000B589B0A1
:103A74000590049103920293039B079307AA0123E1
:103A84000093029B04990598FFF75EFF079B039A36
:103A94009A4204D004494FF48070FDF74FFE00BFF2
:103AA40009B05DF804FB00BF846B000082B0019094
:103AB400019B9B68D3F84831C3F34003DBB2002B6E
:103AC40014BF01230023DBB2184602B07047000084
:103AD40000B595B00B900A9109920B98FFF7E6FF99
:103AE4000346002B05D0002200210B98FEF7C4FCEE
:103AF4005CE00A9B012B05D92E4A02210B98FEF7A4
:103B04008FFB53E02C4A2D4BD31A2D4AA2FB0323DF
:103B14001B0912930023139344E0139A13465B008A
:103B24001344DB001A46254B13441193119BDB68A5
:103B34001093119B9B680F93119800F091F80E90CD
:103B4400119800F071F80D90119B5B690C930D9B1B
:103B5400642203FB02F20F9BB2FBF3F30E9A64217F
:103B640002FB01F10F9AB1FBF2F21199097C0029D1
:103B740001D1144900E0144907910F9906910E9957
:103B8400059104920F9A03920D9A02920193109B4D
:103B940000930C9B0D4A08210B98FEF741FB139BE5
:103BA40001331393139A129B9A42B6D315B05DF85E
:103BB40004FB00BFC06B000004620000EC61000065
:103BC400ABAAAAAAD46B0000E06B0000EC6B000067
:103BD40082B00190019B9B68024A127813441846F4
:103BE40002B07047306D000000B585B00190019BB4
:103BF4001B681B680393019B1B685B680293029A12
:103C0400039B9A4203D3029A039BD31A07E00198B9
:103C1400FFF7DEFF0246039BD21A029B13441846A9
:103C240005B05DF804FB000000B585B00190019B70
:103C3400002B04D1094940F21E20FDF77FFD00202E
:103C4400FCF760FC0198FFF7CFFF03900020FCF71E
:103C54006DFC039B184605B05DF804FBBC6C0000CA
:103C640000B583B00190019B002B04D1054940F2BB
:103C74003920FDF763FD019B1B689B68184603B060
:103C84005DF804FBBC6C000000B583B00190019B9F
:103C9400002B04D1064940F23F20FDF74FFD019B64
:103CA4001B6800229A6000BF03B05DF804FB00BFEC
:103CB400BC6C000000B587B003468DF807309DF852
:103CC4000730FF2B08D19DF80730012B04D9214977
:103CD4004FF4E470FDF732FD9DF807201E491346AA
:103CE4005B0013449B000B441B68002B04D119494F
:103CF40040F2C910FDF722FD9DF807305A1C134607
:103D04009B0013441B02154A134403939DF8072098
:103D140013469B0013441B0203F580730F4A13449C
:103D240004934FF48063059309E0049B1A1D0492E5
:103D34001B680B4A934207D1059B043B0593049AE5
:103D4400039B9A42F1D300E000BF059B184607B0DD
:103D54005DF804FB346D0000001100200002002017
:103D64000ED0ADDE00B58DB007900691059200230C
:103D74008DF82F30B7E000230A930020FCF7C2FB34
:103D84009DF82F205D4913465B0013449B000B44B0
:103D94001B68002B18D09DF82F20584913465B0050
:103DA40013449B000B4404331B68002B0AD09DF87A
:103DB4002F20524913465B0013449B000B440433E9
:103DC4001B6800E04E4B0A930020FCF7AFFB0A9BF4
:103DD400002B00F083809DF82F301846FFF76AFF10
:103DE40009909DF82F30474A08210798FEF718FAE2
:103DF4000A9B454A08210798FEF712FA099B002BF3
:103E040027D09DF82F2013469B0013441B0203F573
:103E140080733E4A134418469DF82F305A1C1346AB
:103E24009B0013441B02394A1344013B099A642141
:103E340001FB02F2920A4FF4806103910999029105
:103E4400019200930346324A08210798FEF7E8F9E5
:103E54001BE09DF82F2013469B0013441B0203F51F
:103E640080732A4A134419469DF82F305A1C13466E
:103E74009B0013441B02254A1344013B00930B4649
:103E8400244A08210798FEF7CBF9234B1B789DF8A9
:103E94002F209A420DD09DF82F304FF00042DA4087
:103EA4001E4B1B681340002B01D01D4B02E01D4B21
:103EB40000E01D4B1D4A08210798FEF7B1F99DF853
:103EC4002F200E4913465B0013449B000B44083318
:103ED4001B68174A08210798FEF7A2F99DF82F30AE
:103EE40001338DF82F309DF82F30022B7FF643AF2E
:103EF40000BF00BF0DB05DF804FB00BF001100203F
:103F0400846D00008C6D0000986D0000000200209C
:103F1400A86D0000E46D0000281100202411002089
:103F2400FC6D0000086E0000146E00001C6E0000A2
:103F34002C6E000082B001904FF08042019BC2F8C9
:103F4400083300BF02B0704784B00346ADF80630B2
:103F5400BDF8063003F1804300221A60BDF8063034
:103F640003F180431B680393039B00BF04B07047B5
:103F740082B00346ADF80630BDF8063003F1804345
:103F84001B68002B14BF01230023DBB2184602B0C8
:103F94007047000008B54FF48070FFF7E9FF03464F
:103FA400002B14D04FF48070FFF7CEFF0120FFF7F1
:103FB400C1FF114B5B7983F00103DBB2002B06D008
:103FC4000D4B01225A710C4B1B68002098474FF48B
:103FD4008270FFF7CDFF0346002B0AD04FF48270A6
:103FE400FFF7B2FF0220FFF7A5FF034B1B68012078
:103FF400984700BF08BD00BF7C11002000B583B006
:104004000346ADF80630BDF80630184600F026F831
:1040140003461B68012B0CBF01230023DBB21846A7
:1040240003B05DF804FB00B585B00346ADF8063077
:10403400BDF80630184600F011F803461A4600236E
:104044001360BDF80630184600F008F803461B68F4
:104054000393039B00BF05B05DF804FB82B00346E5
:10406400ADF80630BDF8063003F1804303F5C043D4
:10407400184602B07047000082B00190034BD3F899
:104084000423019B1340184602B0704700600040AF
:1040940082B00190054A019B03F5A27352F82330C4
:1040A4001B0A03F01F03184602B07047006000406B
:1040B40082B00190064A019B03F5A27352F82330A3
:1040C4001B0C03F00303DBB2184602B0704700BFB9
:1040D4000060004000B583B00190019B1B68184646
:1040E40000F095F80346002B04D105494FF4F6700F
:1040F400FDF724FB4FF0A043184603B05DF804FB22
:104104002C6F000000B585B001900B468DF803308C
:1041140001AB1846FFF7DEFF0390019A039B02F5FB
:10412400E07253F82230019A23F44031039B02F5E4
:10413400E07243F82210019A039B02F5E07253F8EF
:1041440022109DF803301B04019A1943039B02F5C6
:10415400E07243F8221000BF05B05DF804FB00B51F
:1041640085B0019001AB1846FFF7B4FF0390019AA4
:10417400039B02F5E07253F822301B0C03F0030397
:10418400DBB2184605B05DF804FB86B003900291DB
:1041940001924FF0A0430493039B059319E0059B00
:1041A4009B0018336B4453F8083CD3F82025019B3B
:1041B4001A60059B9B0018336B4453F8083C019A22
:1041C4001268C3F82025019B04330193059B013336
:1041D4000593039A029B1344059A9A42DFD300BFC6
:1041E40000BF06B0704700B585B0019001AB18461A
:1041F400FFF770FF0390019B012202FA03F31A46B2
:10420400039BC3F8202500BF05B05DF804FB84B010
:104214000190019B5B09029300230393029B002BF3
:1042240003D14FF0FF33039300BF019B03F01F033F
:104234000193039A019B22FA03F303F00103002B79
:1042440014BF01230023DBB2184604B0704784B0C6
:1042540001900091009B0393019BDB080293019B57
:1042640003F0070301930122019B02FA03F303996C
:10427400029A0A4412781340184604B070470000AA
:1042840082B00190044A019B1344303393F9003007
:10429400184602B0704700BF8411002082B001901C
:1042A400034A019B52F82330184602B0704700BFFE
:1042B4008411002084B00190074A019B13445033B9
:1042C40093F900308DF80F309DF80F3023F0C003C0
:1042D400184604B0704700BF8411002084B00190D8
:1042E400074A019B1344503393F900308DF80F3083
:1042F4009DF80F309B09DBB2184604B0704700BF2D
:104304008411002000B585B00190019A012100209C
:10431400FFF73BFF002303930BE0039B9B00019AF1
:1043240013441B68002B01D0012306E0039B0133D7
:104334000393039B002BF0D00023184605B05DF8CF
:1043440004FB000000B587B00190002305935BE0F7
:10435400344A059B1344503393F90030B3F1FF3FC3
:104364004ED00598FFF7A6FF049001990498FFF733
:104374006EFF0346002B44D00598FFF7AFFF0346BA
:104384008DF80F300498FFF7EAFE03468DF80E30DF
:104394009DF80E30022B01D1032300E002238DF897
:1043A4000D309DF80D3019460498FFF7ABFE0498C4
:1043B400FFF719FF0498FFF763FF03461846FFF75A
:1043C4006DFF0290029B002B1BD09DF80F30032B36
:1043D4000FD09DF80E30022B03D19DF80F30012B26
:1043E40007D09DF80E30032B0BD19DF80F30022B14
:1043F40007D19DF80F20029B11460498984700E0CE
:1044040000BF059B01330593059B032BA0D901989D
:10441400FFF778FF0346002B97D100BF00BF07B01A
:104424005DF804FB8411002000B589B000230793D4
:10443400002300934FF48073ADF8163001230493E6
:104444000023069321E0BDF816301846FFF7D6FD89
:104454000346002B0ED00498FFF70EFE0346002BF4
:1044640008D0BDF816301846FFF7DDFD079A049B07
:1044740013430793049B5B000493BDF81630043385
:10448400ADF81630069B01330693069B072BDAD949
:104494004FF4BE70FFF7B2FD0346002B0DD04FF46E
:1044A400BE70FFF7C0FD079B43F0004307936B46C4
:1044B4001A4601210020FFF768FE079BDBB2002BA0
:1044C40029D0012304930023069321E0049A079B37
:1044D4001340002B16D00698FFF7DAFD03900698D8
:1044E400FFF7E6FD03468DF80B300698FFF7D6FE7E
:1044F4000190019B002B05D09DF80B20019B1146D8
:1045040003989847049B5B000493069B013306932E
:10451400069B072BDAD9079B002B03DA6B46184658
:10452400FFF710FF00BF09B05DF804FB84B00190F1
:104534000B46ADF80230BDF80230019A1344002254
:104544001A60BDF80230019A13441B680393039B5D
:1045540000BF04B0704782B001900B46ADF8023042
:10456400BDF80230019A13441B68002B14BF0123C9
:104574000023DBB2184602B0704782B0019000916C
:10458400019B009AC3F8082300BF02B0704782B0B1
:104594000190019B0022C3F8002500BF02B07047C0
:1045A40000B583B04FF48A717648FFF7D4FF034611
:1045B400002B1CD04FF48A717248FFF7B7FF724A80
:1045C400537943F0080353716F4B5B7903F0020393
:1045D400DBB2002B0BD06C4B5B7903F01003DBB226
:1045E400002B04D0684A537943F0200353714FF4ED
:1045F40082716448FFF7AFFF0346002B1CD04FF4D1
:1046040082716048FFF792FF5F4A537943F00403D5
:1046140053715D4B5B7903F00103DBB2002B0BD0CC
:10462400594B5B7903F01003DBB2002B04D0564ADC
:10463400537943F0200353714FF484715148FFF7C9
:104644008AFF0346002B19D04FF484714D48FFF7BD
:104654006DFF04214B48FFF790FF4A48FFF797FF8F
:10466400494B1B68002149489847474B1B68002168
:1046740047489847444B01221A717EE0424B5B79CC
:1046840003F00203DBB2002B14D03F4B5B7903F041
:104694000103DBB2002B0DD03B4B5B7903F0080325
:1046A400DBB2002B06D0384B5B7903F00403DBB29A
:1046B400002B21D1344B5B79C3F30003DBB283F0CD
:1046C4000103DBB2002B06D02F4B5B7903F0080308
:1046D400DBB2002B10D12C4B5B79C3F34003DBB26C
:1046E40083F00103DBB2002B47D0274B5B7903F047
:1046F4000403DBB2002B40D0234A537923F0080390
:104704005371214A537923F0040353711E4B5B798F
:1047140003F02003DBB2002B0FD01B4A537923F0A4
:1047240020035371184A537943F010035371164B05
:104734001B680121002098471FE0134A6B46103282
:1047440092E8030083E803000F4B0F4A103308324A
:1047540092E8030083E803000B4B00229A600A4BA3
:104764000022DA60084A537943F010035371064B70
:104774001B686A4601211046984700BF03B05DF8E4
:1047840004FB00BF00500240E0110020F0110020A3
:10479400E811002082B00346ADF80630BDF80630BB
:1047A40003F1804303F5E8331B68002B14BF012396
:1047B4000023DBB2184602B0704784B00346ADF85C
:1047C4000630BDF8063003F1804303F5E8330022D8
:1047D4001A60BDF8063003F1804303F5E8331B6823
:1047E4000393039B00BF04B070470000024B0022F8
:1047F400C3F8002500BF704700D0014000B58FB05A
:104804004FF48070FFF7C6FF0346002B68D04FF4C7
:104814008070FFF7D2FF6C4B9B7C8DF836306A4B6F
:104824009B7C03F00103002B0CBF01230023DBB2AC
:104834008DF835309DF83530634A9B0013445B682E
:10484400002B04D1604B5B7CDBB2022B2BD1002309
:104854008DF830305C4B0022DA745B4B5B7CDBB24E
:10486400022B05D100230B93574B01225A7411E0FC
:104874009DF83630544A9B0013445B680B939DF8B3
:104884003630514A9B00134400225A604E4A9DF828
:104894003530937401238DF828304B4B1B680AAADA
:1048A4001046984713E0484BDB7C002B0FD10023C4
:1048B4008DF81C300023089301238DF82430424BDB
:1048C4000122DA74404B1B6807AA104698473E4BF6
:1048D4005B7CDBB2022B5DD13B4B01225A7459E065
:1048E4004FF48270FFF756FF0346002B52D04FF46B
:1048F4008270FFF762FFFFF779FF334B00225A748F
:1049040000238DF8183000238DF810302E4B9B7C3B
:104914002D4A9B0013445B68002B12D02A4B9B7CCE
:10492400294A9B0013445B680593274B9B7C264ACA
:104934009B00134400225A60234B1B6804AA1046B0
:104944009847214B9B7C03F00103002B0CBF0123F0
:104954000023DBB28DF837309DF837301A4A9B00BC
:1049640013445B68002B12D09DF83730164A9B0025
:1049740013445B6805939DF83730134A9B00134436
:1049840000225A60104B1B6804AA104698470E4B2D
:1049940000229A740C4B1B7DDBB2002B0FD0012339
:1049A4008DF804300023029300238DF80C30064B5D
:1049B40000221A75044B1B6801AA1046984700BFD1
:1049C4000FB05DF804FB00BFF811002084B003466B
:1049D400ADF80630BDF8063003F1804300221A60BA
:1049E400BDF8063003F180431B680393039B00BFAB
:1049F40004B0704782B00346ADF80630BDF8063007
:104A040003F180431B68002B14BF01230023DBB296
:104A1400184602B0704700B585B00346ADF80630BD
:104A2400BDF806301846FFF7E5FF03468DF80F3052
:104A34009DF80F30002B04D0BDF806301846FFF760
:104A4400C5FF9DF80F30184605B05DF804FB4FF024
:104A54008043D3F8043318467047000000B583B090
:104A6400FFF7F5FF0190019B03F00403002B12D024
:104A74004FF48470FFF7CFFF0346002B0BD0214B7C
:104A84001B68002B04D120494FF48B70FCF756FEB1
:104A94001C4B1B689847019B03F02003002B13D089
:104AA4004FF48A70FFF7B7FF0346002B0CD0174B67
:104AB4001B68002B04D1144940F21F10FCF73EFE82
:104AC400124B1B6800209847019B03F04003002B06
:104AD40013D04FF48C70FFF79EFF0346002B0CD0CD
:104AE4000A4B1B68002B04D107494FF49370FCF761
:104AF40025FE064B1B680120984700BF03B05DF8F4
:104B040004FB00BF10120020F86F000014120020F4
:104B140008B5FFF7A3FFFFF73DFA00BF08BD00008B
:104B240008B5064B1B68002B03D105494520FCF74B
:104B340005FE024B1B68984708BD00BF18120020F1
:104B44003070000008B5064B1B68002B03D10549E3
:104B54004820FCF7F3FD024B1B68984708BD00BFD3
:104B6400201200203070000008B5064B1B68002B93
:104B740003D105494B20FCF7E1FD024B1B68984724
:104B840008BD00BF281200203070000008B5064B95
:104B94001B68002B03D105494E20FCF7CFFD024BC7
:104BA4001B68984708BD00BF301200203070000019
:104BB40008B5064B1B68002B03D105495120FCF7AF
:104BC400BDFD024B1B68984708BD00BF381200208A
:104BD4003070000084B001900B46ADF80230BDF88F
:104BE4000230019A134400221A60BDF80230019A7F
:104BF40013441B680393039B00BF04B0704782B047
:104C040001900B46ADF80230BDF80230019A13440E
:104C14001B68002B14BF01230023DBB2184602B02B
:104C2400704700B583B0019000914FF488710198EA
:104C3400FFF7E5FF0346002B12D04FF4887101986B
:104C4400FFF7C8FF009B5B7903F00403002B07D038
:104C5400009B1B68002B03D0009B1B680120984716
:104C64004FF48A710198FFF7CAFF0346002B12D054
:104C74004FF48A710198FFF7ADFF009B5B7903F055
:104C84000803002B07D0009B1B68002B03D0009B5C
:104C94001B68022098474FF48E710198FFF7AFFF0D
:104CA4000346002B12D04FF48E710198FFF792FF48
:104CB400009B5B7903F01003002B07D1009B1B685A
:104CC400002B03D0009B1B68002098474FF482718F
:104CD4000198FFF794FF0346002B0FD04FF4827125
:104CE4000198FFF777FF009B01221A71009B1B6854
:104CF400002B03D0009B1B680320984700BF03B020
:104D04005DF804FB08B503490348FFF78AFF00BFB9
:104D140008BD00BF4012002000C0014008B503498F
:104D24000348FFF77EFF00BF08BD00BF4812002004
:104D34000010024008B503490348FFF772FF00BFA3
:104D440008BD00BF501200200020024082B003467C
:104D54008DF80730044BD3F804239DF80730134033
:104D6400184602B0704700BF0020014084B00346DB
:104D7400ADF80630BDF8063003F1804303F59033F7
:104D840000221A60BDF8063003F1804303F5903326
:104D94001B680393039B00BF04B0704782B00346B3
:104DA400ADF80630BDF8063003F1804303F59033C7
:104DB4001B68184602B07047024BD3F80C351846EE
:104DC400704700BF00200140024BD3F81835184645
:104DD400704700BF00200140024BD3F84835184605
:104DE400704700BF0020014000B583B04FF48070CD
:104DF400FFF7D4FF0346002B19D00120FFF7A6FFCD
:104E04000346002B13D04FF48070FFF7AFFF4FF42D
:104E14008073ADF80030FFF7CFFF03465BB28DF827
:104E24000230264B1B686A4692E8030098474FF409
:104E34008270FFF7B3FF0346002B1FD00220FFF759
:104E440085FF0346002B19D04FF48270FFF78EFFC5
:104E54004FF48273ADF80030FFF7B6FF03461BB280
:104E6400ADF80230FFF7B8FF03469BB2ADF804304B
:104E7400124B1B686A4692E8030098474FF484700B
:104E8400FFF78CFF0346002B13D00420FFF75EFFCF
:104E94000346002B0DD04FF48470FFF767FF4FF4E7
:104EA4008473ADF80030054B1B686A4692E8030032
:104EB400984700BF03B05DF804FB00BF5812002000
:104EC40084B00346ADF80630BDF8063003F18043E4
:104ED40003F5504300221A60BDF8063003F1804305
:104EE40003F550431B680393039B00BF04B0704752
:104EF400024BD3F80835DBB21846704700D00040A7
:104F040000B583B04FF48070FFF7DAFFFFF7F0FFCE
:104F140003468DF80730054B1B689DF807201046A3
:104F2400984700BF03B05DF804FB00BF5C1200208B
:104F340082B001900091019B009AC3F8082300BF3E
:104F440002B0704782B001900091019BD3F8042312
:104F5400009B1340184602B0704782B001900B4684
:104F6400ADF80230BDF80230019A13441B681846AC
:104F740002B0704784B001900B46ADF80230BDF822
:104F84000230019A134400221A60BDF80230019ADB
:104F940013441B680393039B00BF04B0704782B0A3
:104FA40001900091019B009AC3F8482300BF02B00E
:104FB4007047000000B589B00390029101924FF44C
:104FC400803306934FF4A073ADF816300023079393
:104FD40030E006990398FFF7B5FF0346002B1ED077
:104FE400BDF8163019460398FFF7B7FF0346002BA8
:104FF40015D006990398FFF7D2FF06990398FFF797
:1050040097FFBDF8163019460398FFF7B3FF2D4AF2
:10501400029B52F82330079AD2B210469847069B57
:105024005B000693BDF816300433ADF81630079BC9
:1050340001330793079A019B9A42CAD34FF48073B2
:10504400ADF8163001210398FFF77CFF0346002BCF
:1050540014D0BDF8163019460398FFF77EFF0346B7
:10506400002B0BD0BDF8163019460398FFF782FFCA
:10507400144A029B52F82330042098474FF4827359
:10508400ADF8163002210398FFF75CFF0346002BAE
:1050940014D0BDF8163019460398FFF75EFF034697
:1050A400002B0BD0BDF8163019460398FFF762FFAA
:1050B400044A029B52F823300520984700BF09B0E8
:1050C4005DF804FB6012002008B5032200210248A9
:1050D400FFF770FF00BF08BD00B0004008B5042210
:1050E40001210248FFF766FF00BF08BD00400240EF
:1050F40082B003468DF807309DF8073003F18043F2
:1051040003F5E04301221A6000BF02B0704782B089
:105114000346ADF80630BDF8063003F1804303F5CD
:10512400E0431B68002B14BF01230023DBB21846A5
:1051340002B0704784B00346ADF80630BDF80630BF
:1051440003F1804303F5E04300221A60BDF8063002
:1051540003F1804303F5E0431B680393039B00BF03
:1051640004B0704782B001900091054A019BC2F8D7
:105174002C36034A009BC2F8303600BF02B0704799
:105184000070004000B58FB04FF48270FFF7BFFF8E
:105194000346002B46D04FF48270FFF7CBFF8E4BB3
:1051A40093F82E3083F00103DBB2002B04D18A4B39
:1051B40093F82F30002B35D000238DF81C30864B0C
:1051C4005B680893844B1B899BB2ADF82430824BF7
:1051D400DB68002B03D1804B00221A7419E07E4B4C
:1051E4001A8B7D4B5A837C4BDB687B4A53607A4B2A
:1051F4001A8B794B1A81784B0022DA60764B93F83C
:105204002E3083F00103DBB2002B02D00020FFF725
:105214006FFF714B1B6807AA104698476E4B00221C
:1052240083F82F206C4B93F82E30002B5ED04FF474
:105234008070FFF76CFF0346002B57D04FF480704B
:10524400FFF778FF644B5B8B634A92F82D209342FF
:105254001BD9614B5B8B604A92F82D209B1A9AB242
:105264005D4B5A835C4B5A685B4B1B899BB2194656
:10527400594B5B8BCB1A5B001344574A92F82D2091
:1052840011461846FFF76EFF29E0534B5B8B524AD9
:1052940092F82D20934214D14F4BDB68002B10D091
:1052A4004D4B012283F82F204B4B00225A834A4B4B
:1052B400DB68494A92F82D2011461846FFF752FF41
:1052C4000DE0454B5B8B444A92F82D20934206D166
:1052D400414B012283F82F203F4B00225A834FF485
:1052E4008270FFF727FF0420FFF702FF4FF4887056
:1052F400FFF70DFF0346002B0ED04FF48870FFF725
:1053040019FF354B00221A7402238DF81030324BEA
:105314001B6804AA104698474FF48A70FFF7F7FEFB
:105324000346002B07D04FF48A70FFF703FF2A4B84
:1053340000221A744CE0284B5B690D9345E00D9BE9
:105344000A930A9B002B01D1202303E00A9BB3FAA2
:1053540083F3DBB20C934FF000420C9B22FA03F36D
:10536400DB430D9A13400D930C9B9BB246339BB2C7
:105374009B00ADF82E30BDF82E301846FFF7C7FE5F
:105384000346002B21D0BDF82E301846FFF7D2FE7D
:1053940001238DF80430BDF82E30A3F58C73DB089F
:1053A400DBB28DF80830BDF82E30A3F58C7303F012
:1053B4000403002B0CBF01230023DBB28DF809305A
:1053C400054B1B6801AA104698470D9B002BB6D1CC
:1053D40000BF0FB05DF804FB6812002000B585B073
:1053E40003468DF807309DF80730052B04D91B4977
:1053F40040F26910FCF7A2F99DF80730184A52F8F8
:1054040023300393039B002B04D1144940F26B1007
:10541400FCF794F99DF80730124A32F81330ADF8CE
:105424000A309DF807300F4A32F813301AB2BDF92A
:105434000A30DB431BB213401AB29DF8073091B215
:10544400084A22F81310BDF80A109DF80720039BA0
:105454001046984700BF05B05DF804FB9C7000003F
:10546400A41200209812002008B50020FFF7B6FF10
:1054740000BF08BD08B50120FFF7B0FF00BF08BD9D
:1054840008B50220FFF7AAFF00BF08BD08B5032036
:10549400FFF7A4FF00BF08BD08B50420FFF79EFF77
:1054A40000BF08BD08B50520FFF798FF00BF08BD81
:1054B40084B001900B46ADF80230BDF80230019A79
:1054C400134400221A60BDF80230019A13441B6889
:1054D4000393039B00BF04B0704782B001900B4656
:1054E400ADF80230BDF80230019A13441B68002B5A
:1054F40014BF01230023DBB2184602B0704782B008
:1055040001900091019BD3F80423009B1340002BCE
:1055140014BF01230023DBB2184602B0704782B0E7
:105524000190019B9B0003F5A0739BB2184602B047
:10553400704782B001904FF48032019B02FA03F36A
:10554400184602B0704700B587B003900291134625
:105554008DF8073000238DF8173030E09DF81730B0
:105564001846FFF7DCFF0346ADF814309DF81730FA
:105574001846FFF7DEFF0490BDF81430194603986F
:10558400FFF7ABFF0346002B14D004990398FFF7F1
:10559400B6FF0346002B0DD0BDF81430194603980E
:1055A400FFF786FF029B1B68029A5168BDF814201E
:1055B400104698479DF8173001338DF817309DF841
:1055C40017209DF807309A42C8D300BF00BF07B028
:1055D4005DF804FB08B5042202490348FFF7B3FF52
:1055E40000BF08BDBC1200200080004008B50422A2
:1055F40002490348FFF7A7FF00BF08BDC8120020F7
:105604000090004008B5042202490348FFF79BFFBD
:1056140000BF08BDD412002000A0004008B5062237
:1056240002490348FFF78FFF00BF08BDE0120020C6
:1056340000A0014008B5062202490348FFF783FF92
:1056440000BF08BDEC12002000B0014084B0034646
:10565400ADF80630BDF8063003F1804303F580331E
:1056640000221A60BDF8063003F1804303F580334D
:105674001B680393039B00BF04B0704782B00346CA
:10568400ADF80630BDF8063003F1804303F58033EE
:105694001B68002B14BF01230023DBB2184602B0A1
:1056A4007047000008B54FF48070FFF7E7FF03462A
:1056B400002B06D0044B1B6898474FF48070FFF70B
:1056C400C5FF00BF08BD00BFF8120020FEE70000C0
:1056D400BFF34F8F00BF064BDB6803F4E06204495D
:1056E400044B1343CB60BFF34F8F00BF00BFFDE7F4
:1056F40000ED00E00400FA0582B01D4B1B68B3F115
:10570400FF3F0AD11B4B1B68DBB201931A4B1B688A
:105714001B0903F00F03009305E0154B1B6801936D
:10572400164B1B680093019B062B1DD1009B033B6A
:10573400042B17D801A252F823F000BF55570000DC
:10574400595700005D57000061570000655700007D
:1057540001230AE0012308E0012306E0012304E019
:10576400012302E0012300E00023184602B0704741
:1057740030010010E00F00F0E80F00F034010010D9
:1057840082B0174B1B68DBB20193164B1B681B09D5
:1057940003F00F030093019B062B1DD1009B033BD9
:1057A400042B17D801A252F823F000BFC5570000FC
:1057B400C9570000CD570000D1570000D55700004D
:1057C40001230AE0002308E0002306E0002304E0AC
:1057D400002302E0002300E00023184602B07047D3
:1057E400E00F00F0E80F00F082B01D4B1B68B3F12E
:1057F400FF3F0AD11B4B1B68DBB201931A4B1B689A
:105804001B0903F00F03009305E0154B1B6801937C
:10581400164B1B680093019B062B1DD1009B033B79
:10582400042B17D801A252F823F000BF45580000FA
:10583400495800004D5800005158000055580000C8
:1058440001230AE0012308E0012306E0012304E028
:10585400012302E0012300E00023184602B0704750
:1058640030010010E00F00F0E80F00F034010010E8
:1058740082B0174B1B68DBB20193164B1B681B09E4
:1058840003F00F030093019B062B1DD1009B033BE8
:10589400042B17D801A252F823F000BFB55800001A
:1058A400B9580000BD580000C1580000C558000098
:1058B40001230AE0002308E0002306E0002304E0BB
:1058C400002302E0002300E00023184602B07047E2
:1058D400E00F00F0E80F00F082B01D4B1B68B3F13D
:1058E400FF3F0AD11B4B1B68DBB201931A4B1B68A9
:1058F4001B0903F00F03009305E0154B1B6801938C
:10590400164B1B680093019B062B1DD1009B033B88
:10591400042B17D801A252F823F000BF3559000018
:10592400395900003D590000415900004559000013
:1059340001230AE0012308E0012306E0012304E037
:10594400012302E0012300E00023184602B070475F
:1059540030010010E00F00F0E80F00F034010010F7
:1059640082B0174B1B68DBB20193164B1B681B09F3
:1059740003F00F030093019B062B1DD1009B033BF7
:10598400042B17D801A252F823F000BFA559000038
:10599400A9590000AD590000B1590000B5590000E3
:1059A40001230AE0002308E0002306E0002304E0CA
:1059B400002302E0002300E00023184602B07047F1
:1059C400E00F00F0E80F00F082B0174B1B68DBB269
:1059D4000193164B1B681B0903F00F030093019BF3
:1059E400062B1DD1009B033B042B17D801A252F8B0
:1059F40023F000BF0D5A0000115A0000155A000090
:105A0400195A00001D5A000001230AE0002308E08F
:105A1400002306E0002304E0002302E0002300E06A
:105A24000023184602B07047E00F00F0E80F00F0C2
:105A340082B01D4B1B68B3F1FF3F0AD11B4B1B689F
:105A4400DBB201931A4B1B681B0903F00F0300938D
:105A540005E0154B1B680193164B1B680093019BD3
:105A6400062B1DD1009B033B042B17D801A252F82F
:105A740023F000BF8D5A0000915A0000955A00008F
:105A8400995A00009D5A000000230AE0002308E010
:105A9400012306E0012304E0012302E0012300E0E6
:105AA4000023184602B0704730010010E00F00F0E8
:105AB400E80F00F03401001082B01D4B1B68B3F1F5
:105AC400FF3F0AD11B4B1B68DBB201931A4B1B68C7
:105AD4001B0903F00F03009305E0154B1B680193AA
