:100000000000012089030000710300007303000059
:100010007503000077030000790300000000000072
:100020000000000000000000000000007B03000052
:100030007D030000000000007F030000810300003A
:100040008303000083030000830300008303000098
:100050008303000083030000830300008303000088
:100060008303000083030000830300008303000078
:100070008303000083030000830300008303000068
:100080008303000083030000830300008303000058
:100090008303000083030000830300008303000048
:1000A0008303000083030000830300008303000038
:1000B0008303000083030000000000000000000034
:1000C0008303000083030000830300008303000018
:1000D000830300008303000083030000000000008E
:1000E0000000000000000000000000000000000010
:1000F0000000000000000000000000000000000000
:1001000000000000000000000000000000000000EF
:1001100000000000000000000000000000000000DF
:1001200000000000000000000000000000000000CF
:1001300000000000000000000000000000000000BF
:1001400000000000000000000000000000000000AF
:10015000000000000000000000000000000000009F
:10016000000000000000000000000000000000008F
:10017000000000000000000000000000000000007F
:10018000000000000000000000000000000000006F
:10019000000000000000000000000000000000005F
:1001A000000000000000000000000000000000004F
:1001B000000000000000000000000000000000003F
:1001C000000000000000000000000000000000002F
:1001D000000000000000000000000000000000001F
:1001E000000000000000000000000000000000000F
:1001F00000000000000000000000000000000000FF
:100200003A493B480A1A02D0072291438D463949A0
:1002100039480A1A06D00722914381F3098802223D
:1002200082F3148835483649364A00F041F836489A
:100230003649374A00F03CF836483749374A00F02B
:1002400037F837483749384A00F032F837483849E4
:10025000384A00F02DF838483849394A00F028F873
:1002600038483949394A00F023F8394839490022D9
:1002700000F036F838483949002200F031F83848A3
:100280003849091A00F00AFF374A9047254826499D
:10029000884205D00268043003B4904703BCF7E7F6
:1002A00000208646EC4600200021304A9047FEE7B9
:1002B000884214D0521A12D003460B43134303242E
:1002C000234206D1036804300B600431043AF9D1AB
:1002D0007047037801300B700131013AF9D1704752
:1002E000884202D002700130FAE770470000012016
:1002F00000E000200000012000000120E4100000C8
:100300000000002004000020E4030000E4030000DB
:10031000B4100000E41000000000002000000020E5
:10032000B4100000B4100000B4100000B4100000BD
:10033000B4100000B4100000B4100000B4100000AD
:10034000E2100000E810000004000020040000207B
:1003500004000020280000202800002028000020A1
:100360002800002028200020B10300001107000011
:10037000FEE7FEE7FEE7FEE7FEE7FEE7FEE7FEE755
:10038000FEE7FEE700F002B8FFF7FCBF0F484FF0B2
:100390000701884385460E4880470E48016841F4AE
:1003A00070010160BFF34F8FBFF36F8FFFF728BF5E
:1003B00009480A490A4A884207D0521A05D00378E8
:1003C00001300B700131013AF9D170470000012072
:1003D000F10D000088ED00E0B410000000000020E6
:0403E00000000020F9
:1003E40086B003900291019201238DF817309DF895
:1003F4001730204A039B13601E4A029B53601D4A18
:10040400019B9360039B44F20102934212D0039B2D
:1004140044F20202934220D1019B164AD360154B49
:10042400DB681B68134A9361124BDB685B68114AF3
:10043400D36112E0019B0F4A13610E4B1B699B6849
:100444000C4A53610B4B1B691B680A4A9361094BA5
:100454001B695B68074AD36100BF72B600BF00BF67
:100464009DF81730DBB2002BFAD162B600BF00BF93
:1004740006B070470400002000B587B003900291D5
:10048400019272B600BF039B44F20102934207D06B
:10049400039B44F20202934205D1019B059303E0BE
:1004A400019B049300E000BF074B1B6803F00103AA
:1004B400002B00D000BE019A02990398FFF790FF29
:1004C40000BF07B05DF804FBF0ED00E000B585B0B7
:1004D40003460091ADF80630BDF806300293009B48
:1004E400039302AB1A46002144F20200FFF7C4FF53
:1004F40000BF05B05DF804FB00B583B00190019B1B
:100504001B68184600F0E2F80346002B04D10549A5
:100514004FF4F670FFF7DAFF4FF0A043184603B02C
:100524005DF804FBB410000000B585B001900846E6
:1005340011461A4603468DF803300B468DF80230F7
:1005440013468DF8013001AB1846FFF7D5FF039031
:100554009DF803209DF802305B001A439DF801309A
:100564009B001A439DF818301B0242EA03019DF8D0
:100574001C301B04019A1943039B02F5E07243F8F3
:10058400221000BF05B05DF804FB00B585B00390F0
:1005940000230193002300930023012201210398E7
:1005A400FFF7C2FF00BF05B05DF804FB00B585B0DE
:1005B40003900B468DF80B309DF80B30002201920E
:1005C40000220092002200210398FFF7ADFF00BF34
:1005D40005B05DF804FB00B585B0019001AB184689
:1005E400FFF78AFF0390019B012202FA03F31946E5
:1005F400039800F057F800BF05B05DF804FB00B5A0
:1006040085B0019001AB1846FFF776FF0390019B7C
:10061400012202FA03F31946039800F04DF800BFD3
:1006240005B05DF804FB00B585B0019001AB184638
:10063400FFF762FF0390039BD3F804350293029BF8
:10064400DA43019B012101FA03F31A40039BC3F827
:100654000825019B01229A40029B1A40039BC3F880
:100664000C2500BF05B05DF804FB00B585B0019012
:1006740001AB1846FFF740FF0390039800F00AF817
:100684000246019B22FA03F303F00103184605B066
:100694005DF804FB82B00190019BD3F81035184635
:1006A40002B0704782B001900091019B009AC3F898
:1006B400082500BF02B0704782B001900091019BF1
:1006C400009AC3F80C2500BF02B0704784B00190B3
:1006D400019B5B09029300230393029B002B03D12C
:1006E4004FF0FF33039300BF019B03F01F030193FB
:1006F400039A019B22FA03F303F00103002B14BFB6
:1007040001230023DBB2184604B0704708B5032167
:100714000D20FFF74BFF1120FFF737FF03210E20B9
:10072400FFF744FF1220FFF730FF03210F20FFF7EC
:100734003DFF1320FFF729FF03211020FFF736FFA9
:100744001420FFF722FF1120FFF745FF1320FFF7C6
:1007540042FF1220FFF73FFF1420FFF73CFF0D205C
:10076400FFF783FF0346002B0DD11120FFF747FF4E
:1007740000BF0D20FFF779FF0346002BF9D01120AD
:10078400FFF729FFEBE70E20FFF76FFF0346002B6F
:10079400E5D10F20FFF769FF0346002BDFD100BF2F
:1007A4000E20FFF762FF0346002B05D10F20FFF751
:1007B4005CFF0346002BF3D01220FFF734FF132015
:1007C400FFF731FFCBE70000BFF34F8F00BF064BAD
:1007D400DB6803F4E0620449044B1343CB60BFF3CA
:1007E4004F8F00BF00BFFDE700ED00E00400FA05F5
:1007F40082B01D4B1B68B3F1FF3F0AD11B4B1B6832
:10080400DBB201931A4B1B681B0903F00F0300931F
:1008140005E0154B1B680193164B1B680093019B65
:10082400062B1DD1009B033B042B17D801A252F8C1
:1008340023F000BF4D0800005108000055080000D7
:10084400590800005D08000001230AE0012308E0C4
:10085400012306E0012304E0012302E0012300E078
:100864000023184602B0704730010010E00F00F07A
:10087400E80F00F03401001082B0174B1B68DBB2A4
:100884000193164B1B681B0903F00F030093019B94
:10089400062B1DD1009B033B042B17D801A252F851
:1008A40023F000BFBD080000C1080000C508000017
:1008B400C9080000CD08000001230AE0002308E075
:1008C400002306E0002304E0002302E0002300E00C
:1008D4000023184602B07047E00F00F0E80F00F064
:1008E40082B01D4B1B68B3F1FF3F0AD11B4B1B6841
:1008F400DBB201931A4B1B681B0903F00F0300932F
:1009040005E0154B1B680193164B1B680093019B74
:10091400062B1DD1009B033B042B17D801A252F8D0
:1009240023F000BF3D090000410900004509000013
:10093400490900004D09000001230AE0012308E0F1
:10094400012306E0012304E0012302E0012300E087
:100954000023184602B0704730010010E00F00F089
:10096400E80F00F03401001082B0174B1B68DBB2B3
:100974000193164B1B681B0903F00F030093019BA3
:10098400062B1DD1009B033B042B17D801A252F860
:1009940023F000BFAD090000B1090000B509000053
:1009A400B9090000BD09000001230AE0002308E0A2
:1009B400002306E0002304E0002302E0002300E01B
:1009C4000023184602B07047E00F00F0E80F00F073
:1009D40082B01D4B1B68B3F1FF3F0AD11B4B1B6850
:1009E400DBB201931A4B1B681B0903F00F0300933E
:1009F40005E0154B1B680193164B1B680093019B84
:100A0400062B1DD1009B033B042B17D801A252F8DF
:100A140023F000BF2D0A0000310A0000350A00004F
:100A2400390A00003D0A000001230AE0012308E01E
:100A3400012306E0012304E0012302E0012300E096
:100A44000023184602B0704730010010E00F00F098
:100A5400E80F00F03401001082B0174B1B68DBB2C2
:100A64000193164B1B681B0903F00F030093019BB2
:100A7400062B1DD1009B033B042B17D801A252F86F
:100A840023F000BF9D0A0000A10A0000A50A00008F
:100A9400A90A0000AD0A000001230AE0002308E0CF
:100AA400002306E0002304E0002302E0002300E02A
:100AB4000023184602B07047E00F00F0E80F00F082
:100AC40082B0174B1B68DBB20193164B1B681B09E2
:100AD40003F00F030093019B062B1DD1009B033BE6
:100AE400042B17D801A252F823F000BF050B000015
:100AF400090B00000D0B0000110B0000150B00008A
:100B040001230AE0002308E0002306E0002304E0B8
:100B1400002302E0002300E00023184602B07047DF
:100B2400E00F00F0E80F00F082B01D4B1B68B3F13A
:100B3400FF3F0AD11B4B1B68DBB201931A4B1B68A6
:100B44001B0903F00F03009305E0154B1B68019389
:100B5400164B1B680093019B062B1DD1009B033B86
:100B6400042B17D801A252F823F000BF850B000014
:100B7400890B00008D0B0000910B0000950B000009
:100B840000230AE0002308E0012306E0012304E037
:100B9400012302E0012300E00023184602B070475D
:100BA40030010010E00F00F0E80F00F034010010F5
:100BB40082B01D4B1B68B3F1FF3F0AD11B4B1B686E
:100BC400DBB201931A4B1B681B0903F00F0300935C
:100BD40005E0154B1B680193164B1B680093019BA2
:100BE400062B1DD1009B033B042B17D801A252F8FE
:100BF40023F000BF0D0C0000110C0000150C0000C8
:100C0400190C00001D0C000001230AE0012308E078
:100C1400012306E0012304E0012302E0012300E0B4
:100C24000023184602B0704730010010E00F00F0B6
:100C3400E80F00F03401001082B01D4B1B68B3F1C3
:100C4400FF3F0AD11B4B1B68DBB201931A4B1B6895
:100C54001B0903F00F03009305E0154B1B68019378
:100C6400164B1B680093019B062B1DD1009B033B75
:100C7400042B17D801A252F823F000BF950C0000F2
:100C8400990C00009D0C0000A10C0000A50C0000B4
:100C940001230AE0012308E0012306E0012304E024
:100CA400012302E0012300E00023184602B070474C
:100CB40030010010E00F00F0E80F00F034010010E4
:100CC40082B0154B1B680193144B1B680093019B66
:100CD400062B1DD1009B033B042B17D801A252F80D
:100CE40023F000BFFD0C0000010D0000050D000005
:100CF400090D00000D0D000000230AE0002308E0A8
:100D0400002306E0012304E0012302E0012300E0C4
:100D14000023184602B0704730010010340100105F
:100D240082B0154B1B680193144B1B680093019B05
:100D3400062B1DD1009B033B042B17D801A252F8AC
:100D440023F000BF5D0D0000610D0000650D000083
:100D5400690D00006D0D000000230AE0002308E087
:100D6400002306E0002304E0012302E0012300E065
:100D74000023184602B070473001001034010010FF
:100D840008B5FFF7CDFF0346002B07D04FF0102323
:100D94004FF08042D3F80832C2F8583500BF08BD7E
:100DA40000BF044BD3F80034002BFAD000BF00BFBF
:100DB400704700BF00E0014000B583B00190054AD0
:100DC400019BC2F80435FFF7EBFF00BF03B05DF8E9
:100DD40004FB00BF00E00140024B034A1A6000BF5D
:100DE400704700BF000000200090D00308B5FFF753
:100DF400FFFC0346002B06D0964B1B681B0A964A41
:100E040003F01F031360FFF737FD0346002B02D0E6
:100E1400924B934A1A60FFF763FD0346002B06D0FA
:100E2400904B1B685B0B904A03F007031360FFF7BA
:100E34009BFD0346002B05D08C4BDB688B4A23F0CB
:100E44008073D360FFF7C4FD0346002B0ED04FF030
:100E540080430022C3F80C214FF080430022C3F8E2
:100E640010214FF080430022C3F83825FFF7F4FD2A
:100E74000346002B02D07E4B03221A60FFF720FEAC
:100E84000346002B0BD07B4B05221A607A4B0122C0
:100E94001A607A4B00221A60794B3F221A60FFF7DE
:100EA40043FE0346002B76D04FF08053754AD3F8A7
:100EB4000434C2F820354FF08053724AD3F8083412
:100EC400C2F824354FF080536E4AD3F80C34C2F87C
:100ED40028354FF080536B4AD3F81034C2F82C35C0
:100EE4004FF08053674AD3F81434C2F830354FF0CA
:100EF4008053644AD3F81834C2F834354FF0805321
:100F0400604AD3F81C34C2F840354FF080535D4A30
:100F1400D3F82034C2F844354FF08053594AD3F8FB
:100F24002434C2F848354FF08053564AD3F8283455
:100F3400C2F84C354FF08053524AD3F82C34C2F8DF
:100F440050354FF080534F4AD3F83034C2F85435FB
:100F54004FF080534B4AD3F83434C2F860354FF025
:100F64008053484AD3F83834C2F864354FF080537C
:100F7400444AD3F83C34C2F868354FF08053414AB0
:100F8400D3F84034C2F86C354FF080533D4AD3F85F
:100F94004434C2F87035FFF70BFE0346002B05D02E
:100FA400394B1B68394A03F04F031360FFF744FEC3
:100FB4000346002B0DD04FF08043D3F8003403F0E8
:100FC4000103002B05D04FF080436FF00102C3F8FA
:100FD4000024FFF775FE0346002B05D02C4B1B683D
:100FE4002B4A43F4806313602A4BD3F88830294A90
:100FF40043F47003C2F88830BFF34F8F00BFBFF3D0
:101004006F8F00BFFFF7BCFE4FF01023D3F8003200
:10101400002B05DB4FF01023D3F80432002B15DA34
:101024000120FFF7C9FE4FF010231522C3F8002258
:10103400FFF7B6FE4FF010231522C3F80422FFF782
:10104400AFFE0020FFF7B8FEFFF7BEFBFFF7C4FEBC
:1010540000BF08BD240300104035014074C00740A0
:101064000DF0ADBA440200103C050040F0ED00E084
:10107400A005004010560040885600401856004015
:101084001456004000C0004058020010E40E004016
:101094003C17004000ED00E0082938BF704741606C
:1010A40040F22401C2F2000108600021016070478F
:1010B4002E2E2F2E2E2F2E2E2F2E2E2F2E2E2F2E47
:1010C4002E2F6D6F64756C65732F6E7266782F6842
:0E10D400616C2F6E72665F6770696F2E680028
:0410E4000090D003A5
:04000003000003896D
:00000001FF
