:100000000000012089030000710300007303000059
:100010007503000077030000790300000000000072
:100020000000000000000000000000007B03000052
:100030007D030000000000007F030000810300003A
:100040008303000083030000830300008303000098
:100050008303000083030000A51000008303000059
:100060008303000083030000830300008303000078
:100070008303000083030000830300008303000068
:100080008303000083030000830300008303000058
:100090008303000083030000830300008303000048
:1000A0008303000083030000830300008303000038
:1000B0008303000083030000000000000000000034
:1000C0008303000083030000830300008303000018
:1000D000830300008303000083030000000000008E
:1000E0000000000000000000000000000000000010
:1000F0000000000000000000000000000000000000
:1001000000000000000000000000000000000000EF
:1001100000000000000000000000000000000000DF
:1001200000000000000000000000000000000000CF
:1001300000000000000000000000000000000000BF
:1001400000000000000000000000000000000000AF
:10015000000000000000000000000000000000009F
:10016000000000000000000000000000000000008F
:10017000000000000000000000000000000000007F
:10018000000000000000000000000000000000006F
:10019000000000000000000000000000000000005F
:1001A000000000000000000000000000000000004F
:1001B000000000000000000000000000000000003F
:1001C000000000000000000000000000000000002F
:1001D000000000000000000000000000000000001F
:1001E000000000000000000000000000000000000F
:1001F00000000000000000000000000000000000FF
:100200003A493B480A1A02D0072291438D463949A0
:1002100039480A1A06D00722914381F3098802223D
:1002200082F3148835483649364A00F041F836489A
:100230003649374A00F03CF836483749374A00F02B
:1002400037F837483749384A00F032F837483849E4
:10025000384A00F02DF838483849394A00F028F873
:1002600038483949394A00F023F8394839490022D9
:1002700000F036F838483949002200F031F83848A3
:100280003849091A01F004FD374A904725482649A4
:10029000884205D00268043003B4904703BCF7E7F6
:1002A00000208646EC4600200021304A9047FEE7B9
:1002B000884214D0521A12D003460B43134303242E
:1002C000234206D1036804300B600431043AF9D1AB
:1002D0007047037801300B700131013AF9D1704752
:1002E000884202D002700130FAE770470000012016
:1002F00000E000200000012000000120241E00007A
:100300000000002004000020E4030000E4030000DB
:10031000101D0000241E000000000020000000202E
:10032000101D0000101D0000101D0000101D000019
:10033000101D0000101D0000101D0000101D000009
:10034000231E0000281E00000400002004000020DE
:1003500004000020740000207400002074000020BD
:100360007400002074200020B1030000B9130000C5
:10037000FEE7FEE7FEE7FEE7FEE7FEE7FEE7FEE755
:10038000FEE7FEE700F002B8FFF7FCBF0F484FF0B2
:100390000701884385460E4880470E48016841F4AE
:1003A00070010160BFF34F8FBFF36F8FFFF728BF5E
:1003B00009480A490A4A884207D0521A05D00378E8
:1003C00001300B700131013AF9D170470000012072
:1003D000E519000088ED00E0101D0000000000207D
:0403E00000000020F9
:1003E40086B003900291019201238DF817309DF895
:1003F4001730204A039B13601E4A029B53601D4A18
:10040400019B9360039B44F20102934212D0039B2D
:1004140044F20202934220D1019B164AD360154B49
:10042400DB681B68134A9361124BDB685B68114AF3
:10043400D36112E0019B0F4A13610E4B1B699B6849
:100444000C4A53610B4B1B691B680A4A9361094BA5
:100454001B695B68074AD36100BF72B600BF00BF67
:100464009DF81730DBB2002BFAD162B600BF00BF93
:1004740006B070470400002000B583B002900091DC
:10048400019244F2010071466A4600F003F803B099
:1004940000BD00BF00B587B003900291019272B60F
:1004A40000BF039B44F20102934207D0039B44F232
:1004B4000202934205D1019B059303E0019B04933F
:1004C40000E000BF074B1B6803F00103002B00D0C2
:1004D40000BE019A02990398FFF782FF00BF07B09C
:1004E4005DF804FBF0ED00E000B585B00346009133
:1004F400ADF80630BDF806300293009B039302ABBF
:100504001A46002144F20200FFF7C4FF00BF05B001
:100514005DF804FB82B003468DF807309DF907307F
:10052400002B0CDB9DF8073003F01F0205499DF9F1
:1005340007305B09012000FA02F241F8232000BFD2
:1005440002B0704700E100E082B0034600918DF8EC
:1005540007309DF90730002B0ADB009BDAB20C4907
:100564009DF907305201D2B20B4483F800230BE00B
:10057400009BDAB207499DF8073003F00F03043BF0
:100584005201D2B20B441A7600BF02B0704700BFCA
:1005940000E100E000ED00E082B00190019B1B0B44
:1005A4005BB2184602B0704700B583B003460A46F2
:1005B4008DF8073013468DF806309DF80630072B6A
:1005C40003D908496B20FFF78FFF9DF806209DF99A
:1005D400073011461846FFF7B7FF00BF03B05DF8B8
:1005E40004FB00BF101D000000B583B003468DF866
:1005F40007309DF907301846FFF78CFF00BF03B0A2
:100604005DF804FB00B583B00346ADF80630BDF8D1
:100614000630184600F026F803461B68012B0CBF71
:1006240001230023DBB2184603B05DF804FB00B5D8
:1006340085B00346ADF80630BDF80630184600F024
:1006440011F803461A4600231360BDF80630184615
:1006540000F008F803461B680393039B00BF05B032
:100664005DF804FB82B00346ADF80630BDF80630F1
:1006740003F1804303F5C043184602B070470000FD
:1006840082B00190034A019BC2F8043300BF02B058
:10069400704700BF0060004082B00190034BD3F864
:1006A4000423019B1340184602B0704700600040C9
:1006B40082B00190084A019B03F5A27352F82330DB
:1006C400054943F00102019B03F5A27341F823207D
:1006D40000BF02B0704700BF0060004084B00390C8
:1006E400029113468DF80730144A039B03F5A27355
:1006F40052F82330114923F4473323F44073039A07
:1007040002F5A27241F822300C4A039B03F5A2734E
:1007140052F82320029B1B0203F4F8519DF8073082
:100724001B0403F440330B4304491A43039B03F5AE
:10073400A27341F8232000BF04B07047006000405A
:1007440082B00190054A019B03F5A27352F823304D
:100754001B0A03F01F03184602B0704700600040F4
:1007640082B00190064A019B03F5A27352F823302C
:100774001B0C03F00303DBB2184602B0704700BF42
:100784000060004000B583B00190019B1B681846CF
:1007940000F014F90346002B04D105494FF4F67018
:1007A400FFF7A2FE4FF0A043184603B05DF804FB28
:1007B400401D000000B585B00190084611461A4658
:1007C40003468DF803300B468DF8023013468DF83E
:1007D400013001AB1846FFF7D5FF03909DF80320C5
:1007E4009DF802305B001A439DF801309B001A43C8
:1007F4009DF818301B0242EA03019DF81C301B04CB
:10080400019A1943039B02F5E07243F8221000BFDA
:1008140005B05DF804FB00B585B003900B468DF878
:100824000B309DF80B30002201920022009200222E
:1008340000210398FFF7BEFF00BF05B05DF804FB7D
:1008440000B585B0019001AB1846FFF79BFF0390FC
:10085400019A039B02F5E07253F8223023F002035D
:100864000293019A039B02F5E072029943F8221065
:1008740000BF05B05DF804FB00B585B001900B46E0
:100884008DF8033001AB1846FFF77CFF0390019A03
:10089400039B02F5E07253F82230019A23F44031AD
:1008A400039B02F5E07243F82210019A039B02F5C0
:1008B400E07253F822109DF803301B04019A194387
:1008C400039B02F5E07243F8221000BF05B05DF807
:1008D40004FB00B585B0019001AB1846FFF752FF49
:1008E4000390039800F020F80246019B22FA03F3D8
:1008F40003F00103184605B05DF804FB00B585B0AC
:10090400019001AB1846FFF73DFF0390019A039B4A
:1009140002F5E07253F822301B0C03F00303DBB240
:10092400184605B05DF804FB82B00190019BD3F832
:100934001035184602B0704786B0039002910192B8
:100944004FF0A0430493039B059319E0059B9B0080
:1009540018336B4453F8083CD3F82025019B1A60E4
:10096400059B9B0018336B4453F8083C019A1268AA
:10097400C3F82025019B04330193059B01330593A0
:10098400039A029B1344059A9A42DFD300BF00BF27
:1009940006B0704700B585B0019001AB1846FFF76B
:1009A400F1FE0390019B012202FA03F31A46039B12
:1009B400C3F8202500BF05B05DF804FB84B00190A6
:1009C400019B5B09029300230393029B002B03D139
:1009D4004FF0FF33039300BF019B03F01F03019308
:1009E400039A019B22FA03F303F00103002B14BFC3
:1009F40001230023DBB2184604B0704784B0019091
:100A04000091009B0393019BDB080293019B03F07D
:100A1400070301930122019B02FA03F30399029A4B
:100A24000A4412781340184604B0704784B0019009
:100A34000091009B0393019BDB080293019B03F04D
:100A440007030193039A029B13441B785AB20121B2
:100A5400019B01FA03F35BB2134359B2039A029B5D
:100A64001344CAB21A7000BF04B0704782B0019038
:100A74000C4A019B1344243393F90030002B09DB07
:100A8400084A019B1344243393F90030072B01DCFB
:100A9400012300E0002303F00103DBB2184602B097
:100AA400704700BF2400002082B00190064A019BD9
:100AB4001344243393F90030072BCCBF01230023C4
:100AC400DBB2184602B070472400002082B00190C7
:100AD400064A019B1344243393F90030DB43DBB211
:100AE400DB09DBB2184602B0704700BF24000020C7
:100AF40084B00390029101928DF80330029B59B2A5
:100B04000E4A039B134424330A461A700B49029B72
:100B1400019A41F823209DF8033083F00103DBB2EE
:100B2400002B08D0029B083B039A51B2034A13449A
:100B34000A4683F8442000BF04B070472400002014
:100B440082B00190044A019B13442433FF221A709B
:100B540000BF02B0704700BF2400002000B583B07E
:100B6400019004490198FFF761FF00BF03B05DF8ED
:100B740004FB00BF6900002082B00190044A019B7D
:100B84001344243393F90030184602B0704700BF71
:100B94002400002082B00190034A019B52F82330C4
:100BA400184602B0704700BF2400002084B00190B2
:100BB400074A019B1344443393F900308DF80F30F6
:100BC4009DF80F3023F0C003184604B0704700BFEF
:100BD4002400002084B00190074A019B134444334D
:100BE40093F900308DF80F309DF80F309B09DBB27C
:100BF400184604B0704700BF2400002000B589B037
:100C04000390029113468DF80730FF238DF81F30AF
:100C14009DF80730002B01D0002300E00823059342
:100C24009DF80730002B01D0082300E0092304932A
:100C3400059B069314E00F4A069B52F82330B3F148
:100C4400FF3F0AD19DF80730029A06990398FFF7EF
:100C54004FFF069B8DF81F3006E0069B0133069379
:100C6400069A049B9A42E6D39DF91F30184609B0B0
:100C74005DF804FB2400002082B003468DF80730A1
:100C84009DF80730094A4FF0FF3142F823109DF8D0
:100C94000730072B07D99DF80730083B034A134454
:100CA400FF2283F8442000BF02B0704724000020D4
:100CB40000B583B02D4B93F84930002B03D00823A3
:100CC4000093009B4EE000238DF8073011E09DF85F
:100CD40007301846FFF772FE0346002B04D09DF838
:100CE40007301846FFF72CFF9DF8073001338DF8C5
:100CF40007309DF807301F2BE9D900238DF8073002
:100D040009E09DF807301846FFF7B6FF9DF8073055
:100D140001338DF807309DF80730082BF1D90422F0
:100D24000021134800F0C2FF1248FFF735FC0346C8
:100D340006211846FFF738FC0E48FFF72DFC034642
:100D44001846FFF751FC4FF4BE70FFF770FC4FF0EC
:100D54000040FFF795FC054B012283F8492000234E
:100D64000093009B184603B05DF804FB24000020A8
:100D7400690000200060004000B587B00390029134
:100D840001920398FFF71AFE0346002B04D137495A
:100D94004FF40C70FFF7A8FB002305930398FFF7AB
:100DA40095FE0346002B02D00823059358E0029BCE
:100DB4009B78C3F34003DBB21A4601990398FFF70B
:100DC4001DFF03468DF813309DF91330B3F1FF3F37
:100DD40044D0029B9B78C3F38003DBB283F001030E
:100DE400DBB2002B13D0029B9B7803F00103DBB230
:100DF400002B03D00398FFF723FD05E0029B5B78EB
:100E040019460398FFF707FD0398FFF7A7FE029B17
:100E14009B7803F00203DBB2002B08D09DF913008A
:100E2400029B1B781A460399FFF758FC18E09DF9BA
:100E34001330083B0E4A134493F94410029B1B7869
:100E44005BB29B015AB29DF91330083B0A4351B27D
:100E5400074A13440A4683F8442001E00423059317
:100E6400059B184607B05DF804FB00BF701D000029
:100E74002400002000B589B001900B468DF80330A2
:100E84000198FFF79BFD0346002B04D13A494FF428
:100E94001870FFF729FB0198FFF718FE0346002B93
:100EA40004D1354940F26120FFF71EFB0198FFF79A
:100EB400FBFD0346002B2AD00198FFF75DFE034695
:100EC400083B1846FFF786FE03468DF80F309DF861
:100ED4000F30032B0BD10198FFF7FBFC0346002BCB
:100EE40001D0032300E002238DF81F3008E09DF8B1
:100EF4000F30012B01D1022300E003238DF81F30B2
:100F04009DF81F3019460198FFF7B6FC30E00198B0
:100F1400FFF7ACFD0346002B2AD00198FFF72CFE07
:100F240003460693069B9BB240339BB29B00ADF8ED
:100F34001630069B1846FFF7BBFBBDF81630184663
:100F4400FFF775FB9DF80330002B11D00198FFF7D4
:100F540013FE03461846FFF71DFE0490049B002B66
:100F640006D00122069B02FA03F31846FFF788FB1A
:100F740000BF09B05DF804FB701D000000B585B02A
:100F84000190019A01210020FFF7D6FC002303936E
:100F94000BE0039B9B00019A13441B68002B01D0B8
:100FA400012306E0039B01330393039B002BF0D042
:100FB4000023184605B05DF804FB000000B587B0B7
:100FC4000190002305935BE0344A059B13444433AA
:100FD40093F90030B3F1FF3F4ED00598FFF7E6FDDB
:100FE400049001990498FFF709FD0346002B44D0AF
:100FF4000598FFF7EFFD03468DF80F300498FFF7CF
:101004007DFC03468DF80E309DF80E30022B01D185
:10101400032300E002238DF80D309DF80D301946AE
:101024000498FFF729FC0498FFF7B4FC0498FFF731
:10103400A3FD03461846FFF7ADFD0290029B002B6B
:101044001BD09DF80F30032B0FD09DF80E30022BD0
:1010540003D19DF80F30012B07D09DF80E30032BE0
:101064000BD19DF80F30022B07D19DF80F20029B66
:1010740011460498984700E000BF059B013305938F
:10108400059B002BA0D00198FFF778FF0346002BA7
:1010940097D100BF00BF07B05DF804FB2400002017
:1010A40000B589B000230793002300934FF48073A5
:1010B400ADF81630012304930023069321E0BDF814
:1010C40016301846FFF79EFA0346002B0ED00498FC
:1010D400FFF7E2FA0346002B08D0BDF81630184695
:1010E400FFF7A5FA079A049B13430793049B5B003D
:1010F4000493BDF816300433ADF81630069B013363
:101104000693069B072BDAD94FF4BE70FFF77AFAE1
:101114000346002B0DD04FF4BE70FFF788FA079BEF
:1011240043F0004307936B461A4601210020FFF762
:1011340003FC079BDBB2002B29D00123049300237B
:10114400069321E0049A079B1340002B16D00698BF
:10115400FFF7F6FA03900698FFF702FB03468DF8B3
:101164000B300698FFF716FD0190019B002B05D06C
:101174009DF80B20019B114603989847049B5B0044
:101184000493069B01330693069B072BDAD9079B2E
:10119400002B03DA6B461846FFF710FF00BF09B0B7
:1011A4005DF804FB00B583B00190019B1B681846F1
:1011B40000F092F80346002B04D105494FF4F67071
:1011C400FFF792F94FF0A043184603B05DF804FB13
:1011D400AC1D000000B585B00190084611461A46C2
:1011E40003468DF803300B468DF8023013468DF814
:1011F400013001AB1846FFF7D5FF03909DF803209B
:101204009DF802305B001A439DF801309B001A439D
:101214009DF818301B0242EA03019DF81C301B04A0
:10122400019A1943039B02F5E07243F8221000BFB0
:1012340005B05DF804FB00B585B00390002301936D
:10124400002300930023012201210398FFF7C2FF2A
:1012540000BF05B05DF804FB00B585B0019001AB9B
:101264001846FFF79FFF0390019B012202FA03F344
:101274001946039800F026F800BF05B05DF804FB9A
:1012840000B585B0019001AB1846FFF78BFF0390C2
:10129400039BD3F804350293029BDA43019B01219B
:1012A40001FA03F31A40039BC3F80825019B0122AA
:1012B4009A40029B1A40039BC3F80C2500BF05B05B
:1012C4005DF804FB82B001900091019B009AC3F881
:1012D400082500BF02B0704784B00190019B5B09F0
:1012E400029300230393029B002B03D14FF0FF339F
:1012F400039300BF019B03F01F030193039A019B17
:1013040022FA03F303F00103002B14BF012300238B
:10131400DBB2184604B0704700B583B001900B46A9
:101324008DF803301120FFF7ABFF00BF03B05DF869
:1013340004FB000000B585B0FFF7BAFC0390039BE3
:101344000293029B002B04D0174A13210298FFF743
:1013540093F81120FFF76FFF1120FFF77DFF134A69
:101364006B461268114619800233120C1A7003235B
:101374008DF801306B460E4A19460D20FFF7FCFC30
:101384000390039B0193019B002B04D0064A1C216C
:101394000198FFF771F801210D20FFF76BFD00BFE5
:1013A40005B05DF804FB00BFDC1D0000201E00003A
:1013B4001D13000008B5FFF7BDFFFEE7BFF34F8F15
:1013C40000BF064BDB6803F4E0620449044B13439B
:1013D400CB60BFF34F8F00BF00BFFDE700ED00E01F
:1013E4000400FA0582B01D4B1B68B3F1FF3F0AD11C
:1013F4001B4B1B68DBB201931A4B1B681B0903F0E0
:101404000F03009305E0154B1B680193164B1B68F3
:101414000093019B062B1DD1009B033B042B17D883
:1014240001A252F823F000BF41140000451400004B
:10143400491400004D1400005114000001230AE077
:10144400012308E0012306E0012304E0012302E074
:10145400012300E00023184602B070473001001059
:10146400E00F00F0E80F00F03401001082B0174BD9
:101474001B68DBB20193164B1B681B0903F00F03B7
:101484000093019B062B1DD1009B033B042B17D813
:1014940001A252F823F000BFB1140000B5140000FB
:1014A400B9140000BD140000C114000001230AE0B7
:1014B400002308E0002306E0002304E0002302E008
:1014C400002300E00023184602B07047E00F00F04C
:1014D400E80F00F082B01D4B1B68B3F1FF3F0AD147
:1014E4001B4B1B68DBB201931A4B1B681B0903F0EF
:1014F4000F03009305E0154B1B680193164B1B6803
:101504000093019B062B1DD1009B033B042B17D892
:1015140001A252F823F000BF311500003515000078
:10152400391500003D1500004115000001230AE0B3
:10153400012308E0012306E0012304E0012302E083
:10154400012300E00023184602B070473001001068
:10155400E00F00F0E80F00F03401001082B0174BE8
:101564001B68DBB20193164B1B681B0903F00F03C6
:101574000093019B062B1DD1009B033B042B17D822
:1015840001A252F823F000BFA1150000A515000028
:10159400A9150000AD150000B115000001230AE0F3
:1015A400002308E0002306E0002304E0002302E017
:1015B400002300E00023184602B07047E00F00F05B
:1015C400E80F00F082B01D4B1B68B3F1FF3F0AD156
:1015D4001B4B1B68DBB201931A4B1B681B0903F0FE
:1015E4000F03009305E0154B1B680193164B1B6812
:1015F4000093019B062B1DD1009B033B042B17D8A2
:1016040001A252F823F000BF2116000025160000A5
:10161400291600002D1600003116000001230AE0EF
:10162400012308E0012306E0012304E0012302E092
:10163400012300E00023184602B070473001001077
:10164400E00F00F0E80F00F03401001082B0174BF7
:101654001B68DBB20193164B1B681B0903F00F03D5
:101664000093019B062B1DD1009B033B042B17D831
:1016740001A252F823F000BF911600009516000055
:10168400991600009D160000A116000001230AE02F
:10169400002308E0002306E0002304E0002302E026
:1016A400002300E00023184602B07047E00F00F06A
:1016B400E80F00F082B0174B1B68DBB20193164BA6
:1016C4001B681B0903F00F030093019B062B1DD11C
:1016D400009B033B042B17D801A252F823F000BF50
:1016E400F9160000FD1600000117000005170000A0
:1016F4000917000001230AE0002308E0002306E0A4
:10170400002304E0002302E0002300E00023184645
:1017140002B07047E00F00F0E80F00F082B01D4BFC
:101724001B68B3F1FF3F0AD11B4B1B68DBB201936B
:101734001A4B1B681B0903F00F03009305E0154BBC
:101744001B680193164B1B680093019B062B1DD14C
:10175400009B033B042B17D801A252F823F000BFCF
:10176400791700007D17000081170000851700001D
:101774008917000000230AE0002308E0012306E0A3
:10178400012304E0012302E0012300E000231846C2
:1017940002B0704730010010E00F00F0E80F00F0D5
:1017A4003401001082B01D4B1B68B3F1FF3F0AD116
:1017B4001B4B1B68DBB201931A4B1B681B0903F01C
:1017C4000F03009305E0154B1B680193164B1B6830
:1017D4000093019B062B1DD1009B033B042B17D8C0
:1017E40001A252F823F000BF011800000518000000
:1017F400091800000D1800001118000001230AE068
:10180400012308E0012306E0012304E0012302E0B0
:10181400012300E00023184602B070473001001095
:10182400E00F00F0E80F00F03401001082B01D4B0F
:101834001B68B3F1FF3F0AD11B4B1B68DBB201935A
:101844001A4B1B681B0903F00F03009305E0154BAB
:101854001B680193164B1B680093019B062B1DD13B
:10186400009B033B042B17D801A252F823F000BFBE
:10187400891800008D1800009118000095180000C8
:101884009918000001230AE0012308E0012306E07F
:10189400012304E0012302E0012300E000231846B1
:1018A40002B0704730010010E00F00F0E80F00F0C4
:1018B4003401001082B0154B1B680193144B1B6854
:1018C4000093019B062B1DD1009B033B042B17D8CF
:1018D40001A252F823F000BFF1180000F51800002F
:1018E400F9180000FD1800000119000000230AE0A7
:1018F400002308E0002306E0012304E0012302E0C2
:10190400012300E00023184602B0704730010010A4
:101914003401001082B0154B1B680193144B1B68F3
:101924000093019B062B1DD1009B033B042B17D86E
:1019340001A252F823F000BF51190000551900000C
:10194400591900005D1900006119000000230AE024
:10195400002308E0002306E0002304E0012302E062
:10196400012300E00023184602B070473001001044
:101974003401001008B5FFF7CDFF0346002B07D054
:101984004FF010234FF08042D3F80832C2F8583594
:1019940000BF08BD00BF044BD3F80034002BFAD0BD
:1019A40000BF00BF704700BF00E0014000B583B036
:1019B4000190054A019BC2F80435FFF7EBFF00BF15
:1019C40003B05DF804FB00BF00E00140024B034A92
:1019D4001A6000BF704700BF000000200090D003D1
:1019E40008B5FFF7FFFC0346002B06D0964B1B6897
:1019F4001B0A964A03F01F031360FFF737FD0346E3
:101A0400002B02D0924B934A1A60FFF763FD034602
:101A1400002B06D0904B1B685B0B904A03F0070326
:101A24001360FFF79BFD0346002B05D08C4BDB684E
:101A34008B4A23F08073D360FFF7C4FD0346002B69
:101A44000ED04FF080430022C3F80C214FF08043A6
:101A54000022C3F810214FF080430022C3F8382538
:101A6400FFF7F4FD0346002B02D07E4B03221A60DD
:101A7400FFF720FE0346002B0BD07B4B05221A6098
:101A84007A4B01221A607A4B00221A60794B3F226A
:101A94001A60FFF743FE0346002B76D04FF08053C5
:101AA400754AD3F80434C2F820354FF08053724A93
:101AB400D3F80834C2F824354FF080536E4AD3F873
:101AC4000C34C2F828354FF080536B4AD3F81034E5
:101AD400C2F82C354FF08053674AD3F81434C2F857
:101AE40030354FF08053644AD3F81834C2F8343593
:101AF4004FF08053604AD3F81C34C2F840354FF09D
:101B040080535D4AD3F82034C2F844354FF08053F3
:101B1400594AD3F82434C2F848354FF08053564A12
:101B2400D3F82834C2F84C354FF08053524AD3F8D6
:101B34002C34C2F850354FF080534F4AD3F8303428
:101B4400C2F854354FF080534B4AD3F83434C2F8BA
:101B540060354FF08053484AD3F83834C2F86435BE
:101B64004FF08053444AD3F83C34C2F868354FF000
:101B74008053414AD3F84034C2F86C354FF0805357
:101B84003D4AD3F84434C2F87035FFF70BFE0346E0
:101B9400002B05D0394B1B68394A03F04F031360FF
:101BA400FFF744FE0346002B0DD04FF08043D3F8DB
:101BB400003403F00103002B05D04FF080436FF095
:101BC4000102C3F80024FFF775FE0346002B05D07D
:101BD4002C4B1B682B4A43F4806313602A4BD3F8C5
:101BE4008830294A43F47003C2F88830BFF34F8F1A
:101BF40000BFBFF36F8F00BFFFF7BCFE4FF0102391
:101C0400D3F80032002B05DB4FF01023D3F8043255
:101C1400002B15DA0120FFF7C9FE4FF0102315221F
:101C2400C3F80022FFF7B6FE4FF010231522C3F8C5
:101C34000422FFF7AFFE0020FFF7B8FEFFF7BEFB5C
:101C4400FFF7C4FE00BF08BD240300104035014067
:101C540074C007400DF0ADBA440200103C050040CA
:101C6400F0ED00E0A005004010560040885600400A
:101C7400185600401456004000C00040580200109E
:101C8400E40E00403C17004000ED00E0082938BF96
:101C94007047416040F27001C2F200010860002107
:101CA4000160704700220B0011001A0084465AB3E9
:101CB400830704D000F8011B013AF9D124E0C9B22A
:101CC40041EA012141EA0141202A11D3203A2DE9B8
:101CD400F0030B460C460D460E460F4688468946D1
:101CE400A0E8FA03203AFBD2BDE8F00320320BD07F
:101CF400042A05D340F8041B043A05D0042AF9D277
:0C1D040000F8011B013AFBD1604670475B
:101D10002E2E2F2E2E2F2E2E2F2E2E2F2E2E2F2EDE
:101D20002E2F696E746567726174696F6E2F6E72A3
:101D300066782F6E7266785F676C75652E68000036
:101D40002E2E2F2E2E2F2E2E2F2E2E2F2E2E2F2EAE
:101D50002E2F6D6F64756C65732F6E7266782F68A9
:101D6000616C2F6E72665F6770696F2E680000008D
:101D7000433A5C4E6F726469635F50726F6A656369
:101D8000745C6D6F64756C65735C6E7266785C64B0
:101D90007269766572735C7372635C6E7266785F8B
:101DA0006770696F74652E63000000002E2E2F2E61
:101DB0002E2F2E2E2F2E2E2F2E2E2F2E2E2F6D6FBE
:101DC00064756C65732F6E7266782F68616C2F6E08
:101DD00072665F6770696F2E68000000433A5C4E60
:101DE0006F726469635F50726F6A6563745C657873
:101DF000616D706C65735C4D795F50726F6A65637D
:101E0000745C31365F496E746572727570745F47C9
:101E100050494F54455C6D61696E2E6300000000AF
:031E2000020002BB
:041E24000090D00357
:04000003000003896D
:00000001FF
