:100000000000012089030000710300007303000059
:100010007503000077030000790300000000000072
:100020000000000000000000000000007B03000052
:100030007D030000000000007F030000810300003A
:1000400083030000830300005529000083030000A0
:10005000830300008303000083030000252D0000BC
:100060004534000083030000830300008303000085
:100070008303000083030000830300008303000068
:100080008303000083030000830300008303000058
:100090008303000083030000830300008303000048
:1000A0008303000083030000830300008303000038
:1000B0008303000083030000000000000000000034
:1000C0008303000083030000830300008303000018
:1000D000830300008303000083030000000000008E
:1000E0000000000000000000000000000000000010
:1000F0000000000000000000000000000000000000
:1001000000000000000000000000000000000000EF
:1001100000000000000000000000000000000000DF
:1001200000000000000000000000000000000000CF
:1001300000000000000000000000000000000000BF
:1001400000000000000000000000000000000000AF
:10015000000000000000000000000000000000009F
:10016000000000000000000000000000000000008F
:10017000000000000000000000000000000000007F
:10018000000000000000000000000000000000006F
:10019000000000000000000000000000000000005F
:1001A000000000000000000000000000000000004F
:1001B000000000000000000000000000000000003F
:1001C000000000000000000000000000000000002F
:1001D000000000000000000000000000000000001F
:1001E000000000000000000000000000000000000F
:1001F00000000000000000000000000000000000FF
:100200003A493B480A1A02D0072291438D463949A0
:1002100039480A1A06D00722914381F3098802223D
:1002200082F3148835483649364A00F041F836489A
:100230003649374A00F03CF836483749374A00F02B
:1002400037F837483749384A00F032F837483849E4
:10025000384A00F02DF838483849394A00F028F873
:1002600038483949394A00F023F8394839490022D9
:1002700000F036F838483949002200F031F83848A3
:100280003849091A05F000FD374A904725482649A4
:10029000884205D00268043003B4904703BCF7E7F6
:1002A00000208646EC4600200021304A9047FEE7B9
:1002B000884214D0521A12D003460B43134303242E
:1002C000234206D1036804300B600431043AF9D1AB
:1002D0007047037801300B700131013AF9D1704752
:1002E000884202D002700130FAE770470000012016
:1002F00000E0002000000120000001204C6D000003
:100300000000002070000020E4030000E40300006F
:10031000FE5D00004C6D0000000000200000002089
:10032000645E0000645E0000645E0000645E0000C5
:10033000645E0000645E0000645E0000645E0000B5
:10034000496D0000BC6D00007000002070000020AE
:10035000700000201C0700201C0700201C07002044
:100360001C0700201C270020B1030000F54F0000EF
:10037000FEE7FEE7FEE7FEE7FEE7FEE7FEE7FEE755
:10038000FEE7FEE700F002B8FFF7FCBF0F484FF0B2
:100390000701884385460E4880470E48016841F4AE
:1003A00070010160BFF34F8FBFF36F8FFFF728BF5E
:1003B00009480A490A4A884207D0521A05D00378E8
:1003C00001300B700131013AF9D170470000012072
:1003D0007956000088ED00E0645E00000000002017
:0403E00000000020F9
:1003E40000B5A1B00590049103920293049802F021
:1003F4009FF8039B1593029B1693002317930023E6
:100404008DF8603000231993229B1A9300231F93C5
:100414000FA91F9B0822049802F064F908231F9374
:10042400119B1293BDF84030ADF84C30BDF842300A
:10043400ADF84E3000238DF851309DF83C3003F078
:100444000303DBB2012B26D10F9BC3F395231C932B
:100454009DF83C30C3F3C203DBB28DF85030BDF8D5
:100464003C30C3F38313DBB21B931B9B9A0009A993
:100474001F9B049802F036F91B9B9B001F9A1344A0
:100484001F9312AA09A915AB009313461B9A1C9833
:1004940000F0E6FF2FE09DF83C3003F00303DBB2ED
:1004A400022B28D1BDF83E30C3F389139BB21E93AF
:1004B4009DF83C30C3F3C203DBB28DF850301E9B71
:1004C400082B28BF08231D9307A91F9B1D9A049876
:1004D40002F008F91F9A1D9B13441F931E9A1D9B3B
:1004E400D31A1E9315AB12AA07A81D9901F05AF846
:1004F4001E9B002BE3D1049802F029F800BF21B021
:100504005DF804FB00B583B00190019B1B781A468B
:100514000C4B9B5C002B05D0019B0433184604F064
:10052400CDF90BE0019B1B781A46064B9B5C002B14
:1005340004D1019B0C33184603F05EFB00BF03B0EB
:100544005DF804FB6806002000B587B003900291B3
:1005540013468DF8073000230593039B1B781A4636
:10056400114B9B5C002B09D0039B04339DF807209F
:100574000299184604F004FA05900FE0039B1B78D7
:100584001A46094B9B5C002B08D1039B0C339DF846
:1005940007200299184603F0A7FB0590059B18460F
:1005A40007B05DF804FB00BF6806002082B001902C
:1005B4000091034B01221A7000BF02B0704700BFC4
:1005C400B000002030B58DB003468DF807301A4BCB
:1005D40002AC1D460FCD0FC495E80F0084E80F0050
:1005E400062302934FF0FF3303934FF0FF3304933A
:1005F4004FF0FF3305934FF0EB7308939DF80730EA
:10060400002B01D00D4A00E0002202AB19460C4831
:1006140002F03EF90B900B9B0A930A9B002B04D02B
:10062400084A43210A9801F081F8074A9DF80730E7
:10063400137000BF0DB030BDAC5E0000B10500000A
:1006440000000020645E0000B100002000B583B00B
:1006540001238DF807309DF807301846FFF7B2FFE5
:1006640000BF03B05DF804FB00B589B003900291AC
:100674000192019B8DF81F30124B00221A709DF8D5
:100684001F301A4602991048FFF75EFF0690069B3A
:100694000593059B002B04D00C4A5321059801F0C7
:1006A40045F800BF0A4B1B78002B07D0054B1B787D
:1006B400DBB283F00103DBB2002BF3D100BF09B03E
:1006C4005DF804FBB000002000000020645E000020
:1006D400B100002000B585B003900291054B009352
:1006E4004023054A02990398FFF77AFE00BF05B03C
:1006F4005DF804FB6D0600007000002082B00190DC
:1007040000BF02B07047000000B583B001900548F7
:10071400FFF7F8FE0020FFF755FF00BF03B05DF8B8
:1007240004FB00BF0000002082B00190019BDB6845
:1007340001225A7100BF02B07047000000B583B0B7
:100744004FF0FF330193FFF781FF0421084800F0C5
:10075400A3FD0190019B002B03DA0649482001F018
:10076400D8F80348FFF7E0FF00BF03B05DF804FBCF
:10077400405E0000EC5E000000B583B00190009183
:10078400019B1B681B6800990198984700BF03B040
:100794005DF804FB00B583B00190019B1B685B68A6
:1007A4000198984700BF03B05DF804FB00B583B01F
:1007B4000190019B1B689B680198984700BF03B098
:1007C4005DF804FB82B001900B468DF80330019B69
:1007D400DB689DF803201A7100BF02B0704782B035
:1007E4000190019BDB681B79184602B0704782B008
:1007F4000190019BDB6801225A7100BF02B070476F
:1008040082B00190019BDB685B79184602B07047A7
:1008140000B585B0019000910C4B00221A700C4871
:1008240001F0EAFD0390039B002B01D0039B08E039
:10083400084801F077FF084A084BD31ADB080293F3
:100844000023184605B05DF804FB00BF1C0200201D
:10085400505E0000385F0000405E0000005E000053
:10086400024A034BD31ADB0818467047405E000067
:10087400005E000000B587B001900B468DF8033090
:100884009DF80330002B1FD0FFF7EAFF04900023EC
:10089400059313E0059B9B000E4A13440393039BAB
:1008A4001B881A46019B1B689A4204D1019B059A36
:1008B4001A60002309E0059B01330593059A049B04
:1008C4009A42E7D3052300E00023184607B05DF8F9
:1008D40004FB00BF0000002000B585B001900B466A
:1008E4008DF803309DF8032001AB11461846FFF73D
:1008F400C1FF0346002B07D1019BDB00054A1344CB
:100904000393039B1B6800E00023184605B05DF8C1
:1009140004FB00BF005E000084B001900B468DF81C
:100924000330019BDB00174A134402939DF8033004
:10093400013B032B1CD801A252F823F051090000FB
:1009440059090000610900006B09000002238DF8B9
:100954000F3011E004238DF80F300DE0029B1B795A
:100964008DF80F3008E0029B5B798DF80F3003E0BF
:1009740000238DF80F3000BF9DF80F30184604B0E7
:10098400704700BF005E000084B001900091002316
:100994008DF80F30019B1B7803F00403DBB2002BAE
:1009A40024D0019B1B78C3F30103DBB2012B02D0DB
:1009B400022B0CD017E0009B1B68019A1288C2F32B
:1009C4008312D2B213449A1C009B1A600BE0009B62
:1009D4001B68019A5288C2F3891292B213449A1C7A
:1009E400009B1A6000BF01238DF80F309DF80F3073
:1009F400184604B07047000000B58BB00023ADF872
:100A040026303E4801F012F83D4801F00FF83D4B06
:100A14009B6804933C4B1B680693049A069B134003
:100A240002339B00374A13440433089304AB19463A
:100A34000898FFF7A9FF0346002B09D0049A069BE8
:100A4400134002339B002F4A134404330893EDE709
:100A540000BF0023079311E0049B5A1C0492069ADA
:100A64001340079A920001A90A44264902339B00C5
:100A74000B445B681360079B01330793079B012BAF
:100A8400EAD99DF80430C3F30103DBB2012B10D083
:100A9400022B1CD1BDF80A30ADF82630BDF8063063
:100AA400C3F389139BB203339A08049B134404933E
:100AB40013E0BDF80A30ADF82630BDF80430C3F3B6
:100AC4008313DBB21A46049B1344049305E00F49D5
:100AD4004FF4C27000F01DFF00BF094800F0B2FFE0
:100AE4000590059B002B02D0049B064A9360BDF839
:100AF400263018460BB05DF804FB00BF3406002016
:100B0400300600201C0200201C000020485F00006A
:100B140000B585B00021074800F011FF0390039B46
:100B24000293029B83F310030193019B184605B0C3
:100B34005DF804FB3806002000B589B003900291EB
:100B440001920093039B1B0C0793FFF7E1FF0690B0
:100B5400FFF786FE0246079B934204D3214940F2E5
:100B6400A91000F0D6FE069B1904009B5A1C0A9B90
:100B74001340079A0A431C4902339B000B445A60F2
:100B8400009A0A9B134002339B00174A1344043310
:100B94000593039B03F00703D9B2059A137861F315
:100BA400C5031370019B03F00F03D9B2059A138890
:100BB40061F389131380029BC3F31501059A13682B
:100BC40061F39F231360059A1378012161F30103F4
:100BD4001370059A137823F00403137000BF09B04F
:100BE4005DF804FB485F00001C02002000BF704752
:100BF40000B58BB00390029113468DF80730039B28
:100C04000233089301238DF81F30002000F03AFED0
:100C14003E4B5A68029B1A603D4B1A683B4B9968DD
:100C24003A4B5B68CB1A13440133099314E0012156
:100C3400384800F0CBFEFFF7DFFE059005993548F4
:100C440000F0C4FE324B1A68304B99682F4B5B6836
:100C5400CB1A134401330993089A099B9A42E6D8A4
:100C64009DF81F30002B48D0002304939DF80730D3
:100C7400002B17D09DF81030012262F301038DF888
:100C840010309DF8103043F004038DF81030039BAE
:100C940003F00F03DAB2BDF8103062F38913ADF834
:100CA400103016E09DF81030022262F301038DF833
:100CB40010309DF8103043F004038DF81030039B7E
:100CC400C3F309039AB2BDF8123062F38F13ADF87F
:100CD40012300E4B5A680E4B1B68134002339B00B4
:100CE4000A4A134404330693049A069B1A60074B7A
:100CF4005A68089B1344054A5360002000F0D6FD4F
:100D04009DF81F3018460BB05DF804FB1C02002050
:100D14001C0000203806002000B58BB0059004911B
:100D2400039202931F4B1B68079306AB01221946DB
:100D34000298FFF75DFF0346002B24D0069B023385
:100D440009930023089311E0089B9B00039A1A441B
:100D5400099B591C099107990B40126812490233E7
:100D64009B000B445A60089B01330893089A029B2A
:100D74009A42E9D3069A079B00931346029A049970
:100D84000598FFF7D9FE084B1B78002B04D000F020
:100D94007FF80346002BFAD1FFF728FF00BF0BB002
:100DA4005DF804FB1C0000201C02002000B583B089
:100DB400019000910023002200990198FFF7ACFFF5
:100DC40000BF03B05DF804FB00B587B00390029147
:100DD4000192019B059305AA012302990398FFF749
:100DE4009BFF00BF07B05DF804FB00B587B003901C
:100DF400029101920093019B0493009B059304AA22
:100E0400022302990398FFF787FF00BF07B05DF83C
:100E140004FB00B589B00390029101920093019BF9
:100E24000593009B06930A9B079305AA0323029943
:100E34000398FFF771FF00BF09B05DF804FB00B52C
:100E44008BB00390029101920093019B0593009B48
:100E540006930C9B07930D9B08930E9B099305AA7D
:100E6400052302990398FFF757FF00BF0BB05DF805
:100E740004FB0000054B9A68044B5B689A420CBF64
:100E840001230023DBB21846704700BF1C02002078
:100E940000B599B0FFF7EEFF0346002B01D0002305
:100EA400B9E19B4B0022C3F81824BFF34F8F00BF56
:100EB400974B9B680493974B1B681093049A109B61
:100EC400134002339B00924A1344043311930023CA
:100ED40017930023169300230F9304AB194611981C
:100EE400FFF752FD0346002B19D0894BD3F8183471
:100EF400002B14D1864B5A68049B9A4205D8844B24
:100F04005B68834A9360002385E1049A109B134035
:100F140002339B007E4A134404331193DDE700231C
:100F2400159311E0049B5A1C0492109A1340159ACD
:100F3400920001A90A44764902339B000B445B6882
:100F44001360159B01331593159B012BEAD99DF86A
:100F5400043003F00303DBB2022B40F09C80BDF8A5
:100F64000630C3F389139BB20D93BDF80630C3F367
:100F740089139BB2502B28BF50239BB20C930C9B1C
:100F8400C3F309039AB2BDF8063062F38F13ADF8C8
:100F940006300C9B08330B939DF80430C3F3C20353
:100FA400DBB20F930B995C4801F031FA1790179B51
:100FB400002B00F0D380179801F0BAFA01A9169B10
:100FC4000822179801F070FB169B08331693049BB4
:100FD400DA43109B134001339B000A930C9A0A9B3B
:100FE4009A4242D90A9B002B08D0049A109B1340C2
:100FF40002339B00464A1344043300E0474B0893F2
:101004000A9B002B02D00A9BDBB201E00C9BDBB2F3
:101014008DF81F300A9B002B01D0404B00E00023C9
:1010240006930A9B002B06D00C9BDAB20A9BDBB218
:10103400D31ADBB200E000238DF817309DF81F208F
:10104400169B0899179801F02FFB9DF81F30169AEC
:1010540013441693069B002B16D09DF81720169B5D
:101064000699179801F020FB0EE0049A109B134098
:1010740002339B00264A134404330993169B0C9AAB
:101084000999179801F010FB0D9B03339A08049BF0
:101094001344049362E09DF8043003F00303DBB2CD
:1010A400012B5BD1BDF80430C3F38313DBB2062BF1
:1010B40028BF0623DAB2BDF8043062F38913ADF811
:1010C4000430BDF80430C3F38313DBB202330E9350
:1010D4009DF80430C3F3C203DBB20F930E9B9B0055
:1010E40019460D4801F093F91790179B002B35D042
:1010F400179801F01DFA01A9169B0822179801F010
:10110400D3FA169B08331693002315931DE000BFF2
:101114001C0200201C000020505E00002802002059
:10112400049B5A1C0492109A134002339B003C4ABD
:101134001344191D169B0422179801F0B5FA169B47
:1011440004331693159B01331593BDF80430C3F390
:101154008313DBB21A46159B9342E1D3179B002BF2
:1011640039D02F4BD3F8103414932D4BD3F81834B3
:10117400002B1BD0179801F0EAF946E000238DF804
:101184004F301498FFF73CFB0346002B02D0012399
:101194008DF84F309DF84F30002B03D017991498D9
:1011A400FFF7EAFA149BDB681B681493149B002B6B
:1011B400E4D1179801F0CBF9002000F063FB184B41
:1011C400D3F81834002B02D1049B154A93600020F5
:1011D40000F06CFB19E0124BD3F81034129306E0C4
:1011E4001298FFF7E3FA129BDB681B681293129BB9
:1011F400002BF5D10B4A0C4BD31ADB081B0443F02C
:1012040002030A491846FFF7D1FDFFF733FE0346F0
:1012140083F00103DBB2184619B05DF804FB00BF8C
:101224001C020020305E0000005E00008C5F0000A5
:1012340000B585B00023039323E0164BD3F8103494
:10124400029301238DF807300FE00298FFF7C7FAE5
:1012540003461A46039B934203D100238DF80730BB
:1012640006E0029BDB681B680293029B002BECD117
:101274009DF80730002B01D0039B07E0039B01334B
:101284000393039B092BD8DD4FF0FF33184605B0B9
:101294005DF804FB1C02002000B585B001900B46EC
:1012A4008DF80330FFF7C4FF0390039BB3F1FF3FB6
:1012B40001D1039B22E0039BDBB219460198FFF79F
:1012C40081FA104BD3F81034002B08D10D4A019B3E
:1012D400C2F81034019BDB6800221A600DE0094B50
:1012E400D3F81034DA68019BDB6812681A60054B86
:1012F400D3F81034DB68019A1A60039B184605B0D2
:101304005DF804FB1C02002000B583B00C4BD3F83D
:10131400103401930A4B01221A7009E00198FFF777
:1013240066FA0198FFF736FA019BDB681B680193A4
:10133400019B002BF2D100BF00BF03B05DF804FB9A
:101344001C02002082B00190009100BF02B07047DF
:1013540010B584B003900291039BDB88002B0AD064
:10136400039BDB881A461F4B009313461E4A1F49F2
:10137400029800F095FC039B1B7A052B2ED0039B4F
:101384005B7A002B12D0039B9B881A46039B1B7A23
:1013940019461046FFF7C0FA03461A46144B53F891
:1013A40022301A461349029800F07AFC039B1B680A
:1013B40019460298FFF7C6FF039B1B7A1A460E4B89
:1013C40053F82240039B9B8800211846FFF784FAB8
:1013D400034622460949029800F062FC00BF04B0AB
:1013E40010BD00BFC05F0000D05F000008600000B7
:1013F4003400002020600000200000202460000051
:1014040000B585B00390029113468DF80730039B15
:101414001B7A052B0FD0039B5B7A002B06D00D4B58
:101424001B681A460C49029800F03AFC0B490298D2
:1014340000F036FC07E09DF80730002B03D0074985
:10144400029800F02DFC029800F008FC00BF05B0E3
:101454005DF804FB340000202060000030600000D0
:1014640030B58BB007900691059204930E9B1B7BBD
:101474008DF827300E9B00221A730E990498FFF7FB
:1014840067FF059B062B7FD801A252F823F000BF0B
:10149400B1140000BB140000CB140000DF140000E2
:1014A400FD140000251500005515000007990E983D
:1014B40000F0F6FB69E0069B1B681A4607990E9834
:1014C40000F0EEFB61E0069B1A68069B04331B6880
:1014D40007990E9800F0E4FB57E0069B1A68069BF8
:1014E40004331968069B08331B6800930B4607995D
:1014F4000E9800F0D5FB48E0069B1968069B043360
:101504001868069B08331B68069A0C32126801920D
:10151400009303460A4607990E9800F0C1FB34E095
:10152400069B1868069B04331C68069B08331B68DB
:10153400069A0C32126806991031096802910192D8
:1015440000932346024607990E9800F0A9FB1CE07D
:10155400069B1C68069B04331D68069B08331B68A6
:10156400069A0C32126806991031096806981430EC
:10157400006803900291019200932B46224607993A
:101584000E9800F08DFB00E000BF00220E99049835
:10159400FFF736FF0E9B9DF827201A7300BF0BB090
:1015A40030BD00BF00B587B0039002910192009353
:1015B400029B082B60D8009B1B7B8DF81330009B8B
:1015C40000221A7300990198FFF7C2FE00230593C5
:1015D40014E0059A029B9A4209D2039A059B13448C
:1015E4001B781A462649009800F05AFB03E0254967
:1015F400009800F055FB059B01330593059B072BD1
:10160400E7D92149009800F04BFB0023059326E01D
:10161400059A029B9A421BD2039A059B13441B789A
:101624008DF812309DF812307E2B0AD89DF81230B6
:10163400184604F098FB0346002B02D09DF81230A4
:1016440000E02E231A461149009800F029FB03E01C
:101654000F49009800F024FB059B01330593059B7B
:10166400072BD5D9012200990198FFF7C9FE009BE9
:101674009DF813201A7300E000BF07B05DF804FB67
:10168400346000003C6000004060000044600000E2
:101694004860000086B003900291019201238DF806
:1016A40017309DF81730204A039B13601E4A029B93
:1016B40053601D4A019B9360039B44F201029342D1
:1016C40012D0039B44F20202934220D1019B164A9A
:1016D400D360154BDB681B68134A9361124BDB68BC
:1016E4005B68114AD36112E0019B0F4A13610E4BF0
:1016F4001B699B680C4A53610B4B1B691B680A4AA4
:101704009361094B1B695B68074AD36100BF72B6DA
:1017140000BF00BF9DF81730DBB2002BFAD162B6D0
:1017240000BF00BF06B070473C06002000B583B080
:1017340002900091019244F2010071466A4600F061
:1017440003F803B000BD00BF30B58BB0079006911D
:10175400059272B600BFFFF7D7FDFFF799FB03466A
:10176400002BFAD1079B44F20102934216D0079B47
:1017740044F2020293423ED1059B09932C4A2D4B1D
:10178400D31ADB081B0443F00100099B5B681A466B
:10179400099B1B682849FFF728FB39E0059B089340
:1017A400234A244BD31ADB081B0443F00104089B8F
:1017B4009D68089B9B68184600F0D2FF03461846B4
:1017C400089B5B681946089B1B68069A0292019362
:1017D400009103462A4619492046FFF730FB144A74
:1017E400144BD31ADB081B0443F0010314491846B5
:1017F400FFF7DCFA0CE00E4A0E4BD31ADB081B048D
:1018040043F00103069A0F491846FFF7DDFA00BFBB
:101814000D4B1B6803F00103002B00D000BE059A9A
:1018240006990798FFF736FF00BF0BB030BD00BF25
:10183400305E0000005E00004C6000006860000044
:1018440090600000A4600000F0ED00E072B600BFFC
:10185400034B1B680133024A136000BF704700BF8B
:101864005C060020064B1B68013B054A1360044BD1
:101874001B68002B01D162B600BF00BF704700BFD8
:101884005C06002000B583B0019000F025F8034603
:10189400012B03D00449432000F03BF8FFF7D6FFA7
:1018A40000BF03B05DF804FBBC60000000B583B06A
:1018B40003468DF8073000F00FF80346012B03D0E0
:1018C4000449512000F025F8FFF7CCFF00BF03B016
:1018D4005DF804FBBC60000084B0EFF30583019362
:1018E400019BC3F308030393039B002B0DD1EFF378
:1018F40014830093009B0293029B03F00103002BCB
:101904000CBF01230023DBB200E00123184604B01E
:10191400704700B585B003460091ADF80630BDF8B8
:1019240006300293009B039302AB1A46002144F253
:101934000200FFF709FF00BF05B05DF804FB10B417
:1019440087B001900091019B009A53E8004F104624
:1019540043E8000191F0000FF7D10594049003913E
:10196400059B184607B05DF8044B704710B487B068
:1019740001900091019B009A53E8004F44EA020051
:1019840043E8000191F0000FF6D10594049003910F
:10199400049B184607B05DF8044B704710B487B039
:1019A40001900091019B009A53E8004F04EA020061
:1019B40043E8000191F0000FF6D1059404900391DF
:1019C400059B184607B05DF8044B704710B487B008
:1019D40001900091019B009A53E8004F04EB020030
:1019E40043E8000191F0000FF6D1059404900391AF
:1019F400049B184607B05DF8044B704710B487B0D9
:101A040001900091019B009A53E8004FA4EB02005F
:101A140043E8000191F0000FF6D10594049003917E
:101A2400049B184607B05DF8044B704700B583B0BB
:101A3400019001210198FFF799FF0346184603B06E
:101A44005DF804FB00B583B0019000210198FFF715
:101A5400A5FF0346184603B05DF804FB00B583B048
:101A640001900B468DF80330019B002B03D10849EC
:101A7400E820FFF74EFF019BDA689DF803300199D7
:101A8400098A01FB03F31344184603B05DF804FB11
:101A9400FC60000000B583B001900091019B002B15
:101AA40003D10849F520FFF734FF009B019AD2685F
:101AB4009B1A019A128AB3FBF2F3DBB2184603B005
:101AC4005DF804FBFC60000000B585B00190019B4B
:101AD400002B01D10E234CE0019B1B68002B03D18A
:101AE4002649FF20FFF715FF019B5B68002B04D1FB
:101AF40022494FF48070FFF70CFF019B9B68002B79
:101B040004D11E4940F20110FFF703FF019BDB687B
:101B1400002B04D119494FF48170FFF7FAFE019BA1
:101B24001B8A002B04D1154940F20310FFF7F1FE84
:101B3400019B9A68019B5B68D31A8DF80F30019B57
:101B44001B68019A52681A6007E0019B1A681368BF
:101B5400591C11609DF80F201A709DF80F305A1E01
:101B64008DF80F20002BF0D1019B1B6800221A7105
:101B74000023184605B05DF804FB00BFFC600000BC
:101B840000B585B00190019B002B04D11C494FF492
:101B94009270FFF7BEFE002303930020FFF772FE4E
:101BA400019B1B681A68019B5B689A421FD9019BC1
:101BB4001B681A68013A1A601B681B781946019859
:101BC400FFF74CFF0390019B9A68019B1B681B68FD
:101BD400D31A8DF80B30019B1B681B799DF80B20E1
:101BE4009A4204D9019B1B689DF80B201A710020AE
:101BF400FFF75CFE039B184605B05DF804FB00BFCD
:101C0400FC60000010B584B001900091019B002B92
:101C140004D1114940F24710FFF77BFE009B002BD3
:101C240004D10D494FF4A470FFF773FE009B039396
:101C34000020FFF727FE019B1B681C68621C1A60CA
:101C440003990198FFF726FF034623700020FFF74E
:101C54002DFE00BF04B010BDFC60000000B583B0D1
:101C64000190019B002B03D10C493120FFF751FE59
:101C7400019B9B68002B0CD0019B5B69019A106946
:101C8400019A1168019A92689847019B00229A6010
:101C940000E000BF03B05DF804FB00BF3861000042
:101CA4000EB400B584B00190019B002B03D11849F8
:101CB4004220FFF72EFE019B5B69002B03D11449E0
:101CC4004320FFF726FE019B1B68002B03D110491C
:101CD4004420FFF71EFE019B5B68002B03D10C49D7
:101CE4004520FFF716FE059B002B0AD00023039323
:101CF40006AB039303AB1A460599019800F0B8F9B3
:101D040000E000BF04B05DF804EB03B0704700BF0F
:101D14003861000000B583B001900B468DF80330A4
:101D24009DF803300A2B03D10D210198FFF7F2FF30
:101D3400019B1A68019B9B68581C01998860134495
:101D44009DF803201A70019B9A68019B5B689A4274
:101D540002D30198FFF782FF00BF03B05DF804FBD4
:101D640000B587B00390029101920093002305937C
:101D7400009B03F00103002B24D00BE0029B0133F2
:101D84000293059B013305939DF81330194603987C
:101D9400FFF7C0FF029B1B788DF813309DF81330BA
:101DA400002BEBD106E0019B013B0193202103981A
:101DB400FFF7B0FF019A059B9A422ED9019B002B95
:101DC400F1D12AE0029B002B0BD0029803F066FFAE
:101DD400059006E0019B013B019320210398FFF746
:101DE40099FF019A059B9A420FD9019B002BF1D1CF
:101DF4000BE0029B01330293059B013305939DF88D
:101E0400133019460398FFF785FF029B1B788DF862
:101E140013309DF81330002BEBD100BF07B05DF8F1
:101E240004FB000000B589B0039002910192009375
:101E3400029B07930123069307E0079A019BB2FBD9
:101E4400F3F30793069B01330693079A019B9A4287
:101E5400F3D2009A069B9A4201D9009B06930B9BEE
:101E640003F00103002B22D10A9B002B1FD00B9BF4
:101E740003F00203002B06D0009B002B03D1302378
:101E84008DF8173002E020238DF8173008E00A9B04
:101E9400013B0A939DF8173019460398FFF73AFF60
:101EA4000A9B002B03D0069A0A9B9A42EFD3012384
:101EB4000793009B012B03D9009B013B009309E08E
:101EC400029A079BB2FBF3F30493049A019B9A4290
:101ED40000D205E0079B019A02FB03F30793E8E7AE
:101EE400029A079BB2FBF3F30493049B079A02FB49
:101EF40003F3029AD31A0293154A049B13441B78E2
:101F040019460398FFF706FF079A019BB2FBF3F308
:101F14000793079B002BE3D10B9B03F00103002BDA
:101F240011D00A9B002B0ED006E00A9B013B0A93BA
:101F340020210398FFF7EEFE0A9B002B03D0069A9C
:101F44000A9B9A42F1D300BF09B05DF804FB00BFBD
:101F5400A461000000B589B0059004910392029336
:101F6400049B002BB8BF5B4206930123079307E051
:101F7400039B069A92FBF3F30693079B01330793A3
:101F8400039B069A9A42F3DA029A079B9A4201D972
:101F9400029B07930A9B002B0AD0049B002B04DBB3
:101FA4000B9B03F00403002B02D00A9B013B0A9312
:101FB4000B9B03F00203002B02D0029B002B16D0D4
:101FC4000B9B03F00103002B11D10A9B002B0ED0B5
:101FD40006E00A9B013B0A9320210598FFF79AFE2D
:101FE4000A9B002B03D0079A0A9B9A42F1D3049BC5
:101FF400002B07DA049B5B4204932D210598FFF71D
:1020040089FE08E00B9B03F00403002B03D02B2173
:102014000598FFF77FFE0B9B03F00203002B19D0FA
:102024000B9B03F00103002B14D1029B002B11D155
:102034000A9B002B0ED006E00A9B013B0A93302139
:102044000598FFF767FE0A9B002B03D0079A0A9BAB
:102054009A42F1D304990B9B01930A9B0093029B30
:10206400039A0598FFF7DEFE00BF09B05DF804FB94
:1020740000B58FB0059004910392059B002B04D109
:10208400AD4940F25220FFF744FC059B5B69002BED
:1020940004D1A9494FF41570FFF73BFC059B1B685D
:1020A400002B04D1A44940F25520FFF732FC059BD4
:1020B4005B68002B04D1A04940F25620FFF729FCAD
:1020C400049B002B00F09381049B1B788DF8373020
:1020D400049B013304939DF83730002B00F07E817C
:1020E4009DF83730252B40F06D8100230A9301239E
:1020F4000C93049B1B788DF837309DF83730302BC8
:102104000DD0302B1BDC2B2B11D02D2B17D10A9B80
:1021140043F001030A93049B0133049312E00A9BE6
:1021240043F002030A93049B013304930AE00A9BDD
:1021340043F004030A93049B0133049302E0002355
:102144000C9300BF0C9B002BD3D1002309939DF863
:1021540037302A2B0CD1039B1B68191D039A11607D
:102164001B68099A13440993049B013304931AE0EE
:10217400049B1B788DF837309DF837302F2B12D9FC
:102184009DF83730392B0ED8049B01330493099AF8
:1021940013469B0013445B001A469DF837301344E2
:1021A400303B0993D3E700230B93049B1B788DF8F2
:1021B40037309DF837302E2B1DD1049B0133049307
:1021C400049B1B788DF837309DF837302F2B12D9AC
:1021D4009DF83730392B0ED8049B013304930B9AA6
:1021E40013469B0013445B001A469DF83730134492
:1021F400303B0B93E4E7049B1B788DF837309DF854
:1022040037306C2B03D09DF83730682B07D1049BF3
:1022140001330493049B1B788DF83730EFE79DF866
:102224003730252B00F0C480252BC0F2C680782BD4
:1022340000F3C380582BC0F2C080583B202B00F21F
:10224400BC8001A252F823F041230000BF23000008
:10225400BF230000BF230000BF230000BF230000F2
:10226400BF230000BF230000BF230000BF230000E2
:10227400BF230000D1220000F3220000BF2300008E
:10228400BF230000BF230000BF230000F32200008F
:10229400BF230000BF230000BF230000BF230000B2
:1022A400BF230000BF23000081230000BF230000E0
:1022B400BF23000065230000BF2300001723000094
:1022C400BF230000BF23000041230000039B1B68C1
:1022D400191D039A11601B680C930C9B8DF81F3019
:1022E4009DF81F3019460598FFF714FD66E0039B1F
:1022F4001B68191D039A11601B680C930A9B0193B8
:10230400099B00930B9B0A220C990598FFF722FE68
:1023140054E0039B1B68191D039A11601B680C93FE
:102324000C990A9B0193099B00930B9B0A22059825
:10233400FFF778FD42E000BF6C610000039B1B685F
:10234400191D039A11601B680C930C990A9B019345
:10235400099B00930B9B10220598FFF763FD2DE06A
:10236400039B1B68191D039A11601B6808930A9B41
:10237400099A08990598FFF7F3FC1FE0039B1B6873
:10238400191D039A11601B680C9330210598FFF7FF
:10239400C1FC78210598FFF7BDFC0C99002301933B
:1023A40008230093082310220598FFF73BFD05E05E
:1023B40025210598FFF7AEFC00E000BF049B013324
:1023C400049305E09DF8373019460598FFF7A2FC01
:1023D400049B1B78002B7FF477AE00E000BF059BC5
:1023E4001B7B002B04D00598FFF738FC00E000BFEE
:1023F4000FB05DF804FB00BF00B583B001900198F5
:10240400FFF762FB0346184603B05DF804FB00B512
:102414008BB001900091019B1B8A043B0793009AA7
:10242400079B1344DA1C079BB2FBF3F38DF81B30B4
:102434000198FFF7A5FB0590059B002B01D1002314
:1024440038E0059B00221A71059B01225A71079BF3
:102454009AB2059BDA80059B09939DF81B30013BDA
:102464000493099B019A1A60002308931DE00198C4
:10247400FFF786FB0390039B002B0ED0059B5B7933
:102484000133DAB2059B5A71099B039A1A60039BC4
:10249400019A1A60039B099304E0059800F00EF872
:1024A400002307E0089B01330893089A049B9A428F
:1024B400DDD3059B18460BB05DF804FB00B58BB06B
:1024C4000190019B0793079B5B798DF81B30019B5F
:1024D40008939DF81B30013B05930023099305E005
:1024E400089B1B680893099B01330993099A059B70
:1024F4009A42F5D3089B1B680493019B089300231D
:1025040009930BE0089B1B68039308990498FFF751
:1025140079FB039B0893099B013309939DF81B30B6
:10252400099A9A42EED300BF00BF0BB05DF804FBDA
:1025340000B585B00190019B0393039B04330121F3
:102544001846FFF743FA00BF05B05DF804FB00B579
:1025540087B00190019B0593059B04330121184624
:10256400FFF74CFA0346039303AB0493049B1B78D5
:10257400002B02D10198FFF7A1FF00BF07B05DF85F
:1025840004FB000000B591B0039002910192009306
:10259400039B002B03D14349B620FFF7BAF9039BF1
:1025A4000993039B0F93099BDB881A46099B5B796C
:1025B40002FB03F3043B0893009A089B9A4203D35B
:1025C4003849C420FFF7A5F9099BDB880793009BD2
:1025D4001A1D079BB2FBF3F30E93009B0433079A77
:1025E400B3FBF2F2079901FB02F29B1A0D93019BD4
:1025F4001A68009B1344089A9A4203D2089A009BD3
:10260400D31A01E0019B1B680C93019B0C9A1A607E
:1026140005E00F9B1B680F930E9B013B0E930E9BD3
:10262400002BF6D100230B93079A0D9BD31A0A9320
:102634000A9A0C9B934228BF13460A932AE0029AF3
:102644000B9B134406930F9A0D9B13440433059379
:102654009DF84830002B05D00A9A0599069803F096
:1026640033FB04E00A9A0699059803F02DFB002336
:102674000D930F9B1B680F930C9A0A9BD31A0C9310
:102684000B9A0A9B13440B93079A0C9B934228BF03
:1026940013460A930C9B002BD1D100BF00BF11B08D
:1026A4005DF804FBB461000000B589B005900491A5
:1026B40003920293039B079307AA00230093029BB0
:1026C40004990598FFF75EFF079B039A9A4203D08B
:1026D4000349F620FFF71DF900BF09B05DF804FBBC
:1026E400B461000000B589B005900491039202938F
:1026F400039B079307AA01230093029B049905985F
:10270400FFF740FF079B039A9A4204D004494FF411
:102714008070FFF7FEF800BF09B05DF804FB00BF4E
:10272400B461000082B00190019B9B6800229A6012
:10273400019B9B6800221A61019B9B6800225A61DD
:10274400019B9B680022DA60019B9B6800225A600F
:10275400019B9B6800221A6000BF02B07047000012
:1027640000B585B00190019800F00EF80390039B2A
:10277400002B01D0039B00E0024B184605B05DF826
:1027840004FB00BFC862000086B00190164B05939D
:10279400164B04931FE0049A059BD31ADB10DA0F3F
:1027A40013445B10DB00059A13440393039B1B68DB
:1027B4000293029A019B9A4202D9039B04930AE072
:1027C400029A019B9A4203D2039B0833059302E0C9
:1027D400039B5B6804E0059A049B9A42DBD30023C5
:1027E400184606B0704700BF9C660000B46700003E
:1027F40000B589B001900091009B0793019B1B7861
:102804008DF80C30019B5B680493019B9B68DBB2E1
:102814008DF81430019BDB680693074A079B52F836
:1028240023300649079A51F8221003AA1046984704
:1028340000BF09B05DF804FB6006002064060020B8
:1028440000B589B001900091009B0793019B1B7810
:102854008DF80C30019B5B680493019B9B68DBB291
:102864008DF81430019BDB680693074A079B52F8E6
:1028740023300649079A51F8221003AA10469847B4
:1028840000BF09B05DF804FB600600206406002068
:1028940030B58FB0039002910192039B1B780C9387
:1028A40026490C9B019A41F82320029B1A6924496A
:1028B4000C9B41F82320029B5B7F1946214A0C9B09
:1028C40013440A461A70029B04AC1D460FCD0FC474
:1028D40095E80F0084E80F000C9B089300230D93E8
:1028E400039B1B781A46174B9B5C002B0DD0039B54
:1028F400181D019B002B01D0134A00E0002204ABF9
:10290400194601F075FF0D9014E0039B1B781A46DD
:102914000C4B9B5C002B0DD1039B03F10C00019B22
:10292400002B01D0094A00E0002204AB194601F053
:10293400F9F80D900D9B18460FB030BD60060020CD
:102944006406002068060020F527000045280000E2
:1029540008B5064B1B68002B03D105495120FEF72F
:10296400D8FF024B1B68984708BD00BF6C060020C7
:10297400BC67000082B00190019B044A934201D1DC
:10298400034B00E00023184602B0704700200040CB
:102994006C06002000B587B001900091019B002BCC
:1029A40003D118497720FEF7B4FF0198FFF7E2FF3F
:1029B4000590059B002B1ED000238DF813300020BA
:1029C400FEF760FF059B1B79002B03D001238DF8D4
:1029D400133005E0059B009A1A60059B01221A71C9
:1029E4000020FEF763FF9DF81330002B03D0112362
:1029F4000393039B02E000230393039B184607B051
:102A04005DF804FBBC67000000B585B00190019B34
:102A1400002B03D10A499B20FEF77BFF0198FFF7A7
:102A2400A9FF0390039B002B05D0039B00221A608F
:102A3400039B00221A7100BF05B05DF804FB00BFC0
:102A4400BC67000082B003468DF807309DF907305B
:102A5400002B0CDB9DF8073003F01F0205499DF99C
:102A640007305B09012000FA02F241F8232000BF7D
:102A740002B0704700E100E082B0034600918DF897
:102A840007309DF90730002B0ADB009BDAB20C49B2
:102A94009DF907305201D2B20B4483F800230BE0B6
:102AA400009BDAB207499DF8073003F00F03043B9B
:102AB4005201D2B20B441A7600BF02B0704700BF75
:102AC40000E100E000ED00E000B583B003460A46F3
:102AD4008DF8073013468DF806309DF80630072B25
:102AE40003D908496B20FEF714FF9DF806209DF9D1
:102AF400073011461846FFF7BFFF00BF03B05DF86B
:102B040004FB00BFF867000000B583B003468DF8EE
:102B140007309DF907301846FFF794FF00BF03B054
:102B24005DF804FB82B003468DF807309DF807304A
:102B340003F1804303F5E04301221A6000BF02B0B1
:102B4400704782B00346ADF80630BDF8063003F195
:102B5400804303F5E0431B68002B14BF01230023CB
:102B6400DBB2184602B0704784B00346ADF80630B5
:102B7400BDF8063003F1804303F5E04300221A60F8
:102B8400BDF8063003F1804303F5E0431B6803936B
:102B9400039B00BF04B0704782B003468DF8073032
:102BA4000B468DF8063013468DF805300A499DF81A
:102BB40007309DF8052051331B010B4404331A6080
:102BC40005499DF807309DF8062051331B010B443D
:102BD4001A6000BF02B070470070004082B00190DC
:102BE400034A019BC2F8043300BF02B0704700BF20
:102BF4000070004082B00190034A019BC2F8083380
:102C040000BF02B0704700BF00700040024B0122B9
:102C1400C3F8002500BF704700700040024B00223B
:102C2400C3F8002500BF70470070004082B00190D7
:102C34000091054A019BC2F82C36034A009BC2F856
:102C4400303600BF02B070470070004082B00346C7
:102C54008DF80730034A9DF80730C2F8F03500BFFD
:102C640002B070470070004082B003468DF8073010
:102C7400034A9DF80730C2F8F43500BF02B070472C
:102C840000700040024BD3F8F435DBB218467047AD
:102C94000070004000B583B0034600918DF8073002
:102CA400009B1B7803F00302009B5B781B0103F07D
:102CB40030031A43009B9B781B0203F4E0631A431E
:102CC400009BDB781B0303F480531A43009B1B799E
:102CD4001B0403F4E0231A43009B5B791B0503F4F4
:102CE400801342EA0301009B9B791B0603F0807268
:102CF4000A489DF807300A431B01034403F5A36304
:102D04001A60009BD979009B1A7A9DF807301846FF
:102D1400FFF742FF00BF03B05DF804FB0070004002
:102D240000B58FB04FF48270FFF70BFF0346002B02
:102D340046D04FF48270FFF717FF8E4B93F82E3076
:102D440083F00103DBB2002B04D18A4B93F82F30BC
:102D5400002B35D000238DF81C30864B5B6808931C
:102D6400844B1B899BB2ADF82430824BDB68002B6B
:102D740003D1804B00221A7419E07E4B1A8B7D4BD1
:102D84005A837C4BDB687B4A53607A4B1A8B794BB2
:102D94001A81784B0022DA60764B93F82E3083F058
:102DA4000103DBB2002B02D00020FFF7BBFE714B06
:102DB4001B6807AA104698476E4B002283F82F2001
:102DC4006C4B93F82E30002B5ED04FF48070FFF7DD
:102DD400B8FE0346002B57D04FF48070FFF7C4FEB3
:102DE400644B5B8B634A92F82D2093421BD9614B51
:102DF4005B8B604A92F82D209B1A9AB25D4B5A83E2
:102E04005C4B5A685B4B1B899BB21946594B5B8BD5
:102E1400CB1A5B001344574A92F82D2011461846EA
:102E2400FFF704FF29E0534B5B8B524A92F82D20A5
:102E3400934214D14F4BDB68002B10D04D4B012231
:102E440083F82F204B4B00225A834A4BDB68494AB4
:102E540092F82D2011461846FFF7E8FE0DE0454B89
:102E64005B8B444A92F82D20934206D1414B0122B8
:102E740083F82F203F4B00225A834FF48270FFF7D0
:102E840073FE0420FFF74EFE4FF48870FFF759FEDF
:102E94000346002B0ED04FF48870FFF765FE354BC8
:102EA40000221A7402238DF81030324B1B6804AAD6
:102EB400104698474FF48A70FFF743FE0346002BF1
:102EC40007D04FF48A70FFF74FFE2A4B00221A7482
:102ED4004CE0284B5B690D9345E00D9B0A930A9BDC
:102EE400002B01D1202303E00A9BB3FA83F3DBB266
:102EF4000C934FF000420C9B22FA03F3DB430D9A30
:102F040013400D930C9B9BB246339BB29B00ADF8D0
:102F14002E30BDF82E301846FFF713FE0346002B63
:102F240021D0BDF82E301846FFF71EFE01238DF880
:102F34000430BDF82E30A3F58C73DB08DBB28DF8BA
:102F44000830BDF82E30A3F58C7303F00403002B76
:102F54000CBF01230023DBB28DF80930054B1B683D
:102F640001AA104698470D9B002BB6D100BF0FB0A5
:102F74005DF804FB7406002000B585B00190009153
:102F8400019B002B03D13249D820FEF7C2FC009BE1
:102F9400002B03D12E49D920FEF7BBFC2D4B93F80F
:102FA4002C30002B03D008230393039B4CE0294AC5
:102FB400009B1360019B1B781846FFF747FE019B9B
:102FC4005B781846FFF750FE019BDA78214B83F8B3
:102FD4002E20204B012283F82C201E4B00221A7431
:102FE4001C4B002283F82D201A4B00225A61194BE6
:102FF400002283F82F206FF00040FFF7FBFD4FF411
:103004008270FFF7B1FD4FF48070FFF7ADFD4FF410
:103014008A70FFF7A9FD019B9B7819460720FFF7EB
:1030240053FD0720FFF770FD0220FFF7D7FD094B82
:1030340093F82E30002B02D00120FFF7CFFDFFF7CD
:10304400E5FD00230393039B184605B05DF804FBDC
:10305400606800007406002000B585B00346009146
:103064008DF80730434B93F82C30002B04D14249A0
:1030740040F22510FEF74DFC9DF80730072B04D9CC
:103084003D494FF49370FEF744FCFFF7FBFD034604
:10309400002B09D0374B93F82D30002B04D0364940
:1030A4004FF49470FEF735FC009BDB79092B03D8B1
:1030B400009BDB79002B04D12F494FF49870FEF765
:1030C40028FC009B1B7A092B04D92B494FF49970D7
:1030D400FEF71FFC274B1B7CDBB2002B03D0112314
:1030E4000393039B41E0009B1B79002B03D0009BBF
:1030F4001B79012B01D1FFF791FD9DF807301D4A83
:103104000C335B0013441B79002B07D1194B93F844
:103114002D300133DAB2174B83F82D209DF8073098
:10312400009AD179134A0C335B0013440A461A718E
:103134009DF80730009A117A0E4A0C335B00134451
:103144000A465A719DF8073000991846FFF7A2FD08
:10315400009B1B79002B03D0009B1B79012B01D111
:10316400FFF754FD00230393039B184605B05DF855
:1031740004FB00BF740600206068000000B585B041
:1031840001900B46ADF802304C4B93F82C30002BD9
:1031940004D14B494FF4E470FEF7BBFBBDF8023099
:1031A400464A92F82D2093FBF2F101FB02F29B1A9E
:1031B400002B04D0424940F2C910FEF7AAFB1220AA
:1031C400FFF718FD3D4B1B7CDBB2022B06D112200E
:1031D400FFF704FD11230393039B6BE0374B1B7C28
:1031E400DBB2012B35D1354BDB68002B06D0022036
:1031F400FFF7F4FC11230393039B5BE02F4A019B2D
:10320400D3602E4ABDF8023013832C4B93F82E3032
:1032140083F00103DBB2002B14D000BF4FF48070A5
:10322400FFF78FFC034683F00103DBB2002BF5D1DB
:103234004FF48070FFF798FCBDF8023019460198EE
:10324400FFF7F4FC0220FFF7C9FC00230393039B60
:1032540030E00220FFF7C2FC184B01221A74174A0F
:10326400019B5360154ABDF802301381134B0022B1
:10327400DA60124B93F82E30002B0BD00F4ABDF8B6
:10328400023053830D4B93F82D3019460198FFF704
:10329400CDFC0CE0BDF8023019460198FFF7C6FCDE
:1032A4004FF48070FFF760FC0020FFF73BFC002325
:1032B4000393039B184605B05DF804FB74060020D5
:1032C4006068000000B583B0124B93F82C30002BDB
:1032D40004D1114940F21320FEF71BFB0023019394
:1032E4000C4B1B7CDBB2012B02D0082301930BE0B7
:1032F400084B93F82E30002B03D00020FFF712FC6C
:1033040002E00420FFF70EFC019B184603B05DF8B1
:1033140004FB00BF740600206068000084B00190C4
:103324000B46ADF80230BDF80230019A1344002276
:103334001A60BDF80230019A13441B680393039B7F
:1033440000BF04B0704782B001900B46ADF8023064
:10335400BDF80230019A13441B68002B14BF0123EB
:103364000023DBB2184602B0704782B0019000918E
:10337400019BD3F80423009B1340002B14BF0123AB
:103384000023DBB2184602B0704782B00190019B63
:103394009B0003F5A0739BB2184602B0704782B03D
:1033A40001904FF48032019B02FA03F3184602B0F5
:1033B400704700B587B00390029113468DF807302B
:1033C40000238DF8173030E09DF817301846FFF7CA
:1033D400DCFF0346ADF814309DF817301846FFF7AC
:1033E400DEFF0490BDF8143019460398FFF7ABFFD5
:1033F4000346002B14D004990398FFF7B6FF034645
:10340400002B0DD0BDF8143019460398FFF786FF42
:10341400029B1B68029A5168BDF814201046984715
:103424009DF8173001338DF817309DF817209DF85B
:1034340007309A42C8D300BF00BF07B05DF804FB51
:1034440008B5042202490348FFF7B3FF00BF08BDD3
:10345400A40600200080004082B003468DF80730A7
:103464009DF90730002B0CDB9DF8073003F01F0299
:1034740005499DF907305B09012000FA02F241F881
:10348400232000BF02B0704700E100E082B0034691
:103494008DF807309DF90730002B13DB9DF80730BA
:1034A40003F01F0209499DF907305B09012000FA66
:1034B40002F2203341F82320BFF34F8F00BFBFF344
:1034C4006F8F00BF00BF02B0704700BF00E100E093
:1034D40082B0034600918DF807309DF90730002B28
:1034E4000ADB009BDAB20C499DF907305201D2B2D3
:1034F4000B4483F800230BE0009BDAB207499DF8E4
:10350400073003F00F03043B5201D2B20B441A7686
:1035140000BF02B0704700BF00E100E000ED00E032
:1035240082B00190019B1B0B5BB2184602B070473E
:1035340000B583B003460A468DF8073013468DF86C
:1035440006309DF80630072B03D908496B20FEF797
:10355400E0F99DF806209DF9073011461846FFF75B
:10356400B7FF00BF03B05DF804FB00BF08690000AB
:1035740000B583B003468DF807309DF9073018462F
:10358400FFF76AFF00BF03B05DF804FB00B583B02A
:1035940003468DF807309DF907301846FFF776FF8C
:1035A40000BF03B05DF804FB84B001900B46ADF896
:1035B4000230BDF80230019A134400221A60BDF8AB
:1035C4000230019A13441B680393039B00BF04B0A9
:1035D400704782B001900B46ADF80230BDF802305E
:1035E400019A13441B68002B14BF01230023DBB290
:1035F400184602B0704782B001900091019B009A76
:10360400C3F8042300BF02B0704782B00190009158
:10361400019BD3F80423009B1340002B14BF012308
:103624000023DBB2184602B0704782B001900091CB
:10363400019B009AC3F8082300BF02B0704784B00E
:103644000190019BD3F880340393019B039AC3F840
:103654008024039B184604B0704782B00190019BFC
:103664000422C3F8002500BF02B0704782B0019065
:10367400019B0022C3F8002500BF02B0704784B04C
:10368400039002910192039B019AC3F81425039BB2
:10369400029AC3F80C2500BF04B0704700B583B08C
:1036A40001904FF0FF324FF0FF310198FFF7E7FF31
:1036B40000BF03B05DF804FB82B00190019BD3F816
:1036C4000C35184602B0704782B00190019BD3F8C4
:1036D4001435184602B0704782B00190019BD3F8AC
:1036E4000835184602B0704782B00190019BD3F8A8
:1036F4001035184602B0704784B0039002910192CD
:10370400039B029AC3F80825039B019AC3F810256A
:1037140000BF04B0704700B583B001904FF0FF3292
:103724004FF0FF310198FFF7E7FF00BF03B05DF8EA
:1037340004FB82B00190019BD3F81835DBB2184624
:1037440002B0704782B001900B468DF803309DF8AB
:103754000320019BC3F81C2500BF02B0704782B050
:1037640001900B468DF803309DF80330019A134401
:1037740001221A6000BF02B0704782B001900B466C
:103784008DF8033013468DF802309DF803209DF820
:1037940002301343DBB21A46019BC3F86C2500BF09
:1037A40002B0704782B001900091019B009AC3F867
:1037B400242500BF02B0704700B583B00190019B7F
:1037C4001B68184600F096F80346002B04D10549FF
:1037D4004FF4F670FEF79DF84FF0A043184603B07F
:1037E4005DF804FB3869000000B585B00190084617
:1037F40011461A4603468DF803300B468DF8023005
:1038040013468DF8013001AB1846FFF7D5FF03903E
:103814009DF803209DF802305B001A439DF80130A7
:103824009B001A439DF818301B0242EA03019DF8DD
:103834001C301B04019A1943039B02F5E07243F800
:10384400221000BF05B05DF804FB00B585B00390FD
:1038540000230193002300930023012201210398F4
:10386400FFF7C2FF00BF05B05DF804FB00B585B0EB
:1038740003900B468DF80B309DF80B30002201921B
:1038840000220092002200210398FFF7ADFF00BF41
:1038940005B05DF804FB00B585B0039000230193E7
:1038A400002300930023012200210398FFF79CFFCB
:1038B40000BF05B05DF804FB00B585B0019001AB15
:1038C4001846FFF779FF0390019B012202FA03F3E4
:1038D4001946039800F004F800BF05B05DF804FB36
:1038E40082B001900091019B009AC3F8082500BFA3
:1038F40002B0704784B00190019B5B0902930023DE
:103904000393029B002B03D14FF0FF33039300BFBB
:10391400019B03F01F030193039A019B22FA03F313
:1039240003F00103002B14BF01230023DBB218466C
:1039340004B0704700B583B001900091009B1B68F0
:10394400B3F1FF3F09D0009B1B681846FFF7B4FF93
:10395400009B1B681846FFF778FF009B5B68B3F178
:10396400FF3F05D0009B5B6800211846FFF77EFFF0
:10397400019B1A68009B9B6919461046FFF712FFCA
:10398400019B1868009B597D009B1B7D1A46FFF71D
:10399400F4FE019B1868009B1968009B5B681A463B
:1039A400FFF76DFE009B1B7D012B22D1009B9B68C2
:1039B400B3F1FF3F05D0009B9B6800211846FFF739
:1039C40055FF009BDB68B3F1FF3F09D0009BDB6828
:1039D4001846FFF771FF009BDB681846FFF735FFB9
:1039E400019B1868009BD968009B9B681A46FFF7E7
:1039F40083FE00BF03B05DF804FB000000B583B094
:103A040001900B468DF80330019B1B684FF48E71B7
:103A14001846FFF7C9FD019B1B684FF4A2711846B5
:103A2400FFF7C2FD019B1B680E491846FFF7E3FD33
:103A3400019B1B681846FFF773FD03461A469DF861
:103A4400033019461046FFF773FD019B1B681846A7
:103A5400FFF766FD03461846FFF78AFD00BF03B073
:103A64005DF804FB8000020000B583B00190019B67
:103A74001B6808491846FFF7D8FD019B1B681846C8
:103A8400FFF74EFD03461846FFF780FD00BF03B065
:103A94005DF804FB8402020000B587B00190019B2D
:103AA4001B681846FFF708FE0590019B1B68184623
:103AB400FFF70AFE0490019B1B681846FFF70CFEF3
:103AC4000390019B1B681846FFF70EFE0290019BB2
:103AD4001B681846FFF7E2FD019B1B681846FFF7B9
:103AE4001AFE059BB3F1FF3F02D00598FFF7D3FE02
:103AF400049BB3F1FF3F02D00498FFF7CCFE029B76
:103B0400B3F1FF3F02D00298FFF7C5FE039BB3F168
:103B1400FF3F02D00398FFF7BEFE00BF07B05DF879
:103B240004FB000000B587B0039002910192029B50
:103B3400002B03D12D49AA20FDF7EBFE039B1B7933
:103B44001A462C2302FB03F3294A1344049300234B
:103B54000593049B93F82A30002B03D00823059384
:103B6400059B3EE0039B1A68039B1B791946214B76
:103B740053F8213019461046FEF70CFF0346002B7C
:103B840003D011230593059B2BE002990398FFF7BB
:103B9400D1FE049B019A5A60029B1A69049B1A6025
:103BA400049B5B68002B05D0029B1B7F194603987E
:103BB400FFF724FF039B1B681846FFF74EFD049B89
:103BC40000229A61049B0022DA61049B002283F89C
:103BD4002920049B00225A61049B012283F82A2095
:103BE400059B184607B05DF804FB00BF7069000030
:103BF400B0060020A869000000B585B00190019BC3
:103C04001B791A462C2302FB03F3114A1344039332
:103C1400019B1B681846FFF729FD039B5B68002B7B
:103C240002D00198FFF720FF0198FFF735FF019BB1
:103C34001B681846FEF7E8FE039B002283F82A203F
:103C4400039B00225A6000BF05B05DF804FB00BF6F
:103C5400B006002000B585B0019000914FF48E713C
:103C64000198FFF7A1FC009B9A68009B1B6A134410
:103C74001B788DF80F30009B1B6A5A1C009B1A623C
:103C84009DF80F3019460198FFF75CFD00BF05B0A1
:103C94005DF804FB00B585B001900091009B5B6961
:103CA400039316E0009B93F82830DBB2002B01D07D
:103CB400002314E04FF48E710198FFF78AFC034649
:103CC40083F00103DBB2002BECD100990198FFF7DC
:103CD400C1FF009B1B6A039A9A42EBD80123184642
:103CE40005B05DF804FB000000B587B003900291B5
:103CF4000192039B1B791A462C2302FB03F33C4AD3
:103D040013440493049B93F82A30012B04D03949BB
:103D14004FF48C70FDF7FDFD029B002B04D1354957
:103D240040F21910FDF7F5FD019B002B04D1314938
:103D34004FF48D70FDF7EDFD039800F05DF8034638
:103D4400002B03D011230593059B4CE0049B019A9F
:103D54005A61049B029A9A60049B00221A62049B93
:103D6400002283F8282000230593039B1B684FF44B
:103D74008E711846FFF718FC039B1B680821184630
:103D8400FFF7EDFC039B1B6804991846FFF762FFDD
:103D9400049B5B68002B25D1039B1B680499184680
:103DA400FFF778FF034683F00103DBB2002B02D058
:103DB4000F23059313E000BF039B1B684FF48E7120
:103DC4001846FFF706FC034683F00103DBB2002B21
:103DD400F2D1039B1B680C211846FFF7C0FC049B1F
:103DE40000225A61059B184607B05DF804FB00BF2A
:103DF400B00600207069000082B00190019B1B791D
:103E04001946074A2C2301FB03F3134414331B689C
:103E1400002B14BF01230023DBB2184602B0704705
:103E2400B006002010B582B001900091009B9B6900
:103E3400002B08D14FF484710198FFF7B5FB01986A
:103E4400FFF777FC13E04FF484710198FFF7ACFBA4
:103E5400009BDA68009B5B6AD4180198FFF769FC41
:103E640003462370009B5B6A5A1C009B5A6202B093
:103E740010BD00B589B003900291019201238DF821
:103E84001030029B0693019B0593039B5B68039A86
:103E9400116804AA1046984700BF09B05DF804FBF6
:103EA40000B587B00190009100238DF80830009B85
:103EB4000493019B9B680393019B00225A61019B1D
:103EC4005B68019A116802AA1046984700BF07B0C0
:103ED4005DF804FB00B58BB0019000914FF40071C4
:103EE4000198FFF792FB0346002B39D04FF49271EF
:103EF4000198FFF76EFB0346002B31D04FF492710B
:103F04000198FFF751FB4FF401710198FFF78DFB06
:103F1400009B93F8293083F00103DBB2002B03D01C
:103F240004210198FFF71BFC02238DF80C30019843
:103F3400FFF785FB03460693009B9B690593009B53
:103F4400DB680493009B00229A61009B0022DA61E3
:103F5400009B5B68009A116803AA1046984752E0D8
:103F640004210198FFF751FB0346002B4BD04FF47B
:103F740084710198FFF72DFB0346002B43D0009971
:103F84000198FFF74FFF009B9A69009B5B6A9A4276
:103F940039D1009BDB69002B19D0009BDB680993A6
:103FA400009B5B6A0893009BDA69009B9A61009B03
:103FB4001A69009BDA60009B0022DA61009B0022F0
:103FC4005A62099A08990098FFF753FF1BE0009B77
:103FD40093F8293083F00103DBB2002B03D00421D2
:103FE4000198FFF7BCFB4FF401710198FFF71DFB2B
:103FF400009B00229A61009B596A009BDB681A4669
:104004000098FFF736FF4FF48E710198FFF7E1FA3D
:104014000346002B24D0009B5B690793009B1B6A1B
:10402400079A9A420DD9009B93F82830DBB283F0AB
:104034000103DBB2002B04D000990198FFF70AFEBC
:104044000EE04FF48E710198FFF7AEFA009B5B69A6
:10405400002B05D0009B5B6919460098FFF720FFF1
:104064004FF4A2710198FFF7B4FA0346002B1CD059
:104074004FF4A2710198FFF797FA009B93F8293047
:10408400002B03D000210198FFF769FB009B9B697B
:10409400002B0AD0009B00229A61009B596A009B66
:1040A400DB681A460098FFF7E4FE00BF0BB05DF82A
:1040B40004FB000008B503490348FFF70BFF00BFEA
:1040C40008BD00BFB00600200020004082B00346B7
:1040D4008DF807309DF90730002B0CDB9DF8073075
:1040E40003F01F0205499DF907305B09012000FA1E
:1040F40002F241F8232000BF02B0704700E100E063
:1041040082B003468DF807309DF90730002B13DB8E
:104114009DF8073003F01F0209499DF907305B0938
:10412400012000FA02F2203341F82320BFF34F8F1D
:1041340000BFBFF36F8F00BF00BF02B0704700BF66
:1041440000E100E082B0034600918DF807309DF94C
:104154000730002B0ADB009BDAB20C499DF90730CB
:104164005201D2B20B4483F800230BE0009BDAB275
:1041740007499DF8073003F00F03043B5201D2B204
:104184000B441A7600BF02B0704700BF00E100E0A4
:1041940000ED00E082B00190019B03F06043B3F1B5
:1041A400005F0CBF01230023DBB2184602B0704746
:1041B40082B00190019B1B0B5BB2184602B07047A2
:1041C40000B583B003460A468DF8073013468DF8D0
:1041D40006309DF80630072B03D908496B20FDF7FC
:1041E40098FB9DF806209DF9073011461846FFF705
:1041F400A9FF00BF03B05DF804FB00BFAC69000079
:1042040000B583B003468DF807309DF90730184692
:10421400FFF75CFF00BF03B05DF804FB00B583B09B
:1042240003468DF807309DF907301846FFF768FFFD
:1042340000BF03B05DF804FB84B001900B46ADF8F9
:104244000230BDF80230019A134400221A60BDF80E
:104254000230019A13441B680393039B00BF04B00C
:10426400704782B001900B46ADF80230BDF80230C1
:10427400019A13441B68002B14BF01230023DBB2F3
:10428400184602B0704782B001900091019BD3F8A8
:104294000022009BDB431A40019BC3F8002200BFAD
:1042A40002B0704782B001900091019B009AC3F85C
:1042B400042300BF02B0704782B001900091019BBB
:1042C400009AC3F8082300BF02B0704784B001907D
:1042D400019BD3F880340393019B039AC3F8802491
:1042E400039B184604B0704782B00190019B0822DA
:1042F400C3F8002500BF02B0704782B00190019B53
:104304000022C3F8002500BF02B0704784B00390B8
:1043140002910192039B029AC3F80C25039B019A14
:10432400C3F8142500BF04B0704700B583B00190F2
:104334004FF0FF324FF0FF310198FFF7E7FF00BF66
:1043440003B05DF804FB82B00190019BD3F80C35F7
:10435400184602B0704782B00190019BD3F814351F
:10436400184602B0704782B00190019BD3F808351B
:10437400184602B0704782B00190019BD3F8103503
:10438400184602B0704784B0039002910192039BD7
:10439400029AC3F80825039B019AC3F8102500BFAD
:1043A40004B0704700B583B001904FF0FF324FF076
:1043B400FF310198FFF7E7FF00BF03B05DF804FB8E
:1043C40082B001900B468DF803309DF80330019ABA
:1043D400134401221A6000BF02B0704782B00190FA
:1043E4000B468DF8033013468DF802309DF80320F8
:1043F4009DF802301343DBB21A46019BC3F86C25C7
:1044040000BF02B0704782B001900091019B009AF6
:10441400C3F8242500BF02B0704784B00390029112
:104424000192029A039BC3F84425039B019AC3F8A3
:10443400482500BF04B0704782B00190019BD3F8B7
:104444004C35184602B0704782B00190019BD3F8F6
:104454003C35184602B0704700B583B00190019B0B
:104464001B68184600F096F80346002B04D1054952
:104474004FF4F670FDF74DFA4FF0A043184603B021
:104484005DF804FBDC69000000B585B001900846C6
:1044940011461A4603468DF803300B468DF8023058
:1044A40013468DF8013001AB1846FFF7D5FF039092
:1044B4009DF803209DF802305B001A439DF80130FB
:1044C4009B001A439DF818301B0242EA03019DF831
:1044D4001C301B04019A1943039B02F5E07243F854
:1044E400221000BF05B05DF804FB00B585B0039051
:1044F4000023019300230093002301220121039848
:10450400FFF7C2FF00BF05B05DF804FB00B585B03E
:1045140003900B468DF80B309DF80B30002201926E
:1045240000220092002200210398FFF7ADFF00BF94
:1045340005B05DF804FB00B585B00390002301933A
:10454400002300930023012200210398FFF79CFF1E
:1045540000BF05B05DF804FB00B585B0019001AB68
:104564001846FFF779FF0390019B012202FA03F337
:104574001946039800F004F800BF05B05DF804FB89
:1045840082B001900091019B009AC3F8082500BFF6
:1045940002B0704784B00190019B5B090293002331
:1045A4000393029B002B03D14FF0FF33039300BF0F
:1045B400019B03F01F030193039A019B22FA03F367
:1045C40003F00103002B14BF01230023DBB21846C0
:1045D40004B0704700B583B001900091009B1B6844
:1045E400B3F1FF3F09D0009B1B681846FFF7B4FFE7
:1045F400009B1B681846FFF778FF009B5B68B3F1CC
:10460400FF3F05D0009B5B6800211846FFF77EFF43
:10461400019B1A68009B9B6919461046FFF7F3FE3D
:10462400019B1868009B597D009B1B7D1A46FFF770
:10463400D5FE019B1868009B1968009B5B681A46AD
:10464400FFF764FE009B1B7D012B22D1009B9B681E
:10465400B3F1FF3F05D0009B9B6800211846FFF78C
:1046640055FF009BDB68B3F1FF3F09D0009BDB687B
:104674001846FFF771FF009BDB681846FFF735FF0C
:10468400019B1868009BD968009B9B681A46FFF73A
:104694007AFE00BF03B05DF804FB000000B583B0F0
:1046A40001900B468DF80330019B1B684FF4887111
:1046B4001846FFF7C1FD019B1B684FF49071184623
:1046C400FFF7BAFD019B1B684FF492711846FFF780
:1046D400B3FD019B1B684FF4A2711846FFF7ACFDB4
:1046E400019B1B684FF4AC711846FFF7A5FD019BB5
:1046F4001B680F491846FFF7D5FD019B1B68184638
:10470400FFF756FD03461A469DF803301946104636
:10471400FFF756FD019B1B681846FFF749FD03464A
:104724001846FFF76DFD00BF03B05DF804FB00BF42
:104734001003420000B583B00190019B1B68084937
:104744001846FFF7B9FD019B1B681846FFF730FDBB
:1047540003461846FFF762FD00BF03B05DF804FB93
:104764001003420000B587B00190019B1B681846F6
:10477400FFF7E9FD0590019B1B681846FFF7EBFD69
:104784000490019B1B681846FFF7EDFD0390019B05
:104794001B681846FFF7EFFD0290019B1B68184643
:1047A400FFF7C3FD019B1B681846FFF7FBFD059B44
:1047B400B3F1FF3F02D00598FFF7BDFE049BB3F1B0
:1047C400FF3F02D00498FFF7B6FE029BB3F1FF3F10
:1047D40002D00298FFF7AFFE039BB3F1FF3F02D074
:1047E4000398FFF7A8FE00BF07B05DF804FB0000C4
:1047F40000B587B0039002910192029B002B03D174
:104804002B49CF20FDF785F8039B1B791A461346E5
:10481400DB0013449B00274A1344049300230593AD
:10482400049B93F82030002B03D008230593059BA9
:104834003AE0039B1A68039B1B7919461E4B53F8F5
:10484400213019461046FEF7A5F80346002B03D085
:1048540011230593059B27E002990398FFF7BAFEFD
:10486400049B019A5A60029B1A69049B1A60049B78
:104874005B68002B05D0029B1B7F19460398FFF74A
:104884000DFF039B1B681846FFF72EFD049B0022B7
:104894009A61049B0022DA61049B00225A61049B02
:1048A400012283F82020059B184607B05DF804FB1D
:1048B400146A0000DC0600204C6A000000B585B0D4
:1048C4000190019B1B791A461346DB0013449B009D
:1048D4002A4A13440393019B1B680293039B5B685E
:1048E400002B02D00198FFF725FF20210298FFF743
:1048F400CAFC039B9B69002B08D04FF4A271029859
:10490400FFF79AFC04210298FFF75AFD4FF4AC71AB
:104914000298FFF791FC0C210298FFF751FD00BFAC
:104924004FF4AC710298FFF79CFC034683F001033B
:10493400DBB2002BF4D1039B9B69002B0AD04FF40C
:10494400A2710298FFF78DFC034683F00103DBB2EA
:10495400002BE5D10298FFF7D0FC0198FFF702FF86
:104964000298FEF751F8039B002283F82020039B52
:1049740000225A6000BF05B05DF804FBDC0600208D
:1049840000B589B0039002910192039B1B791A46EA
:104994001346DB0013449B00564A13440593059BBE
:1049A40093F82030012B04D0534940F25310FCF704
:1049B400B0FF029B002B04D14F494FF4AA70FCF7BF
:1049C400A8FF019B002B04D14B4940F25510FCF782
:1049D400A0FF039B1B79002B02D1019BFF2B04D961
:1049E40045494FF4AB70FCF794FF0298FFF7D2FBF4
:1049F400034683F00103DBB2002B03D0102307939B
:104A0400079B73E0039800F079F80346002B03D06A
:104A140011230793079B69E0059B019A5A61059B43
:104A2400029A9A6000230793039B1B684FF49071CA
:104A34001846FFF701FC039B1B684FF4AC71184642
:104A4400FFF7FAFB039B1868059B9968059B5B6954
:104A54001A46FFF7E2FC039B1B6808211846FFF780
:104A6400AFFC059B5B68002B3FD1039B1B684FF495
:104A740090711846FFF7F5FB03468DF81B30039B36
:104A84001B684FF4AC711846FFF7EBFB03468DF837
:104A94001A309DF81B3083F00103DBB2002B06D0E3
:104AA4009DF81A3083F00103DBB2002BDDD19DF8B1
:104AB4001A30002B02D00F23079313E0039B1B68CB
:104AC4000C211846FFF77CFC00BF039B1B684FF4C6
:104AD400AC711846FFF7C5FB034683F00103DBB254
:104AE400002BF2D1059B00225A61079B184609B09E
:104AF4005DF804FBDC060020146A000082B001901B
:104B0400019B1B791946084A0B46DB000B449B00AA
:104B1400134414331B68002B14BF01230023DBB29E
:104B2400184602B0704700BFDC06002000B589B00B
:104B340003900291019201238DF81030029B069399
:104B4400019B0593039B5B68039A116804AA1046B2
:104B5400984700BF09B05DF804FB00B587B0019029
:104B6400009100238DF80830009B0493019B9B68FF
:104B74000393019B00225A61019B5B68019A1168AF
:104B840002AA1046984700BF07B05DF804FB00B5C1
:104B940089B0019000914FF492710198FFF761FB85
:104BA4000346002B22D04FF492710198FFF744FB87
:104BB40002238DF808300198FFF788FB034605931C
:104BC4000198FFF741FC03460493009BDB680393C1
:104BD400009B00229A61009B0022DA61009B5B68C3
:104BE400009A116802AA104698473BE04FF4887176
:104BF4000198FFF736FB0346002B33D04FF488713E
:104C04000198FFF719FB0198FFF71EFC0790009B22
:104C14009B69079A9A4225D1009BDB69002B17D028
:104C2400009BDB68069320210198FFF72CFB009B77
:104C3400DA69009B9A61009B1A69009BDA60009B09
:104C44000022DA61069A07990098FFF76FFF09E0DE
:104C5400009B00229A61009BDB681A460799009822
:104C6400FFF764FF4FF4A2710198FFF7FAFA0346C5
:104C7400002B18D04FF4A2710198FFF7DDFA009BC6
:104C84009B69002B0FD0009B00229A61009B00229D
:104C9400DA610198FFF7D8FB0146009BDB681A46EE
:104CA4000098FFF743FF4FF490710198FFF7D9FA8A
:104CB4000346002B14D04FF490710198FFF7BCFA0F
:104CC4000C210198FFF77CFB009B5B69002B07D04C
:104CD4000198FFF7B1FB034619460098FFF73DFF23
:104CE4004FF4AC710198FFF7BCFA0346002B10D0C7
:104CF4004FF4AC710198FFF79FFA009B5B69002B9E
:104D040007D00198FFF798FB034619460098FFF770
:104D140024FF00BF09B05DF804FB000008B5034997
:104D24000348FFF734FF00BF08BD00BFDC060020C6
:104D34000020004000B585B00190019B002B0AD0F3
:104D4400074B43F001030393019B9B010293039BD5
:104D54000298984700E000BF05B05DF804FB00BF6F
:104D6400206B000000B583B001900091019B002BE3
:104D740001D1054B019300990198FEF7FDF8034614
:104D8400184603B05DF804FB186B000000B583B04F
:104D94000190019B002B0AD04FF47A70FFF7CAFFF1
:104DA400019B013B0193019B002BF5D100E000BF67
:104DB40003B05DF804FB00000000000000B589B0FA
:104DC4000390039B1B78002B40F0A180039B5B683E
:104DD40005211846FEF7D2F90690069B0593059B1C
:104DE400002B04D04F4A24210598FCF79FFC4E4A1F
:104DF4004E4BD31ADB081B0443F003034C491846FB
:104E0400FBF7D4FF002307937DE0474A474BD31AAF
:104E1400DB081B0443F00300039B5A68079B5B00F9
:104E24001344B3F900301A464249FBF7CDFF039B04
:104E34005A68079B5B001344B3F90030184600F02E
:104E4400E9FE36A3D3E9002300F06AFD02460B46CF
:104E5400104619464FF00002374B00F0F9FD0246A8
:104E64000B461046194600F0E7FE034604932E4A0B
:104E74002E4BD31ADB081B0443F00300DDED047A48
:104E8400F5EEC07AF1EE10FA0AD5DDED047ABFEE44
:104E9400007AF4EEC77AF1EE10FA01DD274A00E059
:104EA400274ADDED047AFDEEE77A17EE901ADDED80
:104EB400047AF5EEC07AF1EE10FA0ADDDDED047A3B
:104EC400FDEEE77AF8EEE77A9DED047A77EE677AFD
:104ED40009E0DDED047AFDEEE77AB8EEE77ADDED80
:104EE400047A77EE677A9FED177A67EE877AFDEE9C
:104EF400E77A17EE903A00930B461349FBF789FFC4
:104F0400079B01330793079B042B7FF77EAF00BFFA
:104F140009B05DF804FB00BFAFF30080CDCCCCCC6E
:104F2400CCCC0C40506A0000305E0000005E0000F3
:104F34009C6A0000B46A00000000B040CC6A000023
:104F4400D06A00000000C842D46A000000B589B0ED
:104F5400224A6B4607CA03C31A7021490020FFF78F
:104F640001FF0790079B0693069B002B04D01D4A64
:104F74003B210698FCF7DAFB6B4619460020FEF746
:104F84006BF80790079B0593059B002B04D0154AEB
:104F94003E210598FCF7CAFB05211348FEF7EEF8FD
:104FA4000790079B0493049B002B04D00D4A4121D6
:104FB4000498FCF7BBFB05210C48FEF7DFF80790CB
:104FC400079B0393039B002B04D0064A44210398B8
:104FD400FCF7ACFB00BF09B05DF804FBF06A00000D
:104FE400C14D0000506A0000000700200A0700209D
:104FF40000B583B000210020FBF70AFC0190019B5F
:10500400002B04D00E4A4C210198FCF78FFBFBF7D0
:1050140095FBFFF79BFF0B4A0B4BD31ADB081B04D2
:1050240043F0030309491846FBF7C0FEFBF730FFC2
:10503400FEF748F94FF47A70FFF7A8FEF6E700BFD1
:10504400506A0000305E0000005E0000FC6A000050
:10505400BFF34F8F00BF064BDB6803F4E0620449E3
:10506400044B1343CB60BFF34F8F00BF00BFFDE77A
:1050740000ED00E00400FA0582B01D4B1B68B3F19B
:10508400FF3F0AD11B4B1B68DBB201931A4B1B6811
:105094001B0903F00F03009305E0154B1B680193F4
:1050A400164B1B680093019B062B1DD1009B033BF1
:1050B400042B17D801A252F823F000BFD5500000EA
:1050C400D9500000DD500000E1500000E550000020
:1050D40001230AE0012308E0012306E0012304E0A0
:1050E400012302E0012300E00023184602B07047C8
:1050F40030010010E00F00F0E80F00F03401001060
:1051040082B0174B1B68DBB20193164B1B681B095B
:1051140003F00F030093019B062B1DD1009B033B5F
:10512400042B17D801A252F823F000BF4551000008
:10513400495100004D5100005151000055510000EB
:1051440001230AE0002308E0002306E0002304E032
:10515400002302E0002300E00023184602B0704759
:10516400E00F00F0E80F00F082B01D4B1B68B3F1B4
:10517400FF3F0AD11B4B1B68DBB201931A4B1B6820
:105184001B0903F00F03009305E0154B1B68019303
:10519400164B1B680093019B062B1DD1009B033B00
:1051A400042B17D801A252F823F000BFC551000008
:1051B400C9510000CD510000D1510000D55100006B
:1051C40001230AE0012308E0012306E0012304E0AF
:1051D400012302E0012300E00023184602B07047D7
:1051E40030010010E00F00F0E80F00F0340100106F
:1051F40082B0174B1B68DBB20193164B1B681B096B
:1052040003F00F030093019B062B1DD1009B033B6E
:10521400042B17D801A252F823F000BF3552000026
:10522400395200003D520000415200004552000036
:1052340001230AE0002308E0002306E0002304E041
:10524400002302E0002300E00023184602B0704768
:10525400E00F00F0E80F00F082B01D4B1B68B3F1C3
:10526400FF3F0AD11B4B1B68DBB201931A4B1B682F
:105274001B0903F00F03009305E0154B1B68019312
:10528400164B1B680093019B062B1DD1009B033B0F
:10529400042B17D801A252F823F000BFB552000026
:1052A400B9520000BD520000C1520000C5520000B6
:1052B40001230AE0012308E0012306E0012304E0BE
:1052C400012302E0012300E00023184602B07047E6
:1052D40030010010E00F00F0E80F00F0340100107E
:1052E40082B0174B1B68DBB20193164B1B681B097A
:1052F40003F00F030093019B062B1DD1009B033B7E
:10530400042B17D801A252F823F000BF2553000044
:10531400295300002D530000315300003553000081
:1053240001230AE0002308E0002306E0002304E050
:10533400002302E0002300E00023184602B0704777
:10534400E00F00F0E80F00F082B0174B1B68DBB2EF
:105354000193164B1B681B0903F00F030093019B79
:10536400062B1DD1009B033B042B17D801A252F836
:1053740023F000BF8D5300009153000095530000AB
:10538400995300009D53000001230AE0002308E024
:10539400002306E0002304E0002302E0002300E0F1
:1053A4000023184602B07047E00F00F0E80F00F049
:1053B40082B01D4B1B68B3F1FF3F0AD11B4B1B6826
:1053C400DBB201931A4B1B681B0903F00F03009314
:1053D40005E0154B1B680193164B1B680093019B5A
:1053E400062B1DD1009B033B042B17D801A252F8B6
:1053F40023F000BF0D5400001154000015540000A8
:10540400195400001D54000000230AE0002308E0A2
:10541400012306E0012304E0012302E0012300E06C
:105424000023184602B0704730010010E00F00F06E
:10543400E80F00F03401001082B01D4B1B68B3F17B
:10544400FF3F0AD11B4B1B68DBB201931A4B1B684D
:105454001B0903F00F03009305E0154B1B68019330
:10546400164B1B680093019B062B1DD1009B033B2D
:10547400042B17D801A252F823F000BF9554000062
:10548400995400009D540000A1540000A55400004C
:1054940001230AE0012308E0012306E0012304E0DC
:1054A400012302E0012300E00023184602B0704704
:1054B40030010010E00F00F0E80F00F0340100109C
:1054C40082B01D4B1B68B3F1FF3F0AD11B4B1B6815
:1054D400DBB201931A4B1B681B0903F00F03009303
:1054E40005E0154B1B680193164B1B680093019B49
:1054F400062B1DD1009B033B042B17D801A252F8A5
:1055040023F000BF1D550000215500002555000063
:10551400295500002D55000001230AE0012308E06D
:10552400012306E0012304E0012302E0012300E05B
:105534000023184602B0704730010010E00F00F05D
:10554400E80F00F03401001082B0154B1B68019382
:10555400144B1B680093019B062B1DD1009B033B3E
:10556400042B17D801A252F823F000BF8555000080
:10557400895500008D550000915500009555000097
:1055840000230AE0002308E0002306E0012304E0EE
:10559400012302E0012300E00023184602B0704713
:1055A400300100103401001082B0154B1B680193C8
:1055B400144B1B680093019B062B1DD1009B033BDE
:1055C400042B17D801A252F823F000BFE5550000C0
:1055D400E9550000ED550000F1550000F5550000B7
:1055E40000230AE0002308E0002306E0002304E08F
:1055F400012302E0012300E00023184602B07047B3
:10560400300100103401001008B5FFF7CDFF034648
:10561400002B07D04FF010234FF08042D3F808320C
:10562400C2F8583500BF08BD00BF044BD3F800349E
:10563400002BFAD000BF00BF704700BF00E001405C
:1056440000B583B00190054A019BC2F80435FFF709
:10565400EBFF00BF03B05DF804FB00BF00E00140B6
:10566400024B034A1A6000BF704700BF5800002075
:105674000090D00308B5FFF7FFFC0346002B06D0CB
:10568400964B1B681B0A964A03F01F031360FFF72F
:1056940037FD0346002B02D0924B934A1A60FFF762
:1056A40063FD0346002B06D0904B1B685B0B904AAE
:1056B40003F007031360FFF79BFD0346002B05D09F
:1056C4008C4BDB688B4A23F08073D360FFF7C4FDF7
:1056D4000346002B0ED04FF080430022C3F80C2168
:1056E4004FF080430022C3F810214FF08043002282
:1056F400C3F83825FFF7F4FD0346002B02D07E4B98
:1057040003221A60FFF720FE0346002B0BD07B4BCD
:1057140005221A607A4B01221A607A4B00221A6021
:10572400794B3F221A60FFF743FE0346002B76D0E5
:105734004FF08053754AD3F80434C2F820354FF043
:105744008053724AD3F80834C2F824354FF080539A
:105754006E4AD3F80C34C2F828354FF080536B4AA4
:10576400D3F81034C2F82C354FF08053674AD3F87D
:105774001434C2F830354FF08053644AD3F81834E7
:10578400C2F834354FF08053604AD3F81C34C2F861
:1057940040354FF080535D4AD3F82034C2F8443585
:1057A4004FF08053594AD3F82434C2F848354FF0A7
:1057B4008053564AD3F82834C2F84C354FF08053FE
:1057C400524AD3F82C34C2F850354FF080534F4A24
:1057D400D3F83034C2F854354FF080534B4AD3F8E1
:1057E4003434C2F860354FF08053484AD3F8383423
:1057F400C2F864354FF08053444AD3F83C34C2F8BD
:1058040068354FF08053414AD3F84034C2F86C35C0
:105814004FF080533D4AD3F84434C2F87035FFF753
:105824000BFE0346002B05D0394B1B68394A03F0A5
:105834004F031360FFF744FE0346002B0DD04FF0D7
:105844008043D3F8003403F00103002B05D04FF05C
:1058540080436FF00102C3F80024FFF775FE03468E
:10586400002B05D02C4B1B682B4A43F48063136038
:105874002A4BD3F88830294A43F47003C2F888309D
:10588400BFF34F8F00BFBFF36F8F00BFFFF7BCFEA6
:105894004FF01023D3F80032002B05DB4FF0102318
:1058A400D3F80432002B15DA0120FFF7C9FE4FF0BC
:1058B40010231522C3F80022FFF7B6FE4FF0102381
:1058C4001522C3F80422FFF7AFFE0020FFF7B8FE4D
:1058D400FFF7BEFBFFF7C4FE00BF08BD24030010A2
:1058E4004035014074C007400DF0ADBA44020010C9
:1058F4003C050040F0ED00E0A005004010560040DB
:1059040088560040185600401456004000C000401D
:1059140058020010E40E00403C17004000ED00E087
:10592400F0B540F2FF7681EA030C16EA115E1EBF61
:10593400B64516EA1355B54252D021EA465141F410
:105944008011A1FB024723EA465343F48013AE447B
:10595400A0FB03650CF0004C36197D41A1FB034705
:1059640047F10003A0FB0217F619654153F1000348
:10597400094218BF46F0010640F2FE74B3F5007FF9
:1059840013D2AEF5806EA64523D24CEA0331280328
:1059940041EA155140EA16503203450872F10042BB
:1059A40050F1000051EB0E51F0BDAEF2FF3EA645A2
:1059B4000FD24CEAC321E80241EA555140EA56505D
:1059C400F202450872F1004250F1000051EB0E5111
:1059D400F0BD1EEA0E0F2DD50CF000410020F0BDE5
:1059E40016EA115F04BF01F000410020004218BF15
:1059F40041F0010116EA135F04BF03F000430022E3
:105A0400124218BF43F0010306EA1354B44218BF0C
:105A1400B64503D00CF000410020F0BD21F0004158
:105A240023F00043B1EB065F0CD8B3EB065F09D853
:105A340041B13BB10CF0004141F0FE4141F4700131
:105A44000020F0BD40F20001C7F6F8710020F0BD5F
:105A54002DE9F04391EA030E0EF0004E40F20007E8
:105A6400CFF6E07717EA41051EBFBD4217EA4305AA
:105A7400BD4200F09F807F0D17EA135623EA475377
:105A840043F4801317EA115521EA475141F4801178
:105A9400AD1B05F2FD354FEAD31C1CF1010C4FF090
:105AA4000047B7FBFCF77F01A2FB079C0024E3FB44
:105AB40007C4D9F100096CEB4C0CA0FB0762002071
:105AC400E1FB072000275FEAC628E0FB0987760D83
:105AD40046EAC226520DF61900277A41E0FB0C6211
