:020000022000DC
:106000000000012019620200016202000362020026
:10601000056202000762020009620200000000003F
:106020000000000000000000000000000B62020001
:106030000D620200000000000F6202001162020007
:1060400085F8020013620200E905030013620200F2
:106050001362020013620200E504030013620200EF
:106060001362020013620200136202001362020054
:106070001362020013620200136202001362020044
:10608000136202004D390300136202001362020022
:106090001362020013620200D18503001362020042
:1060A0001362020013620200136202001362020014
:1060B00013620200136202000000000000000000F2
:1060C00013620200136202001362020013620200F4
:1060D000136202001362020013620200000000005B
:1060E00000000000000000000000000000000000B0
:1060F00000000000000000000000000000000000A0
:10610000000000000000000000000000000000008F
:10611000000000000000000000000000000000007F
:10612000000000000000000000000000000000006F
:10613000000000000000000000000000000000005F
:10614000000000000000000000000000000000004F
:10615000000000000000000000000000000000003F
:10616000000000000000000000000000000000002F
:10617000000000000000000000000000000000001F
:10618000000000000000000000000000000000000F
:1061900000000000000000000000000000000000FF
:1061A00000000000000000000000000000000000EF
:1061B00000000000000000000000000000000000DF
:1061C00000000000000000000000000000000000CF
:1061D00000000000000000000000000000000000BF
:1061E00000000000000000000000000000000000AF
:1061F000000000000000000000000000000000009F
:10620000FEE7FEE7FEE7FEE7FEE7FEE7FEE7FEE766
:10621000FEE7FEE700F002B8FFF7FCBF0F484FF0C3
:106220000701884385460E4880470E48016841F4BF
:1062300070010160BFF34F8FBFF36F8F00F01AB88A
:1062400009480A490A4A884207D0521A05D00378F9
:1062500001300B700131013AF9D170470000012083
:10626000357E020088ED00E0EC8E03005022002015
:10627000642200203A493B480A1A02D0072291437F
:106280008D46394939480A1A06D00722914381F3CD
:106290000988022282F3148835483649364A00F0CC
:1062A00041F836483649374A00F03CF83648374915
:1062B000374A00F037F837483749384A00F032F8A3
:1062C00037483849384A00F02DF838483849394AB3
:1062D00000F028F838483949394A00F023F839489D
:1062E0003949002200F036F838483949002200F0D8
:1062F00031F838483849091A12F030FC374A9047CB
:1063000025482649884205D00268043003B49047E6
:1063100003BCF7E700208646EC4600200021304A07
:106320009047FEE7884214D0521A12D003460B431E
:1063300013430324234206D1036804300B60043165
:10634000043AF9D17047037801300B700131013AFA
:10635000F9D17047884202D002700130FAE77047E5
:106360000000012000E000200000012000000120CA
:1063700078C603006422002074230020E463020036
:10638000E4630200868D030078C6030064220020C7
:1063900064220020008F0300008F0300008F0300A1
:1063A000008F0300008F0300008F0300008F0300A5
:1063B000008F030075C6030088C703007423002004
:1063C00074230020742300200033002000330020B9
:1063D00000330020003300200053002041620200FF
:0463E000BD69020091
:1063E40076DF704700BF18467ADF704700BF184653
:1063F4007CDF704700BF18468FDF704700BF184628
:1064040000B587B001AB00221A605A609DF80030D5
:10641400012262F303038DF800309DF8003001225D
:1064240062F307138DF800306B46072216491846AD
:10643400FFF7DEFF0590059B0493049B002B04D01B
:10644400124A432104980CF003F9A023ADF8063056
:106454005023ADF80430C823ADF80A300023ADF85A
:10646400083001AB1846FFF7BFFF0590059B039367
:10647400039B002B04D0054A4B2103980CF0E8F849
:1064840000BF07B05DF804FB008F0300088F030012
:1064940000B583B00021094805F03AFD0190019B45
:1064A4000093009B002B04D0054A522100980CF065
:1064B400CFF800BF03B05DF804FB00BF80230020C9
:1064C400088F030000B583B00190044A5821019855
:1064D4000CF0BEF800BF03B05DF804FB088F0300A6
:1064E40000B585B0002301930A4B019301AB194613
:1064F400094805F0F1FD0390039B0293029B002BD6
:1065040004D0064A632102980CF0A2F800BF05B03B
:106514005DF804FBC964020074230020088F0300A3
:1065240000B585B0019000230393019B1B78002BD9
:1065340011D1124B1B689BB23B211846FFF750FF49
:106544000390039B0293029B002B04D00C4A6D2101
:1065540002980CF07DF8019B1B78012B0AD1094AA3
:10656400094BD31ADB081B0443F0030307491846FD
:1065740011F012F900BF05B05DF804FB642200209D
:10658400088F03003C8E0300148E03005C8F03000D
:1065940000B583B00190044A7B2101980CF058F8AF
:1065A40000BF03B05DF804FB088F030000B58BB097
:1065B40001AB00221A605A609A60DA601A615A616B
:1065C4009A61002301934FF4A03302934FF44043A4
:1065D400039303238DF810300023ADF81230002309
:1065E4008DF814300B4B07930B4B069301AB1846F5
:1065F40003F020F90990099B0893089B002B04D011
:10660400064A902108980CF023F800BF0BB05DF8FF
:1066140004FB00BF9565020025650200088F030096
:1066240000B587B003468DF807309DF80730002B7E
:106634001BD0032B28D1194A194BD31ADB081B048E
:1066440043F003031749184611F0A6F8022000F09E
:106654005DFF0590059B0493049B002B16D0124A02
:106664009C2104980BF0F4FF10E0002000F04EFF92
:106674000590059B0393039B002B09D00A4AA12193
:1066840003980BF0E5FF03E000BF02E000BF00E069
:1066940000BF00BF07B05DF804FB00BF3C8E0300E1
:1066A400148E0300748F0300088F030000B5B3B089
:1066B40005ABAC220021184612F0C8FA1D4A03AB00
:1066C40092E803001860043319805923ADF80030B0
:1066D40003AB02930623ADF8043002238DF8143083
:1066E40001238DF8163006238DF817306B460E9370
:1066F40001238DF890304FF4967327930023289349
:106704000D4B2E9305AB19460C4802F031FD319028
:10671400319B3093309B002B04D0094AC52130981B
:106724000BF096FF0121054802F015FD00BF33B0C0
:106734005DF804FB908F030025660200942300207B
:10674400088F030000B589B00190009100230793DE
:10675400019B1B88212B42D0212B5CDC102B0DD0FC
:10676400112B58D12E4A2F4BD31ADB081B0443F0AC
:1067740003032D49184611F00FF84CE0284A294B21
:10678400D31ADB081B0443F003032849184611F00D
:1067940003F8072000F0BAFE0790079B0593059BBA
:1067A400002B04D0224ADC2105980BF051FF019BF9
:1067B4009B881A461F4B1A601E4B1B689BB21946D6
:1067C4001D4805F0ABFC0790079B0493049B002B2A
:1067D4001ED0174AE02104980BF03AFF18E000237A
:1067E4008DF80C3000238DF80D30019B9B8803AA93
:1067F40011461846FFF700FE0790079B0693069B79
:10680400002B07D00A4AEC2106980BF021FF01E087
:1068140000BF00E000BF00BF09B05DF804FB00BF8B
:106824003C8E0300148E0300988F0300BC8F03007A
:10683400088F0300642200207423002000B587B071
:1068440011F0E4FD0590059B0493049B002B04D0F8
:10685400144AF62104980BF0FBFE0023019301ABCC
:106864001946012011F0E8FE0590059B0393039B54
:10687400002B04D00B4AFA2103980BF0E9FE01AB7C
:10688400184611F0CDFF0590059B0293029B002B47
:1068940004D0044AFD2102980BF0DAFE00BF07B0D1
:1068A4005DF804FB088F030000B583B010F0E6F830
:1068B4000190019B0093009B002B05D0044A4FF4E8
:1068C400847100980BF0C4FE00BF03B05DF804FBB4
:1068D400088F030008B510F0D1FF034683F00103CD
:1068E400DBB2002B01D010F0DFF800BF08BD0000C0
:1068F40000B583B00021012000F022FE0190019B2D
:106904000093009B002B05D0044A40F21911009813
:106914000BF09EFE00BF03B05DF804FB088F03007C
:1069240000B583B00CF044FA0190019B0093009BE6
:10693400002B05D0044A4FF4907100980BF088FEA8
:1069440000BF03B05DF804FB088F030000B583B0FB
:106954004FF48041002010F049FC0190019B00930A
:10696400009B002B05D0064A40F2271100980BF03B
:106974006FFE10F0D1FB00BF03B05DF804FB00BF55
:10698400088F030000B583B00321094802F0C8FC56
:106994000190019B0093009B002B05D0054A40F217
:1069A400311100980BF054FE00BF03B05DF804FBF6
:1069B40094230020088F030008B5FFF7C7FFFFF7F3
:1069C400AFFFFFF795FFFFF76FFFFFF737FFFFF705
:1069D40017FDFFF75DFDFFF769FEFFF781FDFFF788
:1069E400E5FD0D4A0D4BD31ADB081B0443F00303EA
:1069F4000B49184610F0D0FEFFF7C4FF064A074BB8
:106A0400D31ADB081B0443F003030649184610F0AD
:106A1400C3FEFFF75FFFFCE73C8E0300148E030008
:106A2400DC8F0300F88F030000B583B00190019B55
:106A34001B68184600F0F4F80346002B04D10549FE
:106A44004FF4F6700EF0E6FA4FF0A043184603B088
:106A54005DF804FB0C90030000B585B00190084676
:106A640011461A4603468DF803300B468DF8023062
:106A740013468DF8013001AB1846FFF7D5FF03909C
:106A84009DF803209DF802305B001A439DF8013005
:106A94009B001A439DF818301B0242EA03019DF83B
:106AA4001C301B04019A1943039B02F5E07243F85E
:106AB400221000BF05B05DF804FB00B585B003905B
:106AC4000023019300230093002301220121039852
:106AD400FFF7C2FF00BF05B05DF804FB00B585B049
:106AE40003900B468DF80B309DF80B300022019279
:106AF40000220092002200210398FFF7ADFF00BF9F
:106B040005B05DF804FB00B585B0019001AB1846F3
:106B1400FFF78AFF0390019B012202FA03F319464F
:106B2400039800F069F800BF05B05DF804FB00B5F8
:106B340085B0019001AB1846FFF776FF0390019BE7
:106B4400012202FA03F31946039800F05FF800BF2C
:106B540005B05DF804FB00B585B0019001AB1846A3
:106B6400FFF762FF0390039BD3F804350293029B63
:106B7400DA43019B012101FA03F31A40039BC3F892
:106B84000825019B01229A40029B1A40039BC3F8EB
:106B94000C2500BF05B05DF804FB00B583B001907F
:106BA4000091009B002B03D10198FFF7C0FF02E086
:106BB4000198FFF7A8FF00BF03B05DF804FB00B520
:106BC40085B0019001AB1846FFF72EFF03900398A0
:106BD40000F00AF80246019B22FA03F303F00103D2
:106BE400184605B05DF804FB82B00190019BD3F810
:106BF4000435184602B0704782B001900091019BA1
:106C0400009AC3F8082500BF02B0704782B0019013
:106C14000091019B009AC3F80C2500BF02B0704795
:106C240084B00190019B5B09029300230393029BB0
:106C3400002B03D14FF0FF33039300BF019B03F0FC
:106C44001F030193039A019B22FA03F303F0010348
:106C5400002B14BF01230023DBB2184604B0704795
:106C640000B585B00190019B032B03D911493A204B
:106C74000EF0D0F9104A019B13441B781846FFF715
:106C84009EFF0346002B14BF012300238DF80F3011
:106C94009DF80F30002B14BF01230023DBB283F0D7
:106CA4000103DBB203F00103DBB2184605B05DF863
:106CB40004FB00BF3C9003006C90030000B583B05C
:106CC4000190019B032B03D9074941200EF0A2F93F
:106CD400064A019B13441B7800211846FFF75DFF09
:106CE40000BF03B05DF804FB3C9003006C9003000C
:106CF40000B583B00190019B032B03D907494720BA
:106D04000EF088F9064A019B13441B7801211846AA
:106D1400FFF743FF00BF03B05DF804FB3C900300A2
:106D24006C90030000B583B00023019305E0019843
:106D3400FFF7DEFF019B01330193019B032BF6D97F
:106D440000BF00BF03B05DF804FB00B583B00023AF
:106D5400019305E00198FFF7B1FF019B0133019313
:106D6400019B032BF6D900BF00BF03B05DF804FB01
:106D740000B583B00190019B032B03D907495F2021
:106D84000EF048F9064A019B13441B781846FFF796
:106D9400E2FE00BF03B05DF804FB00BF3C900300BB
:106DA4006C90030000B583B00023019309E0094A05
:106DB400019B13441B781846FFF77FFE019B0133A8
:106DC4000193019B032BF2D9FFF7ACFF00BF03B083
:106DD4005DF804FB6C90030000B583B000230193BD
:106DE4000AE0094A019B13441B7803211846FFF764
:106DF40075FE019B01330193019B032BF1D900BF65
:106E040000BF03B05DF804FB7090030084B00190F0
:106E14004FF0FF330293002303930DE00A4A039BD0
:106E240013441B781A46019B934202D1039B02939D
:106E340005E0039B01330393039B032BEED9029BD1
:106E4400184604B0704700BF7090030000B583B0CB
:106E54000190019B03F00103002B01D0FFF7A2FF77
:106E6400019B03F00203002B01D0FFF7B5FF00BF25
:106E740003B05DF804FB000000B587B003460A4682
:106E84008DF8073013468DF8063000238DF817303F
:106E9400002304939DF807301846FFF7B7FF0490CA
:106EA400049B032B62D89DF80630022B52D0022B90
:106EB4005CDC002B31D0012B58D13549049A1346A0
:106EC4005B0013440B441B788DF817303049049A47
:106ED40013465B0013440B4401331B78002B0ED084
:106EE4002C4B2D4A4FF4804118460BF0D9FF0390E8
:106EF400039B002B03D1284A9DF8073013702449C3
:106F0400049A13465B0013440B4402331978234A52
:106F1400049B13440A461A7028E01E4B18460CF0D2
:106F240017F81E4A049B134419781948049A134607
:106F34005B001344034402331B78994215D114496E
:106F4400049A13465B0013440B4402331B788DF8F8
:106F540017300AE00E49049A13465B0013440B44AD
:106F640001331B788DF8173000E000BF9DF817300F
:106F7400002B09D00A4B1B68002B05D0084B1B685B
:106F84009DF817201046984700BF07B05DF804FB32
:106F9400D8270020A8220020E4270020E82700208A
:106FA400D427002000B583B00190019B1B780221F7
:106FB4001846FFF761FF00BF03B05DF804FB000053
:106FC40000B583B00C4B1B78002B0FD0002301932A
:106FD40008E0019B022B02D00198FFF789FE019B78
:106FE40001330193019B032BF3D901E0FFF79AFED0
:106FF40000BF03B05DF804FBD02700202DE9D04F7B
:1070040092B003468DF83F30002311930023109370
:10701400CC4B1B78002B04D0CA4A00231370FFF713
:10702400CFFF9DF83F30172B00F23F8201A252F8A8
:1070340023F000BF99700200B1700200B170020029
:107044004D710200E971020065720200F9720200DA
:10705400197302002973020055730200737302004E
:1070640091730200AF730200BD730200BD7302008E
:10707400BD730200BD730200BD73020051740200AF
:107084005F7402007374020087740200A17402002A
:10709400A1740200FFF794FFAB4B18460BF058FFA6
:1070A4001190AA4A9DF83F301370FFE10020FFF7CA
:1070B400D7FD0346002B0DD00020FFF719FE9DF8E5
:1070C4003F30022B02D14FF4E16301E04FF47A63C5
:1070D40010930BE00020FFF7F1FD9DF83F30022BE9
:1070E40001D1C82301E04FF4C8731093974A9DF867
:1070F4003F301370944C109B0022009301924FF088
:1071040000024FF00003DDE900673946CB03314646
:1071140043EA51433146CA0312F57A71029143F1AD
:10712400000303934FF4FA624FF00003DDE9020118
:1071340011F07AFC02460B461346002219462046FB
:107144000BF0AEFE1190B1E10020FFF789FD03467C
:10715400002B0DD00020FFF7CBFD9DF83F30032B13
:1071640002D14FF4487301E04FF47A6310930BE0BB
:107174000020FFF7A3FD9DF83F30032B01D1C82366
:1071840001E04FF4C8731093704A9DF83F301370B8
:107194006D4C109B0022049305924FF000024FF0B7
:1071A4000003DDE904673946CB03314643EA514322
:1071B4003146CA0312F57A71069143F1000307932D
:1071C4004FF4FA624FF00003DDE9060111F02CFCE4
:1071D40002460B4613460022194620460BF060FE79
:1071E400119063E10020FFF73BFD0346002B06D01E
:1071F4000020FFF77DFD4FF47A63109305E0002033
:10720400FFF75CFD4FF4C8731093504A9DF83F306C
:1072140013704D4C109B00229A4693464FF0000287
:107224004FF000034FEACB3343EA5A434FEACA32E2
:1072340012F57A71089143F1000309934FF4FA624D
:107244004FF00003DDE9080111F0EEFB02460B46A6
:1072540013460022194620460BF022FE119025E128
:107264000020FFF7FDFC0346002B0CD00020FFF7A5
:107274003FFD9DF83F30052B01D1C82301E04FF4B9
:107284007A6310930BE00020FFF718FD9DF83F3060
:10729400052B01D1C82301E04FF4C87310932B4A86
:1072A4009DF83F301370284C109B0022984691465D
:1072B4004FF000024FF000034FEAC93343EA58434A
:1072C4004FEAC83212F57A710A9143F100030B9325
:1072D4004FF4FA624FF00003DDE90A0111F0A4FB58
:1072E40002460B4613460022194620460BF0D8FDF1
:1072F4001190DBE00020FFF73BFD144A9DF83F307E
:107304001370114B002240F2666118460BF0C8FD61
:107314001190CBE00020FFF7D1FC0C4A9DF83F30E0
:107324001370C3E0074B01221A700120FFF720FD00
:10733400054B002240F2666118460BF0B1FD119036
:10734400B4E000BFC927002068220020C82700201D
:10735400594B01221A700120FFF70AFD574B0022F6
:107364004FF4005118460BF09BFD11909EE0524BD8
:1073740001221A700120FFF7FBFC504B002240F25F
:10738400666118460BF08CFD11908FE04A4B012288
:107394001A700120FFF7ECFC484B00224FF4005117
:1073A40018460BF07DFD119080E0FFF7CEFC444AB7
:1073B4009DF83F30137079E0424B18460BF0C8FD3E
:1073C40011909DF83F30C3F111031093109B002BD3
:1073D40035D0119B002B32D1109B012B28D9394C6D
:1073E400109B9BB21A46C82302FB03F3DA171E460E
:1073F40017464FF000024FF00003FB0343EA5643E5
:10740400F20312F57A710C9143F100030D934FF4DA
:10741400FA624FF00003DDE90C0111F005FB0246AE
:107424000B4613460022194620460BF039FD1190F5
:107434000220FFF743FC244B01221A7036E002209D
:10744400FFF756FC204B00221A702FE0FFF7B8FD1F
:107454001B4A9DF83F30137028E0FFF7B1FD002070
:10746400FFF72CFC164A9DF83F3013701EE0FFF71F
:10747400A7FD0120FFF722FC114A9DF83F3013704D
:1074840014E0FFF79DFD0020FFF718FC0120FFF733
:1074940015FC0B4A9DF83F30137007E0FFF755FCCD
:1074A400074A9DF83F30137000E000BF119B184657
:1074B40012B0BDE8D08F00BFC92700206822002089
:1074C400C827002088220020D027002000B583B0E0
:1074D4000190074B1B6803F00103002B04D0054BFC
:1074E4001B781846FFF78AFD00BF03B05DF804FB64
:1074F400CC270020C827002000B583B001900220CB
:10750400FFF736FC00BF03B05DF804FB00B585B09F
:1075140003468DF8073000230393084B1B6803F0E0
:107524000103002B05D09DF807301846FFF766FDD0
:107534000390039B184605B05DF804FBCC2700209C
:1075440000B585B001900091002303932A4A019B62
:1075540013602A4A009B1360019B03F00203002B73
:107564002AD00023029308E001220121029800F0AE
:1075740055F80390029B01330293029B032B02D81C
:10758400039B002BF0D0039B002B06D140F2333237
:1075940004211B480AF05CFF0390039B002B02D1DB
:1075A4000AF0DEFF0390039B002B05D1154A00214E
:1075B40015480BF03BFC0390019B03F00103002BE7
:1075C40014D00120FFF742FC039B002B05D10F4A86
:1075D40000210F480BF02AFC0390039B002B05D1DC
:1075E4000C4A01210C480BF021FC0390039B184624
:1075F40005B05DF804FB00BFCC270020D427002091
:1076040080900300A96F02007C900300D1740200F3
:1076140074900300FD7402007890030084B001901C
:107624000B468DF8033013468DF802300023039384
:10763400019B032B3CD89DF80230012B0BD19DF804
:107644000330012B04D1019BDBB20E33DBB200E02B
:1076540000238DF802309DF80330022B0FD0022B4B
:1076640023DC002B16D0012B1FD11449019A134699
:107674005B0013440B449DF802201A701AE00F4972
:10768400019A13465B0013440B4401339DF8022016
:107694001A700FE00949019A13465B0013440B4426
:1076A40002339DF802201A7004E00723039301E0DB
:1076B40007230393039B184604B07047D827002080
:1076C40000B583B0012200210020FFF7A7FF01903D
:1076D400019B002B04D0019B072B01D0019B1CE0D4
:1076E400072202210120FFF799FF0190019B002B43
:1076F40004D0019B072B01D0019B0EE00422022140
:107704000020FFF78BFF0190019B002B04D0019B0D
:10771400072B01D0019B00E00023184603B05DF85D
:1077240004FB00B583B0012202210020FFF776FF9D
:107734000190019B002B04D0019B072B01D0019BDE
:107744001CE0072202210120FFF768FF0190019B42
:10775400002B04D0019B072B01D0019B0EE00A22D1
:1077640000210020FFF75AFF0190019B002B04D059
:10777400019B072B01D0019B00E00023184603B0B6
:107784005DF804FB00B585B001900091019B1B8856
:10779400102B02D0112B18D02FE01A4B1B68002B92
:1077A4000DD1FFF78DFF0390039B002B07D0164BE1
:1077B4001B68002B03D0144B1B6803989847114B8C
:1077C4001B6801330F4A136017E00E4B1B68013B23
:1077D4000C4A13600B4B1B68002B0DD1FFF7A1FF64
:1077E4000390039B002B07D0074B1B68002B03D08F
:1077F400054B1B680398984700BF00BF05B05DF8B0
:1078040004FB00BFF0270020EC270020BFF34F8FBC
:1078140000BF064BDB6803F4E0620449044B1343E6
:10782400CB60BFF34F8F00BF00BFFDE700ED00E06A
:107834000400FA0582B01D4B1B68B3F1FF3F0AD167
:107844001B4B1B68DBB201931A4B1B681B0903F02B
:107854000F03009305E0154B1B680193164B1B683F
:107864000093019B062B1DD1009B033B042B17D8CF
:1078740001A252F823F000BF91780200957802002B
:10788400997802009D780200A178020001230AE0A1
:10789400012308E0012306E0012304E0012302E0C0
:1078A400012300E00023184602B0704730010010A5
:1078B400E00F00F0E80F00F03401001082B0174B25
:1078C4001B68DBB20193164B1B681B0903F00F0303
:1078D4000093019B062B1DD1009B033B042B17D85F
:1078E40001A252F823F000BF0179020005790200D9
:1078F400097902000D7902001179020001230AE0DE
:10790400002308E0002306E0002304E0002302E053
:10791400002300E00023184602B07047E00F00F097
:10792400E80F00F082B01D4B1B68B3F1FF3F0AD192
:107934001B4B1B68DBB201931A4B1B681B0903F03A
:107944000F03009305E0154B1B680193164B1B684E
:107954000093019B062B1DD1009B033B042B17D8DE
:1079640001A252F823F000BF817902008579020058
:10797400897902008D7902009179020001230AE0DD
:10798400012308E0012306E0012304E0012302E0CF
:10799400012300E00023184602B0704730010010B4
:1079A400E00F00F0E80F00F03401001082B0174B34
:1079B4001B68DBB20193164B1B681B0903F00F0312
:1079C4000093019B062B1DD1009B033B042B17D86E
:1079D40001A252F823F000BFF1790200F579020008
:1079E400F9790200FD790200017A020001230AE01C
:1079F400002308E0002306E0002304E0002302E063
:107A0400002300E00023184602B07047E00F00F0A6
:107A1400E80F00F082B01D4B1B68B3F1FF3F0AD1A1
:107A24001B4B1B68DBB201931A4B1B681B0903F049
:107A34000F03009305E0154B1B680193164B1B685D
:107A44000093019B062B1DD1009B033B042B17D8ED
:107A540001A252F823F000BF717A0200757A020085
:107A6400797A02007D7A0200817A020001230AE019
:107A7400012308E0012306E0012304E0012302E0DE
:107A8400012300E00023184602B0704730010010C3
:107A9400E00F00F0E80F00F03401001082B0174B43
:107AA4001B68DBB20193164B1B681B0903F00F0321
:107AB4000093019B062B1DD1009B033B042B17D87D
:107AC40001A252F823F000BFE17A0200E57A020035
:107AD400E97A0200ED7A0200F17A020001230AE059
:107AE400002308E0002306E0002304E0002302E072
:107AF400002300E00023184602B07047E00F00F0B6
:107B0400E80F00F082B0174B1B68DBB20193164BF1
:107B14001B681B0903F00F030093019B062B1DD167
:107B2400009B033B042B17D801A252F823F000BF9B
:107B3400497B02004D7B0200517B0200557B020011
:107B4400597B020001230AE0002308E0002306E039
:107B5400002304E0002302E0002300E00023184691
:107B640002B07047E00F00F0E80F00F082B01D4B48
:107B74001B68B3F1FF3F0AD11B4B1B68DBB20193B7
:107B84001A4B1B681B0903F00F03009305E0154B08
:107B94001B680193164B1B680093019B062B1DD198
:107BA400009B033B042B17D801A252F823F000BF1B
:107BB400C97B0200CD7B0200D17B0200D57B020091
:107BC400D97B020000230AE0002308E0012306E039
:107BD400012304E0012302E0012300E0002318460E
:107BE40002B0704730010010E00F00F0E80F00F021
:107BF4003401001082B01D4B1B68B3F1FF3F0AD162
:107C04001B4B1B68DBB201931A4B1B681B0903F067
:107C14000F03009305E0154B1B680193164B1B687B
:107C24000093019B062B1DD1009B033B042B17D80B
:107C340001A252F823F000BF517C0200557C0200DF
:107C4400597C02005D7C0200617C020001230AE091
:107C5400012308E0012306E0012304E0012302E0FC
:107C6400012300E00023184602B0704730010010E1
:107C7400E00F00F0E80F00F03401001082B01D4B5B
:107C84001B68B3F1FF3F0AD11B4B1B68DBB20193A6
:107C94001A4B1B681B0903F00F03009305E0154BF7
:107CA4001B680193164B1B680093019B062B1DD187
:107CB400009B033B042B17D801A252F823F000BF0A
:107CC400D97C0200DD7C0200E17C0200E57C02003C
:107CD400E97C020001230AE0012308E0012306E015
:107CE400012304E0012302E0012300E000231846FD
:107CF40002B0704730010010E00F00F0E80F00F010
:107D04003401001082B0154B1B680193144B1B689F
:107D14000093019B062B1DD1009B033B042B17D81A
:107D240001A252F823F000BF417D0200457D02000C
:107D3400497D02004D7D0200517D020000230AE0CE
:107D4400002308E0002306E0012304E0012302E00D
:107D5400012300E00023184602B0704730010010F0
:107D64003401001082B0154B1B680193144B1B683F
:107D74000093019B062B1DD1009B033B042B17D8BA
:107D840001A252F823F000BFA17D0200A57D0200EC
:107D9400A97D0200AD7D0200B17D020000230AE04E
:107DA400002308E0002306E0002304E0012302E0AE
:107DB400012300E00023184602B070473001001090
:107DC4003401001008B5FFF7CDFF0346002B07D0A0
:107DD4004FF010234FF08042D3F80832C2F85835E0
:107DE40000BF08BD00BF044BD3F80034002BFAD009
:107DF40000BF00BF704700BF00E0014000B583B082
:107E04000190054A019BC2F80435FFF7EBFF00BF60
:107E140003B05DF804FB00BF00E00140024B034ADD
:107E24001A6000BF704700BFC82200200090D00332
:107E340008B5FFF7FFFC0346002B06D0964B1B68E2
:107E44001B0A964A03F01F031360FFF737FD03462E
:107E5400002B02D0924B934A1A60FFF763FD03464E
:107E6400002B06D0904B1B685B0B904A03F0070372
:107E74001360FFF79BFD0346002B05D08C4BDB689A
:107E84008B4A23F08073D360FFF7C4FD0346002BB5
:107E94000ED04FF080430022C3F80C214FF08043F2
:107EA4000022C3F810214FF080430022C3F8382584
:107EB400FFF7F4FD0346002B02D07E4B03221A6029
:107EC400FFF720FE0346002B0BD07B4B05221A60E4
:107ED4007A4B01221A607A4B00221A60794B3F22B6
:107EE4001A60FFF743FE0346002B76D04FF0805311
:107EF400754AD3F80434C2F820354FF08053724ADF
:107F0400D3F80834C2F824354FF080536E4AD3F8BE
:107F14000C34C2F828354FF080536B4AD3F8103430
:107F2400C2F82C354FF08053674AD3F81434C2F8A2
:107F340030354FF08053644AD3F81834C2F83435DE
:107F44004FF08053604AD3F81C34C2F840354FF0E8
:107F540080535D4AD3F82034C2F844354FF080533F
:107F6400594AD3F82434C2F848354FF08053564A5E
:107F7400D3F82834C2F84C354FF08053524AD3F822
:107F84002C34C2F850354FF080534F4AD3F8303474
:107F9400C2F854354FF080534B4AD3F83434C2F806
:107FA40060354FF08053484AD3F83834C2F864350A
:107FB4004FF08053444AD3F83C34C2F868354FF04C
:107FC4008053414AD3F84034C2F86C354FF08053A3
:107FD4003D4AD3F84434C2F87035FFF70BFE03462C
:107FE400002B05D0394B1B68394A03F04F0313604B
:107FF400FFF744FE0346002B0DD04FF08043D3F827
:10800400003403F00103002B05D04FF080436FF0E0
:108014000102C3F80024FFF775FE0346002B05D0C8
:108024002C4B1B682B4A43F4806313602A4BD3F810
:108034008830294A43F47003C2F88830BFF34F8F65
:1080440000BFBFF36F8F00BFFFF7BCFE4FF01023DC
:10805400D3F80032002B05DB4FF01023D3F80432A1
:10806400002B15DA0120FFF7C9FE4FF0102315226B
:10807400C3F80022FFF7B6FE4FF010231522C3F811
:108084000422FFF7AFFE0020FFF7B8FEFFF7BEFBA8
:10809400FFF7C4FE00BF08BD2403001040350140B3
:1080A40074C007400DF0ADBA440200103C05004016
:1080B400F0ED00E0A0050040105600408856004056
:1080C400185600401456004000C0004058020010EA
:1080D400E40E00403C17004000ED00E06DDF704707
:1080E40000BF184679DF704700BF18467DDF704730
:1080F40000BF184664DF704700BF184682B00346CD
:108104000091ADF80630BDF80630DAB2009B1A7063
:10811400BDF806301B0A9AB2009B0133D2B21A7022
:108124000223184602B0704700B589B0039002914B
:108134001346ADF80630029B1B8803F10902BDF813
:1081440006309A4201D90C2353E004AB1846FFF7DA
:10815400C5FF0790079B0693069B002B01D0069B47
:1081640047E0029B1B881A46039B134408221A709B
:10817400029B1B8801339AB2029B1A80029B1B88C4
:108184001A46039B13441B221A70029B1B8801335B
:108194009AB2029B1A80029B1B881A46039B98186A
:1081A40004AB01330622194610F01EFD029B1B8806
:1081B40006339AB2029B1A809DF8103023F0010313
:1081C400DBB2002B07D1029B1B881A46039B134486
:1081D40000221A7006E0029B1B881A46039B134474
:1081E40001221A70029B1B8801339AB2029B1A80E7
:1081F4000023184609B05DF804FB00B589B003906C
:1082040002910192ADF80230039B1B78012B05D13A
:10821400039B5B78002B01D1072391E0019B1B8812
:108224009A1CBDF802309A420ED8039B1B78012B8E
:108234000CD1019B1B881A46039B5B7813449A1C40
:10824400BDF802309A4201D90C2379E0019B1B88C6
:10825400BDF80220D31A9BB2023BADF81C30BDF826
:108264001C30ADF81230019B1B880233029A134470
:108274000DF1120211461846FFF738FF0690069BCF
:108284000593059B002B01D0059B59E0039B1B78AC
:10829400022B06D0039B5B781A46BDF812309A4233
:1082A40009D3BDF81230BDF81C209A4203D3092328
:1082B4008DF81F3016E008238DF81F30039B1B78C0
:1082C400012B0BD1039B5B781A46BDF81C309342FB
:1082D40004D3039B5B78ADF8123003E0BDF81C3087
:1082E400ADF81230BDF81230FE2B01D90C2327E073
:1082F400BDF81230DAB2019B1B881946029B0B446D
:108304000132D2B21A70019B1B8801339AB2019BCD
:108314001A80019B1B881A46029B13449DF81F2058
:108324001A70019B1B8801339AB2019B1A80019B2E
:108334001A88BDF8123013449AB2019B1A800023A4
:10834400184609B05DF804FB00B589B003900291AA
:108354001346ADF80630029B1B881A1DBDF8063083
:108364009A4201D90C233AE00DF116031846FFF79F
:10837400B9FE0790079B0693069B002B01D0069B32
:108384002DE0029B1B881A46039B134403221A7098
:10839400029B1B8801339AB2029B1A80029B1B88A2
:1083A4001A46039B134419221A70029B1B8801333B
:1083B4009AB2029B1A80BDF81620029B1B881946AC
:1083C400039B0B4419461046FFF798FE03461A46D2
:1083D400029B1B8813449AB2029B1A8000231846FE
:1083E40009B05DF804FB84B0029101921A46034679
:1083F4008DF80F301346ADF80C30019B1B88DA1C46
:10840400BDF80C309A4201D90C2328E0019B1B884B
:108414001A46029B134402221A70019B1B880133E3
:108424009AB2019B1A80019B1B881A46029B134433
:1084340001221A70019B1B8801339AB2019B1A8096
:10844400019B1B881A46029B13449DF80F201A7047
:10845400019B1B8801339AB2019B1A8000231846A2
:1084640004B0704784B0029101921A4603468DF815
:108474000F301346ADF80C30019B1B88DA1CBDF895
:108484000C309A4201D90C2328E0019B1B881A4620
:10849400029B134402221A70019B1B8801339AB277
:1084A400019B1A80019B1B881A46029B13440A22D3
:1084B4001A70019B1B8801339AB2019B1A80019B9D
:1084C4001B881A46029B13449DF80F201A70019BC7
:1084D4001B8801339AB2019B1A800023184604B00A
:1084E400704700B58FB0039001930B468DF80B30A5
:1084F40013468DF80A3000238DF83330109B1B8807
:10850400ADF8303000230D9370E0039B5A680D9B47
:108514009B001A4405AB106818600DF11B0105ABF4
:1085240000221846FFF7E6FD0A900A9B0993099B6F
:10853400002B01D0099B7BE09DF81B309DF80A209D
:108544009A4250D19DF83330002B01D0002300E033
:1085540002238DF82330109B1B881A469DF81B308C
:108564001A449DF823301A44BDF844309A4201DD80
:108574000C235DE09DF8333083F00103DBB2002B64
:1085840016D0109B1B8801339AB2109B1A80109B43
:108594001B881A46019B13449DF80B201A70109BEC
:1085A4001B8801339AB2109B1A8001238DF8333053
:1085B400109B1B881A46019B1A440DF11B0105AB45
:1085C4001846FFF797FD0A900A9B0793079B002B19
:1085D40001D0079B2CE0109B1B889DF81B201344A3
:1085E4009AB2109B1A800D9B01330D93039B1B8839
:1085F4001A460D9B934288DB9DF83330002B16D02E
:10860400109B1A88BDF83030D31A9BB2013BADF8E9
:108614002E30BDF82E30FF2B01D90C2308E0BDF815
:108624003030019A1344BDF82E20D2B21A700023C0
:1086340018460FB05DF804FB00B58BB005900393AA
:108644000B468DF8133013468DF812309DF8131035
:10865400BDF8343001930C9B0093039B02220598D0
:10866400FFF73FFF0990099B0893089B002B01D05B
:10867400089B14E09DF81210BDF8343001930C9B54
:108684000093039B10220598FFF72BFF0990099B89
:108694000793079B002B01D0079B00E0002318469B
:1086A4000BB05DF804FB82B00190019B1B88052B85
:1086B4000AD9019B1B88B3F5486F07D9019B1B8816
:1086C4004FF6FF72934201D0072325E0019B5B889C
:1086D400052B0AD9019B5B88B3F5486F07D9019B29
:1086E4005B884FF6FF72934201D0072314E0019B8D
:1086F4001B884FF6FF7293420DD0019B5B884FF6A7
:10870400FF72934207D0019B1A88019B5B889A42AF
:1087140001D9072300E00023184602B0704700B5D2
:1087240087B0039002910192ADF80230019B1B883F
:108734009A1DBDF802309A4201D90C234BE00398EC
:10874400FFF7B1FF0590059B0493049B002B01D018
:10875400049B40E0019B1B881A46029B134405229C
:108764001A70019B1B8801339AB2019B1A80019BEA
:108774001B881A46029B134412221A70019B1B8801
:1087840001339AB2019B1A80039B1A88019B1B88B0
:108794001946029B0B4419461046FFF7AFFC0346EB
:1087A4001A46019B1B8813449AB2019B1A80039BAF
:1087B4005A88019B1B881946029B0B441946104694
:1087C400FFF79CFC03461A46019B1B8813449AB28C
:1087D400019B1A800023184607B05DF804FB00B51E
:1087E40087B0039002910192ADF80230039B9B88FD
:1087F40002330593019B1B881A46059B13449A1C5C
:10880400BDF802309A4201D90C2353E0059BFE2B9C
:1088140001D90C234EE0059BDAB2019B1B88194653
:10882400029B0B440132D2B21A70019B1B880133A4
:108834009AB2019B1A80019B1B881A46029B13441F
:10884400FF221A70019B1B8801339AB2019B1A8084
:10885400039B1A88019B1B881946029B0B441946EB
:108864001046FFF74BFC03461A46019B1B88134432
:108874009AB2019B1A80039B9B88002B19D0039BFF
:108884009B68002B01D1072314E0019B1B881A4627
:10889400029B9818039B9968039B9B881A4610F0C7
:1088A400A3F9019B1A88039B9B8813449AB2019BEA
:1088B4001A800023184607B05DF804FB00B589B0A0
:1088C400039002910192ADF80230039B9B6A002B46
:1088D40001D1072371E000238DF81F3065E0039B6D
:1088E400996A9DF81F2013465B0013449B000B44B8
:1088F4000693069B9B8802330593059BFE2B01D9A7
:108904000C235AE0059BDAB2019B1B881946029B93
:108914000B440132D2B21A70019B1B8801339AB204
:10892400019B1A80019B1B881A46029B1344162242
:108934001A70019B1B8801339AB2019B1A80069B13
:108944001A88019B1B881946029B0B441946104642
:10895400FFF7D4FB03461A46019B1B8813449AB2C3
:10896400019B1A80069B9B88002B19D0069B9B6851
:10897400002B01D1072320E0019B1B881A46029B90
:108984009818069B9968069B9B881A4610F02CF948
:10899400019B1A88069B9B8813449AB2019B1A80F8
:1089A4009DF81F3001338DF81F30039B93F82C3052
:1089B4009DF81F209A4292D30023184609B05DF80F
:1089C40004FB00B595B00590049103920023139322
:1089D400039B1B88ADF84A30039B00221A80059B39
:1089E40093F82D30002B0ED0BDF84A301A46039967
:1089F4000498FFF799FB1390139B1193119B002B81
:108A040001D0119BD8E0059B9B78002B0ED0BDF8BC
:108A14004A301A4603990498FFF796FC1390139B67
:108A24001093109B002B01D0109BC5E0059BDB78B5
:108A3400002B10D0059BDB7858B2BDF84A30039A5E
:108A44000499FFF7D0FC1390139B0F930F9B002BFB
:108A540001D00F9BB0E0059B5B68002B11D0059BF8
:108A64005B6893F90000BDF84A30039A0499FFF754
:108A7400F9FC1390139B0E930E9B002B01D00E9BBD
:108A84009AE0059B1B89002B14D0059B03F1080079
:108A9400BDF84A300193039B0093049B06220221F4
:108AA400FFF7CAFD1390139B0D930D9B002B01D070
:108AB4000D9B81E0059B1B8A002B14D0059B03F1C1
:108AC4001000BDF84A300193039B0093049B0722D6
:108AD4000321FFF7B1FD1390139B0C930C9B002B08
:108AE40001D00C9B68E0059B1B8B002B14D0059BCD
:108AF40003F11800BDF84A300193039B0093049BD3
:108B040015221421FFF798FD1390139B0B930B9BD5
:108B1400002B01D00B9B4FE0059B1B6A002B0FD051
:108B2400059B186ABDF84A30039A0499FFF7F7FDCC
:108B34001390139B0A930A9B002B01D00A9B3BE0E2
:108B4400059B5B6A002B0FD0059B586ABDF84A3021
:108B5400039A0499FFF743FE1390139B0993099B0F
:108B6400002B01D0099B27E0059B93F82C30002BA8
:108B74000ED0BDF84A30039A04990598FFF79EFE7B
:108B84001390139B0893089B002B01D0089B13E0C0
:108B9400059B1B78002B0ED0BDF84A30039A04992C
:108BA4000598FFF72AFB1390139B0793079B002B51
:108BB40001D0079B00E0139B184615B05DF804FB39
:108BC40086B0039001921A460B46ADF80A3013465C
:108BD4008DF80930039B002B02D0019B002B01D19F
:108BE40000235BE00023ADF816300CE0BDF816302E
:108BF400039A13441B781A46BDF8163013449BB2EB
:108C04000133ADF81630BDF816305A1CBDF80A30E1
:108C14009A420FDA019B1B88BDF816209A42E5D3CD
:108C2400BDF816300133039A13441B789DF80920CC
:108C34009A42DBD1BDF81620BDF80A309A4201D31E
:108C440000232BE0BDF816300233ADF81430BDF824
:108C54001630039A13441B78002B07D0BDF8163046
:108C6400039A13441B78013B9BB200E00023ADF848
:108C74001230BDF81230002B08D0BDF81420BDF816
:108C840012301A44BDF80A309A4201DD002305E08F
:108C9400019BBDF814201A80BDF81230184606B0A6
:108CA400704700B585B001900B46ADF8023013460D
:108CB4008DF801300023ADF80C309DF8013003AA83
:108CC400BDF802100198FFF77BFF0346ADF80E30A4
:108CD400BDF80E30002B01D1002304E0BDF80C30A8
:108CE4001A46019B1344184605B05DF804FB72DF75
:108CF400704700BF184673DF704700BF184682B044
:108D04000190019B93F83034184602B0704784B048
:108D14000190002303930AE0019A039B13441B78F8
:108D2400002B01D0012306E0039B01330393039B33
:108D3400052BF1D90023184604B0704782B00346CE
:108D44008DF807309DF807305A1C074B83FB02133C
:108D54005910D317C91A0B469B000B44D11ACBB236
:108D6400184602B0704700BF6766666682B001901D
:108D74000091009BDB7B012B04D1009B9A88019B13
:108D8400A3F8242400BF02B0704700B585B0019059
:108D94000091019B002283F82E24009B9A88019B5A
:108DA400B3F824349A4216D1019B1B7983F0010352
:108DB400DBB2002B0FD00121019800F0B1FA03902F
:108DC400039B002B07D0019B9B6B002B03D0019BC3
:108DD4009B6B0398984700BF05B05DF804FB00B592
:108DE40085B001900091009B1B88262B1ED1009B0F
:108DF4001B7A012B03D0009B1B7A022B17D1019BFA
:108E04009B781846FFF79AFF03461946019800F02D
:108E140087FA0390039B002B09D0019B9B6B002BCB
:108E240005D0019B9B6B0398984700E000BF05B0F9
:108E34005DF804FB00B585B001900B468DF8033056
:108E4400019B03F227431846FFF761FF03468DF8A1
:108E54000F309DF80330013B032B33D801A252F8A5
:108E640023F000BF798E02009D8E0200B18E0200B5
:108E7400BD8E0200019B9B79002B0DD0019B93F8C2
:108E8400243083F00103DBB2002B05D09DF80F30B2
:108E9400002B01D0012316E0019BDB79002B05D0C8
:108EA4009DF80F30002B01D002230CE0019B1B7AAC
:108EB400002B01D0032306E0019B5B7A002B01D039
:108EC400042300E00023184605B05DF804FB00BF4E
:108ED40082B001900091019B012283F83120019B13
:108EE4000022C3F82024019B03F22642009B5A600F
:108EF400009B00229A60009B02221A70009B802231
:108F04009A810023184602B0704782B00190009104
:108F1400019B022283F83120019B93F82430002B1B
:108F240003D0009B07221A7002E0009B03221A70F0
:108F3400019B1B699AB2009B9A81019B0022C3F892
:108F44002024019B03F22642009B5A60019BDA68AD
:108F5400009B9A600023184602B0704700B583B0A6
:108F64000190019B5B79002B0FD0019B93F82E3469
:108F740083F00103DBB2002B07D00198FFF7BFFE9B
:108F84000346002B01D0012300E0002303F001037A
:108F9400DBB2184603B05DF804FB00B585B0019060
:108FA4000B468DF80330019BD3F81004019BB3F8F2
:108FB400143401221946FFF774FE0390039B002B1F
:108FC40003D0039B9DF803201A70019B03F1540006
:108FD400019B03F58261019B3C331A46FFF787FE30
:108FE4000346184605B05DF804FB00B585B0019052
:108FF4000091019B5A69009B9A60019B9B699AB2FC
:10900400009B9A81019B93F82430002B04D0019B90
:10901400062283F83C2003E0019B012283F83C20D4
:109024000198FFF79BFF0346002B13D0009B0222FD
:109034001A7504210198FFF7B0FF0390039B029374
:10904400029B002B01D0029B0FE0019B052283F8B9
:10905400312003E0019B032283F83120019B03F5B7
:109064008262019BC3F820240023184605B05DF8F2
:1090740004FB00B585B001900091019BDA69009B67
:109084009A60019B1B6A9AB2009B9A81019B93F898
:109094002430002B04D0019B062283F83C2003E0FB
:1090A400019B012283F83C200198FFF757FF0346F8
:1090B400002B13D0009B02221A7504210198FFF79C
:1090C4006CFF0390039B0293029B002B01D0029B35
:1090D4000FE0019B062283F8312003E0019B042268
:1090E40083F83120019B03F58262019BC3F820249D
:1090F4000023184605B05DF804FB82B00190019B83
:109104009B78002B06D0019B93F82030002B01D0D4
:1091140000230AE0019B9B6A042B03D0019B5B6A3A
:10912400042B01D1002300E00123184602B070474C
:1091340084B00190019B93F82430002B03D0EE23DC
:10914400ADF80E3002E01F23ADF80E30BDF80E303E
:10915400184604B0704782B001900B468DF8033076
:10916400019B9DF8032083F8302000BF02B07047B4
:1091740030B587B001900091009B002B02D0019B79
:10918400002B01D10E23B8E0009B78331846FFF77B
:10919400B4FF034683F00103DBB2002B01D00723A5
:1091A400ABE0019B00229A70019A009B141D03F10D
:1091B40078050FCD0FC40FCD0FC495E8070084E8E0
:1091C4000700019B002283F83020009BD3F8A420E1
:1091D400019B5A63009BD3F8A820019B9A63019BCF
:1091E4004FF6FF72A3F82424019B03F58262019BCE
:1091F400C3F82024019B03F22643072200211846CA
:109204000FF024FD019B1B7883F00103DBB2002BDC
:1092140003D0019BFF2283F85420019B03F15502E4
:10922400019BC3F810240198FFF782FF03461A46F6
:10923400019BA3F814240098019B03F15501019BA1
:1092440003F214431A46FFF7BCFB0590059B0493F5
:10925400049B002B01D0049B4FE0019B03F23122BD
:10926400019BC3F818240198FFF762FF03461A46CE
:10927400019BA3F81C24009B03F13C00019BD3F841
:109284001814019B03F21C431A46FFF79AFB05903E
:10929400059B0393039B002B01D0039B2DE0019BB3
:1092A400012283F85120019B9B699AB2019BA3F888
:1092B4004820019B012283F83C20019B00221A6470
:1092C400019B002283F85020019B5A69019B5A6438
:1092D400019B03F15400019B3C331A460021FFF724
:1092E40006FD0590059B0293029B002B01D0029B77
:1092F40003E0019B01221A70059B184607B030BD9C
:1093040082B00190019B1B68012B03D0019B1B6859
:10931400022B01D1012300E00023184602B070475C
:1093240000B585B001900B468DF80330019B1B7886
:1093340083F00103DBB2002B01D0082309E1019B78
:109344009DF803209A70019B03F226430722002113
:1093540018460FF07BFC019B9B79002B03D0019BEB
:109364009B78012B0FD0019BDB79002B03D0019B51
:109374009B78012B07D0019BDB79002B14D0019B38
:109384009B78022B10D1019B5B6B002B08D0019BB7
:10939400012283F82D24019B5B6B0820984703E08E
:1093A400019B002283F82D249DF80330194601986F
:1093B400FFF740FD03461A46019B9A70019B5B6BC5
:1093C400002B20D0019B9B78032B03D0019B9B781F
:1093D400042B18D1019B5B79002B14D0019B93F8CB
:1093E4002E3483F00103DBB2002B0CD0019B00224E
:1093F40083F83024019B012283F82F24019B5B6BAB
:109404000720984703E0019B002283F82F24019B47
:109414003C331822002118460FF018FC019B01224E
:1094240083F83C20019B2C331846FFF769FF034661
:10943400002B06D0019BDB6ADAB2019B83F8512032
:1094440003E0019B012283F85120019B93F824300F
:10945400002B12D0019B28331846FFF751FF034617
:10946400002B06D0019B9B6ADAB2019B83F8522041
:1094740003E0019B012283F85220019B002283F820
:109484005020019B9B78042B31D801A252F823F081
:10949400E9940200A9940200B9940200C99402005C
:1094A400D9940200019B3C3319460198FFF710FD43
:1094B40003901DE0019B3C3319460198FFF725FDFD
:1094C400039015E0019B3C3319460198FFF78DFD8D
:1094D40003900DE0019B3C3319460198FFF7C9FD49
:1094E400039005E0019B002283F8312000E000BFD7
:1094F400019B9B78002B20D0019B03F15400019B1E
:10950400D3F82014019B3C331A46FFF7F0FB039079
:10951400039B002B01D0039B1BE0019B93F8542079
:10952400019B93F8303019461046FFF7E4FB039093
:10953400039B002B01D0039B0BE0019B5B6B002B77
:1095440006D0019B5B6B019A92F831201046984734
:109554000023184605B05DF804FB00BF00B585B0D4
:1095640001900091009B0393019B1B88262B10D034
:10957400262B13DC102B02D0112B05D00EE0019901
:109584000398FFF7F3FB0AE001990398FFF7FDFB4B
:1095940005E001990398FFF722FC00E000BF00BF3B
:1095A40005B05DF804FB75DF704700BF184676DF31
:1095B400704700BF18467ADF704700BF18467BDF4C
:1095C400704700BF1846000084B00346ADF806306B
:1095D4000023039316E00F49039A13469B00134498
:1095E4009B000B441B88BDF806209A4207D1039ABE
:1095F40013469B0013449B00064A134406E0039B56
:1096040001330393039B002BE5D00023184604B0D9
:10961400704700BF1828002082B001900B46ADF8B7
:109624000230019BBDF802201A80019B00221A72AD
:10963400019B054903F10A020B4603CB10605160FC
:1096440000BF02B0704700BF4828002082B00190DC
:10965400019B4FF6FF721A8000BF02B0704788B0BA
:109664000390029111461A460B46ADF80630134694
:10967400ADF80430039B9B881A46BDF806301344AA
:109684000793039B9B881946039B9B88BDF8062080
:10969400934228BF13469BB2CB1A0693039BDB88E5
:1096A4001A46BDF8043013440593039BDB8819461E
:1096B400039BDB88BDF80420934228BF13469BB26A
:1096C400CB1A0493029B5A88039B1B889A4205D3A6
:1096D400029B5A88039B5B889A4201D900231CE0B1
:1096E400029B9B881A46069B934205D8029B9B8843
:1096F4001A46079B934201D200230EE0029BDB88AB
:109704001A46049B934205D8029BDB881A46059BA4
:10971400934201D2002300E00123184608B07047A9
:1097240000B583B00190064B9B69002B03D0044B1A
:109734009B690198984700BF03B05DF804FB00BF24
:109744002C28002000B585B003460091ADF8063002
:10975400BDF8063000991846FFF725FF0390039BD8
:10976400002B05D0039B112B02D00398FFF7D8FFE1
:10977400039B002B0CBF01230023DBB2184605B06A
:109784005DF804FB00B589B00190019B0793079B2A
:109794009BB21846FFF718FF0690069B002B42D099
:1097A400069B1A7A224B1B7B9A4215D2079B9AB2CC
:1097B400069B0A3319461046FFF7C4FF03468DF88B
:1097C40013309DF81330002B2DD0069B1B7A0133E8
:1097D400DAB2069B1A7226E0069B00221A72144B18
:1097E4001B7C002B0FD0079B9BB23B211846FFF735
:1097F400DEFE0590059B002B05D0059B082B02D0AF
:109804000598FFF78DFF0A4B5B69002B0BD00023F3
:109814008DF80C30079B9BB2ADF80E30044B5B699E
:1098240003AA1046984700BF09B05DF804FB00BFC7
:109834002C28002030B587B00190019B002B01D16A
:109844000E2353E02B4A019B14461D460FCD0FC433
:1098540095E8070084E80700264B274A1A60019B15
:109864001B68002B11D0019B1B681846FFF7A3FE51
:109874000490049B002B01D0049B37E0019B1A68E1
:109884001D4B1068516803C308E01B48FFF797FE9F
:109894000490049B002B01D0049B27E00023059334
:1098A40020E0059A13469B0013449B00134A13447B
:1098B40003930398FFF7CAFE059B5B01104A1A4401
:1098C400039B5A60039B04330E4A0021184609F097
:1098D400ADFA0490049B002B01D0032306E0059B02
:1098E40001330593059B002BDBD00023184607B0FA
:1098F40030BD00BF2C280020482800201828002054
:10990400F82700208997020000B587B0034600912C
:10991400ADF80630009B5B7A002B1AD1009B1B7AB2
:10992400002B03D1164B5B68059302E0144B9B6834
:109934000593009B5B68BDF806200599184609F05D
:10994400AFFA0490049B002B16D00498FFF7E8FEAE
:1099540012E0009B00221A72094B5B69002B0BD0AA
:1099640001238DF80C30BDF80630ADF80E30044BF1
:109974005B6903AA1046984700BF07B05DF804FB73
:109984002C28002000B585B00190019BDB7B8DF86D
:109994000F30019B9B88ADF80C309DF80F30012BE4
:1099A4002CD14FF6FF70FFF70FFE0290029B002BA5
:1099B40003D10420FFF7B4FE21E0BDF80C301946B2
:1099C4000298FFF729FE029B03F10A00019B03F1B1
:1099D40010014FF6FF7340F2F312FFF740FE034607
:1099E4001A46029B5A72074BDB89002B07D1BDF83C
:1099F4000C3002991846FFF787FF00E000BF05B05E
:109A04005DF804FB2C28002000B587B00190019B71
:109A14009B88ADF81630BDF816301846FFF7D4FD14
:109A24000490049B002B0ED0049B5B68184609F03D
:109A34008FFA0390039B002B02D00398FFF770FE6C
:109A44000498FFF703FE00BF07B05DF804FB0000B5
:109A540000B587B00190019B06330593059B1A88D6
:109A6400194BDB899A422BD1059B5B89022B27D1A9
:109A7400019B9B88ADF81230BDF812301846FFF7F1
:109A8400A3FD0390039B002B1AD0059B0C331846AF
:109A940000F083FB0346002B06D0BDF81230039977
:109AA4001846FFF731FF0BE0039B5B68184609F08B
:109AB4004FFA0290029B002B02D00298FFF730FE6F
:109AC40000BF07B05DF804FB2C28002000B585B06A
:109AD4000190019B9B88ADF80E30BDF80E301846FE
:109AE400FFF772FD0290029B002B15D0029B03F13D
:109AF4000A00019B03F108014FF6FF7340F2F312D1
:109B0400FFF7ADFD03461A46029B5A72BDF80E30AC
:109B140002991846FFF7F8FE00BF05B05DF804FB94
:109B240000B583B001900091019B1B88502B12D08B
:109B3400502B18DC122B12D0122B14DC102B02D059
:109B4400112B04D00FE00198FFF71CFF0CE00198E3
:109B5400FFF75AFF08E00198FFF77AFF04E0019845
:109B6400FFF7B4FF00E000BF00BF03B05DF804FBE3
:109B740030B58FB00190009100230293009B002B1D
:109B84001AD000230D9314E06B460D9918460BF080
:109B9400AEFB0346002B09D0029B5A1C02920D9A7D
:109BA40092B25B0038336B4423F82C2C0D9B0133A9
:109BB4000D930D9B132BE7D9019B1D4602AC0FCCD3
:109BC4000FC50FCC0FC594E8070085E8070001987E
:109BD4000FB030BD00B583B00346ADF80630BDF814
:109BE4000630132B01D900230CE0BDF806301946CA
:109BF40006480BF027FBBDF80630194604480BF065
:109C040021FB0123184603B05DF804FB582800200B
:109C14005428002000B585B00346ADF80630002373
:109C240003930DE0039B9B00094A13440433BDF8DE
:109C34000620114618460BF041FB039B01330393A6
:109C4400039B1D2BEED900BF00BF05B05DF804FBDC
:109C54005028002000B583B00346ADF80630BDF8A7
:109C64000630194603480BF029FB00BF03B05DF82A
:109C740004FB00BF5828002030B59BB0184B9B68EC
:109C8400DB431893164B5A6818AB114618460BF071
:109C940004FC189A6B4611461846FFF769FF0DAC91
:109CA4006D460FCD0FC40FCD0FC495E8070084E8AF
:109CB4000700002319930BE0199B5B0068336B4486
:109CC40033F8303C1846FFF7A5FF199B013319936D
:109CD4000D9B199A9A42EFD300BF00BF1BB030BD51
:109CE4005028002000B583B003468DF807309DF856
:109CF4000730194603480BF0FAFA0346184603B036
:109D04005DF804FB5028002000B583B001900B4699
:109D1400ADF8023013468DF801309DF80130002B68
:109D240006D0BDF80230194601980BF08BFA05E015
:109D3400BDF80230194601980BF0C0FA00BF03B019
:109D44005DF804FB00B585B001900091019B9B88F0
:109D5400ADF80E30019B1B88103B0A2B00F2888063
:109D640001A252F823F000BF999D0200D59D020084
:109D7400759E0200759E0200759E0200759E02008B
:109D8400759E0200759E0200759E02003F9E0200B1
:109D9400E19D0200FFF770FFBDF80E301846FFF793
:109DA40019FF034683F00103DBB2002B05D0324ACE
:109DB400F021042008F04CFC57E0019BDB7B022BD4
:109DC40053D1BDF80E3019462C480BF03BFA4CE049
:109DD400BDF80E301846FFF73DFF49E0019B1B7AA2
:109DE400C3F30313DBB28DF80D309DF80D30032B54
:109DF4008CBF01230023DAB2BDF80E301946204887
:109E0400FFF782FF9DF80D30022B8CBF0123002346
:109E1400DAB2BDF80E3019461A48FFF775FF9DF8FF
:109E24000D30012B8CBF01230023DAB2BDF80E30B4
:109E340019461548FFF768FF1AE0019B1B7A002BAF
:109E440015D1019B5B7AC3F3C003DBB2002B14BFB3
:109E5400012300238DF80C309DF80C20BDF80E3042
:109E640019460748FFF750FF01E000BF00E000BFBC
:109E740000BF05B05DF804FBA09003005C2800203F
:109E840068280020642800206028002000B583B0E2
:109E94000346ADF80630BDF80630132B01D9002374
:109EA40006E0BDF80630194603480BF020FA0346D5
:109EB400184603B05DF804FB5428002000B585B0B3
:109EC4000346ADF8063000238DF80F30BDF8063098
:109ED4001846FFF7DBFF0346002B11D0BDF8063010
:109EE40019460A480BF003FA03468DF80E309DF824
:109EF4000E30002B01D0022300E001238DF80F3037
:109F04009DF80F30184605B05DF804FB5C2800206E
:109F140000B585B00346ADF8063000238DF80F3048
:109F2400BDF806301846FFF7B1FF0346002B11D0E9
:109F3400BDF8063019460A480BF0D9F903468DF8E6
:109F44000E309DF80E30002B01D0022300E00123D7
:109F54008DF80F309DF80F30184605B05DF804FBFE
:109F64005828002000B583B00346ADF80630BDF88C
:109F740006301846FFF78AFF0346002B07D0BDF8CA
:109F84000630194604480BF0B2F9034600E00023FA
:109F9400184603B05DF804FB6028002000B583B0C8
:109FA4000346ADF80630BDF806301846FFF76EFFDD
:109FB4000346002B07D0BDF80630194604480BF0C1
:109FC40096F9034600E00023184603B05DF804FB4D
:109FD4006428002000B583B00346ADF80630BDF810
:109FE40006301846FFF752FF0346002B07D0BDF892
:109FF4000630194604480BF07AF9034600E00023C2
:10A00400184603B05DF804FB6828002000B583B04F
:10A0140003460A46ADF8063013468DF805309DF820
:10A0240005301846FFF75EFE0346002B16D0BDF838
:10A0340006301846FFF72AFF0346002B0ED09DF882
:10A04400053006339B00084A13440433BDF8062048
:10A05400114618460BF04BF9034600E0002318465E
:10A0640003B05DF804FB00BF5028002000B583B0A6
:10A074000346ADF806300B468DF8053013468DF8CF
:10A0840004309DF805301846FFF72CFE0346002BDC
:10A0940015D0BDF806301846FFF7F8FE0346002B2E
:10A0A4000DD09DF8053006339B00074A1344043352
:10A0B4009DF80420BDF806101846FFF725FE00BFE2
:10A0C40003B05DF804FB00BF5028002000B587B042
:10A0D400039002910192029B002B01D100231FE007
:10A0E40000230593039B002B19D00023049313E052
:10A0F40003AB049918460BF0FAF80346002B08D07A
:10A10400049B9AB2029B019910469847059B013320
:10A114000593049B01330493049B132BE8D9059BFB
:10A12400184607B05DF804FB00B585B003460291FC
:10A1340001928DF80F309DF80F301846FFF7D2FDCD
:10A14400034683F00103DBB2002B01D000230CE0B3
:10A154009DF80F30074A06339B0013445B68019A4D
:10A1640002991846FFF7B2FF0346184605B05DF89A
:10A1740004FB00BF5028002082B00190019B1B7893
:10A184001AB2019B01331B781BB21B021BB213438F
:10A194001BB29BB2184602B0704700B585B001905F
:10A1A4000198FFF7E9FF0346ADF80E30BDF80E3015
:10A1B40003F00103002B14BF01230023DBB2184674
:10A1C40005B05DF804FBA0DF704700BF1846A1DFAF
:10A1D400704700BF1846ADDF704700BF1846B3DFB5
:10A1E400704700BF1846B4DF704700BF1846000030
:10A1F40000B585B00190019B002B03D10A4985204D
:10A204000AF008FF012101980BF0E8F80390BFF36E
:10A214005F8F00BF039B002B0CBF01230023DBB225
:10A22400184605B05DF804FBDC90030000B583B06C
:10A234000190019B002B03D10A4992200AF0EAFE07
:10A24400019B1B68012B03D0064993200AF0E2FE10
:10A25400BFF35F8F00BF019B00221A6000BF03B0F1
:10A264005DF804FBDC90030000B585B00190019B10
:10A274005B88184601F05AFA03461A46019B9A80F5
:10A284000023039308E0084A039B52F82330019803
:10A294009847039B01330393039B002BF3D000BF28
:10A2A40000BF05B05DF804FBCC22002082B0019011
:10A2B400019B9B79012B0BD1019B1B79012B07D1AE
:10A2C400019B5B8842F60212934201D1012300E014
:10A2D400002303F00103DBB2184602B0704700B557
:10A2E40089B003460091ADF8063003AB00221A6032
:10A2F4005A609A60DA601A6108238DF80C30BDF850
:10A304000630ADF80E30009B059303AB1846FFF7FB
:10A31400ABFF00BF09B05DF804FB000010B58AB0C4
:10A324000346ADF8063000238DF8273003AB002236
:10A334001A605A609A60DA601A61BDF80630ADF8A6
:10A344000E30BDF806304FF6FF72934261D0BDF86F
:10A354000630184600F034FF0890089B43F20202CE
:10A3640093424BD0089B43F2020293422DD8089BA0
:10A37400112B11D0089B112B27D8089B002B03D03D
:10A38400089B0B2B0CD020E00F238DF80C3003AB73
:10A394001846FFF769FF32E001238DF827302EE0DD
:10A3A40010238DF80C301C4A1C4BD31ADB081B04F9
:10A3B40043F00203BDF80620194918460DF0FAF9D6
:10A3C40003AB1846FFF750FF19E0134A134BD31A97
:10A3D400DB081B0443F0010408980CF0A7FC0346B7
:10A3E4001A46BDF806300F4920460DF0F4F9BDF8C1
:10A3F400063008991846FFF772FF00E000BF0A4BC9
:10A4040019789DF82720BDF806301846FFF72EFE70
:10A4140000E000BF0AB010BD8C8E0300148E030050
:10A4240028910300A8910300D128002000B583B02F
:10A4340003460A46ADF8063013468DF80530064B40
:10A4440019789DF80520BDF806301846FFF70EFE72
:10A4540000BF03B05DF804FBD028002010B58AB01B
:10A464000346ADF8063000238DF8273000238DF81D
:10A474002630BDF80630184600F0BAFD0890089B57
:10A4840043F20202934258D0089B43F202029342E1
:10A494003AD8089B862B17D0089B862B34D8089B68
:10A4A400112B0DD0089B112B2ED8089B002B03D009
:10A4B400089B0B2B41D027E001238DF826303DE08B
:10A4C40001238DF8273039E003AB00221A605A606B
:10A4D4009A60DA601A6107238DF80C30BDF80630F3
:10A4E400ADF80E301C4A1D4BD31ADB081B0443F095
:10A4F4000203BDF806201A4918460DF05BF903ABB8
:10A504001846FFF7B1FE19E0134A144BD31ADB08BF
:10A514001B0443F0010408980CF008FC03461A4697
:10A52400BDF806300F4920460DF055F9BDF8063048
:10A5340008991846FFF7D3FE00E000BF9DF82720D6
:10A54400BDF8063011461846FFF770FF9DF8263017
:10A5540018460AB010BD00BF8C8E0300148E030091
:10A56400FC9103003492030000B589B003460091C6
:10A57400ADF8063000238DF81F300DF11603184690
:10A58400FFF72DFE0690069B002B04D02A494FF4BA
:10A5940099700AF03FFD0123ADF81C3040E002231E
:10A5A400ADF808300023ADF80A3004AB039304A9D6
:10A5B400BDF81C3000221846FFF715FE0690069BD6
:10A5C400002B01D0069B32E09DF81F3083F001037D
:10A5D400DBB2002B09D0BDF8103042F605229342BD
:10A5E40003D101238DF81F3015E09DF81F30002B97
:10A5F40011D0BDF8103042F6021293420BD1009BE9
:10A60400039302AABDF81C10BDF806301846FFF7E4
:10A61400E2FD03460BE0BDF81C300133ADF81C30FD
:10A62400BDF81630BDF81C209A42B8D3052318464D
:10A6340009B05DF804FB00BF7492030010B58AB042
:10A644000346ADF8063001238DF8273000238DF83A
:10A654002630BDF80630184600F062FE0890089BCC
:10A6640043F2014293426AD0089B43F2014293426F
:10A674006BD8089B112B29D8089B112B65D801A2F4
:10A6840052F823F0DDA602004FA702004FA70200F4
:10A694004FA702004FA702004FA7020029A70200FC
:10A6A4004FA7020009A702004FA702004FA702000C
:10A6B4004FA702004FA702004FA702004FA70200B6
:10A6C4004FA702004FA7020081A70200089B43F294
:10A6D4000202934254D038E003AB00221A605A605D
:10A6E4009A60DA601A6111238DF80C30BDF80630D7
:10A6F400ADF80E3001238DF8263003AB1846FFF772
:10A70400B3FD3EE00DF10A02BDF8063011461846CD
:10A71400FFF72AFF0890089B002B03D1BDF80A30ED
:10A72400002B2ED100238DF82730BDF806301846B3
:10A7340000F0FCFF0346184600F03AFE21E0BDF8A5
:10A7440006301846FFF7EAFD1BE0184A184BD31AE7
:10A75400DB081B0443F0010408980CF0E7FA0346F5
:10A764001A46BDF80630134920460DF034F8BDF8FA
:10A77400063008991846FFF7B2FD02E000BF00E07A
:10A7840000BF0D4B19789DF82720BDF806301846F8
:10A79400FFF76CFC094B19789DF82620BDF80630AC
:10A7A4001846FFF763FC00BF0AB010BD8C8E03008F
:10A7B400148E0300B8920300D2280020D32800206E
:10A7C40000B583B003460091ADF80630BDF80630FD
:10A7D4001846FFF7A3FD00BF03B05DF804FB0000BB
:10A7E40008B5044B1B78002203491846FFF79CFC6C
:10A7F40000BF08BDD1280020C5A7020000B583B062
:10A8040003460091ADF806300A48FFF7F1FC034611
:10A81400002B0CD0BDF806301846FFF71FFE034688
:10A82400002B03D10348FFF701FD00E000BF03B094
:10A834005DF804FBCC28002000B583B003460091EA
:10A84400ADF806300B4B1A78BDF8063011461846A1
:10A85400FFF7DCFB034683F00103DBB2002B04D0DB
:10A86400BDF806301846FFF7E9FE00BF03B05DF8F7
:10A8740004FB00BFD328002008B5044B1B7800223A
:10A8840003491846FFF750FC00BF08BDD22800203A
:10A894003DA8020000B583B00346ADF80630BDF80C
:10A8A4000630184600F018FD0346002B07D0064B6F
:10A8B4001978BDF8063001221846FFF7D7FB00BF10
:10A8C40003B05DF804FB00BFD228002000B587B0B8
:10A8D40003460091ADF8063004AB0422002118466B
:10A8E4000EF0B4F942F6A623ADF8103001238DF82A
:10A8F40012300D4B1B68039303AA04A9BDF806305C
:10A904001846FFF760FC0590059B002B07D1074B09
:10A914001978BDF8063001221846FFF7A7FB00BFDF
:10A9240007B05DF804FB00BFF8920300D5280020AF
:10A9340000B585B00346ADF80630BDF806301846BC
:10A9440000F0F4FE0346184602AA0023092101F090
:10A954000AFE0346052B07D1054B1978BDF80630CE
:10A9640001221846FFF782FB00BF05B05DF804FB27
:10A97400D428002000B583B00B4B1B7800220B4970
:10A984001846FFF7D1FB0190019B002B07D1084B20
:10A994001B78002207491846FFF7C6FB019000BF49
:10A9A40003B05DF804FB00BFD028002001A802001A
:10A9B400D4280020D1A8020000B583B00190019BE7
:10A9C4001B78002B11D1019B5B881846FFF7A6FC6E
:10A9D400019B5B881846FFF75DFF019B5B88184667
:10A9E400FFF7A6FFFFF7C6FF00E000BF00BF03B0FC
:10A9F4005DF804FB00B589B00190019B1B78092B1D
:10AA04005ED1019B5B7A002B5AD1019B1B7A082BE8
:10AA140047D0082B4DDC012B1BD0072B49D1019BC0
:10AA24009B88184600F02CFF0346ADF81E30BDF895
:10AA34001E304FF6FF7293423DD0BDF81E30012107
:10AA44001846FFF7F3FCBDF81E301846FFF770FFF9
:10AA540031E0019B9B8803AA0121184602F0CCFA3D
:10AA64000690069B002B28D1049B1B78002B24D036
:10AA7400019B9B88184600F003FF0346ADF816308F
:10AA8400BDF816304FF6FF72934216D00F4B19786B
:10AA9400BDF8163001221846FFF7E8FAFFF7ECFE7E
:10AAA4000BE00B4B1B68012B09D10948FFF7BEFBD8
:10AAB40005E000BF04E000BF02E000BF00E000BF0B
:10AAC400FFF758FF00BF09B05DF804FBD22800204F
:10AAD400CC28002010B586B003460A46ADF80630EF
:10AAE40013468DF8053003AB00221A605A60012327
:10AAF400ADF80C3009238DF80E30194B1978BDF8D8
:10AB0400063000221846FFF7B1FA9DF80530002BF5
:10AB140001D0144B00E0144B0493BDF806301846E2
:10AB240000F004FE0346184603AB0022194601F068
:10AB3400E1FD0590059B002B0FD00C4A0C4BD31A5A
:10AB4400DB081B0443F0020405980CF0EFF80346FD
:10AB54001A46084920460CF02DFE00BF06B010BD71
:10AB6400D428002080940300849403008C8E030076
:10AB7400148E03006C93030000B58DB00190019B0B
:10AB84009B88ADF82C30019B1B88353B1F2B00F2B2
:10AB9400688101A252F823F0ADAC0200AFAD02000F
:10ABA40067AE020067AE020067AE020067AE020045
:10ABB40067AE020067AE020067AE020067AE020035
:10ABC40067AE020067AE020067AE020067AE020025
:10ABD40067AE020067AE020067AE020067AE020015
:10ABE40067AE020067AE020067AE020067AE020005
:10ABF40067AE020067AE020067AE020067AE0200F5
:10AC040067AE020089AC020067AE02001DAC020010
:10AC140067AE020029AC0200BDF82C301846FFF7DD
:10AC24007DFB1EE103AB00221A605A609A60DA6071
:10AC34001A6112238DF80C30BDF82C30ADF80E30AB
:10AC4400BDF82C30184600F071FD0346ADF8103005
:10AC5400BDF81030184600F0ABFB864B1978BDF8F0
:10AC64002C3000221846FFF701FA834B1978BDF8FF
:10AC74002C3000221846FFF7F9F903AB1846FFF70A
:10AC8400F3FAEEE0019B06331846FFF70FFB034689
:10AC9400002B00F0DF80BDF82C3001211846FFF7AF
:10ACA400C5FBFFF767FED5E000238DF82F30019B2D
:10ACB4009B88ADF82C30019B0A3309936F4B1A78AB
:10ACC400BDF82C3011461846FFF7A0F9034683F06F
:10ACD4000103DBB2002B40F0BF80684B1978BDF84C
:10ACE4002C3000221846FFF7C1F9019BDB88B3F52D
:10ACF400857F4CD0019BDB88002B0DD0604A614BD3
:10AD0400D31ADB081B0443F00200019BDB881A46BC
:10AD14005D490CF04FFD3AE0099B1B88012B0CD0D8
:10AD2400574A584BD31ADB081B0443F00200099B13
:10AD34001B881A4655490CF03DFD099B5B88012B85
:10AD44000DD04F4A4F4BD31ADB081B0443F00200CB
:10AD5400099B5B881A464E490CF02CFD17E0099BB1
:10AD640004331988BDF82C3000221846FFF72FFA57
:10AD74000890089B002B0AD101238DF82F30454BF6
:10AD84001978BDF82C3001221846FFF76FF99DF8A9
:10AD94002F3083F00103DBB2002B5FD0BDF82C30E1
:10ADA40000211846FFF796FE58E000238DF82E3058
:10ADB400019B9B88ADF82C30019B0A330A93354BD9
:10ADC4001A78BDF82C3011461846FFF71FF90346D0
:10ADD40083F00103DBB2002B42D12E4B1978BDF86E
:10ADE4002C3000221846FFF741F9019BDB88002B29
:10ADF4000DD0234A234BD31ADB081B0443F0020073
:10AE0400019BDB881A4620490CF0D4FC19E00A9B0C
:10AE14009B88012B0DD01A4A1A4BD31ADB081B044A
:10AE240043F002000A9B9B881A4619490CF0C2FCA5
:10AE340007E00A9B9B79002B14BF012300238DF8A4
:10AE44002E309DF82E20BDF82C3011461846FFF701
:10AE540041FE06E000BF04E000BF02E000BF00E0E6
:10AE640000BFFFF7BDFCFFF707FD00BF0DB05DF8A5
:10AE740004FB00BFD3280020D2280020D5280020BE
:10AE84008C8E0300148E0300CC93030008940300FB
:10AE940044940300D6280020AFDF704700BF184653
:10AEA400B1DF704700BF1846B2DF704700BF1846D5
:10AEB400B3DF704700BF184600B585B00190019B11
:10AEC4009B88184600F0DCFC03461A46019B5A8016
:10AED4000023039308E0084A039B52F823300198A7
:10AEE4009847039B01330393039B002BF3D000BFCC
:10AEF40000BF05B05DF804FBD022002010B588B077
:10AF04002D4A05AB92E8030083E8030048E02B4B8D
:10AF14001B8805A90022184601F0ECFB0790079B4B
:10AF2400002B34D06B4600221A605A609A60DA60B3
:10AF34001A61224B1B88ADF80430079B112B36D0C5
:10AF4400079B862B07D107238DF800306B461846E4
:10AF5400FFF7B2FF2BE01A4A1A4BD31ADB081B0483
:10AF640043F0010407980BF0E1FE03461A46134B25
:10AF74001B88154920460CF02EFC08238DF8003060
:10AF8400079B02936B461846FFF796FF0FE00B4BA7
:10AF94001B88184601F07EFC03461A46074B1A80AC
:10AFA400064B1B884FF6FF729342B0D100E000BFFE
:10AFB40000BF08B010BD00BFF4940300D8280020DF
:10AFC400948E0300148E03009C94030000B583B098
:10AFD4000190064B1B884FF6FF72934201D0FFF796
:10AFE4008DFF00BF03B05DF804FB00BFD82800202C
:10AFF40030B58DB00346ADF80630BDF806301846BE
:10B0040000F094FB0346ADF82630BDF826304FF629
:10B01400FF72934202D143F20203C5E00123ADF86B
:10B024002A3000238DF8293000238DF82930BDF80B
:10B034002A305A1CADF82A201A4604ABBDF8260063
:10B04400082101F0EFFF0B900B9B002B40F0A18037
:10B05400059B0893089B03221A60089B991D089B73
:10B064001A1D089B1B68BDF80600FFF71DFF0B9017
:10B074000B9B002B62D102AABDF82630082118468A
:10B0840001F0BAFF0B900B9B002B16D00B9B052BEA
:10B0940013D0474A474BD31ADB081B0443F001047F
:10B0A4000B980BF043FE03461A46BDF8063042499E
:10B0B40020460CF090FB032376E00B9B052B11D06C
:10B0C400089B9A88039B9B889A420BD1089B981DE6
:10B0D400039B991D089B9B881A460DF049FD034666
:10B0E400002B09D0BDF82620BDF8263008211846CB
:10B0F40002F057F80B9051E0BDF8263008211846AD
:10B1040002F030F80690069B002B02D10B230B9320
:10B1140044E0274A274BD31ADB081B0443F00104FD
:10B12400BDF8265006980BF001FE03462A46234933
:10B1340020460CF050FB03230B932FE00B9B0C2BAE
:10B1440003D101238DF8293004E00B9B052B01D199
:10B1540000230B93BDF826300821184602F002F8AC
:10B164000790079B002B19D0114A124BD31ADB0806
:10B174001B0443F00104BDF8265007980BF0D6FDDC
:10B1840003462A460D4920460CF025FB03230B9366
:10B1940004E00B9B072B01D10C230B939DF8293062
:10B1A400002B7FF441AF0B9B18460DB030BD00BFA0
:10B1B400948E0300148E0300FC9403003495030062
:10B1C40000B58BB00346ADF80630BDF8063018461E
:10B1D40000F0ACFA0346ADF81430002308930023C2
:10B1E400ADF81E300323069301238DF81730BDF804
:10B1F40014304FF6FF72934216D002AABDF81430F1
:10B204000821184601F0F8FE0990099B002B0BD188
:10B21400039B0493049B06330893049B9B88ADF81B
:10B224001E30049B1B680693BDF81E20BDF8060063
:10B23400069B0899FFF734FE0990099B042B02D161
:10B244001123099331E0099B082B02D100230993B0
:10B254002BE0099B0B2B28D100238DF81730069B7C
:10B2640003F00203002B02D0012306931DE0089B88
:10B27400002B03D1BDF81E30002B07D00023089308
:10B284000023ADF81E30032306930EE00F4A104B43
:10B29400D31ADB081B0443F00103BDF806200D4953
:10B2A40018460CF087FA03230993099B0B2BBBD098
:10B2B4009DF8173083F00103DBB2002B01D00B2380
:10B2C4000993099B18460BB05DF804FB948E0300A8
:10B2D400148E0300B495030000B589B00346ADF89D
:10B2E40006300DF117030493BDF80630184600F03C
:10B2F4001DFA0346ADF81E3003AABDF81E30012125
:10B30400184601F079FE0690069B002B01D000231D
:10B3140001E0049B1B78184609B05DF804FB0000AB
:10B3240010B584B00346ADF806304FF6FF73ADF8A0
:10B334000E301B48FFF7BCFD0290029B002B11D07E
:10B34400184A194BD31ADB081B0443F00104029872
:10B354000BF0ECFC03461A46144920460CF02AFA7A
:10B3640003231AE00E4B1988BDF80E20BDF80630F1
:10B374001846FFF791FD0290029B43F203029342A9
:10B3840005D1074B1B8801339AB2054B1A80029BE7
:10B3940043F203029342E5D0029B184604B010BD69
:10B3A400DA280020948E0300148E03002C960300E8
:10B3B40000B585B00346ADF80630084A02AB92E802
:10B3C400030083E8030002A9BDF8063000221846F2
:10B3D40001F090F900BF05B05DF804FB7896030016
:10B3E40046DF704700BF184600B585B001900023C2
:10B3F400039308E0084A039B52F8233001989847C6
:10B40400039B01330393039B012BF3D900BF00BFBC
:10B4140005B05DF804FB00BF8897030084B0019079
:10B42400002303930AE0019A039B13441B78002B27
:10B4340001D0012306E0039B01330393039B0F2BED
:10B44400F1D90023184604B0704700B583B00190C9
:10B454000091019B002B02D0009B002B01D1002303
:10B464001BE0019B1B78C3F34603DAB2009B1B78F5
:10B47400C3F34603DBB29A4201D000230DE0019BE3
:10B48400581C009B0133062219460DF071FB03463C
:10B49400002B0CBF01230023DBB2184603B05DF878
:10B4A40004FB000030B597B00190019B1B88102B62
:10B4B40040F09180019B0AAC1D1D0FCD0FC40FCD30
:10B4C4000FC495E8070084E807004FF6FF73ADF852
:10B4D40056309DF82C3023F00103DBB2062B47D005
:10B4E40001F0AAF89DF82C30C3F34603DBB2012B1C
:10B4F40002DC002B15DA3BE0022B2ED038E0089B4F
:10B5040003F111020AAB043311461846FFF79DFFFD
:10B514000346002B05D0BDF82630ADF8563000BFE9
:10B5240026E007AA0DF126031946072001F08EF83C
:10B534000346002BE3D11BE0089B5A1C0AAB0433DF
:10B544001146184600F08FFA0346002B05D0BDF8CB
:10B554002630ADF8563000BF09E007AA0DF12603E6
:10B564001946072001F072F80346002BE4D100BF0E
:10B57400BDF828301946194A0B469B000B445B0062
:10B584001344BDF856201A80BDF828301946134AD2
:10B594000B469B000B445B00134402330BAA106858
:10B5A40018609188927999809A71BDF856304FF657
:10B5B400FF72934210D0BDF82830ADF80A30BDF8C0
:10B5C4005630ADF80C3000238DF8083002AB184625
:10B5D400FFF70AFF00E000BF17B030BDDC280020F1
:10B5E40000B587B001900091019B11330593009B36
:10B5F40011330493019B581C009B013310221946FC
:10B604000DF0B6FA0346002B11D1019B0133184605
:10B61400FFF704FF0346002B09D0009B01331846B3
:10B62400FFF7FCFE0346002B01D0012300E00023BA
:10B634008DF80F309DF80F3003F001038DF80F30B3
:10B6440004990598FFF701FF03468DF80E30059B1A
:10B654001B7823F00103DBB2042B16D0059B1B7867
:10B6640023F00103DBB2062B0FD0049B1B7823F0DD
:10B674000103DBB2042B08D0049B1B7823F00103E5
:10B68400DBB2062B01D0012300E000238DF80D303E
:10B694009DF80D3003F001038DF80D309DF80E3048
:10B6A400002B03D09DF80D30002B0AD19DF80F30EC
:10B6B400002B08D09DF80D3083F00103DBB2002B82
:10B6C40001D0012300E0002303F00103DBB218469C
:10B6D40007B05DF804FB00B587B001900B46ADF8E8
:10B6E400023000F0A9FF10E0BDF81630BDF80220CA
:10B6F4009A420AD0049B19460198FFF771FF03464A
:10B70400002B02D0BDF816300BE003AA0DF116038E
:10B714001946072000F09AFF0346002BE4D14FF6A8
:10B72400FF73184607B05DF804FB000000B583B052
:10B734000346ADF80630BDF80630132B0AD8BDF821
:10B7440006301846FEF7A2FB034683F00103DBB282
:10B75400002B02D04FF6FF7308E0BDF80620054920
:10B7640013469B0013445B000B441B88184603B02C
:10B774005DF804FBDC28002000B583B0034600918B
:10B78400ADF80630BDF80630132B0AD8BDF80630E4
:10B794001846FEF77BFB034683F00103DBB2002B64
:10B7A40002D043F2020311E0BDF8062000980949D3
:10B7B40013469B0013445B000B4402460233196892
:10B7C400116099889B79918093710023184603B086
:10B7D4005DF804FBDC28002000B583B001900091E3
:10B7E400019800F089F8034683F00103DBB2002BD3
:10B7F40001D0002315E0019B1A88009B1B889A4204
:10B8040001D000230DE0019B981C009B0233082209
:10B8140019460DF0ADF90346002B0CBF012300239C
:10B82400DBB2184603B05DF804FB00B587B00190A5
:10B8340000F002FF14E0049B463319460198FFF719
:10B84400CBFF0346002B08D1049B2A3319460198E9
:10B85400FFF7C2FF0346002B02D0BDF816300BE001
:10B8640003AA0DF116031946072000F0EFFE034664
:10B87400002BE0D14FF6FF73184607B05DF804FBC8
:10B8840000B585B00346ADF80630BDF806304FF676
:10B89400FF72934202D14FF6FF7326E00023ADF806
:10B8A4000E301CE0BDF80E20124913469B001344D1
:10B8B4005B000B441B88BDF806209A420AD1BDF8F0
:10B8C4000E301846FEF7E2FA0346002B02D0BDF80C
:10B8D4000E300AE0BDF80E300133ADF80E30BDF87D
:10B8E4000E30132BDED94FF6FF73184605B05DF802
:10B8F40004FB00BFDC28002084B00190019B1B885E
:10B90400002B01D0012312E0002303930BE0019AE2
:10B91400039B134402331B78002B01D0012306E060
:10B92400039B01330393039B072BF0D90023184691
:10B9340004B0704782B003460A46ADF80630134699
:10B94400ADF80430BDF80630132B0AD8BDF8062034
:10B95400054913469B0013445B000B44BDF80420C7
:10B964001A8000BF02B07047DC28002000B585B003
:10B974000346ADF80630BDF806301846FFF780FFE1
:10B984000346ADF80E30BDF80630184601F0C2FA91
:10B994000290029B002B0ED1BDF80E30132B0AD857
:10B9A400BDF80E20064913469B0013445B000B446C
:10B9B4004FF6FF721A80029B184605B05DF804FB2F
:10B9C400DC28002000B595B0039002910192002379
:10B9D40013930DE0139BC3F10F03039A13441978D7
:10B9E40005AA139B13440A461A70139B013313933D
:10B9F400139B0F2BEED905AB10330D2200211846F3
:10BA04000DF024F9002312930DE0029A129B1A44BC
:10BA1400129BC3F10F03127850336B4403F82C2CA0
:10BA2400129B01331293129B022BEED905AB1846DD
:10BA3400FFF7D6FC002311930DE0119BC3F10F0215
:10BA44000199119B0B4450326A4412F81C2C1A7051
:10BA5400119B01331193119B022BEED900BF00BF40
:10BA640015B05DF804FB00B587B001900091019B0F
:10BA74001B7823F00103DBB2042B01D000231FE069
:10BA8400019B5A1C05AB1188927819809A70019B0E
:10BA94001A1D03AB1188927819809A70009B04AA2E
:10BAA40003A91846FFF78EFF04A905AB0322184625
:10BAB4000DF05EF80346002B0CBF01230023DBB21C
:10BAC400184607B05DF804FB90DF704700BF1846C6
